{
  "contractName": "Donation",
  "abi": [
    {
      "inputs": [],
      "stateMutability": "nonpayable",
      "type": "constructor"
    },
    {
      "inputs": [
        {
          "internalType": "address",
          "name": "",
          "type": "address"
        }
      ],
      "name": "addressToFunded",
      "outputs": [
        {
          "internalType": "uint256",
          "name": "",
          "type": "uint256"
        }
      ],
      "stateMutability": "view",
      "type": "function",
      "constant": true
    },
    {
      "inputs": [
        {
          "internalType": "uint256",
          "name": "",
          "type": "uint256"
        }
      ],
      "name": "funders",
      "outputs": [
        {
          "internalType": "address",
          "name": "",
          "type": "address"
        }
      ],
      "stateMutability": "view",
      "type": "function",
      "constant": true
    },
    {
      "inputs": [],
      "name": "owner",
      "outputs": [
        {
          "internalType": "address",
          "name": "",
          "type": "address"
        }
      ],
      "stateMutability": "view",
      "type": "function",
      "constant": true
    },
    {
      "inputs": [
        {
          "internalType": "address payable",
          "name": "recipient",
          "type": "address"
        }
      ],
      "name": "transferFunds",
      "outputs": [],
      "stateMutability": "payable",
      "type": "function",
      "payable": true
    },
    {
      "inputs": [],
      "name": "balance",
      "outputs": [
        {
          "internalType": "uint256",
          "name": "",
          "type": "uint256"
        }
      ],
      "stateMutability": "view",
      "type": "function",
      "constant": true
    },
    {
      "inputs": [],
      "name": "getPriceData",
      "outputs": [
        {
          "internalType": "uint256",
          "name": "",
          "type": "uint256"
        }
      ],
      "stateMutability": "view",
      "type": "function",
      "constant": true
    },
    {
      "inputs": [],
      "name": "getVersion",
      "outputs": [
        {
          "internalType": "uint256",
          "name": "",
          "type": "uint256"
        }
      ],
      "stateMutability": "view",
      "type": "function",
      "constant": true
    },
    {
      "inputs": [
        {
          "internalType": "uint256",
          "name": "ethAmount",
          "type": "uint256"
        }
      ],
      "name": "convertETHToUSD",
      "outputs": [
        {
          "internalType": "uint256",
          "name": "",
          "type": "uint256"
        }
      ],
      "stateMutability": "view",
      "type": "function",
      "constant": true
    },
    {
      "inputs": [
        {
          "internalType": "uint256",
          "name": "usdAmount",
          "type": "uint256"
        }
      ],
      "name": "convertUSDToETH",
      "outputs": [
        {
          "internalType": "uint256",
          "name": "",
          "type": "uint256"
        }
      ],
      "stateMutability": "view",
      "type": "function",
      "constant": true
    },
    {
      "inputs": [],
      "name": "withdraw",
      "outputs": [],
      "stateMutability": "payable",
      "type": "function",
      "payable": true
    }
  ],
  "bytecode": "0x608060405234801561000f575f80fd5b5073694aa1769357215de4fac081bf1f309adc32530660035f6101000a81548173ffffffffffffffffffffffffffffffffffffffff021916908373ffffffffffffffffffffffffffffffffffffffff1602179055503360015f6101000a81548173ffffffffffffffffffffffffffffffffffffffff021916908373ffffffffffffffffffffffffffffffffffffffff160217905550610d78806100b15f395ff3fe608060405260043610610090575f3560e01c8063a4a2816811610058578063a4a281681461016a578063b69ef8a814610194578063dc0d3dff146101be578063e39ff19f146101fa578063faf4acac1461021657610090565b80630d8e6e2c146100945780633be0dcb8146100be5780633ccfd60b146100fa5780634c2bf9c2146101045780638da5cb5b14610140575b5f80fd5b34801561009f575f80fd5b506100a8610252565b6040516100b59190610808565b60405180910390f35b3480156100c9575f80fd5b506100e460048036038101906100df919061084f565b6102e6565b6040516100f19190610808565b60405180910390f35b61010261031e565b005b34801561010f575f80fd5b5061012a6004803603810190610125919061084f565b6104f6565b6040516101379190610808565b60405180910390f35b34801561014b575f80fd5b5061015461052e565b60405161016191906108b9565b60405180910390f35b348015610175575f80fd5b5061017e610553565b60405161018b9190610808565b60405180910390f35b34801561019f575f80fd5b506101a86105ff565b6040516101b59190610808565b60405180910390f35b3480156101c9575f80fd5b506101e460048036038101906101df919061084f565b610606565b6040516101f191906108b9565b60405180910390f35b610214600480360381019061020f919061090d565b610641565b005b348015610221575f80fd5b5061023c60048036038101906102379190610962565b61073a565b6040516102499190610808565b60405180910390f35b5f60035f9054906101000a900473ffffffffffffffffffffffffffffffffffffffff1673ffffffffffffffffffffffffffffffffffffffff166354fd4d506040518163ffffffff1660e01b8152600401602060405180830381865afa1580156102bd573d5f803e3d5ffd5b505050506040513d601f19601f820116820180604052508101906102e191906109a1565b905090565b5f806102f0610553565b90505f81670de0b6b3a76400008561030891906109f9565b6103129190610a67565b90508092505050919050565b60015f9054906101000a900473ffffffffffffffffffffffffffffffffffffffff1673ffffffffffffffffffffffffffffffffffffffff163373ffffffffffffffffffffffffffffffffffffffff16146103ad576040517f08c379a00000000000000000000000000000000000000000000000000000000081526004016103a490610af1565b60405180910390fd5b3373ffffffffffffffffffffffffffffffffffffffff166108fc4790811502906040515f60405180830381858888f193505050501580156103f0573d5f803e3d5ffd5b505f5b600280549050811015610494575f6002828154811061041557610414610b0f565b5b905f5260205f20015f9054906101000a900473ffffffffffffffffffffffffffffffffffffffff1690505f805f8373ffffffffffffffffffffffffffffffffffffffff1673ffffffffffffffffffffffffffffffffffffffff1681526020019081526020015f208190555050808061048c90610b3c565b9150506103f3565b505f67ffffffffffffffff8111156104af576104ae610b83565b5b6040519080825280602002602001820160405280156104dd5781602001602082028036833780820191505090505b50600290805190602001906104f392919061074e565b50565b5f80610500610553565b90505f670de0b6b3a7640000848361051891906109f9565b6105229190610a67565b90508092505050919050565b60015f9054906101000a900473ffffffffffffffffffffffffffffffffffffffff1681565b5f8060035f9054906101000a900473ffffffffffffffffffffffffffffffffffffffff1673ffffffffffffffffffffffffffffffffffffffff1663feaf968c6040518163ffffffff1660e01b815260040160a060405180830381865afa1580156105bf573d5f803e3d5ffd5b505050506040513d601f19601f820116820180604052508101906105e39190610c22565b5050509150506305f5e100816105f99190610c99565b91505090565b5f47905090565b60028181548110610615575f80fd5b905f5260205f20015f915054906101000a900473ffffffffffffffffffffffffffffffffffffffff1681565b345f803373ffffffffffffffffffffffffffffffffffffffff1673ffffffffffffffffffffffffffffffffffffffff1681526020019081526020015f205f82825461068c9190610d0f565b92505081905550600233908060018154018082558091505060019003905f5260205f20015f9091909190916101000a81548173ffffffffffffffffffffffffffffffffffffffff021916908373ffffffffffffffffffffffffffffffffffffffff1602179055508073ffffffffffffffffffffffffffffffffffffffff166108fc4790811502906040515f60405180830381858888f19350505050158015610736573d5f803e3d5ffd5b5050565b5f602052805f5260405f205f915090505481565b828054828255905f5260205f209081019282156107c4579160200282015b828111156107c3578251825f6101000a81548173ffffffffffffffffffffffffffffffffffffffff021916908373ffffffffffffffffffffffffffffffffffffffff1602179055509160200191906001019061076c565b5b5090506107d191906107d5565b5090565b5b808211156107ec575f815f9055506001016107d6565b5090565b5f819050919050565b610802816107f0565b82525050565b5f60208201905061081b5f8301846107f9565b92915050565b5f80fd5b61082e816107f0565b8114610838575f80fd5b50565b5f8135905061084981610825565b92915050565b5f6020828403121561086457610863610821565b5b5f6108718482850161083b565b91505092915050565b5f73ffffffffffffffffffffffffffffffffffffffff82169050919050565b5f6108a38261087a565b9050919050565b6108b381610899565b82525050565b5f6020820190506108cc5f8301846108aa565b92915050565b5f6108dc8261087a565b9050919050565b6108ec816108d2565b81146108f6575f80fd5b50565b5f81359050610907816108e3565b92915050565b5f6020828403121561092257610921610821565b5b5f61092f848285016108f9565b91505092915050565b61094181610899565b811461094b575f80fd5b50565b5f8135905061095c81610938565b92915050565b5f6020828403121561097757610976610821565b5b5f6109848482850161094e565b91505092915050565b5f8151905061099b81610825565b92915050565b5f602082840312156109b6576109b5610821565b5b5f6109c38482850161098d565b91505092915050565b7f4e487b71000000000000000000000000000000000000000000000000000000005f52601160045260245ffd5b5f610a03826107f0565b9150610a0e836107f0565b9250828202610a1c816107f0565b91508282048414831517610a3357610a326109cc565b5b5092915050565b7f4e487b71000000000000000000000000000000000000000000000000000000005f52601260045260245ffd5b5f610a71826107f0565b9150610a7c836107f0565b925082610a8c57610a8b610a3a565b5b828204905092915050565b5f82825260208201905092915050565b7f596f75277265206e6f742074686520636f6e7472616374206f776e65720000005f82015250565b5f610adb601d83610a97565b9150610ae682610aa7565b602082019050919050565b5f6020820190508181035f830152610b0881610acf565b9050919050565b7f4e487b71000000000000000000000000000000000000000000000000000000005f52603260045260245ffd5b5f610b46826107f0565b91507fffffffffffffffffffffffffffffffffffffffffffffffffffffffffffffffff8203610b7857610b776109cc565b5b600182019050919050565b7f4e487b71000000000000000000000000000000000000000000000000000000005f52604160045260245ffd5b5f69ffffffffffffffffffff82169050919050565b610bce81610bb0565b8114610bd8575f80fd5b50565b5f81519050610be981610bc5565b92915050565b5f819050919050565b610c0181610bef565b8114610c0b575f80fd5b50565b5f81519050610c1c81610bf8565b92915050565b5f805f805f60a08688031215610c3b57610c3a610821565b5b5f610c4888828901610bdb565b9550506020610c5988828901610c0e565b9450506040610c6a8882890161098d565b9350506060610c7b8882890161098d565b9250506080610c8c88828901610bdb565b9150509295509295909350565b5f610ca382610bef565b9150610cae83610bef565b9250828202610cbc81610bef565b91507f800000000000000000000000000000000000000000000000000000000000000084145f84121615610cf357610cf26109cc565b5b8282058414831517610d0857610d076109cc565b5b5092915050565b5f610d19826107f0565b9150610d24836107f0565b9250828201905080821115610d3c57610d3b6109cc565b5b9291505056fea264697066735822122054c7079a4badb03b0c7107d5acfeea609f77aa94882ed90319b2dcd0c5c439ba64736f6c63430008140033",
  "immutableReferences": {},
  "source": "// SPDX-License-Identifier: MIT\npragma solidity >=0.6.0 <0.9.0;\n\nimport \"../../node_modules/@chainlink/contracts/src/v0.8/interfaces/AggregatorV3Interface.sol\";\nimport \"../../node_modules/@openzeppelin/contracts/utils/math/SafeMath.sol\";\n\ncontract Donation {\n    using SafeMath for uint256; // For versions < 0.6\n\n    mapping(address => uint256) public addressToFunded;\n    address public owner;\n\n    // Funders test is by array index\n    address[] public funders;\n\n    AggregatorV3Interface internal dataFeed;\n\n     /**\n     * Network: Sepolia\n     * Aggregator: ETH/USD\n     * Address: 0x694AA1769357215DE4FAC081bf1f309aDC325306\n     */\n\n    constructor() {\n        dataFeed = AggregatorV3Interface(\n            0x694AA1769357215DE4FAC081bf1f309aDC325306\n        );\n        owner = msg.sender;\n    }\n\n    // Function that allows user to deposit \n    function transferFunds(address payable recipient) public payable {\n        // Optional: minimum input value\n        // uint256 minimumUSD = 1 * 10 ** 18;\n        // require(convertETHToUSD(msg.value) >= minimumUSD, \"The minimum value(1 U$) was not reached!\");\n        \n        addressToFunded[msg.sender] += msg.value;\n        funders.push(msg.sender);\n        recipient.transfer(address(this).balance);\n    }\n\n    // Function that returns the balance of contract\n    function balance() public view returns (uint256) {\n        return address(this).balance;\n    }\n    \n    // Function that converts get the price from data feed\n    function getPriceData() public view returns (uint256) {\n        (,int256 price,,,) = dataFeed.latestRoundData();\n        return uint256(price *  100000000);\n        // 190275000000 -> 8 decimals -> 1,902.75000000\n    }\n\n    // Function that get the version of data feed\n    function getVersion() public view returns(uint256) {\n        return dataFeed.version();\n    }\n\n    // Function that get the conversion rate ETH/USD\n    function convertETHToUSD(uint256 ethAmount) public view returns (uint256) {\n        uint256 ethPrice = getPriceData();\n        uint256 ethAmountInUsd = (ethPrice * ethAmount) / 1000000000000000000;\n        \n        return ethAmountInUsd;\n        // 1 gwei(1000000000) to U$\n    }\n\n    // Function that get the conversion rate USD/ETH\n    function convertUSDToETH(uint256 usdAmount) public view returns (uint256) {\n        uint256 ethPrice = getPriceData();\n        // uint256 ethAmount = (usdAmount * 10 **10)/ (ethPrice);\n        uint256 ethAmount = (usdAmount  * 10 ** 18 / ethPrice);\n\n        return ethAmount;\n    }\n\n    // Modifier that checks if the user is the contract owner\n    modifier isOwner {\n        require(msg.sender == owner, \"You're not the contract owner\");\n        _;\n    }\n\n    // Function that withdraw the amount sent to the fund\n    function withdraw() payable isOwner public {\n        // Send the money deposited to the contract owner\n        payable(msg.sender).transfer(address(this).balance);\n\n        // Reseting all the variables\n        for (uint256 funderIndex = 0; funderIndex < funders.length; funderIndex++){\n            address funder = funders[funderIndex];\n            addressToFunded[funder] = 0;\n        }\n        funders = new address[](0);\n    }\n}",
  "sourcePath": "/home/victorcarvalho/Documents/Github/ChainlinkHackas/chainlink-hackathon/contracts/contracts/User/Donation.sol",
  "compiler": {
    "name": "solc",
    "version": "0.8.20+commit.a1b79de6.Emscripten.clang"
  },
  "schemaVersion": "3.4.14",
  "updatedAt": "2023-06-09T19:22:05.388Z",
  "networkType": "ethereum",
  "devdoc": {
    "kind": "dev",
    "methods": {},
    "version": 1
  },
  "userdoc": {
    "kind": "user",
    "methods": {
      "constructor": {
        "notice": "Network: Sepolia Aggregator: ETH/USD Address: 0x694AA1769357215DE4FAC081bf1f309aDC325306"
      }
    },
    "version": 1
  }
}