{
  "contractName": "Donation",
  "abi": [
    {
      "inputs": [],
      "stateMutability": "nonpayable",
      "type": "constructor"
    },
    {
      "inputs": [
        {
          "internalType": "address",
          "name": "",
          "type": "address"
        }
      ],
      "name": "addressToFunded",
      "outputs": [
        {
          "internalType": "uint256",
          "name": "",
          "type": "uint256"
        }
      ],
      "stateMutability": "view",
      "type": "function",
      "constant": true
    },
    {
      "inputs": [
        {
          "internalType": "uint256",
          "name": "",
          "type": "uint256"
        }
      ],
      "name": "funders",
      "outputs": [
        {
          "internalType": "address",
          "name": "",
          "type": "address"
        }
      ],
      "stateMutability": "view",
      "type": "function",
      "constant": true
    },
    {
      "inputs": [],
      "name": "owner",
      "outputs": [
        {
          "internalType": "address",
          "name": "",
          "type": "address"
        }
      ],
      "stateMutability": "view",
      "type": "function",
      "constant": true
    },
    {
      "inputs": [
        {
          "internalType": "address",
          "name": "recipient",
          "type": "address"
        }
      ],
      "name": "fund",
      "outputs": [],
      "stateMutability": "payable",
      "type": "function",
      "payable": true
    },
    {
      "inputs": [],
      "name": "getPriceData",
      "outputs": [
        {
          "internalType": "uint256",
          "name": "",
          "type": "uint256"
        }
      ],
      "stateMutability": "view",
      "type": "function",
      "constant": true
    },
    {
      "inputs": [],
      "name": "getVersion",
      "outputs": [
        {
          "internalType": "uint256",
          "name": "",
          "type": "uint256"
        }
      ],
      "stateMutability": "view",
      "type": "function",
      "constant": true
    },
    {
      "inputs": [
        {
          "internalType": "uint256",
          "name": "ethAmount",
          "type": "uint256"
        }
      ],
      "name": "convertETHToUSD",
      "outputs": [
        {
          "internalType": "uint256",
          "name": "",
          "type": "uint256"
        }
      ],
      "stateMutability": "view",
      "type": "function",
      "constant": true
    },
    {
      "inputs": [
        {
          "internalType": "uint256",
          "name": "usdAmount",
          "type": "uint256"
        }
      ],
      "name": "convertUSDToETH",
      "outputs": [
        {
          "internalType": "uint256",
          "name": "",
          "type": "uint256"
        }
      ],
      "stateMutability": "view",
      "type": "function",
      "constant": true
    },
    {
      "inputs": [],
      "name": "withdraw",
      "outputs": [],
      "stateMutability": "payable",
      "type": "function",
      "payable": true
    }
  ],
  "bytecode": "0x608060405234801561000f575f80fd5b5073694aa1769357215de4fac081bf1f309adc32530660035f6101000a81548173ffffffffffffffffffffffffffffffffffffffff021916908373ffffffffffffffffffffffffffffffffffffffff1602179055503360015f6101000a81548173ffffffffffffffffffffffffffffffffffffffff021916908373ffffffffffffffffffffffffffffffffffffffff160217905550610dbc806100b15f395ff3fe608060405260043610610085575f3560e01c80634c2bf9c2116100585780634c2bf9c2146101155780638da5cb5b14610151578063a4a281681461017b578063dc0d3dff146101a5578063faf4acac146101e157610085565b80630d8e6e2c1461008957806323024408146100b35780633be0dcb8146100cf5780633ccfd60b1461010b575b5f80fd5b348015610094575f80fd5b5061009d61021d565b6040516100aa9190610824565b60405180910390f35b6100cd60048036038101906100c8919061089b565b6102b1565b005b3480156100da575f80fd5b506100f560048036038101906100f091906108f0565b610402565b6040516101029190610824565b60405180910390f35b61011361043a565b005b348015610120575f80fd5b5061013b600480360381019061013691906108f0565b610612565b6040516101489190610824565b60405180910390f35b34801561015c575f80fd5b5061016561064a565b604051610172919061092a565b60405180910390f35b348015610186575f80fd5b5061018f61066f565b60405161019c9190610824565b60405180910390f35b3480156101b0575f80fd5b506101cb60048036038101906101c691906108f0565b61071b565b6040516101d8919061092a565b60405180910390f35b3480156101ec575f80fd5b506102076004803603810190610202919061089b565b610756565b6040516102149190610824565b60405180910390f35b5f60035f9054906101000a900473ffffffffffffffffffffffffffffffffffffffff1673ffffffffffffffffffffffffffffffffffffffff166354fd4d506040518163ffffffff1660e01b8152600401602060405180830381865afa158015610288573d5f803e3d5ffd5b505050506040513d601f19601f820116820180604052508101906102ac9190610957565b905090565b5f670de0b6b3a76400009050806102c734610612565b1015610308576040517f08c379a00000000000000000000000000000000000000000000000000000000081526004016102ff90610a02565b60405180910390fd5b345f803373ffffffffffffffffffffffffffffffffffffffff1673ffffffffffffffffffffffffffffffffffffffff1681526020019081526020015f205f8282546103539190610a4d565b92505081905550600233908060018154018082558091505060019003905f5260205f20015f9091909190916101000a81548173ffffffffffffffffffffffffffffffffffffffff021916908373ffffffffffffffffffffffffffffffffffffffff1602179055508173ffffffffffffffffffffffffffffffffffffffff166108fc3490811502906040515f60405180830381858888f193505050501580156103fd573d5f803e3d5ffd5b505050565b5f8061040c61066f565b90505f81670de0b6b3a7640000856104249190610a80565b61042e9190610aee565b90508092505050919050565b60015f9054906101000a900473ffffffffffffffffffffffffffffffffffffffff1673ffffffffffffffffffffffffffffffffffffffff163373ffffffffffffffffffffffffffffffffffffffff16146104c9576040517f08c379a00000000000000000000000000000000000000000000000000000000081526004016104c090610b68565b60405180910390fd5b3373ffffffffffffffffffffffffffffffffffffffff166108fc4790811502906040515f60405180830381858888f1935050505015801561050c573d5f803e3d5ffd5b505f5b6002805490508110156105b0575f6002828154811061053157610530610b86565b5b905f5260205f20015f9054906101000a900473ffffffffffffffffffffffffffffffffffffffff1690505f805f8373ffffffffffffffffffffffffffffffffffffffff1673ffffffffffffffffffffffffffffffffffffffff1681526020019081526020015f20819055505080806105a890610bb3565b91505061050f565b505f67ffffffffffffffff8111156105cb576105ca610bfa565b5b6040519080825280602002602001820160405280156105f95781602001602082028036833780820191505090505b506002908051906020019061060f92919061076a565b50565b5f8061061c61066f565b90505f670de0b6b3a764000084836106349190610a80565b61063e9190610aee565b90508092505050919050565b60015f9054906101000a900473ffffffffffffffffffffffffffffffffffffffff1681565b5f8060035f9054906101000a900473ffffffffffffffffffffffffffffffffffffffff1673ffffffffffffffffffffffffffffffffffffffff1663feaf968c6040518163ffffffff1660e01b815260040160a060405180830381865afa1580156106db573d5f803e3d5ffd5b505050506040513d601f19601f820116820180604052508101906106ff9190610c99565b5050509150506305f5e100816107159190610d10565b91505090565b6002818154811061072a575f80fd5b905f5260205f20015f915054906101000a900473ffffffffffffffffffffffffffffffffffffffff1681565b5f602052805f5260405f205f915090505481565b828054828255905f5260205f209081019282156107e0579160200282015b828111156107df578251825f6101000a81548173ffffffffffffffffffffffffffffffffffffffff021916908373ffffffffffffffffffffffffffffffffffffffff16021790555091602001919060010190610788565b5b5090506107ed91906107f1565b5090565b5b80821115610808575f815f9055506001016107f2565b5090565b5f819050919050565b61081e8161080c565b82525050565b5f6020820190506108375f830184610815565b92915050565b5f80fd5b5f73ffffffffffffffffffffffffffffffffffffffff82169050919050565b5f61086a82610841565b9050919050565b61087a81610860565b8114610884575f80fd5b50565b5f8135905061089581610871565b92915050565b5f602082840312156108b0576108af61083d565b5b5f6108bd84828501610887565b91505092915050565b6108cf8161080c565b81146108d9575f80fd5b50565b5f813590506108ea816108c6565b92915050565b5f602082840312156109055761090461083d565b5b5f610912848285016108dc565b91505092915050565b61092481610860565b82525050565b5f60208201905061093d5f83018461091b565b92915050565b5f81519050610951816108c6565b92915050565b5f6020828403121561096c5761096b61083d565b5b5f61097984828501610943565b91505092915050565b5f82825260208201905092915050565b7f546865206d696e696d756d2076616c756528312055242920776173206e6f74205f8201527f7265616368656421000000000000000000000000000000000000000000000000602082015250565b5f6109ec602883610982565b91506109f782610992565b604082019050919050565b5f6020820190508181035f830152610a19816109e0565b9050919050565b7f4e487b71000000000000000000000000000000000000000000000000000000005f52601160045260245ffd5b5f610a578261080c565b9150610a628361080c565b9250828201905080821115610a7a57610a79610a20565b5b92915050565b5f610a8a8261080c565b9150610a958361080c565b9250828202610aa38161080c565b91508282048414831517610aba57610ab9610a20565b5b5092915050565b7f4e487b71000000000000000000000000000000000000000000000000000000005f52601260045260245ffd5b5f610af88261080c565b9150610b038361080c565b925082610b1357610b12610ac1565b5b828204905092915050565b7f596f75277265206e6f742074686520636f6e7472616374206f776e65720000005f82015250565b5f610b52601d83610982565b9150610b5d82610b1e565b602082019050919050565b5f6020820190508181035f830152610b7f81610b46565b9050919050565b7f4e487b71000000000000000000000000000000000000000000000000000000005f52603260045260245ffd5b5f610bbd8261080c565b91507fffffffffffffffffffffffffffffffffffffffffffffffffffffffffffffffff8203610bef57610bee610a20565b5b600182019050919050565b7f4e487b71000000000000000000000000000000000000000000000000000000005f52604160045260245ffd5b5f69ffffffffffffffffffff82169050919050565b610c4581610c27565b8114610c4f575f80fd5b50565b5f81519050610c6081610c3c565b92915050565b5f819050919050565b610c7881610c66565b8114610c82575f80fd5b50565b5f81519050610c9381610c6f565b92915050565b5f805f805f60a08688031215610cb257610cb161083d565b5b5f610cbf88828901610c52565b9550506020610cd088828901610c85565b9450506040610ce188828901610943565b9350506060610cf288828901610943565b9250506080610d0388828901610c52565b9150509295509295909350565b5f610d1a82610c66565b9150610d2583610c66565b9250828202610d3381610c66565b91507f800000000000000000000000000000000000000000000000000000000000000084145f84121615610d6a57610d69610a20565b5b8282058414831517610d7f57610d7e610a20565b5b509291505056fea264697066735822122005fce4b50a1e432126cae60219ec86e764db9254f17eac7427ac786328a3a91764736f6c63430008140033",
  "immutableReferences": {},
  "source": "// SPDX-License-Identifier: MIT\npragma solidity >=0.6.0 <0.9.0;\n\nimport \"../../node_modules/@chainlink/contracts/src/v0.8/interfaces/AggregatorV3Interface.sol\";\nimport \"../../node_modules/@openzeppelin/contracts/utils/math/SafeMath.sol\";\n\ncontract Donation {\n    using SafeMath for uint256; // For versions < 0.6\n\n    mapping(address => uint256) public addressToFunded;\n    address public owner;\n\n    // Funders test is by array index\n    address[] public funders;\n\n    AggregatorV3Interface internal dataFeed;\n\n     /**\n     * Network: Sepolia\n     * Aggregator: ETH/USD\n     * Address: 0x694AA1769357215DE4FAC081bf1f309aDC325306\n     */\n\n    constructor() {\n        dataFeed = AggregatorV3Interface(\n            0x694AA1769357215DE4FAC081bf1f309aDC325306\n        );\n        owner = msg.sender;\n    }\n\n    // Function that allows user to deposit \n    function fund(address recipient) public payable {\n        // Setting the minimum value to 1 U$\n        uint256 minimumUSD = 1 * 10 ** 18;\n        require(convertETHToUSD(msg.value) >= minimumUSD, \"The minimum value(1 U$) was not reached!\");\n\n        addressToFunded[msg.sender] += msg.value;\n        funders.push(msg.sender);\n        payable(recipient).transfer(msg.value);\n    }\n    \n    // Function that converts get the price from data feed\n    function getPriceData() public view returns (uint256) {\n        (,int256 price,,,) = dataFeed.latestRoundData();\n        return uint256(price *  100000000);\n        // 190275000000 -> 8 decimals -> 1,902.75000000\n    }\n\n    // Function that get the version of data feed\n    function getVersion() public view returns(uint256) {\n        return dataFeed.version();\n    }\n\n    // Function that get the conversion rate ETH/USD\n    function convertETHToUSD(uint256 ethAmount) public view returns (uint256) {\n        uint256 ethPrice = getPriceData();\n        uint256 ethAmountInUsd = (ethPrice * ethAmount) / 1000000000000000000;\n        return ethAmountInUsd;\n        // 1 gwei(1000000000) to U$\n    }\n\n    // Function that get the conversion rate USD/ETH\n    function convertUSDToETH(uint256 usdAmount) public view returns (uint256) {\n        uint256 ethPrice = getPriceData();\n        // uint256 ethAmount = (usdAmount * 10 **10)/ (ethPrice);\n        uint256 ethAmount = (usdAmount  * 10 ** 18 / ethPrice);\n\n        return ethAmount;\n    }\n\n    // Modifier that checks if the user is the contract owner\n    modifier isOwner {\n        require(msg.sender == owner, \"You're not the contract owner\");\n        _;\n    }\n\n    // Function that withdraw the amount sent to the fund\n    function withdraw() payable isOwner public {\n        // Send the money deposited to the contract owner\n        payable(msg.sender).transfer(address(this).balance);\n\n        // Reseting all the variables\n        for (uint256 funderIndex = 0; funderIndex < funders.length; funderIndex++){\n            address funder = funders[funderIndex];\n            addressToFunded[funder] = 0;\n        }\n        funders = new address[](0);\n    }\n}",
  "sourcePath": "/home/victorcarvalho/Documents/Github/ChainlinkHackas/chainlink-hackathon/contracts/contracts/User/Donation.sol",
  "compiler": {
    "name": "solc",
    "version": "0.8.20+commit.a1b79de6.Emscripten.clang"
  },
  "schemaVersion": "3.4.14",
  "updatedAt": "2023-06-06T03:45:17.240Z",
  "networkType": "ethereum",
  "devdoc": {
    "kind": "dev",
    "methods": {},
    "version": 1
  },
  "userdoc": {
    "kind": "user",
    "methods": {
      "constructor": {
        "notice": "Network: Sepolia Aggregator: ETH/USD Address: 0x694AA1769357215DE4FAC081bf1f309aDC325306"
      }
    },
    "version": 1
  }
}