{
  "contractName": "Donation",
  "abi": [
    {
      "inputs": [],
      "stateMutability": "nonpayable",
      "type": "constructor"
    },
    {
      "inputs": [
        {
          "internalType": "address",
          "name": "",
          "type": "address"
        }
      ],
      "name": "addressToFunded",
      "outputs": [
        {
          "internalType": "uint256",
          "name": "",
          "type": "uint256"
        }
      ],
      "stateMutability": "view",
      "type": "function"
    },
    {
      "inputs": [
        {
          "internalType": "uint256",
          "name": "",
          "type": "uint256"
        }
      ],
      "name": "funders",
      "outputs": [
        {
          "internalType": "address",
          "name": "",
          "type": "address"
        }
      ],
      "stateMutability": "view",
      "type": "function"
    },
    {
      "inputs": [],
      "name": "owner",
      "outputs": [
        {
          "internalType": "address",
          "name": "",
          "type": "address"
        }
      ],
      "stateMutability": "view",
      "type": "function"
    },
    {
      "inputs": [
        {
          "internalType": "address payable",
          "name": "recipient",
          "type": "address"
        }
      ],
      "name": "transferFunds",
      "outputs": [],
      "stateMutability": "payable",
      "type": "function"
    },
    {
      "inputs": [],
      "name": "balance",
      "outputs": [
        {
          "internalType": "uint256",
          "name": "",
          "type": "uint256"
        }
      ],
      "stateMutability": "view",
      "type": "function"
    },
    {
      "inputs": [],
      "name": "getPriceData",
      "outputs": [
        {
          "internalType": "uint256",
          "name": "",
          "type": "uint256"
        }
      ],
      "stateMutability": "view",
      "type": "function"
    },
    {
      "inputs": [],
      "name": "getVersion",
      "outputs": [
        {
          "internalType": "uint256",
          "name": "",
          "type": "uint256"
        }
      ],
      "stateMutability": "view",
      "type": "function"
    },
    {
      "inputs": [
        {
          "internalType": "uint256",
          "name": "ethAmount",
          "type": "uint256"
        }
      ],
      "name": "convertETHToUSD",
      "outputs": [
        {
          "internalType": "uint256",
          "name": "",
          "type": "uint256"
        }
      ],
      "stateMutability": "view",
      "type": "function"
    },
    {
      "inputs": [
        {
          "internalType": "uint256",
          "name": "usdAmount",
          "type": "uint256"
        }
      ],
      "name": "convertUSDToETH",
      "outputs": [
        {
          "internalType": "uint256",
          "name": "",
          "type": "uint256"
        }
      ],
      "stateMutability": "view",
      "type": "function"
    },
    {
      "inputs": [],
      "name": "withdraw",
      "outputs": [],
      "stateMutability": "payable",
      "type": "function"
    }
  ],
  "bytecode": "0x608060405234801561000f575f80fd5b5073694aa1769357215de4fac081bf1f309adc32530660035f6101000a81548173ffffffffffffffffffffffffffffffffffffffff021916908373ffffffffffffffffffffffffffffffffffffffff1602179055503360015f6101000a81548173ffffffffffffffffffffffffffffffffffffffff021916908373ffffffffffffffffffffffffffffffffffffffff160217905550610e5e806100b15f395ff3fe608060405260043610610090575f3560e01c8063a4a2816811610058578063a4a281681461016a578063b69ef8a814610194578063dc0d3dff146101be578063e39ff19f146101fa578063faf4acac1461021657610090565b80630d8e6e2c146100945780633be0dcb8146100be5780633ccfd60b146100fa5780634c2bf9c2146101045780638da5cb5b14610140575b5f80fd5b34801561009f575f80fd5b506100a8610252565b6040516100b59190610860565b60405180910390f35b3480156100c9575f80fd5b506100e460048036038101906100df91906108a7565b6102e6565b6040516100f19190610860565b60405180910390f35b61010261031e565b005b34801561010f575f80fd5b5061012a600480360381019061012591906108a7565b6104f6565b6040516101379190610860565b60405180910390f35b34801561014b575f80fd5b5061015461052e565b6040516101619190610911565b60405180910390f35b348015610175575f80fd5b5061017e610553565b60405161018b9190610860565b60405180910390f35b34801561019f575f80fd5b506101a86105ff565b6040516101b59190610860565b60405180910390f35b3480156101c9575f80fd5b506101e460048036038101906101df91906108a7565b610606565b6040516101f19190610911565b60405180910390f35b610214600480360381019061020f9190610965565b610641565b005b348015610221575f80fd5b5061023c600480360381019061023791906109ba565b610792565b6040516102499190610860565b60405180910390f35b5f60035f9054906101000a900473ffffffffffffffffffffffffffffffffffffffff1673ffffffffffffffffffffffffffffffffffffffff166354fd4d506040518163ffffffff1660e01b8152600401602060405180830381865afa1580156102bd573d5f803e3d5ffd5b505050506040513d601f19601f820116820180604052508101906102e191906109f9565b905090565b5f806102f0610553565b90505f81670de0b6b3a7640000856103089190610a51565b6103129190610abf565b90508092505050919050565b60015f9054906101000a900473ffffffffffffffffffffffffffffffffffffffff1673ffffffffffffffffffffffffffffffffffffffff163373ffffffffffffffffffffffffffffffffffffffff16146103ad576040517f08c379a00000000000000000000000000000000000000000000000000000000081526004016103a490610b49565b60405180910390fd5b3373ffffffffffffffffffffffffffffffffffffffff166108fc4790811502906040515f60405180830381858888f193505050501580156103f0573d5f803e3d5ffd5b505f5b600280549050811015610494575f6002828154811061041557610414610b67565b5b905f5260205f20015f9054906101000a900473ffffffffffffffffffffffffffffffffffffffff1690505f805f8373ffffffffffffffffffffffffffffffffffffffff1673ffffffffffffffffffffffffffffffffffffffff1681526020019081526020015f208190555050808061048c90610b94565b9150506103f3565b505f67ffffffffffffffff8111156104af576104ae610bdb565b5b6040519080825280602002602001820160405280156104dd5781602001602082028036833780820191505090505b50600290805190602001906104f39291906107a6565b50565b5f80610500610553565b90505f670de0b6b3a764000084836105189190610a51565b6105229190610abf565b90508092505050919050565b60015f9054906101000a900473ffffffffffffffffffffffffffffffffffffffff1681565b5f8060035f9054906101000a900473ffffffffffffffffffffffffffffffffffffffff1673ffffffffffffffffffffffffffffffffffffffff1663feaf968c6040518163ffffffff1660e01b815260040160a060405180830381865afa1580156105bf573d5f803e3d5ffd5b505050506040513d601f19601f820116820180604052508101906105e39190610c7a565b5050509150506305f5e100816105f99190610cf1565b91505090565b5f47905090565b60028181548110610615575f80fd5b905f5260205f20015f915054906101000a900473ffffffffffffffffffffffffffffffffffffffff1681565b5f670de0b6b3a7640000905080610657346104f6565b1015610698576040517f08c379a000000000000000000000000000000000000000000000000000000000815260040161068f90610dd7565b60405180910390fd5b345f803373ffffffffffffffffffffffffffffffffffffffff1673ffffffffffffffffffffffffffffffffffffffff1681526020019081526020015f205f8282546106e39190610df5565b92505081905550600233908060018154018082558091505060019003905f5260205f20015f9091909190916101000a81548173ffffffffffffffffffffffffffffffffffffffff021916908373ffffffffffffffffffffffffffffffffffffffff1602179055508173ffffffffffffffffffffffffffffffffffffffff166108fc4790811502906040515f60405180830381858888f1935050505015801561078d573d5f803e3d5ffd5b505050565b5f602052805f5260405f205f915090505481565b828054828255905f5260205f2090810192821561081c579160200282015b8281111561081b578251825f6101000a81548173ffffffffffffffffffffffffffffffffffffffff021916908373ffffffffffffffffffffffffffffffffffffffff160217905550916020019190600101906107c4565b5b509050610829919061082d565b5090565b5b80821115610844575f815f90555060010161082e565b5090565b5f819050919050565b61085a81610848565b82525050565b5f6020820190506108735f830184610851565b92915050565b5f80fd5b61088681610848565b8114610890575f80fd5b50565b5f813590506108a18161087d565b92915050565b5f602082840312156108bc576108bb610879565b5b5f6108c984828501610893565b91505092915050565b5f73ffffffffffffffffffffffffffffffffffffffff82169050919050565b5f6108fb826108d2565b9050919050565b61090b816108f1565b82525050565b5f6020820190506109245f830184610902565b92915050565b5f610934826108d2565b9050919050565b6109448161092a565b811461094e575f80fd5b50565b5f8135905061095f8161093b565b92915050565b5f6020828403121561097a57610979610879565b5b5f61098784828501610951565b91505092915050565b610999816108f1565b81146109a3575f80fd5b50565b5f813590506109b481610990565b92915050565b5f602082840312156109cf576109ce610879565b5b5f6109dc848285016109a6565b91505092915050565b5f815190506109f38161087d565b92915050565b5f60208284031215610a0e57610a0d610879565b5b5f610a1b848285016109e5565b91505092915050565b7f4e487b71000000000000000000000000000000000000000000000000000000005f52601160045260245ffd5b5f610a5b82610848565b9150610a6683610848565b9250828202610a7481610848565b91508282048414831517610a8b57610a8a610a24565b5b5092915050565b7f4e487b71000000000000000000000000000000000000000000000000000000005f52601260045260245ffd5b5f610ac982610848565b9150610ad483610848565b925082610ae457610ae3610a92565b5b828204905092915050565b5f82825260208201905092915050565b7f596f75277265206e6f742074686520636f6e7472616374206f776e65720000005f82015250565b5f610b33601d83610aef565b9150610b3e82610aff565b602082019050919050565b5f6020820190508181035f830152610b6081610b27565b9050919050565b7f4e487b71000000000000000000000000000000000000000000000000000000005f52603260045260245ffd5b5f610b9e82610848565b91507fffffffffffffffffffffffffffffffffffffffffffffffffffffffffffffffff8203610bd057610bcf610a24565b5b600182019050919050565b7f4e487b71000000000000000000000000000000000000000000000000000000005f52604160045260245ffd5b5f69ffffffffffffffffffff82169050919050565b610c2681610c08565b8114610c30575f80fd5b50565b5f81519050610c4181610c1d565b92915050565b5f819050919050565b610c5981610c47565b8114610c63575f80fd5b50565b5f81519050610c7481610c50565b92915050565b5f805f805f60a08688031215610c9357610c92610879565b5b5f610ca088828901610c33565b9550506020610cb188828901610c66565b9450506040610cc2888289016109e5565b9350506060610cd3888289016109e5565b9250506080610ce488828901610c33565b9150509295509295909350565b5f610cfb82610c47565b9150610d0683610c47565b9250828202610d1481610c47565b91507f800000000000000000000000000000000000000000000000000000000000000084145f84121615610d4b57610d4a610a24565b5b8282058414831517610d6057610d5f610a24565b5b5092915050565b7f546865206d696e696d756d2076616c756528312055242920776173206e6f74205f8201527f7265616368656421000000000000000000000000000000000000000000000000602082015250565b5f610dc1602883610aef565b9150610dcc82610d67565b604082019050919050565b5f6020820190508181035f830152610dee81610db5565b9050919050565b5f610dff82610848565b9150610e0a83610848565b9250828201905080821115610e2257610e21610a24565b5b9291505056fea2646970667358221220a64dee9c1a67aa660a7d9309e2f3daba2f6c4c648553f5548a7696c311e349ee64736f6c63430008140033",
  "immutableReferences": {},
  "source": "// SPDX-License-Identifier: MIT\npragma solidity >=0.6.0 <0.9.0;\n\nimport \"../../node_modules/@chainlink/contracts/src/v0.8/interfaces/AggregatorV3Interface.sol\";\nimport \"../../node_modules/@openzeppelin/contracts/utils/math/SafeMath.sol\";\n\ncontract Donation {\n    using SafeMath for uint256; // For versions < 0.6\n\n    mapping(address => uint256) public addressToFunded;\n    address public owner;\n\n    // Funders test is by array index\n    address[] public funders;\n\n    AggregatorV3Interface internal dataFeed;\n\n     /**\n     * Network: Sepolia\n     * Aggregator: ETH/USD\n     * Address: 0x694AA1769357215DE4FAC081bf1f309aDC325306\n     */\n\n    constructor() {\n        dataFeed = AggregatorV3Interface(\n            0x694AA1769357215DE4FAC081bf1f309aDC325306\n        );\n        owner = msg.sender;\n    }\n\n    // Function that allows user to deposit \n    function transferFunds(address payable recipient) public payable {\n        uint256 minimumUSD = 1 * 10 ** 18;\n        require(convertETHToUSD(msg.value) >= minimumUSD, \"The minimum value(1 U$) was not reached!\");\n        addressToFunded[msg.sender] += msg.value;\n        funders.push(msg.sender);\n        recipient.transfer(address(this).balance);\n    }\n\n    // Function that returns the balance of contract\n    function balance() public view returns (uint256) {\n        return address(this).balance;\n    }\n    \n    // Function that converts get the price from data feed\n    function getPriceData() public view returns (uint256) {\n        (,int256 price,,,) = dataFeed.latestRoundData();\n        return uint256(price *  100000000);\n        // 190275000000 -> 8 decimals -> 1,902.75000000\n    }\n\n    // Function that get the version of data feed\n    function getVersion() public view returns(uint256) {\n        return dataFeed.version();\n    }\n\n    // Function that get the conversion rate ETH/USD\n    function convertETHToUSD(uint256 ethAmount) public view returns (uint256) {\n        uint256 ethPrice = getPriceData();\n        uint256 ethAmountInUsd = (ethPrice * ethAmount) / 1000000000000000000;\n        return ethAmountInUsd;\n        // 1 gwei(1000000000) to U$\n    }\n\n    // Function that get the conversion rate USD/ETH\n    function convertUSDToETH(uint256 usdAmount) public view returns (uint256) {\n        uint256 ethPrice = getPriceData();\n        // uint256 ethAmount = (usdAmount * 10 **10)/ (ethPrice);\n        uint256 ethAmount = (usdAmount  * 10 ** 18 / ethPrice);\n\n        return ethAmount;\n    }\n\n    // Modifier that checks if the user is the contract owner\n    modifier isOwner {\n        require(msg.sender == owner, \"You're not the contract owner\");\n        _;\n    }\n\n    // Function that withdraw the amount sent to the fund\n    function withdraw() payable isOwner public {\n        // Send the money deposited to the contract owner\n        payable(msg.sender).transfer(address(this).balance);\n\n        // Reseting all the variables\n        for (uint256 funderIndex = 0; funderIndex < funders.length; funderIndex++){\n            address funder = funders[funderIndex];\n            addressToFunded[funder] = 0;\n        }\n        funders = new address[](0);\n    }\n}",
  "sourcePath": "/home/victorcarvalho/Documents/Github/ChainlinkHackas/chainlink-hackathon/contracts/contracts/User/Donation.sol",
  "compiler": {
    "name": "solc",
    "version": "0.8.20+commit.a1b79de6.Emscripten.clang"
  },
  "schemaVersion": "3.4.14",
  "updatedAt": "2023-06-07T02:33:16.276Z",
  "devdoc": {
    "kind": "dev",
    "methods": {},
    "version": 1
  },
  "userdoc": {
    "kind": "user",
    "methods": {
      "constructor": {
        "notice": "Network: Sepolia Aggregator: ETH/USD Address: 0x694AA1769357215DE4FAC081bf1f309aDC325306"
      }
    },
    "version": 1
  }
}