{
  "contractName": "PostFactory",
  "abi": [
    {
      "inputs": [],
      "stateMutability": "nonpayable",
      "type": "constructor"
    },
    {
      "anonymous": false,
      "inputs": [
        {
          "indexed": true,
          "internalType": "address",
          "name": "owner",
          "type": "address"
        },
        {
          "indexed": true,
          "internalType": "address",
          "name": "approved",
          "type": "address"
        },
        {
          "indexed": true,
          "internalType": "uint256",
          "name": "tokenId",
          "type": "uint256"
        }
      ],
      "name": "Approval",
      "type": "event"
    },
    {
      "anonymous": false,
      "inputs": [
        {
          "indexed": true,
          "internalType": "address",
          "name": "owner",
          "type": "address"
        },
        {
          "indexed": true,
          "internalType": "address",
          "name": "operator",
          "type": "address"
        },
        {
          "indexed": false,
          "internalType": "bool",
          "name": "approved",
          "type": "bool"
        }
      ],
      "name": "ApprovalForAll",
      "type": "event"
    },
    {
      "anonymous": false,
      "inputs": [
        {
          "indexed": true,
          "internalType": "address",
          "name": "owner",
          "type": "address"
        },
        {
          "indexed": true,
          "internalType": "uint256",
          "name": "tokenId",
          "type": "uint256"
        },
        {
          "indexed": false,
          "internalType": "string",
          "name": "description",
          "type": "string"
        },
        {
          "indexed": false,
          "internalType": "string",
          "name": "image",
          "type": "string"
        }
      ],
      "name": "NewPost",
      "type": "event"
    },
    {
      "anonymous": false,
      "inputs": [
        {
          "indexed": true,
          "internalType": "address",
          "name": "from",
          "type": "address"
        },
        {
          "indexed": true,
          "internalType": "address",
          "name": "to",
          "type": "address"
        },
        {
          "indexed": true,
          "internalType": "uint256",
          "name": "tokenId",
          "type": "uint256"
        }
      ],
      "name": "Transfer",
      "type": "event"
    },
    {
      "inputs": [
        {
          "internalType": "address",
          "name": "to",
          "type": "address"
        },
        {
          "internalType": "uint256",
          "name": "tokenId",
          "type": "uint256"
        }
      ],
      "name": "approve",
      "outputs": [],
      "stateMutability": "nonpayable",
      "type": "function"
    },
    {
      "inputs": [
        {
          "internalType": "address",
          "name": "owner",
          "type": "address"
        }
      ],
      "name": "balanceOf",
      "outputs": [
        {
          "internalType": "uint256",
          "name": "",
          "type": "uint256"
        }
      ],
      "stateMutability": "view",
      "type": "function",
      "constant": true
    },
    {
      "inputs": [
        {
          "internalType": "uint256",
          "name": "tokenId",
          "type": "uint256"
        }
      ],
      "name": "burn",
      "outputs": [],
      "stateMutability": "nonpayable",
      "type": "function"
    },
    {
      "inputs": [
        {
          "internalType": "uint256",
          "name": "tokenId",
          "type": "uint256"
        }
      ],
      "name": "getApproved",
      "outputs": [
        {
          "internalType": "address",
          "name": "",
          "type": "address"
        }
      ],
      "stateMutability": "view",
      "type": "function",
      "constant": true
    },
    {
      "inputs": [
        {
          "internalType": "address",
          "name": "owner",
          "type": "address"
        },
        {
          "internalType": "address",
          "name": "operator",
          "type": "address"
        }
      ],
      "name": "isApprovedForAll",
      "outputs": [
        {
          "internalType": "bool",
          "name": "",
          "type": "bool"
        }
      ],
      "stateMutability": "view",
      "type": "function",
      "constant": true
    },
    {
      "inputs": [],
      "name": "name",
      "outputs": [
        {
          "internalType": "string",
          "name": "",
          "type": "string"
        }
      ],
      "stateMutability": "view",
      "type": "function",
      "constant": true
    },
    {
      "inputs": [],
      "name": "owner",
      "outputs": [
        {
          "internalType": "address",
          "name": "",
          "type": "address"
        }
      ],
      "stateMutability": "view",
      "type": "function",
      "constant": true
    },
    {
      "inputs": [
        {
          "internalType": "uint256",
          "name": "tokenId",
          "type": "uint256"
        }
      ],
      "name": "ownerOf",
      "outputs": [
        {
          "internalType": "address",
          "name": "",
          "type": "address"
        }
      ],
      "stateMutability": "view",
      "type": "function",
      "constant": true
    },
    {
      "inputs": [
        {
          "internalType": "address",
          "name": "from",
          "type": "address"
        },
        {
          "internalType": "address",
          "name": "to",
          "type": "address"
        },
        {
          "internalType": "uint256",
          "name": "tokenId",
          "type": "uint256"
        }
      ],
      "name": "safeTransferFrom",
      "outputs": [],
      "stateMutability": "nonpayable",
      "type": "function"
    },
    {
      "inputs": [
        {
          "internalType": "address",
          "name": "from",
          "type": "address"
        },
        {
          "internalType": "address",
          "name": "to",
          "type": "address"
        },
        {
          "internalType": "uint256",
          "name": "tokenId",
          "type": "uint256"
        },
        {
          "internalType": "bytes",
          "name": "data",
          "type": "bytes"
        }
      ],
      "name": "safeTransferFrom",
      "outputs": [],
      "stateMutability": "nonpayable",
      "type": "function"
    },
    {
      "inputs": [
        {
          "internalType": "address",
          "name": "operator",
          "type": "address"
        },
        {
          "internalType": "bool",
          "name": "approved",
          "type": "bool"
        }
      ],
      "name": "setApprovalForAll",
      "outputs": [],
      "stateMutability": "nonpayable",
      "type": "function"
    },
    {
      "inputs": [
        {
          "internalType": "bytes4",
          "name": "interfaceId",
          "type": "bytes4"
        }
      ],
      "name": "supportsInterface",
      "outputs": [
        {
          "internalType": "bool",
          "name": "",
          "type": "bool"
        }
      ],
      "stateMutability": "view",
      "type": "function",
      "constant": true
    },
    {
      "inputs": [],
      "name": "symbol",
      "outputs": [
        {
          "internalType": "string",
          "name": "",
          "type": "string"
        }
      ],
      "stateMutability": "view",
      "type": "function",
      "constant": true
    },
    {
      "inputs": [
        {
          "internalType": "uint256",
          "name": "tokenId",
          "type": "uint256"
        }
      ],
      "name": "tokenURI",
      "outputs": [
        {
          "internalType": "string",
          "name": "",
          "type": "string"
        }
      ],
      "stateMutability": "view",
      "type": "function",
      "constant": true
    },
    {
      "inputs": [
        {
          "internalType": "address",
          "name": "from",
          "type": "address"
        },
        {
          "internalType": "address",
          "name": "to",
          "type": "address"
        },
        {
          "internalType": "uint256",
          "name": "tokenId",
          "type": "uint256"
        }
      ],
      "name": "transferFrom",
      "outputs": [],
      "stateMutability": "nonpayable",
      "type": "function"
    },
    {
      "inputs": [
        {
          "internalType": "address",
          "name": "",
          "type": "address"
        },
        {
          "internalType": "uint256",
          "name": "",
          "type": "uint256"
        }
      ],
      "name": "userPost",
      "outputs": [
        {
          "internalType": "string",
          "name": "description",
          "type": "string"
        },
        {
          "internalType": "string",
          "name": "image",
          "type": "string"
        }
      ],
      "stateMutability": "view",
      "type": "function",
      "constant": true
    },
    {
      "inputs": [
        {
          "internalType": "address",
          "name": "",
          "type": "address"
        }
      ],
      "name": "userPostCounter",
      "outputs": [
        {
          "internalType": "uint256",
          "name": "postId",
          "type": "uint256"
        }
      ],
      "stateMutability": "view",
      "type": "function",
      "constant": true
    },
    {
      "inputs": [
        {
          "internalType": "string",
          "name": "_description",
          "type": "string"
        },
        {
          "internalType": "string",
          "name": "_image",
          "type": "string"
        },
        {
          "internalType": "address",
          "name": "ownerWallet",
          "type": "address"
        }
      ],
      "name": "createPost",
      "outputs": [],
      "stateMutability": "nonpayable",
      "type": "function"
    },
    {
      "inputs": [
        {
          "internalType": "uint256",
          "name": "tokenId",
          "type": "uint256"
        }
      ],
      "name": "getPost",
      "outputs": [
        {
          "internalType": "string",
          "name": "description",
          "type": "string"
        },
        {
          "internalType": "string",
          "name": "image",
          "type": "string"
        },
        {
          "internalType": "address",
          "name": "postOwner",
          "type": "address"
        },
        {
          "internalType": "uint256",
          "name": "id",
          "type": "uint256"
        }
      ],
      "stateMutability": "view",
      "type": "function",
      "constant": true
    },
    {
      "inputs": [
        {
          "internalType": "uint256",
          "name": "tokenId",
          "type": "uint256"
        }
      ],
      "name": "deletePost",
      "outputs": [],
      "stateMutability": "nonpayable",
      "type": "function"
    }
  ],
  "bytecode": "0x608060405234801562000010575f80fd5b506040518060400160405280600481526020017f506f7374000000000000000000000000000000000000000000000000000000008152506040518060400160405280600481526020017f504f535400000000000000000000000000000000000000000000000000000000815250815f90816200008d91906200030c565b5080600190816200009f91906200030c565b505050620003f0565b5f81519050919050565b7f4e487b71000000000000000000000000000000000000000000000000000000005f52604160045260245ffd5b7f4e487b71000000000000000000000000000000000000000000000000000000005f52602260045260245ffd5b5f60028204905060018216806200012457607f821691505b6020821081036200013a5762000139620000df565b5b50919050565b5f819050815f5260205f209050919050565b5f6020601f8301049050919050565b5f82821b905092915050565b5f600883026200019e7fffffffffffffffffffffffffffffffffffffffffffffffffffffffffffffffff8262000161565b620001aa868362000161565b95508019841693508086168417925050509392505050565b5f819050919050565b5f819050919050565b5f620001f4620001ee620001e884620001c2565b620001cb565b620001c2565b9050919050565b5f819050919050565b6200020f83620001d4565b620002276200021e82620001fb565b8484546200016d565b825550505050565b5f90565b6200023d6200022f565b6200024a81848462000204565b505050565b5b818110156200027157620002655f8262000233565b60018101905062000250565b5050565b601f821115620002c0576200028a8162000140565b620002958462000152565b81016020851015620002a5578190505b620002bd620002b48562000152565b8301826200024f565b50505b505050565b5f82821c905092915050565b5f620002e25f1984600802620002c5565b1980831691505092915050565b5f620002fc8383620002d1565b9150826002028217905092915050565b6200031782620000a8565b67ffffffffffffffff811115620003335762000332620000b2565b5b6200033f82546200010c565b6200034c82828562000275565b5f60209050601f83116001811462000382575f84156200036d578287015190505b620003798582620002ef565b865550620003e8565b601f198416620003928662000140565b5f5b82811015620003bb5784890151825560018201915060208501945060208101905062000394565b86831015620003db5784890151620003d7601f891682620002d1565b8355505b6001600288020188555050505b505050505050565b6131a080620003fe5f395ff3fe608060405234801561000f575f80fd5b506004361061012a575f3560e01c80634a767661116100ab57806395d89b411161006f57806395d89b4114610366578063a22cb46514610384578063b88d4fde146103a0578063c87b56dd146103bc578063e985e9c5146103ec5761012a565b80634a7676611461029c5780636352211e146102cc57806370a08231146102fc578063862407511461032c5780638da5cb5b146103485761012a565b806323b872dd116100f257806323b872dd146101e45780633d8b57c51461020057806340731c241461023157806342842e0e1461026457806342966c68146102805761012a565b806301ffc9a71461012e57806306fdde031461015e578063081812fc1461017c578063094cd5ee146101ac578063095ea7b3146101c8575b5f80fd5b61014860048036038101906101439190611fc3565b61041c565b6040516101559190612008565b60405180910390f35b6101666104fd565b60405161017391906120ab565b60405180910390f35b610196600480360381019061019191906120fe565b61058c565b6040516101a39190612168565b60405180910390f35b6101c660048036038101906101c191906120fe565b6105ce565b005b6101e260048036038101906101dd91906121ab565b6105da565b005b6101fe60048036038101906101f991906121e9565b6106f0565b005b61021a600480360381019061021591906121ab565b610750565b604051610228929190612239565b60405180910390f35b61024b600480360381019061024691906120fe565b610896565b60405161025b949392919061227d565b60405180910390f35b61027e600480360381019061027991906121e9565b610a47565b005b61029a600480360381019061029591906120fe565b610a66565b005b6102b660048036038101906102b191906122ce565b610ac2565b6040516102c391906122f9565b60405180910390f35b6102e660048036038101906102e191906120fe565b610ad7565b6040516102f39190612168565b60405180910390f35b610316600480360381019061031191906122ce565b610b5b565b60405161032391906122f9565b60405180910390f35b6103466004803603810190610341919061243e565b610c0f565b005b610350610e44565b60405161035d9190612168565b60405180910390f35b61036e610e69565b60405161037b91906120ab565b60405180910390f35b61039e600480360381019061039991906124f0565b610ef9565b005b6103ba60048036038101906103b591906125cc565b610f0f565b005b6103d660048036038101906103d191906120fe565b610f71565b6040516103e391906120ab565b60405180910390f35b6104066004803603810190610401919061264c565b610fd6565b6040516104139190612008565b60405180910390f35b5f7f80ac58cd000000000000000000000000000000000000000000000000000000007bffffffffffffffffffffffffffffffffffffffffffffffffffffffff1916827bffffffffffffffffffffffffffffffffffffffffffffffffffffffff191614806104e657507f5b5e139f000000000000000000000000000000000000000000000000000000007bffffffffffffffffffffffffffffffffffffffffffffffffffffffff1916827bffffffffffffffffffffffffffffffffffffffffffffffffffffffff1916145b806104f657506104f582611064565b5b9050919050565b60605f805461050b906126b7565b80601f0160208091040260200160405190810160405280929190818152602001828054610537906126b7565b80156105825780601f1061055957610100808354040283529160200191610582565b820191905f5260205f20905b81548152906001019060200180831161056557829003601f168201915b5050505050905090565b5f610596826110cd565b60045f8381526020019081526020015f205f9054906101000a900473ffffffffffffffffffffffffffffffffffffffff169050919050565b6105d781611118565b50565b5f6105e482610ad7565b90508073ffffffffffffffffffffffffffffffffffffffff168373ffffffffffffffffffffffffffffffffffffffff1603610654576040517f08c379a000000000000000000000000000000000000000000000000000000000815260040161064b90612757565b60405180910390fd5b8073ffffffffffffffffffffffffffffffffffffffff16610673611259565b73ffffffffffffffffffffffffffffffffffffffff1614806106a257506106a18161069c611259565b610fd6565b5b6106e1576040517f08c379a00000000000000000000000000000000000000000000000000000000081526004016106d8906127e5565b60405180910390fd5b6106eb8383611260565b505050565b6107016106fb611259565b82611316565b610740576040517f08c379a000000000000000000000000000000000000000000000000000000000815260040161073790612873565b60405180910390fd5b61074b8383836113aa565b505050565b6007602052815f5260405f208181548110610769575f80fd5b905f5260205f2090600202015f9150915050805f018054610789906126b7565b80601f01602080910402602001604051908101604052809291908181526020018280546107b5906126b7565b80156108005780601f106107d757610100808354040283529160200191610800565b820191905f5260205f20905b8154815290600101906020018083116107e357829003601f168201915b505050505090806001018054610815906126b7565b80601f0160208091040260200160405190810160405280929190818152602001828054610841906126b7565b801561088c5780601f106108635761010080835404028352916020019161088c565b820191905f5260205f20905b81548152906001019060200180831161086f57829003601f168201915b5050505050905082565b6060805f806108a485611696565b6108e3576040517f08c379a00000000000000000000000000000000000000000000000000000000081526004016108da906128db565b60405180910390fd5b5f600a5f8781526020019081526020015f206040518060400160405290815f8201805461090f906126b7565b80601f016020809104026020016040519081016040528092919081815260200182805461093b906126b7565b80156109865780601f1061095d57610100808354040283529160200191610986565b820191905f5260205f20905b81548152906001019060200180831161096957829003601f168201915b5050505050815260200160018201805461099f906126b7565b80601f01602080910402602001604051908101604052809291908181526020018280546109cb906126b7565b8015610a165780601f106109ed57610100808354040283529160200191610a16565b820191905f5260205f20905b8154815290600101906020018083116109f957829003601f168201915b5050505050815250509050610a2a86610ad7565b9250805f0151816020015184889450945094509450509193509193565b610a6183838360405180602001604052805f815250610f0f565b505050565b610a77610a71611259565b82611316565b610ab6576040517f08c379a0000000000000000000000000000000000000000000000000000000008152600401610aad90612873565b60405180910390fd5b610abf81611118565b50565b6006602052805f5260405f205f915090505481565b5f80610ae2836116d6565b90505f73ffffffffffffffffffffffffffffffffffffffff168173ffffffffffffffffffffffffffffffffffffffff1603610b52576040517f08c379a0000000000000000000000000000000000000000000000000000000008152600401610b4990612943565b60405180910390fd5b80915050919050565b5f8073ffffffffffffffffffffffffffffffffffffffff168273ffffffffffffffffffffffffffffffffffffffff1603610bca576040517f08c379a0000000000000000000000000000000000000000000000000000000008152600401610bc1906129d1565b60405180910390fd5b60035f8373ffffffffffffffffffffffffffffffffffffffff1673ffffffffffffffffffffffffffffffffffffffff1681526020019081526020015f20549050919050565b731a065ab9bb09c078b9578bd674c4792db4ff3fad73ffffffffffffffffffffffffffffffffffffffff163373ffffffffffffffffffffffffffffffffffffffff1614610c91576040517f08c379a0000000000000000000000000000000000000000000000000000000008152600401610c8890612a39565b60405180910390fd5b5f610c9c600961170f565b90508060065f8473ffffffffffffffffffffffffffffffffffffffff1673ffffffffffffffffffffffffffffffffffffffff1681526020019081526020015f205f828254610cea9190612a84565b92505081905550610cfb828261171b565b5f604051806040016040528086815260200185815250905080600a5f8481526020019081526020015f205f820151815f019081610d389190612c54565b506020820151816001019081610d4e9190612c54565b5090505060075f8473ffffffffffffffffffffffffffffffffffffffff1673ffffffffffffffffffffffffffffffffffffffff1681526020019081526020015f2081908060018154018082558091505060019003905f5260205f2090600202015f909190919091505f820151815f019081610dc99190612c54565b506020820151816001019081610ddf9190612c54565b505050813373ffffffffffffffffffffffffffffffffffffffff167f77a664279365f380c6fd1496feacd22dfa4d68c9ad2b1a0fe2f21dc1b9518d698787604051610e2b929190612239565b60405180910390a3610e3d6009611738565b5050505050565b60085f9054906101000a900473ffffffffffffffffffffffffffffffffffffffff1681565b606060018054610e78906126b7565b80601f0160208091040260200160405190810160405280929190818152602001828054610ea4906126b7565b8015610eef5780601f10610ec657610100808354040283529160200191610eef565b820191905f5260205f20905b815481529060010190602001808311610ed257829003601f168201915b5050505050905090565b610f0b610f04611259565b838361174c565b5050565b610f20610f1a611259565b83611316565b610f5f576040517f08c379a0000000000000000000000000000000000000000000000000000000008152600401610f5690612873565b60405180910390fd5b610f6b848484846118b3565b50505050565b6060610f7c826110cd565b5f610f8561190f565b90505f815111610fa35760405180602001604052805f815250610fce565b80610fad84611925565b604051602001610fbe929190612d5d565b6040516020818303038152906040525b915050919050565b5f60055f8473ffffffffffffffffffffffffffffffffffffffff1673ffffffffffffffffffffffffffffffffffffffff1681526020019081526020015f205f8373ffffffffffffffffffffffffffffffffffffffff1673ffffffffffffffffffffffffffffffffffffffff1681526020019081526020015f205f9054906101000a900460ff16905092915050565b5f7f01ffc9a7000000000000000000000000000000000000000000000000000000007bffffffffffffffffffffffffffffffffffffffffffffffffffffffff1916827bffffffffffffffffffffffffffffffffffffffffffffffffffffffff1916149050919050565b6110d681611696565b611115576040517f08c379a000000000000000000000000000000000000000000000000000000000815260040161110c90612943565b60405180910390fd5b50565b5f61112282610ad7565b9050611131815f8460016119ef565b61113a82610ad7565b905060045f8381526020019081526020015f205f6101000a81549073ffffffffffffffffffffffffffffffffffffffff0219169055600160035f8373ffffffffffffffffffffffffffffffffffffffff1673ffffffffffffffffffffffffffffffffffffffff1681526020019081526020015f205f828254039250508190555060025f8381526020019081526020015f205f6101000a81549073ffffffffffffffffffffffffffffffffffffffff0219169055815f73ffffffffffffffffffffffffffffffffffffffff168273ffffffffffffffffffffffffffffffffffffffff167fddf252ad1be2c89b69c2b068fc378daa952ba7f163c4a11628f55a4df523b3ef60405160405180910390a4611255815f8460016119f5565b5050565b5f33905090565b8160045f8381526020019081526020015f205f6101000a81548173ffffffffffffffffffffffffffffffffffffffff021916908373ffffffffffffffffffffffffffffffffffffffff160217905550808273ffffffffffffffffffffffffffffffffffffffff166112d083610ad7565b73ffffffffffffffffffffffffffffffffffffffff167f8c5be1e5ebec7d5bd14f71427d1e84f3dd0314c0f7b2291e5b200ac8c7c3b92560405160405180910390a45050565b5f8061132183610ad7565b90508073ffffffffffffffffffffffffffffffffffffffff168473ffffffffffffffffffffffffffffffffffffffff16148061136357506113628185610fd6565b5b806113a157508373ffffffffffffffffffffffffffffffffffffffff166113898461058c565b73ffffffffffffffffffffffffffffffffffffffff16145b91505092915050565b8273ffffffffffffffffffffffffffffffffffffffff166113ca82610ad7565b73ffffffffffffffffffffffffffffffffffffffff1614611420576040517f08c379a000000000000000000000000000000000000000000000000000000000815260040161141790612df0565b60405180910390fd5b5f73ffffffffffffffffffffffffffffffffffffffff168273ffffffffffffffffffffffffffffffffffffffff160361148e576040517f08c379a000000000000000000000000000000000000000000000000000000000815260040161148590612e7e565b60405180910390fd5b61149b83838360016119ef565b8273ffffffffffffffffffffffffffffffffffffffff166114bb82610ad7565b73ffffffffffffffffffffffffffffffffffffffff1614611511576040517f08c379a000000000000000000000000000000000000000000000000000000000815260040161150890612df0565b60405180910390fd5b60045f8281526020019081526020015f205f6101000a81549073ffffffffffffffffffffffffffffffffffffffff0219169055600160035f8573ffffffffffffffffffffffffffffffffffffffff1673ffffffffffffffffffffffffffffffffffffffff1681526020019081526020015f205f8282540392505081905550600160035f8473ffffffffffffffffffffffffffffffffffffffff1673ffffffffffffffffffffffffffffffffffffffff1681526020019081526020015f205f82825401925050819055508160025f8381526020019081526020015f205f6101000a81548173ffffffffffffffffffffffffffffffffffffffff021916908373ffffffffffffffffffffffffffffffffffffffff160217905550808273ffffffffffffffffffffffffffffffffffffffff168473ffffffffffffffffffffffffffffffffffffffff167fddf252ad1be2c89b69c2b068fc378daa952ba7f163c4a11628f55a4df523b3ef60405160405180910390a461169183838360016119f5565b505050565b5f8073ffffffffffffffffffffffffffffffffffffffff166116b7836116d6565b73ffffffffffffffffffffffffffffffffffffffff1614159050919050565b5f60025f8381526020019081526020015f205f9054906101000a900473ffffffffffffffffffffffffffffffffffffffff169050919050565b5f815f01549050919050565b611734828260405180602001604052805f8152506119fb565b5050565b6001815f015f828254019250508190555050565b8173ffffffffffffffffffffffffffffffffffffffff168373ffffffffffffffffffffffffffffffffffffffff16036117ba576040517f08c379a00000000000000000000000000000000000000000000000000000000081526004016117b190612ee6565b60405180910390fd5b8060055f8573ffffffffffffffffffffffffffffffffffffffff1673ffffffffffffffffffffffffffffffffffffffff1681526020019081526020015f205f8473ffffffffffffffffffffffffffffffffffffffff1673ffffffffffffffffffffffffffffffffffffffff1681526020019081526020015f205f6101000a81548160ff0219169083151502179055508173ffffffffffffffffffffffffffffffffffffffff168373ffffffffffffffffffffffffffffffffffffffff167f17307eab39ab6107e8899845ad3d59bd9653f200f220920489ca2b5937696c31836040516118a69190612008565b60405180910390a3505050565b6118be8484846113aa565b6118ca84848484611a55565b611909576040517f08c379a000000000000000000000000000000000000000000000000000000000815260040161190090612f74565b60405180910390fd5b50505050565b606060405180602001604052805f815250905090565b60605f600161193384611bd7565b0190505f8167ffffffffffffffff8111156119515761195061231a565b5b6040519080825280601f01601f1916602001820160405280156119835781602001600182028036833780820191505090505b5090505f82602001820190505b6001156119e4578080600190039150507f3031323334353637383961626364656600000000000000000000000000000000600a86061a8153600a85816119d9576119d8612f92565b5b0494505f8503611990575b819350505050919050565b50505050565b50505050565b611a058383611d28565b611a115f848484611a55565b611a50576040517f08c379a0000000000000000000000000000000000000000000000000000000008152600401611a4790612f74565b60405180910390fd5b505050565b5f611a758473ffffffffffffffffffffffffffffffffffffffff16611f3b565b15611bca578373ffffffffffffffffffffffffffffffffffffffff1663150b7a02611a9e611259565b8786866040518563ffffffff1660e01b8152600401611ac09493929190613011565b6020604051808303815f875af1925050508015611afb57506040513d601f19601f82011682018060405250810190611af8919061306f565b60015b611b7a573d805f8114611b29576040519150601f19603f3d011682016040523d82523d5f602084013e611b2e565b606091505b505f815103611b72576040517f08c379a0000000000000000000000000000000000000000000000000000000008152600401611b6990612f74565b60405180910390fd5b805181602001fd5b63150b7a0260e01b7bffffffffffffffffffffffffffffffffffffffffffffffffffffffff1916817bffffffffffffffffffffffffffffffffffffffffffffffffffffffff191614915050611bcf565b600190505b949350505050565b5f805f90507a184f03e93ff9f4daa797ed6e38ed64bf6a1f0100000000000000008310611c33577a184f03e93ff9f4daa797ed6e38ed64bf6a1f0100000000000000008381611c2957611c28612f92565b5b0492506040810190505b6d04ee2d6d415b85acef81000000008310611c70576d04ee2d6d415b85acef81000000008381611c6657611c65612f92565b5b0492506020810190505b662386f26fc100008310611c9f57662386f26fc100008381611c9557611c94612f92565b5b0492506010810190505b6305f5e1008310611cc8576305f5e1008381611cbe57611cbd612f92565b5b0492506008810190505b6127108310611ced576127108381611ce357611ce2612f92565b5b0492506004810190505b60648310611d105760648381611d0657611d05612f92565b5b0492506002810190505b600a8310611d1f576001810190505b80915050919050565b5f73ffffffffffffffffffffffffffffffffffffffff168273ffffffffffffffffffffffffffffffffffffffff1603611d96576040517f08c379a0000000000000000000000000000000000000000000000000000000008152600401611d8d906130e4565b60405180910390fd5b611d9f81611696565b15611ddf576040517f08c379a0000000000000000000000000000000000000000000000000000000008152600401611dd69061314c565b60405180910390fd5b611dec5f838360016119ef565b611df581611696565b15611e35576040517f08c379a0000000000000000000000000000000000000000000000000000000008152600401611e2c9061314c565b60405180910390fd5b600160035f8473ffffffffffffffffffffffffffffffffffffffff1673ffffffffffffffffffffffffffffffffffffffff1681526020019081526020015f205f82825401925050819055508160025f8381526020019081526020015f205f6101000a81548173ffffffffffffffffffffffffffffffffffffffff021916908373ffffffffffffffffffffffffffffffffffffffff160217905550808273ffffffffffffffffffffffffffffffffffffffff165f73ffffffffffffffffffffffffffffffffffffffff167fddf252ad1be2c89b69c2b068fc378daa952ba7f163c4a11628f55a4df523b3ef60405160405180910390a4611f375f838360016119f5565b5050565b5f808273ffffffffffffffffffffffffffffffffffffffff163b119050919050565b5f604051905090565b5f80fd5b5f80fd5b5f7fffffffff0000000000000000000000000000000000000000000000000000000082169050919050565b611fa281611f6e565b8114611fac575f80fd5b50565b5f81359050611fbd81611f99565b92915050565b5f60208284031215611fd857611fd7611f66565b5b5f611fe584828501611faf565b91505092915050565b5f8115159050919050565b61200281611fee565b82525050565b5f60208201905061201b5f830184611ff9565b92915050565b5f81519050919050565b5f82825260208201905092915050565b5f5b8381101561205857808201518184015260208101905061203d565b5f8484015250505050565b5f601f19601f8301169050919050565b5f61207d82612021565b612087818561202b565b935061209781856020860161203b565b6120a081612063565b840191505092915050565b5f6020820190508181035f8301526120c38184612073565b905092915050565b5f819050919050565b6120dd816120cb565b81146120e7575f80fd5b50565b5f813590506120f8816120d4565b92915050565b5f6020828403121561211357612112611f66565b5b5f612120848285016120ea565b91505092915050565b5f73ffffffffffffffffffffffffffffffffffffffff82169050919050565b5f61215282612129565b9050919050565b61216281612148565b82525050565b5f60208201905061217b5f830184612159565b92915050565b61218a81612148565b8114612194575f80fd5b50565b5f813590506121a581612181565b92915050565b5f80604083850312156121c1576121c0611f66565b5b5f6121ce85828601612197565b92505060206121df858286016120ea565b9150509250929050565b5f805f60608486031215612200576121ff611f66565b5b5f61220d86828701612197565b935050602061221e86828701612197565b925050604061222f868287016120ea565b9150509250925092565b5f6040820190508181035f8301526122518185612073565b905081810360208301526122658184612073565b90509392505050565b612277816120cb565b82525050565b5f6080820190508181035f8301526122958187612073565b905081810360208301526122a98186612073565b90506122b86040830185612159565b6122c5606083018461226e565b95945050505050565b5f602082840312156122e3576122e2611f66565b5b5f6122f084828501612197565b91505092915050565b5f60208201905061230c5f83018461226e565b92915050565b5f80fd5b5f80fd5b7f4e487b71000000000000000000000000000000000000000000000000000000005f52604160045260245ffd5b61235082612063565b810181811067ffffffffffffffff8211171561236f5761236e61231a565b5b80604052505050565b5f612381611f5d565b905061238d8282612347565b919050565b5f67ffffffffffffffff8211156123ac576123ab61231a565b5b6123b582612063565b9050602081019050919050565b828183375f83830152505050565b5f6123e26123dd84612392565b612378565b9050828152602081018484840111156123fe576123fd612316565b5b6124098482856123c2565b509392505050565b5f82601f83011261242557612424612312565b5b81356124358482602086016123d0565b91505092915050565b5f805f6060848603121561245557612454611f66565b5b5f84013567ffffffffffffffff81111561247257612471611f6a565b5b61247e86828701612411565b935050602084013567ffffffffffffffff81111561249f5761249e611f6a565b5b6124ab86828701612411565b92505060406124bc86828701612197565b9150509250925092565b6124cf81611fee565b81146124d9575f80fd5b50565b5f813590506124ea816124c6565b92915050565b5f806040838503121561250657612505611f66565b5b5f61251385828601612197565b9250506020612524858286016124dc565b9150509250929050565b5f67ffffffffffffffff8211156125485761254761231a565b5b61255182612063565b9050602081019050919050565b5f61257061256b8461252e565b612378565b90508281526020810184848401111561258c5761258b612316565b5b6125978482856123c2565b509392505050565b5f82601f8301126125b3576125b2612312565b5b81356125c384826020860161255e565b91505092915050565b5f805f80608085870312156125e4576125e3611f66565b5b5f6125f187828801612197565b945050602061260287828801612197565b9350506040612613878288016120ea565b925050606085013567ffffffffffffffff81111561263457612633611f6a565b5b6126408782880161259f565b91505092959194509250565b5f806040838503121561266257612661611f66565b5b5f61266f85828601612197565b925050602061268085828601612197565b9150509250929050565b7f4e487b71000000000000000000000000000000000000000000000000000000005f52602260045260245ffd5b5f60028204905060018216806126ce57607f821691505b6020821081036126e1576126e061268a565b5b50919050565b7f4552433732313a20617070726f76616c20746f2063757272656e74206f776e655f8201527f7200000000000000000000000000000000000000000000000000000000000000602082015250565b5f61274160218361202b565b915061274c826126e7565b604082019050919050565b5f6020820190508181035f83015261276e81612735565b9050919050565b7f4552433732313a20617070726f76652063616c6c6572206973206e6f7420746f5f8201527f6b656e206f776e6572206f7220617070726f76656420666f7220616c6c000000602082015250565b5f6127cf603d8361202b565b91506127da82612775565b604082019050919050565b5f6020820190508181035f8301526127fc816127c3565b9050919050565b7f4552433732313a2063616c6c6572206973206e6f7420746f6b656e206f776e655f8201527f72206f7220617070726f76656400000000000000000000000000000000000000602082015250565b5f61285d602d8361202b565b915061286882612803565b604082019050919050565b5f6020820190508181035f83015261288a81612851565b9050919050565b7f506f737420646f6573206e6f74206578697374000000000000000000000000005f82015250565b5f6128c560138361202b565b91506128d082612891565b602082019050919050565b5f6020820190508181035f8301526128f2816128b9565b9050919050565b7f4552433732313a20696e76616c696420746f6b656e20494400000000000000005f82015250565b5f61292d60188361202b565b9150612938826128f9565b602082019050919050565b5f6020820190508181035f83015261295a81612921565b9050919050565b7f4552433732313a2061646472657373207a65726f206973206e6f7420612076615f8201527f6c6964206f776e65720000000000000000000000000000000000000000000000602082015250565b5f6129bb60298361202b565b91506129c682612961565b604082019050919050565b5f6020820190508181035f8301526129e8816129af565b9050919050565b7f4e6f74206f776e657200000000000000000000000000000000000000000000005f82015250565b5f612a2360098361202b565b9150612a2e826129ef565b602082019050919050565b5f6020820190508181035f830152612a5081612a17565b9050919050565b7f4e487b71000000000000000000000000000000000000000000000000000000005f52601160045260245ffd5b5f612a8e826120cb565b9150612a99836120cb565b9250828201905080821115612ab157612ab0612a57565b5b92915050565b5f819050815f5260205f209050919050565b5f6020601f8301049050919050565b5f82821b905092915050565b5f60088302612b137fffffffffffffffffffffffffffffffffffffffffffffffffffffffffffffffff82612ad8565b612b1d8683612ad8565b95508019841693508086168417925050509392505050565b5f819050919050565b5f612b58612b53612b4e846120cb565b612b35565b6120cb565b9050919050565b5f819050919050565b612b7183612b3e565b612b85612b7d82612b5f565b848454612ae4565b825550505050565b5f90565b612b99612b8d565b612ba4818484612b68565b505050565b5b81811015612bc757612bbc5f82612b91565b600181019050612baa565b5050565b601f821115612c0c57612bdd81612ab7565b612be684612ac9565b81016020851015612bf5578190505b612c09612c0185612ac9565b830182612ba9565b50505b505050565b5f82821c905092915050565b5f612c2c5f1984600802612c11565b1980831691505092915050565b5f612c448383612c1d565b9150826002028217905092915050565b612c5d82612021565b67ffffffffffffffff811115612c7657612c7561231a565b5b612c8082546126b7565b612c8b828285612bcb565b5f60209050601f831160018114612cbc575f8415612caa578287015190505b612cb48582612c39565b865550612d1b565b601f198416612cca86612ab7565b5f5b82811015612cf157848901518255600182019150602085019450602081019050612ccc565b86831015612d0e5784890151612d0a601f891682612c1d565b8355505b6001600288020188555050505b505050505050565b5f81905092915050565b5f612d3782612021565b612d418185612d23565b9350612d5181856020860161203b565b80840191505092915050565b5f612d688285612d2d565b9150612d748284612d2d565b91508190509392505050565b7f4552433732313a207472616e736665722066726f6d20696e636f7272656374205f8201527f6f776e6572000000000000000000000000000000000000000000000000000000602082015250565b5f612dda60258361202b565b9150612de582612d80565b604082019050919050565b5f6020820190508181035f830152612e0781612dce565b9050919050565b7f4552433732313a207472616e7366657220746f20746865207a65726f206164645f8201527f7265737300000000000000000000000000000000000000000000000000000000602082015250565b5f612e6860248361202b565b9150612e7382612e0e565b604082019050919050565b5f6020820190508181035f830152612e9581612e5c565b9050919050565b7f4552433732313a20617070726f766520746f2063616c6c6572000000000000005f82015250565b5f612ed060198361202b565b9150612edb82612e9c565b602082019050919050565b5f6020820190508181035f830152612efd81612ec4565b9050919050565b7f4552433732313a207472616e7366657220746f206e6f6e2045524337323152655f8201527f63656976657220696d706c656d656e7465720000000000000000000000000000602082015250565b5f612f5e60328361202b565b9150612f6982612f04565b604082019050919050565b5f6020820190508181035f830152612f8b81612f52565b9050919050565b7f4e487b71000000000000000000000000000000000000000000000000000000005f52601260045260245ffd5b5f81519050919050565b5f82825260208201905092915050565b5f612fe382612fbf565b612fed8185612fc9565b9350612ffd81856020860161203b565b61300681612063565b840191505092915050565b5f6080820190506130245f830187612159565b6130316020830186612159565b61303e604083018561226e565b81810360608301526130508184612fd9565b905095945050505050565b5f8151905061306981611f99565b92915050565b5f6020828403121561308457613083611f66565b5b5f6130918482850161305b565b91505092915050565b7f4552433732313a206d696e7420746f20746865207a65726f20616464726573735f82015250565b5f6130ce60208361202b565b91506130d98261309a565b602082019050919050565b5f6020820190508181035f8301526130fb816130c2565b9050919050565b7f4552433732313a20746f6b656e20616c7265616479206d696e746564000000005f82015250565b5f613136601c8361202b565b915061314182613102565b602082019050919050565b5f6020820190508181035f8301526131638161312a565b905091905056fea26469706673582212207cb9e8bad909cc7eb8829b1c15fd7b8266cf23e691724c584aaa30e447529c3164736f6c63430008140033",
  "immutableReferences": {},
  "source": "// SPDX-License-Identifier: MIT\npragma solidity ^0.8.0;\n\nimport \"../../node_modules/@openzeppelin/contracts/token/ERC721/ERC721.sol\";\nimport \"../../node_modules/@openzeppelin/contracts/token/ERC721/extensions/ERC721Burnable.sol\";\nimport \"../../node_modules/@openzeppelin/contracts/access/Ownable.sol\";\nimport \"../../node_modules/@openzeppelin/contracts/utils/Counters.sol\";\n\ncontract PostFactory is ERC721, ERC721Burnable {\n    using Counters for Counters.Counter;\n    mapping(address => uint256 postId) public userPostCounter;\n    mapping(address => Post[]) public userPost;\n    address public owner;\n\n    Counters.Counter private _tokenIdCounter;\n\n    constructor() ERC721(\"Post\", \"POST\") {}\n\n    struct Post {\n        string description;\n        string image;\n    }\n\n    mapping(uint256 => Post) private _posts;\n    event NewPost(address indexed owner, uint256 indexed tokenId, string description, string image);\n\n    modifier onlyBackend () {\n        require(msg.sender == 0x1A065ab9BB09c078b9578bD674c4792db4ff3fad, \"Not owner\");\n        _;\n    }\n\n    function createPost(\n        string memory _description,\n        string memory _image,\n        address ownerWallet\n    ) public onlyBackend {\n        uint256 newTokenId = _tokenIdCounter.current();\n        userPostCounter[ownerWallet] += newTokenId;\n        _safeMint(ownerWallet, newTokenId);\n\n        Post memory newPost = Post(_description, _image);\n        _posts[newTokenId] = newPost;\n        userPost[ownerWallet].push(newPost);\n\n        emit NewPost(msg.sender, newTokenId, _description, _image);\n        _tokenIdCounter.increment();\n    }\n\n    function getPost(uint256 tokenId) public view\n        returns (\n            string memory description,\n            string memory image,\n            address postOwner,\n            uint256 id\n        )\n    {\n        require(_exists(tokenId), \"Post does not exist\");\n        Post memory post = _posts[tokenId];\n        postOwner = ownerOf(tokenId);\n        return (post.description, post.image, postOwner, tokenId);\n    }\n\n    function deletePost(uint256 tokenId) public {\n        _burn(tokenId);\n    }\n}\n",
  "sourcePath": "/home/victorcarvalho/Documents/Github/ChainlinkHackas/chainlink-hackathon/contracts/contracts/User/PostFactory.sol",
  "compiler": {
    "name": "solc",
    "version": "0.8.20+commit.a1b79de6.Emscripten.clang"
  },
  "schemaVersion": "3.4.14",
  "updatedAt": "2023-06-09T19:22:05.519Z",
  "networkType": "ethereum",
  "devdoc": {
    "events": {
      "Approval(address,address,uint256)": {
        "details": "Emitted when `owner` enables `approved` to manage the `tokenId` token."
      },
      "ApprovalForAll(address,address,bool)": {
        "details": "Emitted when `owner` enables or disables (`approved`) `operator` to manage all of its assets."
      },
      "Transfer(address,address,uint256)": {
        "details": "Emitted when `tokenId` token is transferred from `from` to `to`."
      }
    },
    "kind": "dev",
    "methods": {
      "approve(address,uint256)": {
        "details": "See {IERC721-approve}."
      },
      "balanceOf(address)": {
        "details": "See {IERC721-balanceOf}."
      },
      "burn(uint256)": {
        "details": "Burns `tokenId`. See {ERC721-_burn}. Requirements: - The caller must own `tokenId` or be an approved operator."
      },
      "getApproved(uint256)": {
        "details": "See {IERC721-getApproved}."
      },
      "isApprovedForAll(address,address)": {
        "details": "See {IERC721-isApprovedForAll}."
      },
      "name()": {
        "details": "See {IERC721Metadata-name}."
      },
      "ownerOf(uint256)": {
        "details": "See {IERC721-ownerOf}."
      },
      "safeTransferFrom(address,address,uint256)": {
        "details": "See {IERC721-safeTransferFrom}."
      },
      "safeTransferFrom(address,address,uint256,bytes)": {
        "details": "See {IERC721-safeTransferFrom}."
      },
      "setApprovalForAll(address,bool)": {
        "details": "See {IERC721-setApprovalForAll}."
      },
      "supportsInterface(bytes4)": {
        "details": "See {IERC165-supportsInterface}."
      },
      "symbol()": {
        "details": "See {IERC721Metadata-symbol}."
      },
      "tokenURI(uint256)": {
        "details": "See {IERC721Metadata-tokenURI}."
      },
      "transferFrom(address,address,uint256)": {
        "details": "See {IERC721-transferFrom}."
      }
    },
    "version": 1
  },
  "userdoc": {
    "kind": "user",
    "methods": {},
    "version": 1
  }
}