{
  "contractName": "PostFactory",
  "abi": [
    {
      "inputs": [],
      "stateMutability": "nonpayable",
      "type": "constructor"
    },
    {
      "anonymous": false,
      "inputs": [
        {
          "indexed": true,
          "internalType": "address",
          "name": "owner",
          "type": "address"
        },
        {
          "indexed": true,
          "internalType": "address",
          "name": "approved",
          "type": "address"
        },
        {
          "indexed": true,
          "internalType": "uint256",
          "name": "tokenId",
          "type": "uint256"
        }
      ],
      "name": "Approval",
      "type": "event"
    },
    {
      "anonymous": false,
      "inputs": [
        {
          "indexed": true,
          "internalType": "address",
          "name": "owner",
          "type": "address"
        },
        {
          "indexed": true,
          "internalType": "address",
          "name": "operator",
          "type": "address"
        },
        {
          "indexed": false,
          "internalType": "bool",
          "name": "approved",
          "type": "bool"
        }
      ],
      "name": "ApprovalForAll",
      "type": "event"
    },
    {
      "anonymous": false,
      "inputs": [
        {
          "indexed": true,
          "internalType": "address",
          "name": "owner",
          "type": "address"
        },
        {
          "indexed": true,
          "internalType": "uint256",
          "name": "tokenId",
          "type": "uint256"
        },
        {
          "indexed": false,
          "internalType": "string",
          "name": "description",
          "type": "string"
        },
        {
          "indexed": false,
          "internalType": "string",
          "name": "image",
          "type": "string"
        }
      ],
      "name": "NewPost",
      "type": "event"
    },
    {
      "anonymous": false,
      "inputs": [
        {
          "indexed": true,
          "internalType": "address",
          "name": "from",
          "type": "address"
        },
        {
          "indexed": true,
          "internalType": "address",
          "name": "to",
          "type": "address"
        },
        {
          "indexed": true,
          "internalType": "uint256",
          "name": "tokenId",
          "type": "uint256"
        }
      ],
      "name": "Transfer",
      "type": "event"
    },
    {
      "inputs": [
        {
          "internalType": "address",
          "name": "to",
          "type": "address"
        },
        {
          "internalType": "uint256",
          "name": "tokenId",
          "type": "uint256"
        }
      ],
      "name": "approve",
      "outputs": [],
      "stateMutability": "nonpayable",
      "type": "function"
    },
    {
      "inputs": [
        {
          "internalType": "address",
          "name": "owner",
          "type": "address"
        }
      ],
      "name": "balanceOf",
      "outputs": [
        {
          "internalType": "uint256",
          "name": "",
          "type": "uint256"
        }
      ],
      "stateMutability": "view",
      "type": "function",
      "constant": true
    },
    {
      "inputs": [
        {
          "internalType": "uint256",
          "name": "tokenId",
          "type": "uint256"
        }
      ],
      "name": "burn",
      "outputs": [],
      "stateMutability": "nonpayable",
      "type": "function"
    },
    {
      "inputs": [
        {
          "internalType": "uint256",
          "name": "tokenId",
          "type": "uint256"
        }
      ],
      "name": "getApproved",
      "outputs": [
        {
          "internalType": "address",
          "name": "",
          "type": "address"
        }
      ],
      "stateMutability": "view",
      "type": "function",
      "constant": true
    },
    {
      "inputs": [
        {
          "internalType": "address",
          "name": "owner",
          "type": "address"
        },
        {
          "internalType": "address",
          "name": "operator",
          "type": "address"
        }
      ],
      "name": "isApprovedForAll",
      "outputs": [
        {
          "internalType": "bool",
          "name": "",
          "type": "bool"
        }
      ],
      "stateMutability": "view",
      "type": "function",
      "constant": true
    },
    {
      "inputs": [],
      "name": "name",
      "outputs": [
        {
          "internalType": "string",
          "name": "",
          "type": "string"
        }
      ],
      "stateMutability": "view",
      "type": "function",
      "constant": true
    },
    {
      "inputs": [
        {
          "internalType": "uint256",
          "name": "tokenId",
          "type": "uint256"
        }
      ],
      "name": "ownerOf",
      "outputs": [
        {
          "internalType": "address",
          "name": "",
          "type": "address"
        }
      ],
      "stateMutability": "view",
      "type": "function",
      "constant": true
    },
    {
      "inputs": [
        {
          "internalType": "address",
          "name": "from",
          "type": "address"
        },
        {
          "internalType": "address",
          "name": "to",
          "type": "address"
        },
        {
          "internalType": "uint256",
          "name": "tokenId",
          "type": "uint256"
        }
      ],
      "name": "safeTransferFrom",
      "outputs": [],
      "stateMutability": "nonpayable",
      "type": "function"
    },
    {
      "inputs": [
        {
          "internalType": "address",
          "name": "from",
          "type": "address"
        },
        {
          "internalType": "address",
          "name": "to",
          "type": "address"
        },
        {
          "internalType": "uint256",
          "name": "tokenId",
          "type": "uint256"
        },
        {
          "internalType": "bytes",
          "name": "data",
          "type": "bytes"
        }
      ],
      "name": "safeTransferFrom",
      "outputs": [],
      "stateMutability": "nonpayable",
      "type": "function"
    },
    {
      "inputs": [
        {
          "internalType": "address",
          "name": "operator",
          "type": "address"
        },
        {
          "internalType": "bool",
          "name": "approved",
          "type": "bool"
        }
      ],
      "name": "setApprovalForAll",
      "outputs": [],
      "stateMutability": "nonpayable",
      "type": "function"
    },
    {
      "inputs": [
        {
          "internalType": "bytes4",
          "name": "interfaceId",
          "type": "bytes4"
        }
      ],
      "name": "supportsInterface",
      "outputs": [
        {
          "internalType": "bool",
          "name": "",
          "type": "bool"
        }
      ],
      "stateMutability": "view",
      "type": "function",
      "constant": true
    },
    {
      "inputs": [],
      "name": "symbol",
      "outputs": [
        {
          "internalType": "string",
          "name": "",
          "type": "string"
        }
      ],
      "stateMutability": "view",
      "type": "function",
      "constant": true
    },
    {
      "inputs": [
        {
          "internalType": "uint256",
          "name": "tokenId",
          "type": "uint256"
        }
      ],
      "name": "tokenURI",
      "outputs": [
        {
          "internalType": "string",
          "name": "",
          "type": "string"
        }
      ],
      "stateMutability": "view",
      "type": "function",
      "constant": true
    },
    {
      "inputs": [
        {
          "internalType": "address",
          "name": "from",
          "type": "address"
        },
        {
          "internalType": "address",
          "name": "to",
          "type": "address"
        },
        {
          "internalType": "uint256",
          "name": "tokenId",
          "type": "uint256"
        }
      ],
      "name": "transferFrom",
      "outputs": [],
      "stateMutability": "nonpayable",
      "type": "function"
    },
    {
      "inputs": [
        {
          "internalType": "address",
          "name": "",
          "type": "address"
        },
        {
          "internalType": "uint256",
          "name": "",
          "type": "uint256"
        }
      ],
      "name": "userPost",
      "outputs": [
        {
          "internalType": "string",
          "name": "description",
          "type": "string"
        },
        {
          "internalType": "string",
          "name": "image",
          "type": "string"
        }
      ],
      "stateMutability": "view",
      "type": "function",
      "constant": true
    },
    {
      "inputs": [
        {
          "internalType": "address",
          "name": "",
          "type": "address"
        }
      ],
      "name": "userPostCounter",
      "outputs": [
        {
          "internalType": "uint256",
          "name": "postId",
          "type": "uint256"
        }
      ],
      "stateMutability": "view",
      "type": "function",
      "constant": true
    },
    {
      "inputs": [
        {
          "internalType": "string",
          "name": "_description",
          "type": "string"
        },
        {
          "internalType": "string",
          "name": "_image",
          "type": "string"
        }
      ],
      "name": "createPost",
      "outputs": [],
      "stateMutability": "nonpayable",
      "type": "function"
    },
    {
      "inputs": [
        {
          "internalType": "uint256",
          "name": "tokenId",
          "type": "uint256"
        }
      ],
      "name": "getPost",
      "outputs": [
        {
          "internalType": "string",
          "name": "description",
          "type": "string"
        },
        {
          "internalType": "string",
          "name": "image",
          "type": "string"
        },
        {
          "internalType": "address",
          "name": "owner",
          "type": "address"
        },
        {
          "internalType": "uint256",
          "name": "id",
          "type": "uint256"
        }
      ],
      "stateMutability": "view",
      "type": "function",
      "constant": true
    },
    {
      "inputs": [
        {
          "internalType": "uint256",
          "name": "tokenId",
          "type": "uint256"
        }
      ],
      "name": "deletePost",
      "outputs": [],
      "stateMutability": "nonpayable",
      "type": "function"
    }
  ],
  "bytecode": "0x608060405234801562000010575f80fd5b506040518060400160405280600481526020017f506f7374000000000000000000000000000000000000000000000000000000008152506040518060400160405280600481526020017f504f535400000000000000000000000000000000000000000000000000000000815250815f90816200008d91906200030c565b5080600190816200009f91906200030c565b505050620003f0565b5f81519050919050565b7f4e487b71000000000000000000000000000000000000000000000000000000005f52604160045260245ffd5b7f4e487b71000000000000000000000000000000000000000000000000000000005f52602260045260245ffd5b5f60028204905060018216806200012457607f821691505b6020821081036200013a5762000139620000df565b5b50919050565b5f819050815f5260205f209050919050565b5f6020601f8301049050919050565b5f82821b905092915050565b5f600883026200019e7fffffffffffffffffffffffffffffffffffffffffffffffffffffffffffffffff8262000161565b620001aa868362000161565b95508019841693508086168417925050509392505050565b5f819050919050565b5f819050919050565b5f620001f4620001ee620001e884620001c2565b620001cb565b620001c2565b9050919050565b5f819050919050565b6200020f83620001d4565b620002276200021e82620001fb565b8484546200016d565b825550505050565b5f90565b6200023d6200022f565b6200024a81848462000204565b505050565b5b818110156200027157620002655f8262000233565b60018101905062000250565b5050565b601f821115620002c0576200028a8162000140565b620002958462000152565b81016020851015620002a5578190505b620002bd620002b48562000152565b8301826200024f565b50505b505050565b5f82821c905092915050565b5f620002e25f1984600802620002c5565b1980831691505092915050565b5f620002fc8383620002d1565b9150826002028217905092915050565b6200031782620000a8565b67ffffffffffffffff811115620003335762000332620000b2565b5b6200033f82546200010c565b6200034c82828562000275565b5f60209050601f83116001811462000382575f84156200036d578287015190505b620003798582620002ef565b865550620003e8565b601f198416620003928662000140565b5f5b82811015620003bb5784890151825560018201915060208501945060208101905062000394565b86831015620003db5784890151620003d7601f891682620002d1565b8355505b6001600288020188555050505b505050505050565b61305780620003fe5f395ff3fe608060405234801561000f575f80fd5b506004361061011f575f3560e01c806342842e0e116100ab57806395d89b411161006f57806395d89b411461033d578063a22cb4651461035b578063b88d4fde14610377578063c87b56dd14610393578063e985e9c5146103c35761011f565b806342842e0e1461027557806342966c68146102915780634a767661146102ad5780636352211e146102dd57806370a082311461030d5761011f565b8063095ea7b3116100f2578063095ea7b3146101bd57806323b872dd146101d9578063392338f5146101f55780633d8b57c51461021157806340731c24146102425761011f565b806301ffc9a71461012357806306fdde0314610153578063081812fc14610171578063094cd5ee146101a1575b5f80fd5b61013d60048036038101906101389190611ef4565b6103f3565b60405161014a9190611f39565b60405180910390f35b61015b6104d4565b6040516101689190611fdc565b60405180910390f35b61018b6004803603810190610186919061202f565b610563565b6040516101989190612099565b60405180910390f35b6101bb60048036038101906101b6919061202f565b6105a5565b005b6101d760048036038101906101d291906120dc565b6105b1565b005b6101f360048036038101906101ee919061211a565b6106c7565b005b61020f600480360381019061020a9190612296565b610727565b005b61022b600480360381019061022691906120dc565b6108d9565b60405161023992919061230c565b60405180910390f35b61025c6004803603810190610257919061202f565b610a1f565b60405161026c9493929190612350565b60405180910390f35b61028f600480360381019061028a919061211a565b610bd2565b005b6102ab60048036038101906102a6919061202f565b610bf1565b005b6102c760048036038101906102c291906123a1565b610c4d565b6040516102d491906123cc565b60405180910390f35b6102f760048036038101906102f2919061202f565b610c62565b6040516103049190612099565b60405180910390f35b610327600480360381019061032291906123a1565b610ce6565b60405161033491906123cc565b60405180910390f35b610345610d9a565b6040516103529190611fdc565b60405180910390f35b6103756004803603810190610370919061240f565b610e2a565b005b610391600480360381019061038c91906124eb565b610e40565b005b6103ad60048036038101906103a8919061202f565b610ea2565b6040516103ba9190611fdc565b60405180910390f35b6103dd60048036038101906103d8919061256b565b610f07565b6040516103ea9190611f39565b60405180910390f35b5f7f80ac58cd000000000000000000000000000000000000000000000000000000007bffffffffffffffffffffffffffffffffffffffffffffffffffffffff1916827bffffffffffffffffffffffffffffffffffffffffffffffffffffffff191614806104bd57507f5b5e139f000000000000000000000000000000000000000000000000000000007bffffffffffffffffffffffffffffffffffffffffffffffffffffffff1916827bffffffffffffffffffffffffffffffffffffffffffffffffffffffff1916145b806104cd57506104cc82610f95565b5b9050919050565b60605f80546104e2906125d6565b80601f016020809104026020016040519081016040528092919081815260200182805461050e906125d6565b80156105595780601f1061053057610100808354040283529160200191610559565b820191905f5260205f20905b81548152906001019060200180831161053c57829003601f168201915b5050505050905090565b5f61056d82610ffe565b60045f8381526020019081526020015f205f9054906101000a900473ffffffffffffffffffffffffffffffffffffffff169050919050565b6105ae81611049565b50565b5f6105bb82610c62565b90508073ffffffffffffffffffffffffffffffffffffffff168373ffffffffffffffffffffffffffffffffffffffff160361062b576040517f08c379a000000000000000000000000000000000000000000000000000000000815260040161062290612676565b60405180910390fd5b8073ffffffffffffffffffffffffffffffffffffffff1661064a61118a565b73ffffffffffffffffffffffffffffffffffffffff16148061067957506106788161067361118a565b610f07565b5b6106b8576040517f08c379a00000000000000000000000000000000000000000000000000000000081526004016106af90612704565b60405180910390fd5b6106c28383611191565b505050565b6106d86106d261118a565b82611247565b610717576040517f08c379a000000000000000000000000000000000000000000000000000000000815260040161070e90612792565b60405180910390fd5b6107228383836112db565b505050565b5f61073260086115c7565b90508060065f3373ffffffffffffffffffffffffffffffffffffffff1673ffffffffffffffffffffffffffffffffffffffff1681526020019081526020015f205f82825461078091906127dd565b9250508190555061079133826115d3565b5f60405180604001604052808581526020018481525090508060095f8481526020019081526020015f205f820151815f0190816107ce91906129ad565b5060208201518160010190816107e491906129ad565b5090505060075f3373ffffffffffffffffffffffffffffffffffffffff1673ffffffffffffffffffffffffffffffffffffffff1681526020019081526020015f2081908060018154018082558091505060019003905f5260205f2090600202015f909190919091505f820151815f01908161085f91906129ad565b50602082015181600101908161087591906129ad565b505050813373ffffffffffffffffffffffffffffffffffffffff167f77a664279365f380c6fd1496feacd22dfa4d68c9ad2b1a0fe2f21dc1b9518d6986866040516108c192919061230c565b60405180910390a36108d360086115f0565b50505050565b6007602052815f5260405f2081815481106108f2575f80fd5b905f5260205f2090600202015f9150915050805f018054610912906125d6565b80601f016020809104026020016040519081016040528092919081815260200182805461093e906125d6565b80156109895780601f1061096057610100808354040283529160200191610989565b820191905f5260205f20905b81548152906001019060200180831161096c57829003601f168201915b50505050509080600101805461099e906125d6565b80601f01602080910402602001604051908101604052809291908181526020018280546109ca906125d6565b8015610a155780601f106109ec57610100808354040283529160200191610a15565b820191905f5260205f20905b8154815290600101906020018083116109f857829003601f168201915b5050505050905082565b6060805f80610a2d85611604565b610a6c576040517f08c379a0000000000000000000000000000000000000000000000000000000008152600401610a6390612ac6565b60405180910390fd5b5f60095f8781526020019081526020015f206040518060400160405290815f82018054610a98906125d6565b80601f0160208091040260200160405190810160405280929190818152602001828054610ac4906125d6565b8015610b0f5780601f10610ae657610100808354040283529160200191610b0f565b820191905f5260205f20905b815481529060010190602001808311610af257829003601f168201915b50505050508152602001600182018054610b28906125d6565b80601f0160208091040260200160405190810160405280929190818152602001828054610b54906125d6565b8015610b9f5780601f10610b7657610100808354040283529160200191610b9f565b820191905f5260205f20905b815481529060010190602001808311610b8257829003601f168201915b50505050508152505090505f610bb487610c62565b9050815f015182602001518289955095509550955050509193509193565b610bec83838360405180602001604052805f815250610e40565b505050565b610c02610bfc61118a565b82611247565b610c41576040517f08c379a0000000000000000000000000000000000000000000000000000000008152600401610c3890612792565b60405180910390fd5b610c4a81611049565b50565b6006602052805f5260405f205f915090505481565b5f80610c6d83611644565b90505f73ffffffffffffffffffffffffffffffffffffffff168173ffffffffffffffffffffffffffffffffffffffff1603610cdd576040517f08c379a0000000000000000000000000000000000000000000000000000000008152600401610cd490612b2e565b60405180910390fd5b80915050919050565b5f8073ffffffffffffffffffffffffffffffffffffffff168273ffffffffffffffffffffffffffffffffffffffff1603610d55576040517f08c379a0000000000000000000000000000000000000000000000000000000008152600401610d4c90612bbc565b60405180910390fd5b60035f8373ffffffffffffffffffffffffffffffffffffffff1673ffffffffffffffffffffffffffffffffffffffff1681526020019081526020015f20549050919050565b606060018054610da9906125d6565b80601f0160208091040260200160405190810160405280929190818152602001828054610dd5906125d6565b8015610e205780601f10610df757610100808354040283529160200191610e20565b820191905f5260205f20905b815481529060010190602001808311610e0357829003601f168201915b5050505050905090565b610e3c610e3561118a565b838361167d565b5050565b610e51610e4b61118a565b83611247565b610e90576040517f08c379a0000000000000000000000000000000000000000000000000000000008152600401610e8790612792565b60405180910390fd5b610e9c848484846117e4565b50505050565b6060610ead82610ffe565b5f610eb6611840565b90505f815111610ed45760405180602001604052805f815250610eff565b80610ede84611856565b604051602001610eef929190612c14565b6040516020818303038152906040525b915050919050565b5f60055f8473ffffffffffffffffffffffffffffffffffffffff1673ffffffffffffffffffffffffffffffffffffffff1681526020019081526020015f205f8373ffffffffffffffffffffffffffffffffffffffff1673ffffffffffffffffffffffffffffffffffffffff1681526020019081526020015f205f9054906101000a900460ff16905092915050565b5f7f01ffc9a7000000000000000000000000000000000000000000000000000000007bffffffffffffffffffffffffffffffffffffffffffffffffffffffff1916827bffffffffffffffffffffffffffffffffffffffffffffffffffffffff1916149050919050565b61100781611604565b611046576040517f08c379a000000000000000000000000000000000000000000000000000000000815260040161103d90612b2e565b60405180910390fd5b50565b5f61105382610c62565b9050611062815f846001611920565b61106b82610c62565b905060045f8381526020019081526020015f205f6101000a81549073ffffffffffffffffffffffffffffffffffffffff0219169055600160035f8373ffffffffffffffffffffffffffffffffffffffff1673ffffffffffffffffffffffffffffffffffffffff1681526020019081526020015f205f828254039250508190555060025f8381526020019081526020015f205f6101000a81549073ffffffffffffffffffffffffffffffffffffffff0219169055815f73ffffffffffffffffffffffffffffffffffffffff168273ffffffffffffffffffffffffffffffffffffffff167fddf252ad1be2c89b69c2b068fc378daa952ba7f163c4a11628f55a4df523b3ef60405160405180910390a4611186815f846001611926565b5050565b5f33905090565b8160045f8381526020019081526020015f205f6101000a81548173ffffffffffffffffffffffffffffffffffffffff021916908373ffffffffffffffffffffffffffffffffffffffff160217905550808273ffffffffffffffffffffffffffffffffffffffff1661120183610c62565b73ffffffffffffffffffffffffffffffffffffffff167f8c5be1e5ebec7d5bd14f71427d1e84f3dd0314c0f7b2291e5b200ac8c7c3b92560405160405180910390a45050565b5f8061125283610c62565b90508073ffffffffffffffffffffffffffffffffffffffff168473ffffffffffffffffffffffffffffffffffffffff16148061129457506112938185610f07565b5b806112d257508373ffffffffffffffffffffffffffffffffffffffff166112ba84610563565b73ffffffffffffffffffffffffffffffffffffffff16145b91505092915050565b8273ffffffffffffffffffffffffffffffffffffffff166112fb82610c62565b73ffffffffffffffffffffffffffffffffffffffff1614611351576040517f08c379a000000000000000000000000000000000000000000000000000000000815260040161134890612ca7565b60405180910390fd5b5f73ffffffffffffffffffffffffffffffffffffffff168273ffffffffffffffffffffffffffffffffffffffff16036113bf576040517f08c379a00000000000000000000000000000000000000000000000000000000081526004016113b690612d35565b60405180910390fd5b6113cc8383836001611920565b8273ffffffffffffffffffffffffffffffffffffffff166113ec82610c62565b73ffffffffffffffffffffffffffffffffffffffff1614611442576040517f08c379a000000000000000000000000000000000000000000000000000000000815260040161143990612ca7565b60405180910390fd5b60045f8281526020019081526020015f205f6101000a81549073ffffffffffffffffffffffffffffffffffffffff0219169055600160035f8573ffffffffffffffffffffffffffffffffffffffff1673ffffffffffffffffffffffffffffffffffffffff1681526020019081526020015f205f8282540392505081905550600160035f8473ffffffffffffffffffffffffffffffffffffffff1673ffffffffffffffffffffffffffffffffffffffff1681526020019081526020015f205f82825401925050819055508160025f8381526020019081526020015f205f6101000a81548173ffffffffffffffffffffffffffffffffffffffff021916908373ffffffffffffffffffffffffffffffffffffffff160217905550808273ffffffffffffffffffffffffffffffffffffffff168473ffffffffffffffffffffffffffffffffffffffff167fddf252ad1be2c89b69c2b068fc378daa952ba7f163c4a11628f55a4df523b3ef60405160405180910390a46115c28383836001611926565b505050565b5f815f01549050919050565b6115ec828260405180602001604052805f81525061192c565b5050565b6001815f015f828254019250508190555050565b5f8073ffffffffffffffffffffffffffffffffffffffff1661162583611644565b73ffffffffffffffffffffffffffffffffffffffff1614159050919050565b5f60025f8381526020019081526020015f205f9054906101000a900473ffffffffffffffffffffffffffffffffffffffff169050919050565b8173ffffffffffffffffffffffffffffffffffffffff168373ffffffffffffffffffffffffffffffffffffffff16036116eb576040517f08c379a00000000000000000000000000000000000000000000000000000000081526004016116e290612d9d565b60405180910390fd5b8060055f8573ffffffffffffffffffffffffffffffffffffffff1673ffffffffffffffffffffffffffffffffffffffff1681526020019081526020015f205f8473ffffffffffffffffffffffffffffffffffffffff1673ffffffffffffffffffffffffffffffffffffffff1681526020019081526020015f205f6101000a81548160ff0219169083151502179055508173ffffffffffffffffffffffffffffffffffffffff168373ffffffffffffffffffffffffffffffffffffffff167f17307eab39ab6107e8899845ad3d59bd9653f200f220920489ca2b5937696c31836040516117d79190611f39565b60405180910390a3505050565b6117ef8484846112db565b6117fb84848484611986565b61183a576040517f08c379a000000000000000000000000000000000000000000000000000000000815260040161183190612e2b565b60405180910390fd5b50505050565b606060405180602001604052805f815250905090565b60605f600161186484611b08565b0190505f8167ffffffffffffffff81111561188257611881612172565b5b6040519080825280601f01601f1916602001820160405280156118b45781602001600182028036833780820191505090505b5090505f82602001820190505b600115611915578080600190039150507f3031323334353637383961626364656600000000000000000000000000000000600a86061a8153600a858161190a57611909612e49565b5b0494505f85036118c1575b819350505050919050565b50505050565b50505050565b6119368383611c59565b6119425f848484611986565b611981576040517f08c379a000000000000000000000000000000000000000000000000000000000815260040161197890612e2b565b60405180910390fd5b505050565b5f6119a68473ffffffffffffffffffffffffffffffffffffffff16611e6c565b15611afb578373ffffffffffffffffffffffffffffffffffffffff1663150b7a026119cf61118a565b8786866040518563ffffffff1660e01b81526004016119f19493929190612ec8565b6020604051808303815f875af1925050508015611a2c57506040513d601f19601f82011682018060405250810190611a299190612f26565b60015b611aab573d805f8114611a5a576040519150601f19603f3d011682016040523d82523d5f602084013e611a5f565b606091505b505f815103611aa3576040517f08c379a0000000000000000000000000000000000000000000000000000000008152600401611a9a90612e2b565b60405180910390fd5b805181602001fd5b63150b7a0260e01b7bffffffffffffffffffffffffffffffffffffffffffffffffffffffff1916817bffffffffffffffffffffffffffffffffffffffffffffffffffffffff191614915050611b00565b600190505b949350505050565b5f805f90507a184f03e93ff9f4daa797ed6e38ed64bf6a1f0100000000000000008310611b64577a184f03e93ff9f4daa797ed6e38ed64bf6a1f0100000000000000008381611b5a57611b59612e49565b5b0492506040810190505b6d04ee2d6d415b85acef81000000008310611ba1576d04ee2d6d415b85acef81000000008381611b9757611b96612e49565b5b0492506020810190505b662386f26fc100008310611bd057662386f26fc100008381611bc657611bc5612e49565b5b0492506010810190505b6305f5e1008310611bf9576305f5e1008381611bef57611bee612e49565b5b0492506008810190505b6127108310611c1e576127108381611c1457611c13612e49565b5b0492506004810190505b60648310611c415760648381611c3757611c36612e49565b5b0492506002810190505b600a8310611c50576001810190505b80915050919050565b5f73ffffffffffffffffffffffffffffffffffffffff168273ffffffffffffffffffffffffffffffffffffffff1603611cc7576040517f08c379a0000000000000000000000000000000000000000000000000000000008152600401611cbe90612f9b565b60405180910390fd5b611cd081611604565b15611d10576040517f08c379a0000000000000000000000000000000000000000000000000000000008152600401611d0790613003565b60405180910390fd5b611d1d5f83836001611920565b611d2681611604565b15611d66576040517f08c379a0000000000000000000000000000000000000000000000000000000008152600401611d5d90613003565b60405180910390fd5b600160035f8473ffffffffffffffffffffffffffffffffffffffff1673ffffffffffffffffffffffffffffffffffffffff1681526020019081526020015f205f82825401925050819055508160025f8381526020019081526020015f205f6101000a81548173ffffffffffffffffffffffffffffffffffffffff021916908373ffffffffffffffffffffffffffffffffffffffff160217905550808273ffffffffffffffffffffffffffffffffffffffff165f73ffffffffffffffffffffffffffffffffffffffff167fddf252ad1be2c89b69c2b068fc378daa952ba7f163c4a11628f55a4df523b3ef60405160405180910390a4611e685f83836001611926565b5050565b5f808273ffffffffffffffffffffffffffffffffffffffff163b119050919050565b5f604051905090565b5f80fd5b5f80fd5b5f7fffffffff0000000000000000000000000000000000000000000000000000000082169050919050565b611ed381611e9f565b8114611edd575f80fd5b50565b5f81359050611eee81611eca565b92915050565b5f60208284031215611f0957611f08611e97565b5b5f611f1684828501611ee0565b91505092915050565b5f8115159050919050565b611f3381611f1f565b82525050565b5f602082019050611f4c5f830184611f2a565b92915050565b5f81519050919050565b5f82825260208201905092915050565b5f5b83811015611f89578082015181840152602081019050611f6e565b5f8484015250505050565b5f601f19601f8301169050919050565b5f611fae82611f52565b611fb88185611f5c565b9350611fc8818560208601611f6c565b611fd181611f94565b840191505092915050565b5f6020820190508181035f830152611ff48184611fa4565b905092915050565b5f819050919050565b61200e81611ffc565b8114612018575f80fd5b50565b5f8135905061202981612005565b92915050565b5f6020828403121561204457612043611e97565b5b5f6120518482850161201b565b91505092915050565b5f73ffffffffffffffffffffffffffffffffffffffff82169050919050565b5f6120838261205a565b9050919050565b61209381612079565b82525050565b5f6020820190506120ac5f83018461208a565b92915050565b6120bb81612079565b81146120c5575f80fd5b50565b5f813590506120d6816120b2565b92915050565b5f80604083850312156120f2576120f1611e97565b5b5f6120ff858286016120c8565b92505060206121108582860161201b565b9150509250929050565b5f805f6060848603121561213157612130611e97565b5b5f61213e868287016120c8565b935050602061214f868287016120c8565b92505060406121608682870161201b565b9150509250925092565b5f80fd5b5f80fd5b7f4e487b71000000000000000000000000000000000000000000000000000000005f52604160045260245ffd5b6121a882611f94565b810181811067ffffffffffffffff821117156121c7576121c6612172565b5b80604052505050565b5f6121d9611e8e565b90506121e5828261219f565b919050565b5f67ffffffffffffffff82111561220457612203612172565b5b61220d82611f94565b9050602081019050919050565b828183375f83830152505050565b5f61223a612235846121ea565b6121d0565b9050828152602081018484840111156122565761225561216e565b5b61226184828561221a565b509392505050565b5f82601f83011261227d5761227c61216a565b5b813561228d848260208601612228565b91505092915050565b5f80604083850312156122ac576122ab611e97565b5b5f83013567ffffffffffffffff8111156122c9576122c8611e9b565b5b6122d585828601612269565b925050602083013567ffffffffffffffff8111156122f6576122f5611e9b565b5b61230285828601612269565b9150509250929050565b5f6040820190508181035f8301526123248185611fa4565b905081810360208301526123388184611fa4565b90509392505050565b61234a81611ffc565b82525050565b5f6080820190508181035f8301526123688187611fa4565b9050818103602083015261237c8186611fa4565b905061238b604083018561208a565b6123986060830184612341565b95945050505050565b5f602082840312156123b6576123b5611e97565b5b5f6123c3848285016120c8565b91505092915050565b5f6020820190506123df5f830184612341565b92915050565b6123ee81611f1f565b81146123f8575f80fd5b50565b5f81359050612409816123e5565b92915050565b5f806040838503121561242557612424611e97565b5b5f612432858286016120c8565b9250506020612443858286016123fb565b9150509250929050565b5f67ffffffffffffffff82111561246757612466612172565b5b61247082611f94565b9050602081019050919050565b5f61248f61248a8461244d565b6121d0565b9050828152602081018484840111156124ab576124aa61216e565b5b6124b684828561221a565b509392505050565b5f82601f8301126124d2576124d161216a565b5b81356124e284826020860161247d565b91505092915050565b5f805f806080858703121561250357612502611e97565b5b5f612510878288016120c8565b9450506020612521878288016120c8565b93505060406125328782880161201b565b925050606085013567ffffffffffffffff81111561255357612552611e9b565b5b61255f878288016124be565b91505092959194509250565b5f806040838503121561258157612580611e97565b5b5f61258e858286016120c8565b925050602061259f858286016120c8565b9150509250929050565b7f4e487b71000000000000000000000000000000000000000000000000000000005f52602260045260245ffd5b5f60028204905060018216806125ed57607f821691505b602082108103612600576125ff6125a9565b5b50919050565b7f4552433732313a20617070726f76616c20746f2063757272656e74206f776e655f8201527f7200000000000000000000000000000000000000000000000000000000000000602082015250565b5f612660602183611f5c565b915061266b82612606565b604082019050919050565b5f6020820190508181035f83015261268d81612654565b9050919050565b7f4552433732313a20617070726f76652063616c6c6572206973206e6f7420746f5f8201527f6b656e206f776e6572206f7220617070726f76656420666f7220616c6c000000602082015250565b5f6126ee603d83611f5c565b91506126f982612694565b604082019050919050565b5f6020820190508181035f83015261271b816126e2565b9050919050565b7f4552433732313a2063616c6c6572206973206e6f7420746f6b656e206f776e655f8201527f72206f7220617070726f76656400000000000000000000000000000000000000602082015250565b5f61277c602d83611f5c565b915061278782612722565b604082019050919050565b5f6020820190508181035f8301526127a981612770565b9050919050565b7f4e487b71000000000000000000000000000000000000000000000000000000005f52601160045260245ffd5b5f6127e782611ffc565b91506127f283611ffc565b925082820190508082111561280a576128096127b0565b5b92915050565b5f819050815f5260205f209050919050565b5f6020601f8301049050919050565b5f82821b905092915050565b5f6008830261286c7fffffffffffffffffffffffffffffffffffffffffffffffffffffffffffffffff82612831565b6128768683612831565b95508019841693508086168417925050509392505050565b5f819050919050565b5f6128b16128ac6128a784611ffc565b61288e565b611ffc565b9050919050565b5f819050919050565b6128ca83612897565b6128de6128d6826128b8565b84845461283d565b825550505050565b5f90565b6128f26128e6565b6128fd8184846128c1565b505050565b5b81811015612920576129155f826128ea565b600181019050612903565b5050565b601f8211156129655761293681612810565b61293f84612822565b8101602085101561294e578190505b61296261295a85612822565b830182612902565b50505b505050565b5f82821c905092915050565b5f6129855f198460080261296a565b1980831691505092915050565b5f61299d8383612976565b9150826002028217905092915050565b6129b682611f52565b67ffffffffffffffff8111156129cf576129ce612172565b5b6129d982546125d6565b6129e4828285612924565b5f60209050601f831160018114612a15575f8415612a03578287015190505b612a0d8582612992565b865550612a74565b601f198416612a2386612810565b5f5b82811015612a4a57848901518255600182019150602085019450602081019050612a25565b86831015612a675784890151612a63601f891682612976565b8355505b6001600288020188555050505b505050505050565b7f506f737420646f6573206e6f74206578697374000000000000000000000000005f82015250565b5f612ab0601383611f5c565b9150612abb82612a7c565b602082019050919050565b5f6020820190508181035f830152612add81612aa4565b9050919050565b7f4552433732313a20696e76616c696420746f6b656e20494400000000000000005f82015250565b5f612b18601883611f5c565b9150612b2382612ae4565b602082019050919050565b5f6020820190508181035f830152612b4581612b0c565b9050919050565b7f4552433732313a2061646472657373207a65726f206973206e6f7420612076615f8201527f6c6964206f776e65720000000000000000000000000000000000000000000000602082015250565b5f612ba6602983611f5c565b9150612bb182612b4c565b604082019050919050565b5f6020820190508181035f830152612bd381612b9a565b9050919050565b5f81905092915050565b5f612bee82611f52565b612bf88185612bda565b9350612c08818560208601611f6c565b80840191505092915050565b5f612c1f8285612be4565b9150612c2b8284612be4565b91508190509392505050565b7f4552433732313a207472616e736665722066726f6d20696e636f7272656374205f8201527f6f776e6572000000000000000000000000000000000000000000000000000000602082015250565b5f612c91602583611f5c565b9150612c9c82612c37565b604082019050919050565b5f6020820190508181035f830152612cbe81612c85565b9050919050565b7f4552433732313a207472616e7366657220746f20746865207a65726f206164645f8201527f7265737300000000000000000000000000000000000000000000000000000000602082015250565b5f612d1f602483611f5c565b9150612d2a82612cc5565b604082019050919050565b5f6020820190508181035f830152612d4c81612d13565b9050919050565b7f4552433732313a20617070726f766520746f2063616c6c6572000000000000005f82015250565b5f612d87601983611f5c565b9150612d9282612d53565b602082019050919050565b5f6020820190508181035f830152612db481612d7b565b9050919050565b7f4552433732313a207472616e7366657220746f206e6f6e2045524337323152655f8201527f63656976657220696d706c656d656e7465720000000000000000000000000000602082015250565b5f612e15603283611f5c565b9150612e2082612dbb565b604082019050919050565b5f6020820190508181035f830152612e4281612e09565b9050919050565b7f4e487b71000000000000000000000000000000000000000000000000000000005f52601260045260245ffd5b5f81519050919050565b5f82825260208201905092915050565b5f612e9a82612e76565b612ea48185612e80565b9350612eb4818560208601611f6c565b612ebd81611f94565b840191505092915050565b5f608082019050612edb5f83018761208a565b612ee8602083018661208a565b612ef56040830185612341565b8181036060830152612f078184612e90565b905095945050505050565b5f81519050612f2081611eca565b92915050565b5f60208284031215612f3b57612f3a611e97565b5b5f612f4884828501612f12565b91505092915050565b7f4552433732313a206d696e7420746f20746865207a65726f20616464726573735f82015250565b5f612f85602083611f5c565b9150612f9082612f51565b602082019050919050565b5f6020820190508181035f830152612fb281612f79565b9050919050565b7f4552433732313a20746f6b656e20616c7265616479206d696e746564000000005f82015250565b5f612fed601c83611f5c565b9150612ff882612fb9565b602082019050919050565b5f6020820190508181035f83015261301a81612fe1565b905091905056fea2646970667358221220cdff3f7bc102249abe6fb997f1f0bd6b3ec40a32cdedbec8e95d40baf4c07ee664736f6c63430008140033",
  "immutableReferences": {},
  "source": "// SPDX-License-Identifier: MIT\npragma solidity ^0.8.0;\n\nimport \"../../node_modules/@openzeppelin/contracts/token/ERC721/ERC721.sol\";\nimport \"../../node_modules/@openzeppelin/contracts/token/ERC721/extensions/ERC721Burnable.sol\";\nimport \"../../node_modules/@openzeppelin/contracts/access/Ownable.sol\";\nimport \"../../node_modules/@openzeppelin/contracts/utils/Counters.sol\";\n\ncontract PostFactory is ERC721, ERC721Burnable {\n    using Counters for Counters.Counter;\n    mapping(address => uint256 postId) public userPostCounter;\n    mapping(address => Post[]) public userPost;\n\n    Counters.Counter private _tokenIdCounter;\n\n    constructor() ERC721(\"Post\", \"POST\") {}\n\n    struct Post {\n        string description;\n        string image;\n    }\n\n    mapping(uint256 => Post) private _posts;\n    event NewPost(address indexed owner, uint256 indexed tokenId, string description, string image);\n\n    function createPost(\n        string memory _description,\n        string memory _image\n    ) public {\n        uint256 newTokenId = _tokenIdCounter.current();\n        userPostCounter[msg.sender] += newTokenId;\n        _safeMint(msg.sender, newTokenId);\n\n        Post memory newPost = Post(_description, _image);\n        _posts[newTokenId] = newPost;\n        userPost[msg.sender].push(newPost);\n\n\n        emit NewPost(msg.sender, newTokenId, _description, _image);\n        _tokenIdCounter.increment();\n    }\n\n    function getPost(uint256 tokenId) public view\n        returns (\n            string memory description,\n            string memory image,\n            address owner,\n            uint256 id\n        )\n    {\n        require(_exists(tokenId), \"Post does not exist\");\n        Post memory post = _posts[tokenId];\n        address postOwner = ownerOf(tokenId);\n        return (post.description, post.image, postOwner, tokenId);\n    }\n\n    function deletePost(uint256 tokenId) public {\n        _burn(tokenId);\n    }\n}\n",
  "sourcePath": "/home/victorcarvalho/Documents/Github/ChainlinkHackas/chainlink-hackathon/contracts/contracts/User/Post.sol",
  "compiler": {
    "name": "solc",
    "version": "0.8.20+commit.a1b79de6.Emscripten.clang"
  },
  "schemaVersion": "3.4.14",
  "updatedAt": "2023-06-07T06:03:29.233Z",
  "networkType": "ethereum",
  "devdoc": {
    "events": {
      "Approval(address,address,uint256)": {
        "details": "Emitted when `owner` enables `approved` to manage the `tokenId` token."
      },
      "ApprovalForAll(address,address,bool)": {
        "details": "Emitted when `owner` enables or disables (`approved`) `operator` to manage all of its assets."
      },
      "Transfer(address,address,uint256)": {
        "details": "Emitted when `tokenId` token is transferred from `from` to `to`."
      }
    },
    "kind": "dev",
    "methods": {
      "approve(address,uint256)": {
        "details": "See {IERC721-approve}."
      },
      "balanceOf(address)": {
        "details": "See {IERC721-balanceOf}."
      },
      "burn(uint256)": {
        "details": "Burns `tokenId`. See {ERC721-_burn}. Requirements: - The caller must own `tokenId` or be an approved operator."
      },
      "getApproved(uint256)": {
        "details": "See {IERC721-getApproved}."
      },
      "isApprovedForAll(address,address)": {
        "details": "See {IERC721-isApprovedForAll}."
      },
      "name()": {
        "details": "See {IERC721Metadata-name}."
      },
      "ownerOf(uint256)": {
        "details": "See {IERC721-ownerOf}."
      },
      "safeTransferFrom(address,address,uint256)": {
        "details": "See {IERC721-safeTransferFrom}."
      },
      "safeTransferFrom(address,address,uint256,bytes)": {
        "details": "See {IERC721-safeTransferFrom}."
      },
      "setApprovalForAll(address,bool)": {
        "details": "See {IERC721-setApprovalForAll}."
      },
      "supportsInterface(bytes4)": {
        "details": "See {IERC165-supportsInterface}."
      },
      "symbol()": {
        "details": "See {IERC721Metadata-symbol}."
      },
      "tokenURI(uint256)": {
        "details": "See {IERC721Metadata-tokenURI}."
      },
      "transferFrom(address,address,uint256)": {
        "details": "See {IERC721-transferFrom}."
      }
    },
    "version": 1
  },
  "userdoc": {
    "kind": "user",
    "methods": {},
    "version": 1
  }
}