{
  "contractName": "ProfileImageFactory",
  "abi": [
    {
      "inputs": [
        {
          "internalType": "uint256",
          "name": "",
          "type": "uint256"
        }
      ],
      "name": "userPhotoContracts",
      "outputs": [
        {
          "internalType": "address",
          "name": "",
          "type": "address"
        }
      ],
      "stateMutability": "view",
      "type": "function"
    },
    {
      "inputs": [
        {
          "internalType": "uint256",
          "name": "updateInterval",
          "type": "uint256"
        }
      ],
      "name": "createUserPhoto",
      "outputs": [
        {
          "internalType": "address",
          "name": "",
          "type": "address"
        }
      ],
      "stateMutability": "nonpayable",
      "type": "function"
    },
    {
      "inputs": [],
      "name": "getUserPhotoContracts",
      "outputs": [
        {
          "internalType": "address[]",
          "name": "",
          "type": "address[]"
        }
      ],
      "stateMutability": "view",
      "type": "function"
    },
    {
      "inputs": [
        {
          "internalType": "address",
          "name": "operator",
          "type": "address"
        },
        {
          "internalType": "address",
          "name": "from",
          "type": "address"
        },
        {
          "internalType": "uint256",
          "name": "tokenId",
          "type": "uint256"
        },
        {
          "internalType": "bytes",
          "name": "data",
          "type": "bytes"
        }
      ],
      "name": "onERC721Received",
      "outputs": [
        {
          "internalType": "bytes4",
          "name": "",
          "type": "bytes4"
        }
      ],
      "stateMutability": "nonpayable",
      "type": "function"
    }
  ],
  "bytecode": "0x608060405234801561000f575f80fd5b50614a0e8061001d5f395ff3fe608060405234801562000010575f80fd5b506004361062000050575f3560e01c8063150b7a021462000054578063c7990e97146200008a578063cc25b58814620000c0578063efcf56af14620000e2575b5f80fd5b6200007260048036038101906200006c9190620004f3565b62000118565b604051620000819190620005bd565b60405180910390f35b620000a86004803603810190620000a29190620005d8565b6200012b565b604051620000b7919062000619565b60405180910390f35b620000ca62000166565b604051620000d99190620006fb565b60405180910390f35b620001006004803603810190620000fa9190620005d8565b620001f2565b6040516200010f919062000619565b60405180910390f35b5f63150b7a0260e01b9050949350505050565b5f81815481106200013a575f80fd5b905f5260205f20015f915054906101000a900473ffffffffffffffffffffffffffffffffffffffff1681565b60605f805480602002602001604051908101604052809291908181526020018280548015620001e857602002820191905f5260205f20905b815f9054906101000a900473ffffffffffffffffffffffffffffffffffffffff1673ffffffffffffffffffffffffffffffffffffffff16815260200190600101908083116200019e575b5050505050905090565b5f80826040516200020390620002e3565b6200020f91906200072e565b604051809103905ff08015801562000229573d5f803e3d5ffd5b5090505f81908060018154018082558091505060019003905f5260205f20015f9091909190916101000a81548173ffffffffffffffffffffffffffffffffffffffff021916908373ffffffffffffffffffffffffffffffffffffffff1602179055505f60015f805490506200029f919062000776565b81548110620002b357620002b2620007b0565b5b905f5260205f20015f9054906101000a900473ffffffffffffffffffffffffffffffffffffffff16915050919050565b6141fb80620007de83390190565b5f604051905090565b5f80fd5b5f80fd5b5f73ffffffffffffffffffffffffffffffffffffffff82169050919050565b5f6200032d8262000302565b9050919050565b6200033f8162000321565b81146200034a575f80fd5b50565b5f813590506200035d8162000334565b92915050565b5f819050919050565b620003778162000363565b811462000382575f80fd5b50565b5f8135905062000395816200036c565b92915050565b5f80fd5b5f80fd5b5f601f19601f8301169050919050565b7f4e487b71000000000000000000000000000000000000000000000000000000005f52604160045260245ffd5b620003eb82620003a3565b810181811067ffffffffffffffff821117156200040d576200040c620003b3565b5b80604052505050565b5f62000421620002f1565b90506200042f8282620003e0565b919050565b5f67ffffffffffffffff821115620004515762000450620003b3565b5b6200045c82620003a3565b9050602081019050919050565b828183375f83830152505050565b5f6200048d620004878462000434565b62000416565b905082815260208101848484011115620004ac57620004ab6200039f565b5b620004b984828562000469565b509392505050565b5f82601f830112620004d857620004d76200039b565b5b8135620004ea84826020860162000477565b91505092915050565b5f805f80608085870312156200050e576200050d620002fa565b5b5f6200051d878288016200034d565b945050602062000530878288016200034d565b9350506040620005438782880162000385565b925050606085013567ffffffffffffffff811115620005675762000566620002fe565b5b6200057587828801620004c1565b91505092959194509250565b5f7fffffffff0000000000000000000000000000000000000000000000000000000082169050919050565b620005b78162000581565b82525050565b5f602082019050620005d25f830184620005ac565b92915050565b5f60208284031215620005f057620005ef620002fa565b5b5f620005ff8482850162000385565b91505092915050565b620006138162000321565b82525050565b5f6020820190506200062e5f83018462000608565b92915050565b5f81519050919050565b5f82825260208201905092915050565b5f819050602082019050919050565b620006688162000321565b82525050565b5f6200067b83836200065d565b60208301905092915050565b5f602082019050919050565b5f6200069f8262000634565b620006ab81856200063e565b9350620006b8836200064e565b805f5b83811015620006ee578151620006d288826200066e565b9750620006df8362000687565b925050600181019050620006bb565b5085935050505092915050565b5f6020820190508181035f83015262000715818462000693565b905092915050565b620007288162000363565b82525050565b5f602082019050620007435f8301846200071d565b92915050565b7f4e487b71000000000000000000000000000000000000000000000000000000005f52601160045260245ffd5b5f620007828262000363565b91506200078f8362000363565b9250828203905081811115620007aa57620007a962000749565b5b92915050565b7f4e487b71000000000000000000000000000000000000000000000000000000005f52603260045260245ffdfe60a060405234801562000010575f80fd5b50604051620041fb380380620041fb83398181016040528101906200003691906200081a565b6040518060400160405280600a81526020017f55736572496d61676573000000000000000000000000000000000000000000008152506040518060400160405280600581526020017f50686f746f000000000000000000000000000000000000000000000000000000815250815f9081620000b2919062000aa5565b508060019081620000c4919062000aa5565b505050806080818152505042600981905550620000e733620000ee60201b60201c565b5062000fa9565b5f620001016007620001ea60201b60201c565b9050620001156007620001f660201b60201c565b6200012782826200020a60201b60201c565b620001e68160085f8154811062000143576200014262000b89565b5b905f5260205f200180546200015890620008ae565b80601f01602080910402602001604051908101604052809291908181526020018280546200018690620008ae565b8015620001d55780601f10620001ab57610100808354040283529160200191620001d5565b820191905f5260205f20905b815481529060010190602001808311620001b757829003601f168201915b50505050506200022f60201b60201c565b5050565b5f815f01549050919050565b6001815f015f828254019250508190555050565b6200022b828260405180602001604052805f815250620002e060201b60201c565b5050565b62000240826200034d60201b60201c565b62000282576040517f08c379a0000000000000000000000000000000000000000000000000000000008152600401620002799062000c3a565b60405180910390fd5b8060065f8481526020019081526020015f209081620002a2919062000aa5565b507ff8e1a15aba9398e019f0b49df1a4fde98ee17ae345cb5f6b5e2c27f5033e8ce782604051620002d4919062000c6b565b60405180910390a15050565b620002f283836200039560201b60201c565b620003065f848484620005d160201b60201c565b62000348576040517f08c379a00000000000000000000000000000000000000000000000000000000081526004016200033f9062000cfa565b60405180910390fd5b505050565b5f8073ffffffffffffffffffffffffffffffffffffffff1662000376836200077060201b60201c565b73ffffffffffffffffffffffffffffffffffffffff1614159050919050565b5f73ffffffffffffffffffffffffffffffffffffffff168273ffffffffffffffffffffffffffffffffffffffff160362000406576040517f08c379a0000000000000000000000000000000000000000000000000000000008152600401620003fd9062000d68565b60405180910390fd5b62000417816200034d60201b60201c565b156200045a576040517f08c379a0000000000000000000000000000000000000000000000000000000008152600401620004519062000dd6565b60405180910390fd5b6200046f5f83836001620007a960201b60201c565b62000480816200034d60201b60201c565b15620004c3576040517f08c379a0000000000000000000000000000000000000000000000000000000008152600401620004ba9062000dd6565b60405180910390fd5b600160035f8473ffffffffffffffffffffffffffffffffffffffff1673ffffffffffffffffffffffffffffffffffffffff1681526020019081526020015f205f82825401925050819055508160025f8381526020019081526020015f205f6101000a81548173ffffffffffffffffffffffffffffffffffffffff021916908373ffffffffffffffffffffffffffffffffffffffff160217905550808273ffffffffffffffffffffffffffffffffffffffff165f73ffffffffffffffffffffffffffffffffffffffff167fddf252ad1be2c89b69c2b068fc378daa952ba7f163c4a11628f55a4df523b3ef60405160405180910390a4620005cd5f83836001620007af60201b60201c565b5050565b5f620005f98473ffffffffffffffffffffffffffffffffffffffff16620007b560201b60201c565b1562000763578373ffffffffffffffffffffffffffffffffffffffff1663150b7a026200062b620007d760201b60201c565b8786866040518563ffffffff1660e01b81526004016200064f949392919062000ecd565b6020604051808303815f875af19250505080156200068d57506040513d601f19601f820116820180604052508101906200068a919062000f79565b60015b62000712573d805f8114620006be576040519150601f19603f3d011682016040523d82523d5f602084013e620006c3565b606091505b505f8151036200070a576040517f08c379a0000000000000000000000000000000000000000000000000000000008152600401620007019062000cfa565b60405180910390fd5b805181602001fd5b63150b7a0260e01b7bffffffffffffffffffffffffffffffffffffffffffffffffffffffff1916817bffffffffffffffffffffffffffffffffffffffffffffffffffffffff19161491505062000768565b600190505b949350505050565b5f60025f8381526020019081526020015f205f9054906101000a900473ffffffffffffffffffffffffffffffffffffffff169050919050565b50505050565b50505050565b5f808273ffffffffffffffffffffffffffffffffffffffff163b119050919050565b5f33905090565b5f80fd5b5f819050919050565b620007f681620007e2565b811462000801575f80fd5b50565b5f815190506200081481620007eb565b92915050565b5f60208284031215620008325762000831620007de565b5b5f620008418482850162000804565b91505092915050565b5f81519050919050565b7f4e487b71000000000000000000000000000000000000000000000000000000005f52604160045260245ffd5b7f4e487b71000000000000000000000000000000000000000000000000000000005f52602260045260245ffd5b5f6002820490506001821680620008c657607f821691505b602082108103620008dc57620008db62000881565b5b50919050565b5f819050815f5260205f209050919050565b5f6020601f8301049050919050565b5f82821b905092915050565b5f60088302620009407fffffffffffffffffffffffffffffffffffffffffffffffffffffffffffffffff8262000903565b6200094c868362000903565b95508019841693508086168417925050509392505050565b5f819050919050565b5f6200098d620009876200098184620007e2565b62000964565b620007e2565b9050919050565b5f819050919050565b620009a8836200096d565b620009c0620009b78262000994565b8484546200090f565b825550505050565b5f90565b620009d6620009c8565b620009e38184846200099d565b505050565b5b8181101562000a0a57620009fe5f82620009cc565b600181019050620009e9565b5050565b601f82111562000a595762000a2381620008e2565b62000a2e84620008f4565b8101602085101562000a3e578190505b62000a5662000a4d85620008f4565b830182620009e8565b50505b505050565b5f82821c905092915050565b5f62000a7b5f198460080262000a5e565b1980831691505092915050565b5f62000a95838362000a6a565b9150826002028217905092915050565b62000ab0826200084a565b67ffffffffffffffff81111562000acc5762000acb62000854565b5b62000ad88254620008ae565b62000ae582828562000a0e565b5f60209050601f83116001811462000b1b575f841562000b06578287015190505b62000b12858262000a88565b86555062000b81565b601f19841662000b2b86620008e2565b5f5b8281101562000b545784890151825560018201915060208501945060208101905062000b2d565b8683101562000b74578489015162000b70601f89168262000a6a565b8355505b6001600288020188555050505b505050505050565b7f4e487b71000000000000000000000000000000000000000000000000000000005f52603260045260245ffd5b5f82825260208201905092915050565b7f45524337323155524953746f726167653a2055524920736574206f66206e6f6e5f8201527f6578697374656e7420746f6b656e000000000000000000000000000000000000602082015250565b5f62000c22602e8362000bb6565b915062000c2f8262000bc6565b604082019050919050565b5f6020820190508181035f83015262000c538162000c14565b9050919050565b62000c6581620007e2565b82525050565b5f60208201905062000c805f83018462000c5a565b92915050565b7f4552433732313a207472616e7366657220746f206e6f6e2045524337323152655f8201527f63656976657220696d706c656d656e7465720000000000000000000000000000602082015250565b5f62000ce260328362000bb6565b915062000cef8262000c86565b604082019050919050565b5f6020820190508181035f83015262000d138162000cd4565b9050919050565b7f4552433732313a206d696e7420746f20746865207a65726f20616464726573735f82015250565b5f62000d5060208362000bb6565b915062000d5d8262000d1a565b602082019050919050565b5f6020820190508181035f83015262000d818162000d42565b9050919050565b7f4552433732313a20746f6b656e20616c7265616479206d696e746564000000005f82015250565b5f62000dbe601c8362000bb6565b915062000dcb8262000d88565b602082019050919050565b5f6020820190508181035f83015262000def8162000db0565b9050919050565b5f73ffffffffffffffffffffffffffffffffffffffff82169050919050565b5f62000e218262000df6565b9050919050565b62000e338162000e15565b82525050565b5f81519050919050565b5f82825260208201905092915050565b5f5b8381101562000e7257808201518184015260208101905062000e55565b5f8484015250505050565b5f601f19601f8301169050919050565b5f62000e998262000e39565b62000ea5818562000e43565b935062000eb781856020860162000e53565b62000ec28162000e7d565b840191505092915050565b5f60808201905062000ee25f83018762000e28565b62000ef1602083018662000e28565b62000f00604083018562000c5a565b818103606083015262000f14818462000e8d565b905095945050505050565b5f7fffffffff0000000000000000000000000000000000000000000000000000000082169050919050565b62000f558162000f1f565b811462000f60575f80fd5b50565b5f8151905062000f738162000f4a565b92915050565b5f6020828403121562000f915762000f90620007de565b5b5f62000fa08482850162000f63565b91505092915050565b60805161322b62000fd05f395f81816108b5015281816109b60152610adb015261322b5ff3fe608060405234801561000f575f80fd5b5060043610610140575f3560e01c80636e04ff0d116100b65780639ec933a01161007a5780639ec933a014610387578063a22cb465146103a3578063b88d4fde146103bf578063bed34bba146103db578063c87b56dd1461040b578063e985e9c51461043b57610140565b80636e04ff0d146102cc57806370a08231146102fd578063947a36fb1461032d57806395d89b411461034b57806398bdf6f51461036957610140565b8063256364611161010857806325636461146101fa5780633f3b3b271461022a57806340d097c31461024857806342842e0e146102645780634585e33b146102805780636352211e1461029c57610140565b806301ffc9a71461014457806306fdde0314610174578063081812fc14610192578063095ea7b3146101c257806323b872dd146101de575b5f80fd5b61015e60048036038101906101599190611f95565b61046b565b60405161016b9190611fda565b60405180910390f35b61017c61047c565b604051610189919061207d565b60405180910390f35b6101ac60048036038101906101a791906120d0565b61050b565b6040516101b9919061213a565b60405180910390f35b6101dc60048036038101906101d7919061217d565b61054d565b005b6101f860048036038101906101f391906121bb565b610663565b005b610214600480360381019061020f91906120d0565b6106c3565b604051610221919061221a565b60405180910390f35b6102326107bd565b60405161023f919061221a565b60405180910390f35b610262600480360381019061025d9190612233565b6107c3565b005b61027e600480360381019061027991906121bb565b610894565b005b61029a600480360381019061029591906122bf565b6108b3565b005b6102b660048036038101906102b191906120d0565b61092d565b6040516102c3919061213a565b60405180910390f35b6102e660048036038101906102e191906122bf565b6109b1565b6040516102f492919061235c565b60405180910390f35b61031760048036038101906103129190612233565b610a25565b604051610324919061221a565b60405180910390f35b610335610ad9565b604051610342919061221a565b60405180910390f35b610353610afd565b604051610360919061207d565b60405180910390f35b610371610b8d565b60405161037e919061221a565b60405180910390f35b6103a1600480360381019061039c91906120d0565b610b98565b005b6103bd60048036038101906103b891906123b4565b610cb5565b005b6103d960048036038101906103d4919061251a565b610ccb565b005b6103f560048036038101906103f09190612638565b610d2d565b6040516104029190611fda565b60405180910390f35b610425600480360381019061042091906120d0565b610d85565b604051610432919061207d565b60405180910390f35b610455600480360381019061045091906126ae565b610d97565b6040516104629190611fda565b60405180910390f35b5f61047582610e25565b9050919050565b60605f805461048a90612719565b80601f01602080910402602001604051908101604052809291908181526020018280546104b690612719565b80156105015780601f106104d857610100808354040283529160200191610501565b820191905f5260205f20905b8154815290600101906020018083116104e457829003601f168201915b5050505050905090565b5f61051582610e85565b60045f8381526020019081526020015f205f9054906101000a900473ffffffffffffffffffffffffffffffffffffffff169050919050565b5f6105578261092d565b90508073ffffffffffffffffffffffffffffffffffffffff168373ffffffffffffffffffffffffffffffffffffffff16036105c7576040517f08c379a00000000000000000000000000000000000000000000000000000000081526004016105be906127b9565b60405180910390fd5b8073ffffffffffffffffffffffffffffffffffffffff166105e6610ed0565b73ffffffffffffffffffffffffffffffffffffffff16148061061557506106148161060f610ed0565b610d97565b5b610654576040517f08c379a000000000000000000000000000000000000000000000000000000000815260040161064b90612847565b60405180910390fd5b61065e8383610ed7565b505050565b61067461066e610ed0565b82610f8d565b6106b3576040517f08c379a00000000000000000000000000000000000000000000000000000000081526004016106aa906128d5565b60405180910390fd5b6106be838383611021565b505050565b5f806106ce83610d85565b90505f5b6008805490508110156107ad5761078b82600883815481106106f7576106f66128f3565b5b905f5260205f2001805461070a90612719565b80601f016020809104026020016040519081016040528092919081815260200182805461073690612719565b80156107815780601f1061075857610100808354040283529160200191610781565b820191905f5260205f20905b81548152906001019060200180831161076457829003601f168201915b5050505050610d2d565b1561079a5780925050506107b8565b80806107a59061294d565b9150506106d2565b506008805490509150505b919050565b60095481565b5f6107ce600761130d565b90506107da6007611319565b6107e4828261132d565b6108908160085f815481106107fc576107fb6128f3565b5b905f5260205f2001805461080f90612719565b80601f016020809104026020016040519081016040528092919081815260200182805461083b90612719565b80156108865780601f1061085d57610100808354040283529160200191610886565b820191905f5260205f20905b81548152906001019060200180831161086957829003601f168201915b505050505061134a565b5050565b6108ae83838360405180602001604052805f815250610ccb565b505050565b7f0000000000000000000000000000000000000000000000000000000000000000600954426108e29190612994565b1115610929575f60016108f5600761130d565b6108ff9190612994565b9050600880549050610910826106c3565b1015610927574260098190555061092681610b98565b5b505b5050565b5f80610938836113ec565b90505f73ffffffffffffffffffffffffffffffffffffffff168173ffffffffffffffffffffffffffffffffffffffff16036109a8576040517f08c379a000000000000000000000000000000000000000000000000000000000815260040161099f90612a11565b60405180910390fd5b80915050919050565b5f60607f0000000000000000000000000000000000000000000000000000000000000000600954426109e39190612994565b1115610a1e575f60016109f6600761130d565b610a009190612994565b9050600880549050610a11826106c3565b1015610a1c57600192505b505b9250929050565b5f8073ffffffffffffffffffffffffffffffffffffffff168273ffffffffffffffffffffffffffffffffffffffff1603610a94576040517f08c379a0000000000000000000000000000000000000000000000000000000008152600401610a8b90612a9f565b60405180910390fd5b60035f8373ffffffffffffffffffffffffffffffffffffffff1673ffffffffffffffffffffffffffffffffffffffff1681526020019081526020015f20549050919050565b7f000000000000000000000000000000000000000000000000000000000000000081565b606060018054610b0c90612719565b80601f0160208091040260200160405190810160405280929190818152602001828054610b3890612719565b8015610b835780601f10610b5a57610100808354040283529160200191610b83565b820191905f5260205f20905b815481529060010190602001808311610b6657829003601f168201915b5050505050905090565b6007805f0154905081565b600880549050610ba7826106c3565b1015610cb2575f6001610bb9836106c3565b610bc39190612abd565b90505f60088281548110610bda57610bd96128f3565b5b905f5260205f20018054610bed90612719565b80601f0160208091040260200160405190810160405280929190818152602001828054610c1990612719565b8015610c645780601f10610c3b57610100808354040283529160200191610c64565b820191905f5260205f20905b815481529060010190602001808311610c4757829003601f168201915b50505050509050610c75838261134a565b6008610c8084610d85565b908060018154018082558091505060019003905f5260205f20015f909190919091509081610cae9190612c8d565b5050505b50565b610cc7610cc0610ed0565b8383611425565b5050565b610cdc610cd6610ed0565b83610f8d565b610d1b576040517f08c379a0000000000000000000000000000000000000000000000000000000008152600401610d12906128d5565b60405180910390fd5b610d278484848461158c565b50505050565b5f81604051602001610d3f9190612d96565b6040516020818303038152906040528051906020012083604051602001610d669190612d96565b6040516020818303038152906040528051906020012014905092915050565b6060610d90826115e8565b9050919050565b5f60055f8473ffffffffffffffffffffffffffffffffffffffff1673ffffffffffffffffffffffffffffffffffffffff1681526020019081526020015f205f8373ffffffffffffffffffffffffffffffffffffffff1673ffffffffffffffffffffffffffffffffffffffff1681526020019081526020015f205f9054906101000a900460ff16905092915050565b5f634906490660e01b7bffffffffffffffffffffffffffffffffffffffffffffffffffffffff1916827bffffffffffffffffffffffffffffffffffffffffffffffffffffffff19161480610e7e5750610e7d826116f2565b5b9050919050565b610e8e816117d3565b610ecd576040517f08c379a0000000000000000000000000000000000000000000000000000000008152600401610ec490612a11565b60405180910390fd5b50565b5f33905090565b8160045f8381526020019081526020015f205f6101000a81548173ffffffffffffffffffffffffffffffffffffffff021916908373ffffffffffffffffffffffffffffffffffffffff160217905550808273ffffffffffffffffffffffffffffffffffffffff16610f478361092d565b73ffffffffffffffffffffffffffffffffffffffff167f8c5be1e5ebec7d5bd14f71427d1e84f3dd0314c0f7b2291e5b200ac8c7c3b92560405160405180910390a45050565b5f80610f988361092d565b90508073ffffffffffffffffffffffffffffffffffffffff168473ffffffffffffffffffffffffffffffffffffffff161480610fda5750610fd98185610d97565b5b8061101857508373ffffffffffffffffffffffffffffffffffffffff166110008461050b565b73ffffffffffffffffffffffffffffffffffffffff16145b91505092915050565b8273ffffffffffffffffffffffffffffffffffffffff166110418261092d565b73ffffffffffffffffffffffffffffffffffffffff1614611097576040517f08c379a000000000000000000000000000000000000000000000000000000000815260040161108e90612e1c565b60405180910390fd5b5f73ffffffffffffffffffffffffffffffffffffffff168273ffffffffffffffffffffffffffffffffffffffff1603611105576040517f08c379a00000000000000000000000000000000000000000000000000000000081526004016110fc90612eaa565b60405180910390fd5b6111128383836001611813565b8273ffffffffffffffffffffffffffffffffffffffff166111328261092d565b73ffffffffffffffffffffffffffffffffffffffff1614611188576040517f08c379a000000000000000000000000000000000000000000000000000000000815260040161117f90612e1c565b60405180910390fd5b60045f8281526020019081526020015f205f6101000a81549073ffffffffffffffffffffffffffffffffffffffff0219169055600160035f8573ffffffffffffffffffffffffffffffffffffffff1673ffffffffffffffffffffffffffffffffffffffff1681526020019081526020015f205f8282540392505081905550600160035f8473ffffffffffffffffffffffffffffffffffffffff1673ffffffffffffffffffffffffffffffffffffffff1681526020019081526020015f205f82825401925050819055508160025f8381526020019081526020015f205f6101000a81548173ffffffffffffffffffffffffffffffffffffffff021916908373ffffffffffffffffffffffffffffffffffffffff160217905550808273ffffffffffffffffffffffffffffffffffffffff168473ffffffffffffffffffffffffffffffffffffffff167fddf252ad1be2c89b69c2b068fc378daa952ba7f163c4a11628f55a4df523b3ef60405160405180910390a46113088383836001611819565b505050565b5f815f01549050919050565b6001815f015f828254019250508190555050565b611346828260405180602001604052805f81525061181f565b5050565b611353826117d3565b611392576040517f08c379a000000000000000000000000000000000000000000000000000000000815260040161138990612f38565b60405180910390fd5b8060065f8481526020019081526020015f2090816113b09190612c8d565b507ff8e1a15aba9398e019f0b49df1a4fde98ee17ae345cb5f6b5e2c27f5033e8ce7826040516113e0919061221a565b60405180910390a15050565b5f60025f8381526020019081526020015f205f9054906101000a900473ffffffffffffffffffffffffffffffffffffffff169050919050565b8173ffffffffffffffffffffffffffffffffffffffff168373ffffffffffffffffffffffffffffffffffffffff1603611493576040517f08c379a000000000000000000000000000000000000000000000000000000000815260040161148a90612fa0565b60405180910390fd5b8060055f8573ffffffffffffffffffffffffffffffffffffffff1673ffffffffffffffffffffffffffffffffffffffff1681526020019081526020015f205f8473ffffffffffffffffffffffffffffffffffffffff1673ffffffffffffffffffffffffffffffffffffffff1681526020019081526020015f205f6101000a81548160ff0219169083151502179055508173ffffffffffffffffffffffffffffffffffffffff168373ffffffffffffffffffffffffffffffffffffffff167f17307eab39ab6107e8899845ad3d59bd9653f200f220920489ca2b5937696c318360405161157f9190611fda565b60405180910390a3505050565b611597848484611021565b6115a384848484611879565b6115e2576040517f08c379a00000000000000000000000000000000000000000000000000000000081526004016115d99061302e565b60405180910390fd5b50505050565b60606115f382610e85565b5f60065f8481526020019081526020015f20805461161090612719565b80601f016020809104026020016040519081016040528092919081815260200182805461163c90612719565b80156116875780601f1061165e57610100808354040283529160200191611687565b820191905f5260205f20905b81548152906001019060200180831161166a57829003601f168201915b505050505090505f6116976119fb565b90505f8151036116ab5781925050506116ed565b5f825111156116df5780826040516020016116c792919061304c565b604051602081830303815290604052925050506116ed565b6116e884611a11565b925050505b919050565b5f7f80ac58cd000000000000000000000000000000000000000000000000000000007bffffffffffffffffffffffffffffffffffffffffffffffffffffffff1916827bffffffffffffffffffffffffffffffffffffffffffffffffffffffff191614806117bc57507f5b5e139f000000000000000000000000000000000000000000000000000000007bffffffffffffffffffffffffffffffffffffffffffffffffffffffff1916827bffffffffffffffffffffffffffffffffffffffffffffffffffffffff1916145b806117cc57506117cb82611a76565b5b9050919050565b5f8073ffffffffffffffffffffffffffffffffffffffff166117f4836113ec565b73ffffffffffffffffffffffffffffffffffffffff1614159050919050565b50505050565b50505050565b6118298383611adf565b6118355f848484611879565b611874576040517f08c379a000000000000000000000000000000000000000000000000000000000815260040161186b9061302e565b60405180910390fd5b505050565b5f6118998473ffffffffffffffffffffffffffffffffffffffff16611cf2565b156119ee578373ffffffffffffffffffffffffffffffffffffffff1663150b7a026118c2610ed0565b8786866040518563ffffffff1660e01b81526004016118e4949392919061306f565b6020604051808303815f875af192505050801561191f57506040513d601f19601f8201168201806040525081019061191c91906130cd565b60015b61199e573d805f811461194d576040519150601f19603f3d011682016040523d82523d5f602084013e611952565b606091505b505f815103611996576040517f08c379a000000000000000000000000000000000000000000000000000000000815260040161198d9061302e565b60405180910390fd5b805181602001fd5b63150b7a0260e01b7bffffffffffffffffffffffffffffffffffffffffffffffffffffffff1916817bffffffffffffffffffffffffffffffffffffffffffffffffffffffff1916149150506119f3565b600190505b949350505050565b606060405180602001604052805f815250905090565b6060611a1c82610e85565b5f611a256119fb565b90505f815111611a435760405180602001604052805f815250611a6e565b80611a4d84611d14565b604051602001611a5e92919061304c565b6040516020818303038152906040525b915050919050565b5f7f01ffc9a7000000000000000000000000000000000000000000000000000000007bffffffffffffffffffffffffffffffffffffffffffffffffffffffff1916827bffffffffffffffffffffffffffffffffffffffffffffffffffffffff1916149050919050565b5f73ffffffffffffffffffffffffffffffffffffffff168273ffffffffffffffffffffffffffffffffffffffff1603611b4d576040517f08c379a0000000000000000000000000000000000000000000000000000000008152600401611b4490613142565b60405180910390fd5b611b56816117d3565b15611b96576040517f08c379a0000000000000000000000000000000000000000000000000000000008152600401611b8d906131aa565b60405180910390fd5b611ba35f83836001611813565b611bac816117d3565b15611bec576040517f08c379a0000000000000000000000000000000000000000000000000000000008152600401611be3906131aa565b60405180910390fd5b600160035f8473ffffffffffffffffffffffffffffffffffffffff1673ffffffffffffffffffffffffffffffffffffffff1681526020019081526020015f205f82825401925050819055508160025f8381526020019081526020015f205f6101000a81548173ffffffffffffffffffffffffffffffffffffffff021916908373ffffffffffffffffffffffffffffffffffffffff160217905550808273ffffffffffffffffffffffffffffffffffffffff165f73ffffffffffffffffffffffffffffffffffffffff167fddf252ad1be2c89b69c2b068fc378daa952ba7f163c4a11628f55a4df523b3ef60405160405180910390a4611cee5f83836001611819565b5050565b5f808273ffffffffffffffffffffffffffffffffffffffff163b119050919050565b60605f6001611d2284611dde565b0190505f8167ffffffffffffffff811115611d4057611d3f6123f6565b5b6040519080825280601f01601f191660200182016040528015611d725781602001600182028036833780820191505090505b5090505f82602001820190505b600115611dd3578080600190039150507f3031323334353637383961626364656600000000000000000000000000000000600a86061a8153600a8581611dc857611dc76131c8565b5b0494505f8503611d7f575b819350505050919050565b5f805f90507a184f03e93ff9f4daa797ed6e38ed64bf6a1f0100000000000000008310611e3a577a184f03e93ff9f4daa797ed6e38ed64bf6a1f0100000000000000008381611e3057611e2f6131c8565b5b0492506040810190505b6d04ee2d6d415b85acef81000000008310611e77576d04ee2d6d415b85acef81000000008381611e6d57611e6c6131c8565b5b0492506020810190505b662386f26fc100008310611ea657662386f26fc100008381611e9c57611e9b6131c8565b5b0492506010810190505b6305f5e1008310611ecf576305f5e1008381611ec557611ec46131c8565b5b0492506008810190505b6127108310611ef4576127108381611eea57611ee96131c8565b5b0492506004810190505b60648310611f175760648381611f0d57611f0c6131c8565b5b0492506002810190505b600a8310611f26576001810190505b80915050919050565b5f604051905090565b5f80fd5b5f80fd5b5f7fffffffff0000000000000000000000000000000000000000000000000000000082169050919050565b611f7481611f40565b8114611f7e575f80fd5b50565b5f81359050611f8f81611f6b565b92915050565b5f60208284031215611faa57611fa9611f38565b5b5f611fb784828501611f81565b91505092915050565b5f8115159050919050565b611fd481611fc0565b82525050565b5f602082019050611fed5f830184611fcb565b92915050565b5f81519050919050565b5f82825260208201905092915050565b5f5b8381101561202a57808201518184015260208101905061200f565b5f8484015250505050565b5f601f19601f8301169050919050565b5f61204f82611ff3565b6120598185611ffd565b935061206981856020860161200d565b61207281612035565b840191505092915050565b5f6020820190508181035f8301526120958184612045565b905092915050565b5f819050919050565b6120af8161209d565b81146120b9575f80fd5b50565b5f813590506120ca816120a6565b92915050565b5f602082840312156120e5576120e4611f38565b5b5f6120f2848285016120bc565b91505092915050565b5f73ffffffffffffffffffffffffffffffffffffffff82169050919050565b5f612124826120fb565b9050919050565b6121348161211a565b82525050565b5f60208201905061214d5f83018461212b565b92915050565b61215c8161211a565b8114612166575f80fd5b50565b5f8135905061217781612153565b92915050565b5f806040838503121561219357612192611f38565b5b5f6121a085828601612169565b92505060206121b1858286016120bc565b9150509250929050565b5f805f606084860312156121d2576121d1611f38565b5b5f6121df86828701612169565b93505060206121f086828701612169565b9250506040612201868287016120bc565b9150509250925092565b6122148161209d565b82525050565b5f60208201905061222d5f83018461220b565b92915050565b5f6020828403121561224857612247611f38565b5b5f61225584828501612169565b91505092915050565b5f80fd5b5f80fd5b5f80fd5b5f8083601f84011261227f5761227e61225e565b5b8235905067ffffffffffffffff81111561229c5761229b612262565b5b6020830191508360018202830111156122b8576122b7612266565b5b9250929050565b5f80602083850312156122d5576122d4611f38565b5b5f83013567ffffffffffffffff8111156122f2576122f1611f3c565b5b6122fe8582860161226a565b92509250509250929050565b5f81519050919050565b5f82825260208201905092915050565b5f61232e8261230a565b6123388185612314565b935061234881856020860161200d565b61235181612035565b840191505092915050565b5f60408201905061236f5f830185611fcb565b81810360208301526123818184612324565b90509392505050565b61239381611fc0565b811461239d575f80fd5b50565b5f813590506123ae8161238a565b92915050565b5f80604083850312156123ca576123c9611f38565b5b5f6123d785828601612169565b92505060206123e8858286016123a0565b9150509250929050565b5f80fd5b7f4e487b71000000000000000000000000000000000000000000000000000000005f52604160045260245ffd5b61242c82612035565b810181811067ffffffffffffffff8211171561244b5761244a6123f6565b5b80604052505050565b5f61245d611f2f565b90506124698282612423565b919050565b5f67ffffffffffffffff821115612488576124876123f6565b5b61249182612035565b9050602081019050919050565b828183375f83830152505050565b5f6124be6124b98461246e565b612454565b9050828152602081018484840111156124da576124d96123f2565b5b6124e584828561249e565b509392505050565b5f82601f8301126125015761250061225e565b5b81356125118482602086016124ac565b91505092915050565b5f805f806080858703121561253257612531611f38565b5b5f61253f87828801612169565b945050602061255087828801612169565b9350506040612561878288016120bc565b925050606085013567ffffffffffffffff81111561258257612581611f3c565b5b61258e878288016124ed565b91505092959194509250565b5f67ffffffffffffffff8211156125b4576125b36123f6565b5b6125bd82612035565b9050602081019050919050565b5f6125dc6125d78461259a565b612454565b9050828152602081018484840111156125f8576125f76123f2565b5b61260384828561249e565b509392505050565b5f82601f83011261261f5761261e61225e565b5b813561262f8482602086016125ca565b91505092915050565b5f806040838503121561264e5761264d611f38565b5b5f83013567ffffffffffffffff81111561266b5761266a611f3c565b5b6126778582860161260b565b925050602083013567ffffffffffffffff81111561269857612697611f3c565b5b6126a48582860161260b565b9150509250929050565b5f80604083850312156126c4576126c3611f38565b5b5f6126d185828601612169565b92505060206126e285828601612169565b9150509250929050565b7f4e487b71000000000000000000000000000000000000000000000000000000005f52602260045260245ffd5b5f600282049050600182168061273057607f821691505b602082108103612743576127426126ec565b5b50919050565b7f4552433732313a20617070726f76616c20746f2063757272656e74206f776e655f8201527f7200000000000000000000000000000000000000000000000000000000000000602082015250565b5f6127a3602183611ffd565b91506127ae82612749565b604082019050919050565b5f6020820190508181035f8301526127d081612797565b9050919050565b7f4552433732313a20617070726f76652063616c6c6572206973206e6f7420746f5f8201527f6b656e206f776e6572206f7220617070726f76656420666f7220616c6c000000602082015250565b5f612831603d83611ffd565b915061283c826127d7565b604082019050919050565b5f6020820190508181035f83015261285e81612825565b9050919050565b7f4552433732313a2063616c6c6572206973206e6f7420746f6b656e206f776e655f8201527f72206f7220617070726f76656400000000000000000000000000000000000000602082015250565b5f6128bf602d83611ffd565b91506128ca82612865565b604082019050919050565b5f6020820190508181035f8301526128ec816128b3565b9050919050565b7f4e487b71000000000000000000000000000000000000000000000000000000005f52603260045260245ffd5b7f4e487b71000000000000000000000000000000000000000000000000000000005f52601160045260245ffd5b5f6129578261209d565b91507fffffffffffffffffffffffffffffffffffffffffffffffffffffffffffffffff820361298957612988612920565b5b600182019050919050565b5f61299e8261209d565b91506129a98361209d565b92508282039050818111156129c1576129c0612920565b5b92915050565b7f4552433732313a20696e76616c696420746f6b656e20494400000000000000005f82015250565b5f6129fb601883611ffd565b9150612a06826129c7565b602082019050919050565b5f6020820190508181035f830152612a28816129ef565b9050919050565b7f4552433732313a2061646472657373207a65726f206973206e6f7420612076615f8201527f6c6964206f776e65720000000000000000000000000000000000000000000000602082015250565b5f612a89602983611ffd565b9150612a9482612a2f565b604082019050919050565b5f6020820190508181035f830152612ab681612a7d565b9050919050565b5f612ac78261209d565b9150612ad28361209d565b9250828201905080821115612aea57612ae9612920565b5b92915050565b5f819050815f5260205f209050919050565b5f6020601f8301049050919050565b5f82821b905092915050565b5f60088302612b4c7fffffffffffffffffffffffffffffffffffffffffffffffffffffffffffffffff82612b11565b612b568683612b11565b95508019841693508086168417925050509392505050565b5f819050919050565b5f612b91612b8c612b878461209d565b612b6e565b61209d565b9050919050565b5f819050919050565b612baa83612b77565b612bbe612bb682612b98565b848454612b1d565b825550505050565b5f90565b612bd2612bc6565b612bdd818484612ba1565b505050565b5b81811015612c0057612bf55f82612bca565b600181019050612be3565b5050565b601f821115612c4557612c1681612af0565b612c1f84612b02565b81016020851015612c2e578190505b612c42612c3a85612b02565b830182612be2565b50505b505050565b5f82821c905092915050565b5f612c655f1984600802612c4a565b1980831691505092915050565b5f612c7d8383612c56565b9150826002028217905092915050565b612c9682611ff3565b67ffffffffffffffff811115612caf57612cae6123f6565b5b612cb98254612719565b612cc4828285612c04565b5f60209050601f831160018114612cf5575f8415612ce3578287015190505b612ced8582612c72565b865550612d54565b601f198416612d0386612af0565b5f5b82811015612d2a57848901518255600182019150602085019450602081019050612d05565b86831015612d475784890151612d43601f891682612c56565b8355505b6001600288020188555050505b505050505050565b5f81905092915050565b5f612d7082611ff3565b612d7a8185612d5c565b9350612d8a81856020860161200d565b80840191505092915050565b5f612da18284612d66565b915081905092915050565b7f4552433732313a207472616e736665722066726f6d20696e636f7272656374205f8201527f6f776e6572000000000000000000000000000000000000000000000000000000602082015250565b5f612e06602583611ffd565b9150612e1182612dac565b604082019050919050565b5f6020820190508181035f830152612e3381612dfa565b9050919050565b7f4552433732313a207472616e7366657220746f20746865207a65726f206164645f8201527f7265737300000000000000000000000000000000000000000000000000000000602082015250565b5f612e94602483611ffd565b9150612e9f82612e3a565b604082019050919050565b5f6020820190508181035f830152612ec181612e88565b9050919050565b7f45524337323155524953746f726167653a2055524920736574206f66206e6f6e5f8201527f6578697374656e7420746f6b656e000000000000000000000000000000000000602082015250565b5f612f22602e83611ffd565b9150612f2d82612ec8565b604082019050919050565b5f6020820190508181035f830152612f4f81612f16565b9050919050565b7f4552433732313a20617070726f766520746f2063616c6c6572000000000000005f82015250565b5f612f8a601983611ffd565b9150612f9582612f56565b602082019050919050565b5f6020820190508181035f830152612fb781612f7e565b9050919050565b7f4552433732313a207472616e7366657220746f206e6f6e2045524337323152655f8201527f63656976657220696d706c656d656e7465720000000000000000000000000000602082015250565b5f613018603283611ffd565b915061302382612fbe565b604082019050919050565b5f6020820190508181035f8301526130458161300c565b9050919050565b5f6130578285612d66565b91506130638284612d66565b91508190509392505050565b5f6080820190506130825f83018761212b565b61308f602083018661212b565b61309c604083018561220b565b81810360608301526130ae8184612324565b905095945050505050565b5f815190506130c781611f6b565b92915050565b5f602082840312156130e2576130e1611f38565b5b5f6130ef848285016130b9565b91505092915050565b7f4552433732313a206d696e7420746f20746865207a65726f20616464726573735f82015250565b5f61312c602083611ffd565b9150613137826130f8565b602082019050919050565b5f6020820190508181035f83015261315981613120565b9050919050565b7f4552433732313a20746f6b656e20616c7265616479206d696e746564000000005f82015250565b5f613194601c83611ffd565b915061319f82613160565b602082019050919050565b5f6020820190508181035f8301526131c181613188565b9050919050565b7f4e487b71000000000000000000000000000000000000000000000000000000005f52601260045260245ffdfea2646970667358221220bfc72952fe94df6e6f880ffd0cc0a1da3d126434d2b32fec15760667afc54e3064736f6c63430008140033a26469706673582212205e78d207108cb5dd41a0738bb55f7f6ef3d7fd850806ebaaf47b2b8a5a82e71d64736f6c63430008140033",
  "immutableReferences": {},
  "source": "// SPDX-License-Identifier: MIT\npragma solidity ^0.8.9;\n\nimport \"./ProfileImage.sol\";\nimport \"../../node_modules/@openzeppelin/contracts/token/ERC721/IERC721Receiver.sol\";\n\n\ncontract ProfileImageFactory is IERC721Receiver{\n    address[] public userPhotoContracts;\n\n    function createUserPhoto(uint updateInterval) public returns (address) {\n        ProfileDNFT newUserPhoto = new ProfileDNFT(updateInterval);\n        userPhotoContracts.push(address(newUserPhoto));\n        return userPhotoContracts[userPhotoContracts.length - 1];\n    }\n\n    function getUserPhotoContracts() public view returns (address[] memory) {\n        return userPhotoContracts;\n    }\n\n    function onERC721Received(\n        address operator,\n        address from,\n        uint256 tokenId,\n        bytes memory data\n    ) public virtual override returns (bytes4) {\n        // Implemente a lgica para receber o token ERC721 aqui\n        // e retorne o valor correto da funo\n        return this.onERC721Received.selector;\n    }\n}",
  "sourcePath": "/home/victorcarvalho/Documents/Github/ChainlinkHackas/chainlink-hackathon/contracts/contracts/User/ProfileImageFactory.sol",
  "compiler": {
    "name": "solc",
    "version": "0.8.20+commit.a1b79de6.Emscripten.clang"
  },
  "schemaVersion": "3.4.14",
  "updatedAt": "2023-06-09T19:22:05.568Z",
  "networkType": "ethereum",
  "devdoc": {
    "kind": "dev",
    "methods": {
      "onERC721Received(address,address,uint256,bytes)": {
        "details": "Whenever an {IERC721} `tokenId` token is transferred to this contract via {IERC721-safeTransferFrom} by `operator` from `from`, this function is called. It must return its Solidity selector to confirm the token transfer. If any other value is returned or the interface is not implemented by the recipient, the transfer will be reverted. The selector can be obtained in Solidity with `IERC721Receiver.onERC721Received.selector`."
      }
    },
    "version": 1
  },
  "userdoc": {
    "kind": "user",
    "methods": {},
    "version": 1
  }
}