{
  "contractName": "UserPhotoFactory",
  "abi": [
    {
      "inputs": [
        {
          "internalType": "uint256",
          "name": "",
          "type": "uint256"
        }
      ],
      "name": "userPhotoContracts",
      "outputs": [
        {
          "internalType": "address",
          "name": "",
          "type": "address"
        }
      ],
      "stateMutability": "view",
      "type": "function"
    },
    {
      "inputs": [
        {
          "internalType": "uint256",
          "name": "updateInterval",
          "type": "uint256"
        }
      ],
      "name": "createUserPhoto",
      "outputs": [],
      "stateMutability": "nonpayable",
      "type": "function"
    },
    {
      "inputs": [],
      "name": "getUserPhotoContracts",
      "outputs": [
        {
          "internalType": "address[]",
          "name": "",
          "type": "address[]"
        }
      ],
      "stateMutability": "view",
      "type": "function"
    }
  ],
  "bytecode": "0x608060405234801561000f575f80fd5b506146078061001d5f395ff3fe608060405234801562000010575f80fd5b506004361062000044575f3560e01c8063c7990e971462000048578063cc25b588146200007e578063efcf56af14620000a0575b5f80fd5b6200006660048036038101906200006091906200026d565b620000c0565b604051620000759190620002e0565b60405180910390f35b62000088620000fb565b604051620000979190620003c2565b60405180910390f35b620000be6004803603810190620000b891906200026d565b62000187565b005b5f8181548110620000cf575f80fd5b905f5260205f20015f915054906101000a900473ffffffffffffffffffffffffffffffffffffffff1681565b60605f8054806020026020016040519081016040528092919081815260200182805480156200017d57602002820191905f5260205f20905b815f9054906101000a900473ffffffffffffffffffffffffffffffffffffffff1673ffffffffffffffffffffffffffffffffffffffff168152602001906001019080831162000133575b5050505050905090565b5f81604051620001979062000223565b620001a39190620003f5565b604051809103905ff080158015620001bd573d5f803e3d5ffd5b5090505f81908060018154018082558091505060019003905f5260205f20015f9091909190916101000a81548173ffffffffffffffffffffffffffffffffffffffff021916908373ffffffffffffffffffffffffffffffffffffffff1602179055505050565b6141c1806200041183390190565b5f80fd5b5f819050919050565b620002498162000235565b811462000254575f80fd5b50565b5f8135905062000267816200023e565b92915050565b5f6020828403121562000285576200028462000231565b5b5f620002948482850162000257565b91505092915050565b5f73ffffffffffffffffffffffffffffffffffffffff82169050919050565b5f620002c8826200029d565b9050919050565b620002da81620002bc565b82525050565b5f602082019050620002f55f830184620002cf565b92915050565b5f81519050919050565b5f82825260208201905092915050565b5f819050602082019050919050565b6200032f81620002bc565b82525050565b5f62000342838362000324565b60208301905092915050565b5f602082019050919050565b5f6200036682620002fb565b62000372818562000305565b93506200037f8362000315565b805f5b83811015620003b557815162000399888262000335565b9750620003a6836200034e565b92505060018101905062000382565b5085935050505092915050565b5f6020820190508181035f830152620003dc81846200035a565b905092915050565b620003ef8162000235565b82525050565b5f6020820190506200040a5f830184620003e4565b9291505056fe60a060405234801562000010575f80fd5b50604051620041c1380380620041c183398181016040528101906200003691906200081a565b6040518060400160405280600a81526020017f55736572496d61676573000000000000000000000000000000000000000000008152506040518060400160405280600581526020017f50686f746f000000000000000000000000000000000000000000000000000000815250815f9081620000b2919062000aa5565b508060019081620000c4919062000aa5565b505050806080818152505042600981905550620000e733620000ee60201b60201c565b5062000fa9565b5f620001016007620001ea60201b60201c565b9050620001156007620001f660201b60201c565b6200012782826200020a60201b60201c565b620001e68160085f8154811062000143576200014262000b89565b5b905f5260205f200180546200015890620008ae565b80601f01602080910402602001604051908101604052809291908181526020018280546200018690620008ae565b8015620001d55780601f10620001ab57610100808354040283529160200191620001d5565b820191905f5260205f20905b815481529060010190602001808311620001b757829003601f168201915b50505050506200022f60201b60201c565b5050565b5f815f01549050919050565b6001815f015f828254019250508190555050565b6200022b828260405180602001604052805f815250620002e060201b60201c565b5050565b62000240826200034d60201b60201c565b62000282576040517f08c379a0000000000000000000000000000000000000000000000000000000008152600401620002799062000c3a565b60405180910390fd5b8060065f8481526020019081526020015f209081620002a2919062000aa5565b507ff8e1a15aba9398e019f0b49df1a4fde98ee17ae345cb5f6b5e2c27f5033e8ce782604051620002d4919062000c6b565b60405180910390a15050565b620002f283836200039560201b60201c565b620003065f848484620005d160201b60201c565b62000348576040517f08c379a00000000000000000000000000000000000000000000000000000000081526004016200033f9062000cfa565b60405180910390fd5b505050565b5f8073ffffffffffffffffffffffffffffffffffffffff1662000376836200077060201b60201c565b73ffffffffffffffffffffffffffffffffffffffff1614159050919050565b5f73ffffffffffffffffffffffffffffffffffffffff168273ffffffffffffffffffffffffffffffffffffffff160362000406576040517f08c379a0000000000000000000000000000000000000000000000000000000008152600401620003fd9062000d68565b60405180910390fd5b62000417816200034d60201b60201c565b156200045a576040517f08c379a0000000000000000000000000000000000000000000000000000000008152600401620004519062000dd6565b60405180910390fd5b6200046f5f83836001620007a960201b60201c565b62000480816200034d60201b60201c565b15620004c3576040517f08c379a0000000000000000000000000000000000000000000000000000000008152600401620004ba9062000dd6565b60405180910390fd5b600160035f8473ffffffffffffffffffffffffffffffffffffffff1673ffffffffffffffffffffffffffffffffffffffff1681526020019081526020015f205f82825401925050819055508160025f8381526020019081526020015f205f6101000a81548173ffffffffffffffffffffffffffffffffffffffff021916908373ffffffffffffffffffffffffffffffffffffffff160217905550808273ffffffffffffffffffffffffffffffffffffffff165f73ffffffffffffffffffffffffffffffffffffffff167fddf252ad1be2c89b69c2b068fc378daa952ba7f163c4a11628f55a4df523b3ef60405160405180910390a4620005cd5f83836001620007af60201b60201c565b5050565b5f620005f98473ffffffffffffffffffffffffffffffffffffffff16620007b560201b60201c565b1562000763578373ffffffffffffffffffffffffffffffffffffffff1663150b7a026200062b620007d760201b60201c565b8786866040518563ffffffff1660e01b81526004016200064f949392919062000ecd565b6020604051808303815f875af19250505080156200068d57506040513d601f19601f820116820180604052508101906200068a919062000f79565b60015b62000712573d805f8114620006be576040519150601f19603f3d011682016040523d82523d5f602084013e620006c3565b606091505b505f8151036200070a576040517f08c379a0000000000000000000000000000000000000000000000000000000008152600401620007019062000cfa565b60405180910390fd5b805181602001fd5b63150b7a0260e01b7bffffffffffffffffffffffffffffffffffffffffffffffffffffffff1916817bffffffffffffffffffffffffffffffffffffffffffffffffffffffff19161491505062000768565b600190505b949350505050565b5f60025f8381526020019081526020015f205f9054906101000a900473ffffffffffffffffffffffffffffffffffffffff169050919050565b50505050565b50505050565b5f808273ffffffffffffffffffffffffffffffffffffffff163b119050919050565b5f33905090565b5f80fd5b5f819050919050565b620007f681620007e2565b811462000801575f80fd5b50565b5f815190506200081481620007eb565b92915050565b5f60208284031215620008325762000831620007de565b5b5f620008418482850162000804565b91505092915050565b5f81519050919050565b7f4e487b71000000000000000000000000000000000000000000000000000000005f52604160045260245ffd5b7f4e487b71000000000000000000000000000000000000000000000000000000005f52602260045260245ffd5b5f6002820490506001821680620008c657607f821691505b602082108103620008dc57620008db62000881565b5b50919050565b5f819050815f5260205f209050919050565b5f6020601f8301049050919050565b5f82821b905092915050565b5f60088302620009407fffffffffffffffffffffffffffffffffffffffffffffffffffffffffffffffff8262000903565b6200094c868362000903565b95508019841693508086168417925050509392505050565b5f819050919050565b5f6200098d620009876200098184620007e2565b62000964565b620007e2565b9050919050565b5f819050919050565b620009a8836200096d565b620009c0620009b78262000994565b8484546200090f565b825550505050565b5f90565b620009d6620009c8565b620009e38184846200099d565b505050565b5b8181101562000a0a57620009fe5f82620009cc565b600181019050620009e9565b5050565b601f82111562000a595762000a2381620008e2565b62000a2e84620008f4565b8101602085101562000a3e578190505b62000a5662000a4d85620008f4565b830182620009e8565b50505b505050565b5f82821c905092915050565b5f62000a7b5f198460080262000a5e565b1980831691505092915050565b5f62000a95838362000a6a565b9150826002028217905092915050565b62000ab0826200084a565b67ffffffffffffffff81111562000acc5762000acb62000854565b5b62000ad88254620008ae565b62000ae582828562000a0e565b5f60209050601f83116001811462000b1b575f841562000b06578287015190505b62000b12858262000a88565b86555062000b81565b601f19841662000b2b86620008e2565b5f5b8281101562000b545784890151825560018201915060208501945060208101905062000b2d565b8683101562000b74578489015162000b70601f89168262000a6a565b8355505b6001600288020188555050505b505050505050565b7f4e487b71000000000000000000000000000000000000000000000000000000005f52603260045260245ffd5b5f82825260208201905092915050565b7f45524337323155524953746f726167653a2055524920736574206f66206e6f6e5f8201527f6578697374656e7420746f6b656e000000000000000000000000000000000000602082015250565b5f62000c22602e8362000bb6565b915062000c2f8262000bc6565b604082019050919050565b5f6020820190508181035f83015262000c538162000c14565b9050919050565b62000c6581620007e2565b82525050565b5f60208201905062000c805f83018462000c5a565b92915050565b7f4552433732313a207472616e7366657220746f206e6f6e2045524337323152655f8201527f63656976657220696d706c656d656e7465720000000000000000000000000000602082015250565b5f62000ce260328362000bb6565b915062000cef8262000c86565b604082019050919050565b5f6020820190508181035f83015262000d138162000cd4565b9050919050565b7f4552433732313a206d696e7420746f20746865207a65726f20616464726573735f82015250565b5f62000d5060208362000bb6565b915062000d5d8262000d1a565b602082019050919050565b5f6020820190508181035f83015262000d818162000d42565b9050919050565b7f4552433732313a20746f6b656e20616c7265616479206d696e746564000000005f82015250565b5f62000dbe601c8362000bb6565b915062000dcb8262000d88565b602082019050919050565b5f6020820190508181035f83015262000def8162000db0565b9050919050565b5f73ffffffffffffffffffffffffffffffffffffffff82169050919050565b5f62000e218262000df6565b9050919050565b62000e338162000e15565b82525050565b5f81519050919050565b5f82825260208201905092915050565b5f5b8381101562000e7257808201518184015260208101905062000e55565b5f8484015250505050565b5f601f19601f8301169050919050565b5f62000e998262000e39565b62000ea5818562000e43565b935062000eb781856020860162000e53565b62000ec28162000e7d565b840191505092915050565b5f60808201905062000ee25f83018762000e28565b62000ef1602083018662000e28565b62000f00604083018562000c5a565b818103606083015262000f14818462000e8d565b905095945050505050565b5f7fffffffff0000000000000000000000000000000000000000000000000000000082169050919050565b62000f558162000f1f565b811462000f60575f80fd5b50565b5f8151905062000f738162000f4a565b92915050565b5f6020828403121562000f915762000f90620007de565b5b5f62000fa08482850162000f63565b91505092915050565b6080516131f162000fd05f395f81816108b5015281816109b60152610adb01526131f15ff3fe608060405234801561000f575f80fd5b5060043610610140575f3560e01c80636e04ff0d116100b65780639ec933a01161007a5780639ec933a014610387578063a22cb465146103a3578063b88d4fde146103bf578063bed34bba146103db578063c87b56dd1461040b578063e985e9c51461043b57610140565b80636e04ff0d146102cc57806370a08231146102fd578063947a36fb1461032d57806395d89b411461034b57806398bdf6f51461036957610140565b8063256364611161010857806325636461146101fa5780633f3b3b271461022a57806340d097c31461024857806342842e0e146102645780634585e33b146102805780636352211e1461029c57610140565b806301ffc9a71461014457806306fdde0314610174578063081812fc14610192578063095ea7b3146101c257806323b872dd146101de575b5f80fd5b61015e60048036038101906101599190611f5b565b61046b565b60405161016b9190611fa0565b60405180910390f35b61017c61047c565b6040516101899190612043565b60405180910390f35b6101ac60048036038101906101a79190612096565b61050b565b6040516101b99190612100565b60405180910390f35b6101dc60048036038101906101d79190612143565b61054d565b005b6101f860048036038101906101f39190612181565b610663565b005b610214600480360381019061020f9190612096565b6106c3565b60405161022191906121e0565b60405180910390f35b6102326107bd565b60405161023f91906121e0565b60405180910390f35b610262600480360381019061025d91906121f9565b6107c3565b005b61027e60048036038101906102799190612181565b610894565b005b61029a60048036038101906102959190612285565b6108b3565b005b6102b660048036038101906102b19190612096565b61092d565b6040516102c39190612100565b60405180910390f35b6102e660048036038101906102e19190612285565b6109b1565b6040516102f4929190612322565b60405180910390f35b610317600480360381019061031291906121f9565b610a25565b60405161032491906121e0565b60405180910390f35b610335610ad9565b60405161034291906121e0565b60405180910390f35b610353610afd565b6040516103609190612043565b60405180910390f35b610371610b8d565b60405161037e91906121e0565b60405180910390f35b6103a1600480360381019061039c9190612096565b610b98565b005b6103bd60048036038101906103b8919061237a565b610c7b565b005b6103d960048036038101906103d491906124e0565b610c91565b005b6103f560048036038101906103f091906125fe565b610cf3565b6040516104029190611fa0565b60405180910390f35b61042560048036038101906104209190612096565b610d4b565b6040516104329190612043565b60405180910390f35b61045560048036038101906104509190612674565b610d5d565b6040516104629190611fa0565b60405180910390f35b5f61047582610deb565b9050919050565b60605f805461048a906126df565b80601f01602080910402602001604051908101604052809291908181526020018280546104b6906126df565b80156105015780601f106104d857610100808354040283529160200191610501565b820191905f5260205f20905b8154815290600101906020018083116104e457829003601f168201915b5050505050905090565b5f61051582610e4b565b60045f8381526020019081526020015f205f9054906101000a900473ffffffffffffffffffffffffffffffffffffffff169050919050565b5f6105578261092d565b90508073ffffffffffffffffffffffffffffffffffffffff168373ffffffffffffffffffffffffffffffffffffffff16036105c7576040517f08c379a00000000000000000000000000000000000000000000000000000000081526004016105be9061277f565b60405180910390fd5b8073ffffffffffffffffffffffffffffffffffffffff166105e6610e96565b73ffffffffffffffffffffffffffffffffffffffff16148061061557506106148161060f610e96565b610d5d565b5b610654576040517f08c379a000000000000000000000000000000000000000000000000000000000815260040161064b9061280d565b60405180910390fd5b61065e8383610e9d565b505050565b61067461066e610e96565b82610f53565b6106b3576040517f08c379a00000000000000000000000000000000000000000000000000000000081526004016106aa9061289b565b60405180910390fd5b6106be838383610fe7565b505050565b5f806106ce83610d4b565b90505f5b6008805490508110156107ad5761078b82600883815481106106f7576106f66128b9565b5b905f5260205f2001805461070a906126df565b80601f0160208091040260200160405190810160405280929190818152602001828054610736906126df565b80156107815780601f1061075857610100808354040283529160200191610781565b820191905f5260205f20905b81548152906001019060200180831161076457829003601f168201915b5050505050610cf3565b1561079a5780925050506107b8565b80806107a590612913565b9150506106d2565b506008805490509150505b919050565b60095481565b5f6107ce60076112d3565b90506107da60076112df565b6107e482826112f3565b6108908160085f815481106107fc576107fb6128b9565b5b905f5260205f2001805461080f906126df565b80601f016020809104026020016040519081016040528092919081815260200182805461083b906126df565b80156108865780601f1061085d57610100808354040283529160200191610886565b820191905f5260205f20905b81548152906001019060200180831161086957829003601f168201915b5050505050611310565b5050565b6108ae83838360405180602001604052805f815250610c91565b505050565b7f0000000000000000000000000000000000000000000000000000000000000000600954426108e2919061295a565b1115610929575f60016108f560076112d3565b6108ff919061295a565b9050600880549050610910826106c3565b1015610927574260098190555061092681610b98565b5b505b5050565b5f80610938836113b2565b90505f73ffffffffffffffffffffffffffffffffffffffff168173ffffffffffffffffffffffffffffffffffffffff16036109a8576040517f08c379a000000000000000000000000000000000000000000000000000000000815260040161099f906129d7565b60405180910390fd5b80915050919050565b5f60607f0000000000000000000000000000000000000000000000000000000000000000600954426109e3919061295a565b1115610a1e575f60016109f660076112d3565b610a00919061295a565b9050600880549050610a11826106c3565b1015610a1c57600192505b505b9250929050565b5f8073ffffffffffffffffffffffffffffffffffffffff168273ffffffffffffffffffffffffffffffffffffffff1603610a94576040517f08c379a0000000000000000000000000000000000000000000000000000000008152600401610a8b90612a65565b60405180910390fd5b60035f8373ffffffffffffffffffffffffffffffffffffffff1673ffffffffffffffffffffffffffffffffffffffff1681526020019081526020015f20549050919050565b7f000000000000000000000000000000000000000000000000000000000000000081565b606060018054610b0c906126df565b80601f0160208091040260200160405190810160405280929190818152602001828054610b38906126df565b8015610b835780601f10610b5a57610100808354040283529160200191610b83565b820191905f5260205f20905b815481529060010190602001808311610b6657829003601f168201915b5050505050905090565b6007805f0154905081565b600880549050610ba7826106c3565b1015610c78575f6001610bb9836106c3565b610bc39190612a83565b90505f60088281548110610bda57610bd96128b9565b5b905f5260205f20018054610bed906126df565b80601f0160208091040260200160405190810160405280929190818152602001828054610c19906126df565b8015610c645780601f10610c3b57610100808354040283529160200191610c64565b820191905f5260205f20905b815481529060010190602001808311610c4757829003601f168201915b50505050509050610c758382611310565b50505b50565b610c8d610c86610e96565b83836113eb565b5050565b610ca2610c9c610e96565b83610f53565b610ce1576040517f08c379a0000000000000000000000000000000000000000000000000000000008152600401610cd89061289b565b60405180910390fd5b610ced84848484611552565b50505050565b5f81604051602001610d059190612af0565b6040516020818303038152906040528051906020012083604051602001610d2c9190612af0565b6040516020818303038152906040528051906020012014905092915050565b6060610d56826115ae565b9050919050565b5f60055f8473ffffffffffffffffffffffffffffffffffffffff1673ffffffffffffffffffffffffffffffffffffffff1681526020019081526020015f205f8373ffffffffffffffffffffffffffffffffffffffff1673ffffffffffffffffffffffffffffffffffffffff1681526020019081526020015f205f9054906101000a900460ff16905092915050565b5f634906490660e01b7bffffffffffffffffffffffffffffffffffffffffffffffffffffffff1916827bffffffffffffffffffffffffffffffffffffffffffffffffffffffff19161480610e445750610e43826116b8565b5b9050919050565b610e5481611799565b610e93576040517f08c379a0000000000000000000000000000000000000000000000000000000008152600401610e8a906129d7565b60405180910390fd5b50565b5f33905090565b8160045f8381526020019081526020015f205f6101000a81548173ffffffffffffffffffffffffffffffffffffffff021916908373ffffffffffffffffffffffffffffffffffffffff160217905550808273ffffffffffffffffffffffffffffffffffffffff16610f0d8361092d565b73ffffffffffffffffffffffffffffffffffffffff167f8c5be1e5ebec7d5bd14f71427d1e84f3dd0314c0f7b2291e5b200ac8c7c3b92560405160405180910390a45050565b5f80610f5e8361092d565b90508073ffffffffffffffffffffffffffffffffffffffff168473ffffffffffffffffffffffffffffffffffffffff161480610fa05750610f9f8185610d5d565b5b80610fde57508373ffffffffffffffffffffffffffffffffffffffff16610fc68461050b565b73ffffffffffffffffffffffffffffffffffffffff16145b91505092915050565b8273ffffffffffffffffffffffffffffffffffffffff166110078261092d565b73ffffffffffffffffffffffffffffffffffffffff161461105d576040517f08c379a000000000000000000000000000000000000000000000000000000000815260040161105490612b76565b60405180910390fd5b5f73ffffffffffffffffffffffffffffffffffffffff168273ffffffffffffffffffffffffffffffffffffffff16036110cb576040517f08c379a00000000000000000000000000000000000000000000000000000000081526004016110c290612c04565b60405180910390fd5b6110d883838360016117d9565b8273ffffffffffffffffffffffffffffffffffffffff166110f88261092d565b73ffffffffffffffffffffffffffffffffffffffff161461114e576040517f08c379a000000000000000000000000000000000000000000000000000000000815260040161114590612b76565b60405180910390fd5b60045f8281526020019081526020015f205f6101000a81549073ffffffffffffffffffffffffffffffffffffffff0219169055600160035f8573ffffffffffffffffffffffffffffffffffffffff1673ffffffffffffffffffffffffffffffffffffffff1681526020019081526020015f205f8282540392505081905550600160035f8473ffffffffffffffffffffffffffffffffffffffff1673ffffffffffffffffffffffffffffffffffffffff1681526020019081526020015f205f82825401925050819055508160025f8381526020019081526020015f205f6101000a81548173ffffffffffffffffffffffffffffffffffffffff021916908373ffffffffffffffffffffffffffffffffffffffff160217905550808273ffffffffffffffffffffffffffffffffffffffff168473ffffffffffffffffffffffffffffffffffffffff167fddf252ad1be2c89b69c2b068fc378daa952ba7f163c4a11628f55a4df523b3ef60405160405180910390a46112ce83838360016117df565b505050565b5f815f01549050919050565b6001815f015f828254019250508190555050565b61130c828260405180602001604052805f8152506117e5565b5050565b61131982611799565b611358576040517f08c379a000000000000000000000000000000000000000000000000000000000815260040161134f90612c92565b60405180910390fd5b8060065f8481526020019081526020015f2090816113769190612e4d565b507ff8e1a15aba9398e019f0b49df1a4fde98ee17ae345cb5f6b5e2c27f5033e8ce7826040516113a691906121e0565b60405180910390a15050565b5f60025f8381526020019081526020015f205f9054906101000a900473ffffffffffffffffffffffffffffffffffffffff169050919050565b8173ffffffffffffffffffffffffffffffffffffffff168373ffffffffffffffffffffffffffffffffffffffff1603611459576040517f08c379a000000000000000000000000000000000000000000000000000000000815260040161145090612f66565b60405180910390fd5b8060055f8573ffffffffffffffffffffffffffffffffffffffff1673ffffffffffffffffffffffffffffffffffffffff1681526020019081526020015f205f8473ffffffffffffffffffffffffffffffffffffffff1673ffffffffffffffffffffffffffffffffffffffff1681526020019081526020015f205f6101000a81548160ff0219169083151502179055508173ffffffffffffffffffffffffffffffffffffffff168373ffffffffffffffffffffffffffffffffffffffff167f17307eab39ab6107e8899845ad3d59bd9653f200f220920489ca2b5937696c31836040516115459190611fa0565b60405180910390a3505050565b61155d848484610fe7565b6115698484848461183f565b6115a8576040517f08c379a000000000000000000000000000000000000000000000000000000000815260040161159f90612ff4565b60405180910390fd5b50505050565b60606115b982610e4b565b5f60065f8481526020019081526020015f2080546115d6906126df565b80601f0160208091040260200160405190810160405280929190818152602001828054611602906126df565b801561164d5780601f106116245761010080835404028352916020019161164d565b820191905f5260205f20905b81548152906001019060200180831161163057829003601f168201915b505050505090505f61165d6119c1565b90505f8151036116715781925050506116b3565b5f825111156116a557808260405160200161168d929190613012565b604051602081830303815290604052925050506116b3565b6116ae846119d7565b925050505b919050565b5f7f80ac58cd000000000000000000000000000000000000000000000000000000007bffffffffffffffffffffffffffffffffffffffffffffffffffffffff1916827bffffffffffffffffffffffffffffffffffffffffffffffffffffffff1916148061178257507f5b5e139f000000000000000000000000000000000000000000000000000000007bffffffffffffffffffffffffffffffffffffffffffffffffffffffff1916827bffffffffffffffffffffffffffffffffffffffffffffffffffffffff1916145b80611792575061179182611a3c565b5b9050919050565b5f8073ffffffffffffffffffffffffffffffffffffffff166117ba836113b2565b73ffffffffffffffffffffffffffffffffffffffff1614159050919050565b50505050565b50505050565b6117ef8383611aa5565b6117fb5f84848461183f565b61183a576040517f08c379a000000000000000000000000000000000000000000000000000000000815260040161183190612ff4565b60405180910390fd5b505050565b5f61185f8473ffffffffffffffffffffffffffffffffffffffff16611cb8565b156119b4578373ffffffffffffffffffffffffffffffffffffffff1663150b7a02611888610e96565b8786866040518563ffffffff1660e01b81526004016118aa9493929190613035565b6020604051808303815f875af19250505080156118e557506040513d601f19601f820116820180604052508101906118e29190613093565b60015b611964573d805f8114611913576040519150601f19603f3d011682016040523d82523d5f602084013e611918565b606091505b505f81510361195c576040517f08c379a000000000000000000000000000000000000000000000000000000000815260040161195390612ff4565b60405180910390fd5b805181602001fd5b63150b7a0260e01b7bffffffffffffffffffffffffffffffffffffffffffffffffffffffff1916817bffffffffffffffffffffffffffffffffffffffffffffffffffffffff1916149150506119b9565b600190505b949350505050565b606060405180602001604052805f815250905090565b60606119e282610e4b565b5f6119eb6119c1565b90505f815111611a095760405180602001604052805f815250611a34565b80611a1384611cda565b604051602001611a24929190613012565b6040516020818303038152906040525b915050919050565b5f7f01ffc9a7000000000000000000000000000000000000000000000000000000007bffffffffffffffffffffffffffffffffffffffffffffffffffffffff1916827bffffffffffffffffffffffffffffffffffffffffffffffffffffffff1916149050919050565b5f73ffffffffffffffffffffffffffffffffffffffff168273ffffffffffffffffffffffffffffffffffffffff1603611b13576040517f08c379a0000000000000000000000000000000000000000000000000000000008152600401611b0a90613108565b60405180910390fd5b611b1c81611799565b15611b5c576040517f08c379a0000000000000000000000000000000000000000000000000000000008152600401611b5390613170565b60405180910390fd5b611b695f838360016117d9565b611b7281611799565b15611bb2576040517f08c379a0000000000000000000000000000000000000000000000000000000008152600401611ba990613170565b60405180910390fd5b600160035f8473ffffffffffffffffffffffffffffffffffffffff1673ffffffffffffffffffffffffffffffffffffffff1681526020019081526020015f205f82825401925050819055508160025f8381526020019081526020015f205f6101000a81548173ffffffffffffffffffffffffffffffffffffffff021916908373ffffffffffffffffffffffffffffffffffffffff160217905550808273ffffffffffffffffffffffffffffffffffffffff165f73ffffffffffffffffffffffffffffffffffffffff167fddf252ad1be2c89b69c2b068fc378daa952ba7f163c4a11628f55a4df523b3ef60405160405180910390a4611cb45f838360016117df565b5050565b5f808273ffffffffffffffffffffffffffffffffffffffff163b119050919050565b60605f6001611ce884611da4565b0190505f8167ffffffffffffffff811115611d0657611d056123bc565b5b6040519080825280601f01601f191660200182016040528015611d385781602001600182028036833780820191505090505b5090505f82602001820190505b600115611d99578080600190039150507f3031323334353637383961626364656600000000000000000000000000000000600a86061a8153600a8581611d8e57611d8d61318e565b5b0494505f8503611d45575b819350505050919050565b5f805f90507a184f03e93ff9f4daa797ed6e38ed64bf6a1f0100000000000000008310611e00577a184f03e93ff9f4daa797ed6e38ed64bf6a1f0100000000000000008381611df657611df561318e565b5b0492506040810190505b6d04ee2d6d415b85acef81000000008310611e3d576d04ee2d6d415b85acef81000000008381611e3357611e3261318e565b5b0492506020810190505b662386f26fc100008310611e6c57662386f26fc100008381611e6257611e6161318e565b5b0492506010810190505b6305f5e1008310611e95576305f5e1008381611e8b57611e8a61318e565b5b0492506008810190505b6127108310611eba576127108381611eb057611eaf61318e565b5b0492506004810190505b60648310611edd5760648381611ed357611ed261318e565b5b0492506002810190505b600a8310611eec576001810190505b80915050919050565b5f604051905090565b5f80fd5b5f80fd5b5f7fffffffff0000000000000000000000000000000000000000000000000000000082169050919050565b611f3a81611f06565b8114611f44575f80fd5b50565b5f81359050611f5581611f31565b92915050565b5f60208284031215611f7057611f6f611efe565b5b5f611f7d84828501611f47565b91505092915050565b5f8115159050919050565b611f9a81611f86565b82525050565b5f602082019050611fb35f830184611f91565b92915050565b5f81519050919050565b5f82825260208201905092915050565b5f5b83811015611ff0578082015181840152602081019050611fd5565b5f8484015250505050565b5f601f19601f8301169050919050565b5f61201582611fb9565b61201f8185611fc3565b935061202f818560208601611fd3565b61203881611ffb565b840191505092915050565b5f6020820190508181035f83015261205b818461200b565b905092915050565b5f819050919050565b61207581612063565b811461207f575f80fd5b50565b5f813590506120908161206c565b92915050565b5f602082840312156120ab576120aa611efe565b5b5f6120b884828501612082565b91505092915050565b5f73ffffffffffffffffffffffffffffffffffffffff82169050919050565b5f6120ea826120c1565b9050919050565b6120fa816120e0565b82525050565b5f6020820190506121135f8301846120f1565b92915050565b612122816120e0565b811461212c575f80fd5b50565b5f8135905061213d81612119565b92915050565b5f806040838503121561215957612158611efe565b5b5f6121668582860161212f565b925050602061217785828601612082565b9150509250929050565b5f805f6060848603121561219857612197611efe565b5b5f6121a58682870161212f565b93505060206121b68682870161212f565b92505060406121c786828701612082565b9150509250925092565b6121da81612063565b82525050565b5f6020820190506121f35f8301846121d1565b92915050565b5f6020828403121561220e5761220d611efe565b5b5f61221b8482850161212f565b91505092915050565b5f80fd5b5f80fd5b5f80fd5b5f8083601f84011261224557612244612224565b5b8235905067ffffffffffffffff81111561226257612261612228565b5b60208301915083600182028301111561227e5761227d61222c565b5b9250929050565b5f806020838503121561229b5761229a611efe565b5b5f83013567ffffffffffffffff8111156122b8576122b7611f02565b5b6122c485828601612230565b92509250509250929050565b5f81519050919050565b5f82825260208201905092915050565b5f6122f4826122d0565b6122fe81856122da565b935061230e818560208601611fd3565b61231781611ffb565b840191505092915050565b5f6040820190506123355f830185611f91565b818103602083015261234781846122ea565b90509392505050565b61235981611f86565b8114612363575f80fd5b50565b5f8135905061237481612350565b92915050565b5f80604083850312156123905761238f611efe565b5b5f61239d8582860161212f565b92505060206123ae85828601612366565b9150509250929050565b5f80fd5b7f4e487b71000000000000000000000000000000000000000000000000000000005f52604160045260245ffd5b6123f282611ffb565b810181811067ffffffffffffffff82111715612411576124106123bc565b5b80604052505050565b5f612423611ef5565b905061242f82826123e9565b919050565b5f67ffffffffffffffff82111561244e5761244d6123bc565b5b61245782611ffb565b9050602081019050919050565b828183375f83830152505050565b5f61248461247f84612434565b61241a565b9050828152602081018484840111156124a05761249f6123b8565b5b6124ab848285612464565b509392505050565b5f82601f8301126124c7576124c6612224565b5b81356124d7848260208601612472565b91505092915050565b5f805f80608085870312156124f8576124f7611efe565b5b5f6125058782880161212f565b94505060206125168782880161212f565b935050604061252787828801612082565b925050606085013567ffffffffffffffff81111561254857612547611f02565b5b612554878288016124b3565b91505092959194509250565b5f67ffffffffffffffff82111561257a576125796123bc565b5b61258382611ffb565b9050602081019050919050565b5f6125a261259d84612560565b61241a565b9050828152602081018484840111156125be576125bd6123b8565b5b6125c9848285612464565b509392505050565b5f82601f8301126125e5576125e4612224565b5b81356125f5848260208601612590565b91505092915050565b5f806040838503121561261457612613611efe565b5b5f83013567ffffffffffffffff81111561263157612630611f02565b5b61263d858286016125d1565b925050602083013567ffffffffffffffff81111561265e5761265d611f02565b5b61266a858286016125d1565b9150509250929050565b5f806040838503121561268a57612689611efe565b5b5f6126978582860161212f565b92505060206126a88582860161212f565b9150509250929050565b7f4e487b71000000000000000000000000000000000000000000000000000000005f52602260045260245ffd5b5f60028204905060018216806126f657607f821691505b602082108103612709576127086126b2565b5b50919050565b7f4552433732313a20617070726f76616c20746f2063757272656e74206f776e655f8201527f7200000000000000000000000000000000000000000000000000000000000000602082015250565b5f612769602183611fc3565b91506127748261270f565b604082019050919050565b5f6020820190508181035f8301526127968161275d565b9050919050565b7f4552433732313a20617070726f76652063616c6c6572206973206e6f7420746f5f8201527f6b656e206f776e6572206f7220617070726f76656420666f7220616c6c000000602082015250565b5f6127f7603d83611fc3565b91506128028261279d565b604082019050919050565b5f6020820190508181035f830152612824816127eb565b9050919050565b7f4552433732313a2063616c6c6572206973206e6f7420746f6b656e206f776e655f8201527f72206f7220617070726f76656400000000000000000000000000000000000000602082015250565b5f612885602d83611fc3565b91506128908261282b565b604082019050919050565b5f6020820190508181035f8301526128b281612879565b9050919050565b7f4e487b71000000000000000000000000000000000000000000000000000000005f52603260045260245ffd5b7f4e487b71000000000000000000000000000000000000000000000000000000005f52601160045260245ffd5b5f61291d82612063565b91507fffffffffffffffffffffffffffffffffffffffffffffffffffffffffffffffff820361294f5761294e6128e6565b5b600182019050919050565b5f61296482612063565b915061296f83612063565b9250828203905081811115612987576129866128e6565b5b92915050565b7f4552433732313a20696e76616c696420746f6b656e20494400000000000000005f82015250565b5f6129c1601883611fc3565b91506129cc8261298d565b602082019050919050565b5f6020820190508181035f8301526129ee816129b5565b9050919050565b7f4552433732313a2061646472657373207a65726f206973206e6f7420612076615f8201527f6c6964206f776e65720000000000000000000000000000000000000000000000602082015250565b5f612a4f602983611fc3565b9150612a5a826129f5565b604082019050919050565b5f6020820190508181035f830152612a7c81612a43565b9050919050565b5f612a8d82612063565b9150612a9883612063565b9250828201905080821115612ab057612aaf6128e6565b5b92915050565b5f81905092915050565b5f612aca82611fb9565b612ad48185612ab6565b9350612ae4818560208601611fd3565b80840191505092915050565b5f612afb8284612ac0565b915081905092915050565b7f4552433732313a207472616e736665722066726f6d20696e636f7272656374205f8201527f6f776e6572000000000000000000000000000000000000000000000000000000602082015250565b5f612b60602583611fc3565b9150612b6b82612b06565b604082019050919050565b5f6020820190508181035f830152612b8d81612b54565b9050919050565b7f4552433732313a207472616e7366657220746f20746865207a65726f206164645f8201527f7265737300000000000000000000000000000000000000000000000000000000602082015250565b5f612bee602483611fc3565b9150612bf982612b94565b604082019050919050565b5f6020820190508181035f830152612c1b81612be2565b9050919050565b7f45524337323155524953746f726167653a2055524920736574206f66206e6f6e5f8201527f6578697374656e7420746f6b656e000000000000000000000000000000000000602082015250565b5f612c7c602e83611fc3565b9150612c8782612c22565b604082019050919050565b5f6020820190508181035f830152612ca981612c70565b9050919050565b5f819050815f5260205f209050919050565b5f6020601f8301049050919050565b5f82821b905092915050565b5f60088302612d0c7fffffffffffffffffffffffffffffffffffffffffffffffffffffffffffffffff82612cd1565b612d168683612cd1565b95508019841693508086168417925050509392505050565b5f819050919050565b5f612d51612d4c612d4784612063565b612d2e565b612063565b9050919050565b5f819050919050565b612d6a83612d37565b612d7e612d7682612d58565b848454612cdd565b825550505050565b5f90565b612d92612d86565b612d9d818484612d61565b505050565b5b81811015612dc057612db55f82612d8a565b600181019050612da3565b5050565b601f821115612e0557612dd681612cb0565b612ddf84612cc2565b81016020851015612dee578190505b612e02612dfa85612cc2565b830182612da2565b50505b505050565b5f82821c905092915050565b5f612e255f1984600802612e0a565b1980831691505092915050565b5f612e3d8383612e16565b9150826002028217905092915050565b612e5682611fb9565b67ffffffffffffffff811115612e6f57612e6e6123bc565b5b612e7982546126df565b612e84828285612dc4565b5f60209050601f831160018114612eb5575f8415612ea3578287015190505b612ead8582612e32565b865550612f14565b601f198416612ec386612cb0565b5f5b82811015612eea57848901518255600182019150602085019450602081019050612ec5565b86831015612f075784890151612f03601f891682612e16565b8355505b6001600288020188555050505b505050505050565b7f4552433732313a20617070726f766520746f2063616c6c6572000000000000005f82015250565b5f612f50601983611fc3565b9150612f5b82612f1c565b602082019050919050565b5f6020820190508181035f830152612f7d81612f44565b9050919050565b7f4552433732313a207472616e7366657220746f206e6f6e2045524337323152655f8201527f63656976657220696d706c656d656e7465720000000000000000000000000000602082015250565b5f612fde603283611fc3565b9150612fe982612f84565b604082019050919050565b5f6020820190508181035f83015261300b81612fd2565b9050919050565b5f61301d8285612ac0565b91506130298284612ac0565b91508190509392505050565b5f6080820190506130485f8301876120f1565b61305560208301866120f1565b61306260408301856121d1565b818103606083015261307481846122ea565b905095945050505050565b5f8151905061308d81611f31565b92915050565b5f602082840312156130a8576130a7611efe565b5b5f6130b58482850161307f565b91505092915050565b7f4552433732313a206d696e7420746f20746865207a65726f20616464726573735f82015250565b5f6130f2602083611fc3565b91506130fd826130be565b602082019050919050565b5f6020820190508181035f83015261311f816130e6565b9050919050565b7f4552433732313a20746f6b656e20616c7265616479206d696e746564000000005f82015250565b5f61315a601c83611fc3565b915061316582613126565b602082019050919050565b5f6020820190508181035f8301526131878161314e565b9050919050565b7f4e487b71000000000000000000000000000000000000000000000000000000005f52601260045260245ffdfea2646970667358221220b553ce00ac48b4dd8a07c2eeafa3dcfc162bb3e305d234d113511af2501b2f2464736f6c63430008140033a264697066735822122061713f969ccc56262f066e4049ab7f615ed687d6282dff03a8353897d76d59f564736f6c63430008140033",
  "immutableReferences": {},
  "source": "// SPDX-License-Identifier: MIT\npragma solidity ^0.8.9;\n\nimport \"./ProfileImage.sol\";\n\ncontract UserPhotoFactory {\n    address[] public userPhotoContracts;\n\n    function createUserPhoto(uint updateInterval) public {\n        ProfileDNFT newUserPhoto = new ProfileDNFT(updateInterval);\n        userPhotoContracts.push(address(newUserPhoto));\n    }\n\n    function getUserPhotoContracts() public view returns (address[] memory) {\n        return userPhotoContracts;\n    }\n}",
  "sourcePath": "/home/victorcarvalho/Documents/Github/ChainlinkHackas/chainlink-hackathon/contracts/contracts/User/ProfileImageFactory.sol",
  "compiler": {
    "name": "solc",
    "version": "0.8.20+commit.a1b79de6.Emscripten.clang"
  },
  "schemaVersion": "3.4.14",
  "updatedAt": "2023-06-09T05:31:43.321Z",
  "devdoc": {
    "kind": "dev",
    "methods": {},
    "version": 1
  },
  "userdoc": {
    "kind": "user",
    "methods": {},
    "version": 1
  }
}