{
  "contractName": "UserPhoto",
  "abi": [
    {
      "inputs": [
        {
          "internalType": "uint256",
          "name": "updateInterval",
          "type": "uint256"
        }
      ],
      "stateMutability": "nonpayable",
      "type": "constructor"
    },
    {
      "anonymous": false,
      "inputs": [
        {
          "indexed": true,
          "internalType": "address",
          "name": "owner",
          "type": "address"
        },
        {
          "indexed": true,
          "internalType": "address",
          "name": "approved",
          "type": "address"
        },
        {
          "indexed": true,
          "internalType": "uint256",
          "name": "tokenId",
          "type": "uint256"
        }
      ],
      "name": "Approval",
      "type": "event"
    },
    {
      "anonymous": false,
      "inputs": [
        {
          "indexed": true,
          "internalType": "address",
          "name": "owner",
          "type": "address"
        },
        {
          "indexed": true,
          "internalType": "address",
          "name": "operator",
          "type": "address"
        },
        {
          "indexed": false,
          "internalType": "bool",
          "name": "approved",
          "type": "bool"
        }
      ],
      "name": "ApprovalForAll",
      "type": "event"
    },
    {
      "anonymous": false,
      "inputs": [
        {
          "indexed": false,
          "internalType": "uint256",
          "name": "_fromTokenId",
          "type": "uint256"
        },
        {
          "indexed": false,
          "internalType": "uint256",
          "name": "_toTokenId",
          "type": "uint256"
        }
      ],
      "name": "BatchMetadataUpdate",
      "type": "event"
    },
    {
      "anonymous": false,
      "inputs": [
        {
          "indexed": false,
          "internalType": "uint256",
          "name": "_tokenId",
          "type": "uint256"
        }
      ],
      "name": "MetadataUpdate",
      "type": "event"
    },
    {
      "anonymous": false,
      "inputs": [
        {
          "indexed": true,
          "internalType": "address",
          "name": "from",
          "type": "address"
        },
        {
          "indexed": true,
          "internalType": "address",
          "name": "to",
          "type": "address"
        },
        {
          "indexed": true,
          "internalType": "uint256",
          "name": "tokenId",
          "type": "uint256"
        }
      ],
      "name": "Transfer",
      "type": "event"
    },
    {
      "inputs": [
        {
          "internalType": "address",
          "name": "to",
          "type": "address"
        },
        {
          "internalType": "uint256",
          "name": "tokenId",
          "type": "uint256"
        }
      ],
      "name": "approve",
      "outputs": [],
      "stateMutability": "nonpayable",
      "type": "function"
    },
    {
      "inputs": [
        {
          "internalType": "address",
          "name": "owner",
          "type": "address"
        }
      ],
      "name": "balanceOf",
      "outputs": [
        {
          "internalType": "uint256",
          "name": "",
          "type": "uint256"
        }
      ],
      "stateMutability": "view",
      "type": "function"
    },
    {
      "inputs": [
        {
          "internalType": "uint256",
          "name": "tokenId",
          "type": "uint256"
        }
      ],
      "name": "getApproved",
      "outputs": [
        {
          "internalType": "address",
          "name": "",
          "type": "address"
        }
      ],
      "stateMutability": "view",
      "type": "function"
    },
    {
      "inputs": [],
      "name": "interval",
      "outputs": [
        {
          "internalType": "uint256",
          "name": "",
          "type": "uint256"
        }
      ],
      "stateMutability": "view",
      "type": "function"
    },
    {
      "inputs": [
        {
          "internalType": "address",
          "name": "owner",
          "type": "address"
        },
        {
          "internalType": "address",
          "name": "operator",
          "type": "address"
        }
      ],
      "name": "isApprovedForAll",
      "outputs": [
        {
          "internalType": "bool",
          "name": "",
          "type": "bool"
        }
      ],
      "stateMutability": "view",
      "type": "function"
    },
    {
      "inputs": [],
      "name": "lastTimeStamp",
      "outputs": [
        {
          "internalType": "uint256",
          "name": "",
          "type": "uint256"
        }
      ],
      "stateMutability": "view",
      "type": "function"
    },
    {
      "inputs": [],
      "name": "name",
      "outputs": [
        {
          "internalType": "string",
          "name": "",
          "type": "string"
        }
      ],
      "stateMutability": "view",
      "type": "function"
    },
    {
      "inputs": [
        {
          "internalType": "uint256",
          "name": "tokenId",
          "type": "uint256"
        }
      ],
      "name": "ownerOf",
      "outputs": [
        {
          "internalType": "address",
          "name": "",
          "type": "address"
        }
      ],
      "stateMutability": "view",
      "type": "function"
    },
    {
      "inputs": [
        {
          "internalType": "address",
          "name": "from",
          "type": "address"
        },
        {
          "internalType": "address",
          "name": "to",
          "type": "address"
        },
        {
          "internalType": "uint256",
          "name": "tokenId",
          "type": "uint256"
        }
      ],
      "name": "safeTransferFrom",
      "outputs": [],
      "stateMutability": "nonpayable",
      "type": "function"
    },
    {
      "inputs": [
        {
          "internalType": "address",
          "name": "from",
          "type": "address"
        },
        {
          "internalType": "address",
          "name": "to",
          "type": "address"
        },
        {
          "internalType": "uint256",
          "name": "tokenId",
          "type": "uint256"
        },
        {
          "internalType": "bytes",
          "name": "data",
          "type": "bytes"
        }
      ],
      "name": "safeTransferFrom",
      "outputs": [],
      "stateMutability": "nonpayable",
      "type": "function"
    },
    {
      "inputs": [
        {
          "internalType": "address",
          "name": "operator",
          "type": "address"
        },
        {
          "internalType": "bool",
          "name": "approved",
          "type": "bool"
        }
      ],
      "name": "setApprovalForAll",
      "outputs": [],
      "stateMutability": "nonpayable",
      "type": "function"
    },
    {
      "inputs": [],
      "name": "symbol",
      "outputs": [
        {
          "internalType": "string",
          "name": "",
          "type": "string"
        }
      ],
      "stateMutability": "view",
      "type": "function"
    },
    {
      "inputs": [],
      "name": "tokenIdCounter",
      "outputs": [
        {
          "internalType": "uint256",
          "name": "_value",
          "type": "uint256"
        }
      ],
      "stateMutability": "view",
      "type": "function"
    },
    {
      "inputs": [
        {
          "internalType": "address",
          "name": "from",
          "type": "address"
        },
        {
          "internalType": "address",
          "name": "to",
          "type": "address"
        },
        {
          "internalType": "uint256",
          "name": "tokenId",
          "type": "uint256"
        }
      ],
      "name": "transferFrom",
      "outputs": [],
      "stateMutability": "nonpayable",
      "type": "function"
    },
    {
      "inputs": [
        {
          "internalType": "bytes",
          "name": "",
          "type": "bytes"
        }
      ],
      "name": "checkUpkeep",
      "outputs": [
        {
          "internalType": "bool",
          "name": "upkeepNeeded",
          "type": "bool"
        },
        {
          "internalType": "bytes",
          "name": "",
          "type": "bytes"
        }
      ],
      "stateMutability": "view",
      "type": "function"
    },
    {
      "inputs": [
        {
          "internalType": "bytes",
          "name": "",
          "type": "bytes"
        }
      ],
      "name": "performUpkeep",
      "outputs": [],
      "stateMutability": "nonpayable",
      "type": "function"
    },
    {
      "inputs": [
        {
          "internalType": "address",
          "name": "to",
          "type": "address"
        }
      ],
      "name": "safeMint",
      "outputs": [],
      "stateMutability": "nonpayable",
      "type": "function"
    },
    {
      "inputs": [
        {
          "internalType": "uint256",
          "name": "_tokenId",
          "type": "uint256"
        }
      ],
      "name": "updateImage",
      "outputs": [],
      "stateMutability": "nonpayable",
      "type": "function"
    },
    {
      "inputs": [
        {
          "internalType": "uint256",
          "name": "_tokenId",
          "type": "uint256"
        }
      ],
      "name": "imageStage",
      "outputs": [
        {
          "internalType": "uint256",
          "name": "",
          "type": "uint256"
        }
      ],
      "stateMutability": "view",
      "type": "function"
    },
    {
      "inputs": [
        {
          "internalType": "string",
          "name": "a",
          "type": "string"
        },
        {
          "internalType": "string",
          "name": "b",
          "type": "string"
        }
      ],
      "name": "compareStrings",
      "outputs": [
        {
          "internalType": "bool",
          "name": "",
          "type": "bool"
        }
      ],
      "stateMutability": "pure",
      "type": "function"
    },
    {
      "inputs": [
        {
          "internalType": "uint256",
          "name": "tokenId",
          "type": "uint256"
        }
      ],
      "name": "tokenURI",
      "outputs": [
        {
          "internalType": "string",
          "name": "",
          "type": "string"
        }
      ],
      "stateMutability": "view",
      "type": "function"
    },
    {
      "inputs": [
        {
          "internalType": "bytes4",
          "name": "interfaceId",
          "type": "bytes4"
        }
      ],
      "name": "supportsInterface",
      "outputs": [
        {
          "internalType": "bool",
          "name": "",
          "type": "bool"
        }
      ],
      "stateMutability": "view",
      "type": "function"
    }
  ],
  "bytecode": "0x60a06040526040518060400160405280604051806080016040528060438152602001620042ac604391398152602001604051806080016040528060438152602001620042ef6043913981525060089060026200005d92919062000838565b503480156200006a575f80fd5b506040516200433238038062004332833981810160405281019062000090919062000959565b6040518060400160405280600a81526020017f55736572496d61676573000000000000000000000000000000000000000000008152506040518060400160405280600581526020017f50686f746f000000000000000000000000000000000000000000000000000000815250815f90816200010c919062000be4565b5080600190816200011e919062000be4565b50505080608081815250504260098190555062000141336200014860201b60201c565b50620010e8565b5f6200015b60076200024460201b60201c565b90506200016f60076200025060201b60201c565b6200018182826200026460201b60201c565b620002408160085f815481106200019d576200019c62000cc8565b5b905f5260205f20018054620001b290620009ed565b80601f0160208091040260200160405190810160405280929190818152602001828054620001e090620009ed565b80156200022f5780601f1062000205576101008083540402835291602001916200022f565b820191905f5260205f20905b8154815290600101906020018083116200021157829003601f168201915b50505050506200028960201b60201c565b5050565b5f815f01549050919050565b6001815f015f828254019250508190555050565b62000285828260405180602001604052805f8152506200033a60201b60201c565b5050565b6200029a82620003a760201b60201c565b620002dc576040517f08c379a0000000000000000000000000000000000000000000000000000000008152600401620002d39062000d79565b60405180910390fd5b8060065f8481526020019081526020015f209081620002fc919062000be4565b507ff8e1a15aba9398e019f0b49df1a4fde98ee17ae345cb5f6b5e2c27f5033e8ce7826040516200032e919062000daa565b60405180910390a15050565b6200034c8383620003ef60201b60201c565b620003605f8484846200062b60201b60201c565b620003a2576040517f08c379a0000000000000000000000000000000000000000000000000000000008152600401620003999062000e39565b60405180910390fd5b505050565b5f8073ffffffffffffffffffffffffffffffffffffffff16620003d083620007ca60201b60201c565b73ffffffffffffffffffffffffffffffffffffffff1614159050919050565b5f73ffffffffffffffffffffffffffffffffffffffff168273ffffffffffffffffffffffffffffffffffffffff160362000460576040517f08c379a0000000000000000000000000000000000000000000000000000000008152600401620004579062000ea7565b60405180910390fd5b6200047181620003a760201b60201c565b15620004b4576040517f08c379a0000000000000000000000000000000000000000000000000000000008152600401620004ab9062000f15565b60405180910390fd5b620004c95f838360016200080360201b60201c565b620004da81620003a760201b60201c565b156200051d576040517f08c379a0000000000000000000000000000000000000000000000000000000008152600401620005149062000f15565b60405180910390fd5b600160035f8473ffffffffffffffffffffffffffffffffffffffff1673ffffffffffffffffffffffffffffffffffffffff1681526020019081526020015f205f82825401925050819055508160025f8381526020019081526020015f205f6101000a81548173ffffffffffffffffffffffffffffffffffffffff021916908373ffffffffffffffffffffffffffffffffffffffff160217905550808273ffffffffffffffffffffffffffffffffffffffff165f73ffffffffffffffffffffffffffffffffffffffff167fddf252ad1be2c89b69c2b068fc378daa952ba7f163c4a11628f55a4df523b3ef60405160405180910390a4620006275f838360016200080960201b60201c565b5050565b5f620006538473ffffffffffffffffffffffffffffffffffffffff166200080f60201b60201c565b15620007bd578373ffffffffffffffffffffffffffffffffffffffff1663150b7a02620006856200083160201b60201c565b8786866040518563ffffffff1660e01b8152600401620006a994939291906200100c565b6020604051808303815f875af1925050508015620006e757506040513d601f19601f82011682018060405250810190620006e49190620010b8565b60015b6200076c573d805f811462000718576040519150601f19603f3d011682016040523d82523d5f602084013e6200071d565b606091505b505f81510362000764576040517f08c379a00000000000000000000000000000000000000000000000000000000081526004016200075b9062000e39565b60405180910390fd5b805181602001fd5b63150b7a0260e01b7bffffffffffffffffffffffffffffffffffffffffffffffffffffffff1916817bffffffffffffffffffffffffffffffffffffffffffffffffffffffff191614915050620007c2565b600190505b949350505050565b5f60025f8381526020019081526020015f205f9054906101000a900473ffffffffffffffffffffffffffffffffffffffff169050919050565b50505050565b50505050565b5f808273ffffffffffffffffffffffffffffffffffffffff163b119050919050565b5f33905090565b828054828255905f5260205f2090810192821562000883579160200282015b828111156200088257825182908162000871919062000be4565b509160200191906001019062000857565b5b50905062000892919062000896565b5090565b5b80821115620008b9575f8181620008af9190620008bd565b5060010162000897565b5090565b508054620008cb90620009ed565b5f825580601f10620008de5750620008fd565b601f0160209004905f5260205f2090810190620008fc919062000900565b5b50565b5b8082111562000919575f815f90555060010162000901565b5090565b5f80fd5b5f819050919050565b620009358162000921565b811462000940575f80fd5b50565b5f8151905062000953816200092a565b92915050565b5f602082840312156200097157620009706200091d565b5b5f620009808482850162000943565b91505092915050565b5f81519050919050565b7f4e487b71000000000000000000000000000000000000000000000000000000005f52604160045260245ffd5b7f4e487b71000000000000000000000000000000000000000000000000000000005f52602260045260245ffd5b5f600282049050600182168062000a0557607f821691505b60208210810362000a1b5762000a1a620009c0565b5b50919050565b5f819050815f5260205f209050919050565b5f6020601f8301049050919050565b5f82821b905092915050565b5f6008830262000a7f7fffffffffffffffffffffffffffffffffffffffffffffffffffffffffffffffff8262000a42565b62000a8b868362000a42565b95508019841693508086168417925050509392505050565b5f819050919050565b5f62000acc62000ac662000ac08462000921565b62000aa3565b62000921565b9050919050565b5f819050919050565b62000ae78362000aac565b62000aff62000af68262000ad3565b84845462000a4e565b825550505050565b5f90565b62000b1562000b07565b62000b2281848462000adc565b505050565b5b8181101562000b495762000b3d5f8262000b0b565b60018101905062000b28565b5050565b601f82111562000b985762000b628162000a21565b62000b6d8462000a33565b8101602085101562000b7d578190505b62000b9562000b8c8562000a33565b83018262000b27565b50505b505050565b5f82821c905092915050565b5f62000bba5f198460080262000b9d565b1980831691505092915050565b5f62000bd4838362000ba9565b9150826002028217905092915050565b62000bef8262000989565b67ffffffffffffffff81111562000c0b5762000c0a62000993565b5b62000c178254620009ed565b62000c2482828562000b4d565b5f60209050601f83116001811462000c5a575f841562000c45578287015190505b62000c51858262000bc7565b86555062000cc0565b601f19841662000c6a8662000a21565b5f5b8281101562000c935784890151825560018201915060208501945060208101905062000c6c565b8683101562000cb3578489015162000caf601f89168262000ba9565b8355505b6001600288020188555050505b505050505050565b7f4e487b71000000000000000000000000000000000000000000000000000000005f52603260045260245ffd5b5f82825260208201905092915050565b7f45524337323155524953746f726167653a2055524920736574206f66206e6f6e5f8201527f6578697374656e7420746f6b656e000000000000000000000000000000000000602082015250565b5f62000d61602e8362000cf5565b915062000d6e8262000d05565b604082019050919050565b5f6020820190508181035f83015262000d928162000d53565b9050919050565b62000da48162000921565b82525050565b5f60208201905062000dbf5f83018462000d99565b92915050565b7f4552433732313a207472616e7366657220746f206e6f6e2045524337323152655f8201527f63656976657220696d706c656d656e7465720000000000000000000000000000602082015250565b5f62000e2160328362000cf5565b915062000e2e8262000dc5565b604082019050919050565b5f6020820190508181035f83015262000e528162000e13565b9050919050565b7f4552433732313a206d696e7420746f20746865207a65726f20616464726573735f82015250565b5f62000e8f60208362000cf5565b915062000e9c8262000e59565b602082019050919050565b5f6020820190508181035f83015262000ec08162000e81565b9050919050565b7f4552433732313a20746f6b656e20616c7265616479206d696e746564000000005f82015250565b5f62000efd601c8362000cf5565b915062000f0a8262000ec7565b602082019050919050565b5f6020820190508181035f83015262000f2e8162000eef565b9050919050565b5f73ffffffffffffffffffffffffffffffffffffffff82169050919050565b5f62000f608262000f35565b9050919050565b62000f728162000f54565b82525050565b5f81519050919050565b5f82825260208201905092915050565b5f5b8381101562000fb157808201518184015260208101905062000f94565b5f8484015250505050565b5f601f19601f8301169050919050565b5f62000fd88262000f78565b62000fe4818562000f82565b935062000ff681856020860162000f92565b620010018162000fbc565b840191505092915050565b5f608082019050620010215f83018762000f67565b62001030602083018662000f67565b6200103f604083018562000d99565b818103606083015262001053818462000fcc565b905095945050505050565b5f7fffffffff0000000000000000000000000000000000000000000000000000000082169050919050565b62001094816200105e565b81146200109f575f80fd5b50565b5f81519050620010b28162001089565b92915050565b5f60208284031215620010d057620010cf6200091d565b5b5f620010df84828501620010a2565b91505092915050565b60805161319d6200110f5f395f81816108a8015281816109a90152610ace015261319d5ff3fe608060405234801561000f575f80fd5b5060043610610140575f3560e01c80636e04ff0d116100b65780639ec933a01161007a5780639ec933a014610387578063a22cb465146103a3578063b88d4fde146103bf578063bed34bba146103db578063c87b56dd1461040b578063e985e9c51461043b57610140565b80636e04ff0d146102cc57806370a08231146102fd578063947a36fb1461032d57806395d89b411461034b57806398bdf6f51461036957610140565b8063256364611161010857806325636461146101fa5780633f3b3b271461022a57806340d097c31461024857806342842e0e146102645780634585e33b146102805780636352211e1461029c57610140565b806301ffc9a71461014457806306fdde0314610174578063081812fc14610192578063095ea7b3146101c257806323b872dd146101de575b5f80fd5b61015e60048036038101906101599190611f4e565b61046b565b60405161016b9190611f93565b60405180910390f35b61017c61047c565b6040516101899190612036565b60405180910390f35b6101ac60048036038101906101a79190612089565b61050b565b6040516101b991906120f3565b60405180910390f35b6101dc60048036038101906101d79190612136565b61054d565b005b6101f860048036038101906101f39190612174565b610663565b005b610214600480360381019061020f9190612089565b6106c3565b60405161022191906121d3565b60405180910390f35b6102326107b0565b60405161023f91906121d3565b60405180910390f35b610262600480360381019061025d91906121ec565b6107b6565b005b61027e60048036038101906102799190612174565b610887565b005b61029a60048036038101906102959190612278565b6108a6565b005b6102b660048036038101906102b19190612089565b610920565b6040516102c391906120f3565b60405180910390f35b6102e660048036038101906102e19190612278565b6109a4565b6040516102f4929190612315565b60405180910390f35b610317600480360381019061031291906121ec565b610a18565b60405161032491906121d3565b60405180910390f35b610335610acc565b60405161034291906121d3565b60405180910390f35b610353610af0565b6040516103609190612036565b60405180910390f35b610371610b80565b60405161037e91906121d3565b60405180910390f35b6103a1600480360381019061039c9190612089565b610b8b565b005b6103bd60048036038101906103b8919061236d565b610c6e565b005b6103d960048036038101906103d491906124d3565b610c84565b005b6103f560048036038101906103f091906125f1565b610ce6565b6040516104029190611f93565b60405180910390f35b61042560048036038101906104209190612089565b610d3e565b6040516104329190612036565b60405180910390f35b61045560048036038101906104509190612667565b610d50565b6040516104629190611f93565b60405180910390f35b5f61047582610dde565b9050919050565b60605f805461048a906126d2565b80601f01602080910402602001604051908101604052809291908181526020018280546104b6906126d2565b80156105015780601f106104d857610100808354040283529160200191610501565b820191905f5260205f20905b8154815290600101906020018083116104e457829003601f168201915b5050505050905090565b5f61051582610e3e565b60045f8381526020019081526020015f205f9054906101000a900473ffffffffffffffffffffffffffffffffffffffff169050919050565b5f61055782610920565b90508073ffffffffffffffffffffffffffffffffffffffff168373ffffffffffffffffffffffffffffffffffffffff16036105c7576040517f08c379a00000000000000000000000000000000000000000000000000000000081526004016105be90612772565b60405180910390fd5b8073ffffffffffffffffffffffffffffffffffffffff166105e6610e89565b73ffffffffffffffffffffffffffffffffffffffff16148061061557506106148161060f610e89565b610d50565b5b610654576040517f08c379a000000000000000000000000000000000000000000000000000000000815260040161064b90612800565b60405180910390fd5b61065e8383610e90565b505050565b61067461066e610e89565b82610f46565b6106b3576040517f08c379a00000000000000000000000000000000000000000000000000000000081526004016106aa9061288e565b60405180910390fd5b6106be838383610fda565b505050565b5f806106ce83610d3e565b90505f6008805490508110156107a85761078a82600883815481106106f6576106f56128ac565b5b905f5260205f20018054610709906126d2565b80601f0160208091040260200160405190810160405280929190818152602001828054610735906126d2565b80156107805780601f1061075757610100808354040283529160200191610780565b820191905f5260205f20905b81548152906001019060200180831161076357829003601f168201915b5050505050610ce6565b156107995780925050506107ab565b600880549050925050506107ab565b50505b919050565b60095481565b5f6107c160076112c6565b90506107cd60076112d2565b6107d782826112e6565b6108838160085f815481106107ef576107ee6128ac565b5b905f5260205f20018054610802906126d2565b80601f016020809104026020016040519081016040528092919081815260200182805461082e906126d2565b80156108795780601f1061085057610100808354040283529160200191610879565b820191905f5260205f20905b81548152906001019060200180831161085c57829003601f168201915b5050505050611303565b5050565b6108a183838360405180602001604052805f815250610c84565b505050565b7f0000000000000000000000000000000000000000000000000000000000000000600954426108d59190612906565b111561091c575f60016108e860076112c6565b6108f29190612906565b9050600880549050610903826106c3565b101561091a574260098190555061091981610b8b565b5b505b5050565b5f8061092b836113a5565b90505f73ffffffffffffffffffffffffffffffffffffffff168173ffffffffffffffffffffffffffffffffffffffff160361099b576040517f08c379a000000000000000000000000000000000000000000000000000000000815260040161099290612983565b60405180910390fd5b80915050919050565b5f60607f0000000000000000000000000000000000000000000000000000000000000000600954426109d69190612906565b1115610a11575f60016109e960076112c6565b6109f39190612906565b9050600880549050610a04826106c3565b1015610a0f57600192505b505b9250929050565b5f8073ffffffffffffffffffffffffffffffffffffffff168273ffffffffffffffffffffffffffffffffffffffff1603610a87576040517f08c379a0000000000000000000000000000000000000000000000000000000008152600401610a7e90612a11565b60405180910390fd5b60035f8373ffffffffffffffffffffffffffffffffffffffff1673ffffffffffffffffffffffffffffffffffffffff1681526020019081526020015f20549050919050565b7f000000000000000000000000000000000000000000000000000000000000000081565b606060018054610aff906126d2565b80601f0160208091040260200160405190810160405280929190818152602001828054610b2b906126d2565b8015610b765780601f10610b4d57610100808354040283529160200191610b76565b820191905f5260205f20905b815481529060010190602001808311610b5957829003601f168201915b5050505050905090565b6007805f0154905081565b600880549050610b9a826106c3565b1015610c6b575f6001610bac836106c3565b610bb69190612a2f565b90505f60088281548110610bcd57610bcc6128ac565b5b905f5260205f20018054610be0906126d2565b80601f0160208091040260200160405190810160405280929190818152602001828054610c0c906126d2565b8015610c575780601f10610c2e57610100808354040283529160200191610c57565b820191905f5260205f20905b815481529060010190602001808311610c3a57829003601f168201915b50505050509050610c688382611303565b50505b50565b610c80610c79610e89565b83836113de565b5050565b610c95610c8f610e89565b83610f46565b610cd4576040517f08c379a0000000000000000000000000000000000000000000000000000000008152600401610ccb9061288e565b60405180910390fd5b610ce084848484611545565b50505050565b5f81604051602001610cf89190612a9c565b6040516020818303038152906040528051906020012083604051602001610d1f9190612a9c565b6040516020818303038152906040528051906020012014905092915050565b6060610d49826115a1565b9050919050565b5f60055f8473ffffffffffffffffffffffffffffffffffffffff1673ffffffffffffffffffffffffffffffffffffffff1681526020019081526020015f205f8373ffffffffffffffffffffffffffffffffffffffff1673ffffffffffffffffffffffffffffffffffffffff1681526020019081526020015f205f9054906101000a900460ff16905092915050565b5f634906490660e01b7bffffffffffffffffffffffffffffffffffffffffffffffffffffffff1916827bffffffffffffffffffffffffffffffffffffffffffffffffffffffff19161480610e375750610e36826116ab565b5b9050919050565b610e478161178c565b610e86576040517f08c379a0000000000000000000000000000000000000000000000000000000008152600401610e7d90612983565b60405180910390fd5b50565b5f33905090565b8160045f8381526020019081526020015f205f6101000a81548173ffffffffffffffffffffffffffffffffffffffff021916908373ffffffffffffffffffffffffffffffffffffffff160217905550808273ffffffffffffffffffffffffffffffffffffffff16610f0083610920565b73ffffffffffffffffffffffffffffffffffffffff167f8c5be1e5ebec7d5bd14f71427d1e84f3dd0314c0f7b2291e5b200ac8c7c3b92560405160405180910390a45050565b5f80610f5183610920565b90508073ffffffffffffffffffffffffffffffffffffffff168473ffffffffffffffffffffffffffffffffffffffff161480610f935750610f928185610d50565b5b80610fd157508373ffffffffffffffffffffffffffffffffffffffff16610fb98461050b565b73ffffffffffffffffffffffffffffffffffffffff16145b91505092915050565b8273ffffffffffffffffffffffffffffffffffffffff16610ffa82610920565b73ffffffffffffffffffffffffffffffffffffffff1614611050576040517f08c379a000000000000000000000000000000000000000000000000000000000815260040161104790612b22565b60405180910390fd5b5f73ffffffffffffffffffffffffffffffffffffffff168273ffffffffffffffffffffffffffffffffffffffff16036110be576040517f08c379a00000000000000000000000000000000000000000000000000000000081526004016110b590612bb0565b60405180910390fd5b6110cb83838360016117cc565b8273ffffffffffffffffffffffffffffffffffffffff166110eb82610920565b73ffffffffffffffffffffffffffffffffffffffff1614611141576040517f08c379a000000000000000000000000000000000000000000000000000000000815260040161113890612b22565b60405180910390fd5b60045f8281526020019081526020015f205f6101000a81549073ffffffffffffffffffffffffffffffffffffffff0219169055600160035f8573ffffffffffffffffffffffffffffffffffffffff1673ffffffffffffffffffffffffffffffffffffffff1681526020019081526020015f205f8282540392505081905550600160035f8473ffffffffffffffffffffffffffffffffffffffff1673ffffffffffffffffffffffffffffffffffffffff1681526020019081526020015f205f82825401925050819055508160025f8381526020019081526020015f205f6101000a81548173ffffffffffffffffffffffffffffffffffffffff021916908373ffffffffffffffffffffffffffffffffffffffff160217905550808273ffffffffffffffffffffffffffffffffffffffff168473ffffffffffffffffffffffffffffffffffffffff167fddf252ad1be2c89b69c2b068fc378daa952ba7f163c4a11628f55a4df523b3ef60405160405180910390a46112c183838360016117d2565b505050565b5f815f01549050919050565b6001815f015f828254019250508190555050565b6112ff828260405180602001604052805f8152506117d8565b5050565b61130c8261178c565b61134b576040517f08c379a000000000000000000000000000000000000000000000000000000000815260040161134290612c3e565b60405180910390fd5b8060065f8481526020019081526020015f2090816113699190612df9565b507ff8e1a15aba9398e019f0b49df1a4fde98ee17ae345cb5f6b5e2c27f5033e8ce78260405161139991906121d3565b60405180910390a15050565b5f60025f8381526020019081526020015f205f9054906101000a900473ffffffffffffffffffffffffffffffffffffffff169050919050565b8173ffffffffffffffffffffffffffffffffffffffff168373ffffffffffffffffffffffffffffffffffffffff160361144c576040517f08c379a000000000000000000000000000000000000000000000000000000000815260040161144390612f12565b60405180910390fd5b8060055f8573ffffffffffffffffffffffffffffffffffffffff1673ffffffffffffffffffffffffffffffffffffffff1681526020019081526020015f205f8473ffffffffffffffffffffffffffffffffffffffff1673ffffffffffffffffffffffffffffffffffffffff1681526020019081526020015f205f6101000a81548160ff0219169083151502179055508173ffffffffffffffffffffffffffffffffffffffff168373ffffffffffffffffffffffffffffffffffffffff167f17307eab39ab6107e8899845ad3d59bd9653f200f220920489ca2b5937696c31836040516115389190611f93565b60405180910390a3505050565b611550848484610fda565b61155c84848484611832565b61159b576040517f08c379a000000000000000000000000000000000000000000000000000000000815260040161159290612fa0565b60405180910390fd5b50505050565b60606115ac82610e3e565b5f60065f8481526020019081526020015f2080546115c9906126d2565b80601f01602080910402602001604051908101604052809291908181526020018280546115f5906126d2565b80156116405780601f1061161757610100808354040283529160200191611640565b820191905f5260205f20905b81548152906001019060200180831161162357829003601f168201915b505050505090505f6116506119b4565b90505f8151036116645781925050506116a6565b5f82511115611698578082604051602001611680929190612fbe565b604051602081830303815290604052925050506116a6565b6116a1846119ca565b925050505b919050565b5f7f80ac58cd000000000000000000000000000000000000000000000000000000007bffffffffffffffffffffffffffffffffffffffffffffffffffffffff1916827bffffffffffffffffffffffffffffffffffffffffffffffffffffffff1916148061177557507f5b5e139f000000000000000000000000000000000000000000000000000000007bffffffffffffffffffffffffffffffffffffffffffffffffffffffff1916827bffffffffffffffffffffffffffffffffffffffffffffffffffffffff1916145b80611785575061178482611a2f565b5b9050919050565b5f8073ffffffffffffffffffffffffffffffffffffffff166117ad836113a5565b73ffffffffffffffffffffffffffffffffffffffff1614159050919050565b50505050565b50505050565b6117e28383611a98565b6117ee5f848484611832565b61182d576040517f08c379a000000000000000000000000000000000000000000000000000000000815260040161182490612fa0565b60405180910390fd5b505050565b5f6118528473ffffffffffffffffffffffffffffffffffffffff16611cab565b156119a7578373ffffffffffffffffffffffffffffffffffffffff1663150b7a0261187b610e89565b8786866040518563ffffffff1660e01b815260040161189d9493929190612fe1565b6020604051808303815f875af19250505080156118d857506040513d601f19601f820116820180604052508101906118d5919061303f565b60015b611957573d805f8114611906576040519150601f19603f3d011682016040523d82523d5f602084013e61190b565b606091505b505f81510361194f576040517f08c379a000000000000000000000000000000000000000000000000000000000815260040161194690612fa0565b60405180910390fd5b805181602001fd5b63150b7a0260e01b7bffffffffffffffffffffffffffffffffffffffffffffffffffffffff1916817bffffffffffffffffffffffffffffffffffffffffffffffffffffffff1916149150506119ac565b600190505b949350505050565b606060405180602001604052805f815250905090565b60606119d582610e3e565b5f6119de6119b4565b90505f8151116119fc5760405180602001604052805f815250611a27565b80611a0684611ccd565b604051602001611a17929190612fbe565b6040516020818303038152906040525b915050919050565b5f7f01ffc9a7000000000000000000000000000000000000000000000000000000007bffffffffffffffffffffffffffffffffffffffffffffffffffffffff1916827bffffffffffffffffffffffffffffffffffffffffffffffffffffffff1916149050919050565b5f73ffffffffffffffffffffffffffffffffffffffff168273ffffffffffffffffffffffffffffffffffffffff1603611b06576040517f08c379a0000000000000000000000000000000000000000000000000000000008152600401611afd906130b4565b60405180910390fd5b611b0f8161178c565b15611b4f576040517f08c379a0000000000000000000000000000000000000000000000000000000008152600401611b469061311c565b60405180910390fd5b611b5c5f838360016117cc565b611b658161178c565b15611ba5576040517f08c379a0000000000000000000000000000000000000000000000000000000008152600401611b9c9061311c565b60405180910390fd5b600160035f8473ffffffffffffffffffffffffffffffffffffffff1673ffffffffffffffffffffffffffffffffffffffff1681526020019081526020015f205f82825401925050819055508160025f8381526020019081526020015f205f6101000a81548173ffffffffffffffffffffffffffffffffffffffff021916908373ffffffffffffffffffffffffffffffffffffffff160217905550808273ffffffffffffffffffffffffffffffffffffffff165f73ffffffffffffffffffffffffffffffffffffffff167fddf252ad1be2c89b69c2b068fc378daa952ba7f163c4a11628f55a4df523b3ef60405160405180910390a4611ca75f838360016117d2565b5050565b5f808273ffffffffffffffffffffffffffffffffffffffff163b119050919050565b60605f6001611cdb84611d97565b0190505f8167ffffffffffffffff811115611cf957611cf86123af565b5b6040519080825280601f01601f191660200182016040528015611d2b5781602001600182028036833780820191505090505b5090505f82602001820190505b600115611d8c578080600190039150507f3031323334353637383961626364656600000000000000000000000000000000600a86061a8153600a8581611d8157611d8061313a565b5b0494505f8503611d38575b819350505050919050565b5f805f90507a184f03e93ff9f4daa797ed6e38ed64bf6a1f0100000000000000008310611df3577a184f03e93ff9f4daa797ed6e38ed64bf6a1f0100000000000000008381611de957611de861313a565b5b0492506040810190505b6d04ee2d6d415b85acef81000000008310611e30576d04ee2d6d415b85acef81000000008381611e2657611e2561313a565b5b0492506020810190505b662386f26fc100008310611e5f57662386f26fc100008381611e5557611e5461313a565b5b0492506010810190505b6305f5e1008310611e88576305f5e1008381611e7e57611e7d61313a565b5b0492506008810190505b6127108310611ead576127108381611ea357611ea261313a565b5b0492506004810190505b60648310611ed05760648381611ec657611ec561313a565b5b0492506002810190505b600a8310611edf576001810190505b80915050919050565b5f604051905090565b5f80fd5b5f80fd5b5f7fffffffff0000000000000000000000000000000000000000000000000000000082169050919050565b611f2d81611ef9565b8114611f37575f80fd5b50565b5f81359050611f4881611f24565b92915050565b5f60208284031215611f6357611f62611ef1565b5b5f611f7084828501611f3a565b91505092915050565b5f8115159050919050565b611f8d81611f79565b82525050565b5f602082019050611fa65f830184611f84565b92915050565b5f81519050919050565b5f82825260208201905092915050565b5f5b83811015611fe3578082015181840152602081019050611fc8565b5f8484015250505050565b5f601f19601f8301169050919050565b5f61200882611fac565b6120128185611fb6565b9350612022818560208601611fc6565b61202b81611fee565b840191505092915050565b5f6020820190508181035f83015261204e8184611ffe565b905092915050565b5f819050919050565b61206881612056565b8114612072575f80fd5b50565b5f813590506120838161205f565b92915050565b5f6020828403121561209e5761209d611ef1565b5b5f6120ab84828501612075565b91505092915050565b5f73ffffffffffffffffffffffffffffffffffffffff82169050919050565b5f6120dd826120b4565b9050919050565b6120ed816120d3565b82525050565b5f6020820190506121065f8301846120e4565b92915050565b612115816120d3565b811461211f575f80fd5b50565b5f813590506121308161210c565b92915050565b5f806040838503121561214c5761214b611ef1565b5b5f61215985828601612122565b925050602061216a85828601612075565b9150509250929050565b5f805f6060848603121561218b5761218a611ef1565b5b5f61219886828701612122565b93505060206121a986828701612122565b92505060406121ba86828701612075565b9150509250925092565b6121cd81612056565b82525050565b5f6020820190506121e65f8301846121c4565b92915050565b5f6020828403121561220157612200611ef1565b5b5f61220e84828501612122565b91505092915050565b5f80fd5b5f80fd5b5f80fd5b5f8083601f84011261223857612237612217565b5b8235905067ffffffffffffffff8111156122555761225461221b565b5b6020830191508360018202830111156122715761227061221f565b5b9250929050565b5f806020838503121561228e5761228d611ef1565b5b5f83013567ffffffffffffffff8111156122ab576122aa611ef5565b5b6122b785828601612223565b92509250509250929050565b5f81519050919050565b5f82825260208201905092915050565b5f6122e7826122c3565b6122f181856122cd565b9350612301818560208601611fc6565b61230a81611fee565b840191505092915050565b5f6040820190506123285f830185611f84565b818103602083015261233a81846122dd565b90509392505050565b61234c81611f79565b8114612356575f80fd5b50565b5f8135905061236781612343565b92915050565b5f806040838503121561238357612382611ef1565b5b5f61239085828601612122565b92505060206123a185828601612359565b9150509250929050565b5f80fd5b7f4e487b71000000000000000000000000000000000000000000000000000000005f52604160045260245ffd5b6123e582611fee565b810181811067ffffffffffffffff82111715612404576124036123af565b5b80604052505050565b5f612416611ee8565b905061242282826123dc565b919050565b5f67ffffffffffffffff821115612441576124406123af565b5b61244a82611fee565b9050602081019050919050565b828183375f83830152505050565b5f61247761247284612427565b61240d565b905082815260208101848484011115612493576124926123ab565b5b61249e848285612457565b509392505050565b5f82601f8301126124ba576124b9612217565b5b81356124ca848260208601612465565b91505092915050565b5f805f80608085870312156124eb576124ea611ef1565b5b5f6124f887828801612122565b945050602061250987828801612122565b935050604061251a87828801612075565b925050606085013567ffffffffffffffff81111561253b5761253a611ef5565b5b612547878288016124a6565b91505092959194509250565b5f67ffffffffffffffff82111561256d5761256c6123af565b5b61257682611fee565b9050602081019050919050565b5f61259561259084612553565b61240d565b9050828152602081018484840111156125b1576125b06123ab565b5b6125bc848285612457565b509392505050565b5f82601f8301126125d8576125d7612217565b5b81356125e8848260208601612583565b91505092915050565b5f806040838503121561260757612606611ef1565b5b5f83013567ffffffffffffffff81111561262457612623611ef5565b5b612630858286016125c4565b925050602083013567ffffffffffffffff81111561265157612650611ef5565b5b61265d858286016125c4565b9150509250929050565b5f806040838503121561267d5761267c611ef1565b5b5f61268a85828601612122565b925050602061269b85828601612122565b9150509250929050565b7f4e487b71000000000000000000000000000000000000000000000000000000005f52602260045260245ffd5b5f60028204905060018216806126e957607f821691505b6020821081036126fc576126fb6126a5565b5b50919050565b7f4552433732313a20617070726f76616c20746f2063757272656e74206f776e655f8201527f7200000000000000000000000000000000000000000000000000000000000000602082015250565b5f61275c602183611fb6565b915061276782612702565b604082019050919050565b5f6020820190508181035f83015261278981612750565b9050919050565b7f4552433732313a20617070726f76652063616c6c6572206973206e6f7420746f5f8201527f6b656e206f776e6572206f7220617070726f76656420666f7220616c6c000000602082015250565b5f6127ea603d83611fb6565b91506127f582612790565b604082019050919050565b5f6020820190508181035f830152612817816127de565b9050919050565b7f4552433732313a2063616c6c6572206973206e6f7420746f6b656e206f776e655f8201527f72206f7220617070726f76656400000000000000000000000000000000000000602082015250565b5f612878602d83611fb6565b91506128838261281e565b604082019050919050565b5f6020820190508181035f8301526128a58161286c565b9050919050565b7f4e487b71000000000000000000000000000000000000000000000000000000005f52603260045260245ffd5b7f4e487b71000000000000000000000000000000000000000000000000000000005f52601160045260245ffd5b5f61291082612056565b915061291b83612056565b9250828203905081811115612933576129326128d9565b5b92915050565b7f4552433732313a20696e76616c696420746f6b656e20494400000000000000005f82015250565b5f61296d601883611fb6565b915061297882612939565b602082019050919050565b5f6020820190508181035f83015261299a81612961565b9050919050565b7f4552433732313a2061646472657373207a65726f206973206e6f7420612076615f8201527f6c6964206f776e65720000000000000000000000000000000000000000000000602082015250565b5f6129fb602983611fb6565b9150612a06826129a1565b604082019050919050565b5f6020820190508181035f830152612a28816129ef565b9050919050565b5f612a3982612056565b9150612a4483612056565b9250828201905080821115612a5c57612a5b6128d9565b5b92915050565b5f81905092915050565b5f612a7682611fac565b612a808185612a62565b9350612a90818560208601611fc6565b80840191505092915050565b5f612aa78284612a6c565b915081905092915050565b7f4552433732313a207472616e736665722066726f6d20696e636f7272656374205f8201527f6f776e6572000000000000000000000000000000000000000000000000000000602082015250565b5f612b0c602583611fb6565b9150612b1782612ab2565b604082019050919050565b5f6020820190508181035f830152612b3981612b00565b9050919050565b7f4552433732313a207472616e7366657220746f20746865207a65726f206164645f8201527f7265737300000000000000000000000000000000000000000000000000000000602082015250565b5f612b9a602483611fb6565b9150612ba582612b40565b604082019050919050565b5f6020820190508181035f830152612bc781612b8e565b9050919050565b7f45524337323155524953746f726167653a2055524920736574206f66206e6f6e5f8201527f6578697374656e7420746f6b656e000000000000000000000000000000000000602082015250565b5f612c28602e83611fb6565b9150612c3382612bce565b604082019050919050565b5f6020820190508181035f830152612c5581612c1c565b9050919050565b5f819050815f5260205f209050919050565b5f6020601f8301049050919050565b5f82821b905092915050565b5f60088302612cb87fffffffffffffffffffffffffffffffffffffffffffffffffffffffffffffffff82612c7d565b612cc28683612c7d565b95508019841693508086168417925050509392505050565b5f819050919050565b5f612cfd612cf8612cf384612056565b612cda565b612056565b9050919050565b5f819050919050565b612d1683612ce3565b612d2a612d2282612d04565b848454612c89565b825550505050565b5f90565b612d3e612d32565b612d49818484612d0d565b505050565b5b81811015612d6c57612d615f82612d36565b600181019050612d4f565b5050565b601f821115612db157612d8281612c5c565b612d8b84612c6e565b81016020851015612d9a578190505b612dae612da685612c6e565b830182612d4e565b50505b505050565b5f82821c905092915050565b5f612dd15f1984600802612db6565b1980831691505092915050565b5f612de98383612dc2565b9150826002028217905092915050565b612e0282611fac565b67ffffffffffffffff811115612e1b57612e1a6123af565b5b612e2582546126d2565b612e30828285612d70565b5f60209050601f831160018114612e61575f8415612e4f578287015190505b612e598582612dde565b865550612ec0565b601f198416612e6f86612c5c565b5f5b82811015612e9657848901518255600182019150602085019450602081019050612e71565b86831015612eb35784890151612eaf601f891682612dc2565b8355505b6001600288020188555050505b505050505050565b7f4552433732313a20617070726f766520746f2063616c6c6572000000000000005f82015250565b5f612efc601983611fb6565b9150612f0782612ec8565b602082019050919050565b5f6020820190508181035f830152612f2981612ef0565b9050919050565b7f4552433732313a207472616e7366657220746f206e6f6e2045524337323152655f8201527f63656976657220696d706c656d656e7465720000000000000000000000000000602082015250565b5f612f8a603283611fb6565b9150612f9582612f30565b604082019050919050565b5f6020820190508181035f830152612fb781612f7e565b9050919050565b5f612fc98285612a6c565b9150612fd58284612a6c565b91508190509392505050565b5f608082019050612ff45f8301876120e4565b61300160208301866120e4565b61300e60408301856121c4565b818103606083015261302081846122dd565b905095945050505050565b5f8151905061303981611f24565b92915050565b5f6020828403121561305457613053611ef1565b5b5f6130618482850161302b565b91505092915050565b7f4552433732313a206d696e7420746f20746865207a65726f20616464726573735f82015250565b5f61309e602083611fb6565b91506130a98261306a565b602082019050919050565b5f6020820190508181035f8301526130cb81613092565b9050919050565b7f4552433732313a20746f6b656e20616c7265616479206d696e746564000000005f82015250565b5f613106601c83611fb6565b9150613111826130d2565b602082019050919050565b5f6020820190508181035f830152613133816130fa565b9050919050565b7f4e487b71000000000000000000000000000000000000000000000000000000005f52601260045260245ffdfea2646970667358221220817dbca94b8c577fae0e63ad14f3c58c43d588401574f4c8b8c1aad5c183ce0464736f6c6343000814003368747470733a2f2f697066732e696f2f697066732f516d54656148467852587559736d65346947316d4b34653863776539483246466e6b3738386172616a5436726e3468747470733a2f2f697066732e696f2f697066732f516d57473770736862586b76386f396a6f5a6e424c423253414175394a6b574665583848344b5461443442735043",
  "immutableReferences": {
    "511": [
      {
        "length": 32,
        "start": 2216
      },
      {
        "length": 32,
        "start": 2473
      },
      {
        "length": 32,
        "start": 2766
      }
    ]
  },
  "source": "// SPDX-License-Identifier: MIT\npragma solidity ^0.8.0;\n\n\nimport \"../../node_modules/@chainlink/contracts/src/v0.8/AutomationCompatible.sol\";\nimport \"../../node_modules/@openzeppelin/contracts/token/ERC721/extensions/ERC721URIStorage.sol\";\nimport \"../../node_modules/@openzeppelin/contracts/utils/Counters.sol\";\n\n\ncontract UserPhoto is ERC721, ERC721URIStorage, AutomationCompatibleInterface {\n    using Counters for Counters.Counter;\n\n    Counters.Counter public tokenIdCounter;\n \n    string[] IpfsUri = [\n        \"https://ipfs.io/ipfs/QmTeaHFxRXuYsme4iG1mK4e8cwe9H2FFnk788arajT6rn4\",\n        \"https://ipfs.io/ipfs/QmWG7pshbXkv8o9joZnBLB2SAAu9JkWFeX8H4KTaD4BsPC\"\n    ];\n\n\n    uint public immutable interval;\n    uint public lastTimeStamp;\n\n\n    constructor(uint updateInterval) ERC721(\"UserImages\", \"Photo\") {\n        interval = updateInterval;\n        lastTimeStamp = block.timestamp;\n        safeMint(msg.sender);\n    }\n\n\n    function checkUpkeep(bytes calldata) external view override returns (bool upkeepNeeded, bytes memory /* performData */) {\n        if ((block.timestamp - lastTimeStamp) > interval ) {\n            uint256 tokenId = tokenIdCounter.current() - 1;\n            if (imageStage(tokenId) < IpfsUri.length) {\n                upkeepNeeded = true;\n            }\n        }\n    }\n\n\n    function performUpkeep(bytes calldata /* performData */) external override {\n        if ((block.timestamp - lastTimeStamp) > interval ) {\n            uint256 tokenId = tokenIdCounter.current() - 1;\n            if (imageStage(tokenId) < IpfsUri.length) {\n                lastTimeStamp = block.timestamp;            \n                updateImage(tokenId);\n            }\n        }\n    }\n\n\n    function safeMint(address to) public {\n        uint256 tokenId = tokenIdCounter.current();\n        tokenIdCounter.increment();\n        _safeMint(to, tokenId);\n        _setTokenURI(tokenId, IpfsUri[0]);\n    }\n\n\n    function updateImage(uint256 _tokenId) public {\n        if(imageStage(_tokenId) >= IpfsUri.length){return;}\n        // Get the current stage of the image and add 1\n        uint256 newVal = imageStage(_tokenId) + 1;\n        // store the new URI\n        string memory newUri = IpfsUri[newVal];\n        // Update the URI\n        _setTokenURI(_tokenId, newUri);\n    }\n\n    function imageStage(uint256 _tokenId) public view returns (uint256) {\n        string memory _uri = tokenURI(_tokenId);\n        for (uint256 i = 0; i < IpfsUri.length; i++) {\n            if (compareStrings(_uri, IpfsUri[i])) {\n                return i;\n            }\n            return IpfsUri.length;\n        }\n    }\n\n    // helper function to compare strings\n    function compareStrings(string memory a, string memory b)\n        public pure returns (bool)\n    {\n        return (keccak256(abi.encodePacked((a))) ==\n            keccak256(abi.encodePacked((b))));\n    }\n\n\n    function tokenURI(uint256 tokenId)\n        public view override(ERC721, ERC721URIStorage) returns (string memory)\n    {\n        return super.tokenURI(tokenId);\n    }\n\n    function _burn(uint256 tokenId) internal override(ERC721, ERC721URIStorage)\n    {\n        super._burn(tokenId);\n    }\n\n    function supportsInterface(bytes4 interfaceId) public view override(ERC721, ERC721URIStorage) returns (bool) {\n        return super.supportsInterface(interfaceId);\n    }\n}",
  "sourcePath": "/home/victorcarvalho/Documents/Github/ChainlinkHackas/chainlink-hackathon/contracts/contracts/User/ProfileImage.sol",
  "compiler": {
    "name": "solc",
    "version": "0.8.20+commit.a1b79de6.Emscripten.clang"
  },
  "schemaVersion": "3.4.14",
  "updatedAt": "2023-06-06T03:14:50.932Z",
  "devdoc": {
    "events": {
      "Approval(address,address,uint256)": {
        "details": "Emitted when `owner` enables `approved` to manage the `tokenId` token."
      },
      "ApprovalForAll(address,address,bool)": {
        "details": "Emitted when `owner` enables or disables (`approved`) `operator` to manage all of its assets."
      },
      "BatchMetadataUpdate(uint256,uint256)": {
        "details": "This event emits when the metadata of a range of tokens is changed. So that the third-party platforms such as NFT market could timely update the images and related attributes of the NFTs."
      },
      "MetadataUpdate(uint256)": {
        "details": "This event emits when the metadata of a token is changed. So that the third-party platforms such as NFT market could timely update the images and related attributes of the NFT."
      },
      "Transfer(address,address,uint256)": {
        "details": "Emitted when `tokenId` token is transferred from `from` to `to`."
      }
    },
    "kind": "dev",
    "methods": {
      "approve(address,uint256)": {
        "details": "See {IERC721-approve}."
      },
      "balanceOf(address)": {
        "details": "See {IERC721-balanceOf}."
      },
      "getApproved(uint256)": {
        "details": "See {IERC721-getApproved}."
      },
      "isApprovedForAll(address,address)": {
        "details": "See {IERC721-isApprovedForAll}."
      },
      "name()": {
        "details": "See {IERC721Metadata-name}."
      },
      "ownerOf(uint256)": {
        "details": "See {IERC721-ownerOf}."
      },
      "safeTransferFrom(address,address,uint256)": {
        "details": "See {IERC721-safeTransferFrom}."
      },
      "safeTransferFrom(address,address,uint256,bytes)": {
        "details": "See {IERC721-safeTransferFrom}."
      },
      "setApprovalForAll(address,bool)": {
        "details": "See {IERC721-setApprovalForAll}."
      },
      "symbol()": {
        "details": "See {IERC721Metadata-symbol}."
      },
      "transferFrom(address,address,uint256)": {
        "details": "See {IERC721-transferFrom}."
      }
    },
    "version": 1
  },
  "userdoc": {
    "kind": "user",
    "methods": {},
    "version": 1
  }
}