{
	"contracts/User/Poll.sol": {
		"Poll": {
			"abi": [
				{
					"inputs": [
						{
							"internalType": "string",
							"name": "_timestamp",
							"type": "string"
						},
						{
							"internalType": "string",
							"name": "_content",
							"type": "string"
						},
						{
							"internalType": "string[]",
							"name": "_pollChoices",
							"type": "string[]"
						}
					],
					"stateMutability": "nonpayable",
					"type": "constructor"
				},
				{
					"inputs": [
						{
							"internalType": "string",
							"name": "_comment",
							"type": "string"
						}
					],
					"name": "addComment",
					"outputs": [],
					"stateMutability": "nonpayable",
					"type": "function"
				},
				{
					"inputs": [
						{
							"internalType": "uint256",
							"name": "",
							"type": "uint256"
						}
					],
					"name": "comments",
					"outputs": [
						{
							"internalType": "address",
							"name": "user",
							"type": "address"
						},
						{
							"internalType": "string",
							"name": "comment",
							"type": "string"
						}
					],
					"stateMutability": "view",
					"type": "function"
				},
				{
					"inputs": [],
					"name": "content",
					"outputs": [
						{
							"internalType": "string",
							"name": "",
							"type": "string"
						}
					],
					"stateMutability": "view",
					"type": "function"
				},
				{
					"inputs": [],
					"name": "dislike",
					"outputs": [],
					"stateMutability": "nonpayable",
					"type": "function"
				},
				{
					"inputs": [
						{
							"internalType": "uint256",
							"name": "",
							"type": "uint256"
						}
					],
					"name": "dislikes",
					"outputs": [
						{
							"internalType": "address",
							"name": "",
							"type": "address"
						}
					],
					"stateMutability": "view",
					"type": "function"
				},
				{
					"inputs": [],
					"name": "getComments",
					"outputs": [
						{
							"components": [
								{
									"internalType": "address",
									"name": "user",
									"type": "address"
								},
								{
									"internalType": "string",
									"name": "comment",
									"type": "string"
								}
							],
							"internalType": "struct Comment[]",
							"name": "",
							"type": "tuple[]"
						}
					],
					"stateMutability": "view",
					"type": "function"
				},
				{
					"inputs": [],
					"name": "getDislikes",
					"outputs": [
						{
							"internalType": "address[]",
							"name": "",
							"type": "address[]"
						}
					],
					"stateMutability": "view",
					"type": "function"
				},
				{
					"inputs": [],
					"name": "getLikes",
					"outputs": [
						{
							"internalType": "address[]",
							"name": "",
							"type": "address[]"
						}
					],
					"stateMutability": "view",
					"type": "function"
				},
				{
					"inputs": [],
					"name": "getPoll",
					"outputs": [
						{
							"internalType": "uint256",
							"name": "",
							"type": "uint256"
						},
						{
							"internalType": "string",
							"name": "",
							"type": "string"
						},
						{
							"internalType": "string",
							"name": "",
							"type": "string"
						},
						{
							"internalType": "string",
							"name": "",
							"type": "string"
						},
						{
							"components": [
								{
									"internalType": "string",
									"name": "choice",
									"type": "string"
								},
								{
									"internalType": "address[]",
									"name": "voters",
									"type": "address[]"
								}
							],
							"internalType": "struct PollChoice[]",
							"name": "",
							"type": "tuple[]"
						},
						{
							"internalType": "address[]",
							"name": "",
							"type": "address[]"
						},
						{
							"internalType": "address[]",
							"name": "",
							"type": "address[]"
						},
						{
							"components": [
								{
									"internalType": "address",
									"name": "user",
									"type": "address"
								},
								{
									"internalType": "string",
									"name": "comment",
									"type": "string"
								}
							],
							"internalType": "struct Comment[]",
							"name": "",
							"type": "tuple[]"
						}
					],
					"stateMutability": "view",
					"type": "function"
				},
				{
					"inputs": [],
					"name": "getPollChoices",
					"outputs": [
						{
							"components": [
								{
									"internalType": "string",
									"name": "choice",
									"type": "string"
								},
								{
									"internalType": "address[]",
									"name": "voters",
									"type": "address[]"
								}
							],
							"internalType": "struct PollChoice[]",
							"name": "",
							"type": "tuple[]"
						}
					],
					"stateMutability": "view",
					"type": "function"
				},
				{
					"inputs": [
						{
							"internalType": "uint256",
							"name": "_choice",
							"type": "uint256"
						}
					],
					"name": "getVoters",
					"outputs": [
						{
							"internalType": "address[]",
							"name": "",
							"type": "address[]"
						}
					],
					"stateMutability": "view",
					"type": "function"
				},
				{
					"inputs": [],
					"name": "id",
					"outputs": [
						{
							"internalType": "uint256",
							"name": "",
							"type": "uint256"
						}
					],
					"stateMutability": "view",
					"type": "function"
				},
				{
					"inputs": [],
					"name": "like",
					"outputs": [],
					"stateMutability": "nonpayable",
					"type": "function"
				},
				{
					"inputs": [
						{
							"internalType": "uint256",
							"name": "",
							"type": "uint256"
						}
					],
					"name": "likes",
					"outputs": [
						{
							"internalType": "address",
							"name": "",
							"type": "address"
						}
					],
					"stateMutability": "view",
					"type": "function"
				},
				{
					"inputs": [],
					"name": "owner",
					"outputs": [
						{
							"internalType": "address",
							"name": "",
							"type": "address"
						}
					],
					"stateMutability": "view",
					"type": "function"
				},
				{
					"inputs": [
						{
							"internalType": "uint256",
							"name": "",
							"type": "uint256"
						}
					],
					"name": "pollChoices",
					"outputs": [
						{
							"internalType": "string",
							"name": "choice",
							"type": "string"
						}
					],
					"stateMutability": "view",
					"type": "function"
				},
				{
					"inputs": [],
					"name": "postType",
					"outputs": [
						{
							"internalType": "string",
							"name": "",
							"type": "string"
						}
					],
					"stateMutability": "view",
					"type": "function"
				},
				{
					"inputs": [],
					"name": "timestamp",
					"outputs": [
						{
							"internalType": "string",
							"name": "",
							"type": "string"
						}
					],
					"stateMutability": "view",
					"type": "function"
				},
				{
					"inputs": [
						{
							"internalType": "uint256",
							"name": "_choice",
							"type": "uint256"
						}
					],
					"name": "vote",
					"outputs": [],
					"stateMutability": "nonpayable",
					"type": "function"
				}
			],
			"devdoc": {
				"kind": "dev",
				"methods": {},
				"version": 1
			},
			"evm": {
				"assembly": "    /* \"contracts/User/Poll.sol\":234:2925  contract Poll {... */\n  mstore(0x40, 0x80)\n    /* \"contracts/User/Poll.sol\":459:490  string public postType = \"poll\" */\n  mload(0x40)\n  dup1\n  0x40\n  add\n  0x40\n  mstore\n  dup1\n  0x04\n  dup2\n  mstore\n  0x20\n  add\n  0x706f6c6c00000000000000000000000000000000000000000000000000000000\n  dup2\n  mstore\n  pop\n  0x05\n  swap1\n  dup2\n  tag_1\n  swap2\n  swap1\n  tag_2\n  jump\t// in\ntag_1:\n  pop\n    /* \"contracts/User/Poll.sol\":696:1132  constructor(... */\n  callvalue\n  dup1\n  iszero\n  tag_3\n  jumpi\n  0x00\n  dup1\n  revert\ntag_3:\n  pop\n  mload(0x40)\n  sub(codesize, bytecodeSize)\n  dup1\n  bytecodeSize\n  dup4\n  codecopy\n  dup2\n  dup2\n  add\n  0x40\n  mstore\n  dup2\n  add\n  swap1\n  tag_4\n  swap2\n  swap1\n  tag_5\n  jump\t// in\ntag_4:\n    /* \"contracts/User/Poll.sol\":828:853  postIdCounter.increment() */\n  tag_8\n    /* \"contracts/User/Poll.sol\":828:841  postIdCounter */\n  0x00\n    /* \"contracts/User/Poll.sol\":828:851  postIdCounter.increment */\n  or(tag_0_95, shl(0x20, tag_9))\n    /* \"contracts/User/Poll.sol\":828:853  postIdCounter.increment() */\n  0x20\n  shr\n  jump\t// in\ntag_8:\n    /* \"contracts/User/Poll.sol\":868:891  postIdCounter.current() */\n  tag_10\n    /* \"contracts/User/Poll.sol\":868:881  postIdCounter */\n  0x00\n    /* \"contracts/User/Poll.sol\":868:889  postIdCounter.current */\n  or(tag_0_96, shl(0x20, tag_11))\n    /* \"contracts/User/Poll.sol\":868:891  postIdCounter.current() */\n  0x20\n  shr\n  jump\t// in\ntag_10:\n    /* \"contracts/User/Poll.sol\":863:865  id */\n  0x01\n    /* \"contracts/User/Poll.sol\":863:891  id = postIdCounter.current() */\n  dup2\n  swap1\n  sstore\n  pop\n    /* \"contracts/User/Poll.sol\":913:923  _timestamp */\n  dup3\n    /* \"contracts/User/Poll.sol\":901:910  timestamp */\n  0x03\n    /* \"contracts/User/Poll.sol\":901:923  timestamp = _timestamp */\n  swap1\n  dup2\n  tag_12\n  swap2\n  swap1\n  tag_2\n  jump\t// in\ntag_12:\n  pop\n    /* \"contracts/User/Poll.sol\":943:951  _content */\n  dup2\n    /* \"contracts/User/Poll.sol\":933:940  content */\n  0x04\n    /* \"contracts/User/Poll.sol\":933:951  content = _content */\n  swap1\n  dup2\n  tag_13\n  swap2\n  swap1\n  tag_2\n  jump\t// in\ntag_13:\n  pop\n    /* \"contracts/User/Poll.sol\":967:973  uint i */\n  0x00\n    /* \"contracts/User/Poll.sol\":962:1097  for (uint i = 0; i < _pollChoices.length; i++) {... */\ntag_14:\n    /* \"contracts/User/Poll.sol\":983:995  _pollChoices */\n  dup2\n    /* \"contracts/User/Poll.sol\":983:1002  _pollChoices.length */\n  mload\n    /* \"contracts/User/Poll.sol\":979:980  i */\n  dup2\n    /* \"contracts/User/Poll.sol\":979:1002  i < _pollChoices.length */\n  lt\n    /* \"contracts/User/Poll.sol\":962:1097  for (uint i = 0; i < _pollChoices.length; i++) {... */\n  iszero\n  tag_15\n  jumpi\n    /* \"contracts/User/Poll.sol\":1023:1034  pollChoices */\n  0x06\n    /* \"contracts/User/Poll.sol\":1040:1085  PollChoice(_pollChoices[i], new address[](0)) */\n  mload(0x40)\n  dup1\n  0x40\n  add\n  0x40\n  mstore\n  dup1\n    /* \"contracts/User/Poll.sol\":1051:1063  _pollChoices */\n  dup5\n    /* \"contracts/User/Poll.sol\":1064:1065  i */\n  dup5\n    /* \"contracts/User/Poll.sol\":1051:1066  _pollChoices[i] */\n  dup2\n  mload\n  dup2\n  lt\n  tag_17\n  jumpi\n  tag_18\n  tag_19\n  jump\t// in\ntag_18:\ntag_17:\n  0x20\n  mul\n  0x20\n  add\n  add\n  mload\n    /* \"contracts/User/Poll.sol\":1040:1085  PollChoice(_pollChoices[i], new address[](0)) */\n  dup2\n  mstore\n  0x20\n  add\n    /* \"contracts/User/Poll.sol\":1082:1083  0 */\n  0x00\n    /* \"contracts/User/Poll.sol\":1068:1084  new address[](0) */\n  0xffffffffffffffff\n  dup2\n  gt\n  iszero\n  tag_20\n  jumpi\n  tag_21\n  tag_22\n  jump\t// in\ntag_21:\ntag_20:\n  mload(0x40)\n  swap1\n  dup1\n  dup3\n  mstore\n  dup1\n  0x20\n  mul\n  0x20\n  add\n  dup3\n  add\n  0x40\n  mstore\n  dup1\n  iszero\n  tag_23\n  jumpi\n  dup2\n  0x20\n  add\n  0x20\n  dup3\n  mul\n  dup1\n  calldatasize\n  dup4\n  calldatacopy\n  dup1\n  dup3\n  add\n  swap2\n  pop\n  pop\n  swap1\n  pop\ntag_23:\n  pop\n    /* \"contracts/User/Poll.sol\":1040:1085  PollChoice(_pollChoices[i], new address[](0)) */\n  dup2\n  mstore\n  pop\n    /* \"contracts/User/Poll.sol\":1023:1086  pollChoices.push(PollChoice(_pollChoices[i], new address[](0))) */\n  swap1\n  dup1\n  0x01\n  dup2\n  sload\n  add\n  dup1\n  dup3\n  sstore\n  dup1\n  swap2\n  pop\n  pop\n  0x01\n  swap1\n  sub\n  swap1\n  0x00\n  mstore\n  keccak256(0x00, 0x20)\n  swap1\n  0x02\n  mul\n  add\n  0x00\n  swap1\n  swap2\n  swap1\n  swap2\n  swap1\n  swap2\n  pop\n  0x00\n  dup3\n  add\n  mload\n  dup2\n  0x00\n  add\n  swap1\n  dup2\n  tag_25\n  swap2\n  swap1\n  tag_2\n  jump\t// in\ntag_25:\n  pop\n  0x20\n  dup3\n  add\n  mload\n  dup2\n  0x01\n  add\n  swap1\n  dup1\n  mload\n  swap1\n  0x20\n  add\n  swap1\n  tag_26\n  swap3\n  swap2\n  swap1\n  tag_27\n  jump\t// in\ntag_26:\n  pop\n  pop\n  pop\n    /* \"contracts/User/Poll.sol\":1004:1007  i++ */\n  dup1\n  dup1\n  tag_28\n  swap1\n  tag_29\n  jump\t// in\ntag_28:\n  swap2\n  pop\n  pop\n    /* \"contracts/User/Poll.sol\":962:1097  for (uint i = 0; i < _pollChoices.length; i++) {... */\n  jump(tag_14)\ntag_15:\n  pop\n    /* \"contracts/User/Poll.sol\":1115:1125  msg.sender */\n  caller\n    /* \"contracts/User/Poll.sol\":1107:1112  owner */\n  0x02\n  0x00\n    /* \"contracts/User/Poll.sol\":1107:1125  owner = msg.sender */\n  0x0100\n  exp\n  dup2\n  sload\n  dup2\n  0xffffffffffffffffffffffffffffffffffffffff\n  mul\n  not\n  and\n  swap1\n  dup4\n  0xffffffffffffffffffffffffffffffffffffffff\n  and\n  mul\n  or\n  swap1\n  sstore\n  pop\n    /* \"contracts/User/Poll.sol\":696:1132  constructor(... */\n  pop\n  pop\n  pop\n    /* \"contracts/User/Poll.sol\":234:2925  contract Poll {... */\n  jump(tag_30)\n    /* \"@openzeppelin/contracts/utils/Counters.sol\":945:1068  function increment(Counter storage counter) internal {... */\ntag_9:\n    /* \"@openzeppelin/contracts/utils/Counters.sol\":1050:1051  1 */\n  0x01\n    /* \"@openzeppelin/contracts/utils/Counters.sol\":1032:1039  counter */\n  dup2\n    /* \"@openzeppelin/contracts/utils/Counters.sol\":1032:1046  counter._value */\n  0x00\n  add\n  0x00\n    /* \"@openzeppelin/contracts/utils/Counters.sol\":1032:1051  counter._value += 1 */\n  dup3\n  dup3\n  sload\n  add\n  swap3\n  pop\n  pop\n  dup2\n  swap1\n  sstore\n  pop\n    /* \"@openzeppelin/contracts/utils/Counters.sol\":945:1068  function increment(Counter storage counter) internal {... */\n  pop\n  jump\t// out\n    /* \"@openzeppelin/contracts/utils/Counters.sol\":827:939  function current(Counter storage counter) internal view returns (uint256) {... */\ntag_11:\n    /* \"@openzeppelin/contracts/utils/Counters.sol\":892:899  uint256 */\n  0x00\n    /* \"@openzeppelin/contracts/utils/Counters.sol\":918:925  counter */\n  dup2\n    /* \"@openzeppelin/contracts/utils/Counters.sol\":918:932  counter._value */\n  0x00\n  add\n  sload\n    /* \"@openzeppelin/contracts/utils/Counters.sol\":911:932  return counter._value */\n  swap1\n  pop\n    /* \"@openzeppelin/contracts/utils/Counters.sol\":827:939  function current(Counter storage counter) internal view returns (uint256) {... */\n  swap2\n  swap1\n  pop\n  jump\t// out\n    /* \"contracts/User/Poll.sol\":234:2925  contract Poll {... */\ntag_27:\n  dup3\n  dup1\n  sload\n  dup3\n  dup3\n  sstore\n  swap1\n  0x00\n  mstore\n  keccak256(0x00, 0x20)\n  swap1\n  dup2\n  add\n  swap3\n  dup3\n  iszero\n  tag_33\n  jumpi\n  swap2\n  0x20\n  mul\n  dup3\n  add\ntag_34:\n  dup3\n  dup2\n  gt\n  iszero\n  tag_35\n  jumpi\n  dup3\n  mload\n  dup3\n  exp(0x0100, 0x00)\n  dup2\n  sload\n  dup2\n  0xffffffffffffffffffffffffffffffffffffffff\n  mul\n  not\n  and\n  swap1\n  dup4\n  0xffffffffffffffffffffffffffffffffffffffff\n  and\n  mul\n  or\n  swap1\n  sstore\n  pop\n  swap2\n  0x20\n  add\n  swap2\n  swap1\n  0x01\n  add\n  swap1\n  jump(tag_34)\ntag_35:\ntag_33:\n  pop\n  swap1\n  pop\n  tag_36\n  swap2\n  swap1\n  tag_37\n  jump\t// in\ntag_36:\n  pop\n  swap1\n  jump\t// out\ntag_37:\ntag_38:\n  dup1\n  dup3\n  gt\n  iszero\n  tag_39\n  jumpi\n  0x00\n  dup2\n  0x00\n  swap1\n  sstore\n  pop\n  0x01\n  add\n  jump(tag_38)\ntag_39:\n  pop\n  swap1\n  jump\t// out\n    /* \"#utility.yul\":7:106   */\ntag_40:\n    /* \"#utility.yul\":59:65   */\n  0x00\n    /* \"#utility.yul\":93:98   */\n  dup2\n    /* \"#utility.yul\":87:99   */\n  mload\n    /* \"#utility.yul\":77:99   */\n  swap1\n  pop\n    /* \"#utility.yul\":7:106   */\n  swap2\n  swap1\n  pop\n  jump\t// out\n    /* \"#utility.yul\":112:292   */\ntag_22:\n    /* \"#utility.yul\":160:237   */\n  0x4e487b7100000000000000000000000000000000000000000000000000000000\n    /* \"#utility.yul\":157:158   */\n  0x00\n    /* \"#utility.yul\":150:238   */\n  mstore\n    /* \"#utility.yul\":257:261   */\n  0x41\n    /* \"#utility.yul\":254:255   */\n  0x04\n    /* \"#utility.yul\":247:262   */\n  mstore\n    /* \"#utility.yul\":281:285   */\n  0x24\n    /* \"#utility.yul\":278:279   */\n  0x00\n    /* \"#utility.yul\":271:286   */\n  revert\n    /* \"#utility.yul\":298:478   */\ntag_41:\n    /* \"#utility.yul\":346:423   */\n  0x4e487b7100000000000000000000000000000000000000000000000000000000\n    /* \"#utility.yul\":343:344   */\n  0x00\n    /* \"#utility.yul\":336:424   */\n  mstore\n    /* \"#utility.yul\":443:447   */\n  0x22\n    /* \"#utility.yul\":440:441   */\n  0x04\n    /* \"#utility.yul\":433:448   */\n  mstore\n    /* \"#utility.yul\":467:471   */\n  0x24\n    /* \"#utility.yul\":464:465   */\n  0x00\n    /* \"#utility.yul\":457:472   */\n  revert\n    /* \"#utility.yul\":484:804   */\ntag_42:\n    /* \"#utility.yul\":528:534   */\n  0x00\n    /* \"#utility.yul\":565:566   */\n  0x02\n    /* \"#utility.yul\":559:563   */\n  dup3\n    /* \"#utility.yul\":555:567   */\n  div\n    /* \"#utility.yul\":545:567   */\n  swap1\n  pop\n    /* \"#utility.yul\":612:613   */\n  0x01\n    /* \"#utility.yul\":606:610   */\n  dup3\n    /* \"#utility.yul\":602:614   */\n  and\n    /* \"#utility.yul\":633:651   */\n  dup1\n    /* \"#utility.yul\":623:704   */\n  tag_81\n  jumpi\n    /* \"#utility.yul\":689:693   */\n  0x7f\n    /* \"#utility.yul\":681:687   */\n  dup3\n    /* \"#utility.yul\":677:694   */\n  and\n    /* \"#utility.yul\":667:694   */\n  swap2\n  pop\n    /* \"#utility.yul\":623:704   */\ntag_81:\n    /* \"#utility.yul\":751:753   */\n  0x20\n    /* \"#utility.yul\":743:749   */\n  dup3\n    /* \"#utility.yul\":740:754   */\n  lt\n    /* \"#utility.yul\":720:738   */\n  dup2\n    /* \"#utility.yul\":717:755   */\n  sub\n    /* \"#utility.yul\":714:798   */\n  tag_82\n  jumpi\n    /* \"#utility.yul\":770:788   */\n  tag_83\n  tag_41\n  jump\t// in\ntag_83:\n    /* \"#utility.yul\":714:798   */\ntag_82:\n    /* \"#utility.yul\":535:804   */\n  pop\n    /* \"#utility.yul\":484:804   */\n  swap2\n  swap1\n  pop\n  jump\t// out\n    /* \"#utility.yul\":810:951   */\ntag_43:\n    /* \"#utility.yul\":859:863   */\n  0x00\n    /* \"#utility.yul\":882:885   */\n  dup2\n    /* \"#utility.yul\":874:885   */\n  swap1\n  pop\n    /* \"#utility.yul\":905:908   */\n  dup2\n    /* \"#utility.yul\":902:903   */\n  0x00\n    /* \"#utility.yul\":895:909   */\n  mstore\n    /* \"#utility.yul\":939:943   */\n  0x20\n    /* \"#utility.yul\":936:937   */\n  0x00\n    /* \"#utility.yul\":926:944   */\n  keccak256\n    /* \"#utility.yul\":918:944   */\n  swap1\n  pop\n    /* \"#utility.yul\":810:951   */\n  swap2\n  swap1\n  pop\n  jump\t// out\n    /* \"#utility.yul\":957:1050   */\ntag_44:\n    /* \"#utility.yul\":994:1000   */\n  0x00\n    /* \"#utility.yul\":1041:1043   */\n  0x20\n    /* \"#utility.yul\":1036:1038   */\n  0x1f\n    /* \"#utility.yul\":1029:1034   */\n  dup4\n    /* \"#utility.yul\":1025:1039   */\n  add\n    /* \"#utility.yul\":1021:1044   */\n  div\n    /* \"#utility.yul\":1011:1044   */\n  swap1\n  pop\n    /* \"#utility.yul\":957:1050   */\n  swap2\n  swap1\n  pop\n  jump\t// out\n    /* \"#utility.yul\":1056:1163   */\ntag_45:\n    /* \"#utility.yul\":1100:1108   */\n  0x00\n    /* \"#utility.yul\":1150:1155   */\n  dup3\n    /* \"#utility.yul\":1144:1148   */\n  dup3\n    /* \"#utility.yul\":1140:1156   */\n  shl\n    /* \"#utility.yul\":1119:1156   */\n  swap1\n  pop\n    /* \"#utility.yul\":1056:1163   */\n  swap3\n  swap2\n  pop\n  pop\n  jump\t// out\n    /* \"#utility.yul\":1169:1562   */\ntag_46:\n    /* \"#utility.yul\":1238:1244   */\n  0x00\n    /* \"#utility.yul\":1288:1289   */\n  0x08\n    /* \"#utility.yul\":1276:1286   */\n  dup4\n    /* \"#utility.yul\":1272:1290   */\n  mul\n    /* \"#utility.yul\":1311:1408   */\n  tag_88\n    /* \"#utility.yul\":1341:1407   */\n  0xffffffffffffffffffffffffffffffffffffffffffffffffffffffffffffffff\n    /* \"#utility.yul\":1330:1339   */\n  dup3\n    /* \"#utility.yul\":1311:1408   */\n  tag_45\n  jump\t// in\ntag_88:\n    /* \"#utility.yul\":1429:1468   */\n  tag_89\n    /* \"#utility.yul\":1459:1467   */\n  dup7\n    /* \"#utility.yul\":1448:1457   */\n  dup4\n    /* \"#utility.yul\":1429:1468   */\n  tag_45\n  jump\t// in\ntag_89:\n    /* \"#utility.yul\":1417:1468   */\n  swap6\n  pop\n    /* \"#utility.yul\":1501:1505   */\n  dup1\n    /* \"#utility.yul\":1497:1506   */\n  not\n    /* \"#utility.yul\":1490:1495   */\n  dup5\n    /* \"#utility.yul\":1486:1507   */\n  and\n    /* \"#utility.yul\":1477:1507   */\n  swap4\n  pop\n    /* \"#utility.yul\":1550:1554   */\n  dup1\n    /* \"#utility.yul\":1540:1548   */\n  dup7\n    /* \"#utility.yul\":1536:1555   */\n  and\n    /* \"#utility.yul\":1529:1534   */\n  dup5\n    /* \"#utility.yul\":1526:1556   */\n  or\n    /* \"#utility.yul\":1516:1556   */\n  swap3\n  pop\n    /* \"#utility.yul\":1245:1562   */\n  pop\n  pop\n    /* \"#utility.yul\":1169:1562   */\n  swap4\n  swap3\n  pop\n  pop\n  pop\n  jump\t// out\n    /* \"#utility.yul\":1568:1645   */\ntag_47:\n    /* \"#utility.yul\":1605:1612   */\n  0x00\n    /* \"#utility.yul\":1634:1639   */\n  dup2\n    /* \"#utility.yul\":1623:1639   */\n  swap1\n  pop\n    /* \"#utility.yul\":1568:1645   */\n  swap2\n  swap1\n  pop\n  jump\t// out\n    /* \"#utility.yul\":1651:1711   */\ntag_48:\n    /* \"#utility.yul\":1679:1682   */\n  0x00\n    /* \"#utility.yul\":1700:1705   */\n  dup2\n    /* \"#utility.yul\":1693:1705   */\n  swap1\n  pop\n    /* \"#utility.yul\":1651:1711   */\n  swap2\n  swap1\n  pop\n  jump\t// out\n    /* \"#utility.yul\":1717:1859   */\ntag_49:\n    /* \"#utility.yul\":1767:1776   */\n  0x00\n    /* \"#utility.yul\":1800:1853   */\n  tag_93\n    /* \"#utility.yul\":1818:1852   */\n  tag_94\n    /* \"#utility.yul\":1827:1851   */\n  tag_95\n    /* \"#utility.yul\":1845:1850   */\n  dup5\n    /* \"#utility.yul\":1827:1851   */\n  tag_47\n  jump\t// in\ntag_95:\n    /* \"#utility.yul\":1818:1852   */\n  tag_48\n  jump\t// in\ntag_94:\n    /* \"#utility.yul\":1800:1853   */\n  tag_47\n  jump\t// in\ntag_93:\n    /* \"#utility.yul\":1787:1853   */\n  swap1\n  pop\n    /* \"#utility.yul\":1717:1859   */\n  swap2\n  swap1\n  pop\n  jump\t// out\n    /* \"#utility.yul\":1865:1940   */\ntag_50:\n    /* \"#utility.yul\":1908:1911   */\n  0x00\n    /* \"#utility.yul\":1929:1934   */\n  dup2\n    /* \"#utility.yul\":1922:1934   */\n  swap1\n  pop\n    /* \"#utility.yul\":1865:1940   */\n  swap2\n  swap1\n  pop\n  jump\t// out\n    /* \"#utility.yul\":1946:2215   */\ntag_51:\n    /* \"#utility.yul\":2056:2095   */\n  tag_98\n    /* \"#utility.yul\":2087:2094   */\n  dup4\n    /* \"#utility.yul\":2056:2095   */\n  tag_49\n  jump\t// in\ntag_98:\n    /* \"#utility.yul\":2117:2208   */\n  tag_99\n    /* \"#utility.yul\":2166:2207   */\n  tag_100\n    /* \"#utility.yul\":2190:2206   */\n  dup3\n    /* \"#utility.yul\":2166:2207   */\n  tag_50\n  jump\t// in\ntag_100:\n    /* \"#utility.yul\":2158:2164   */\n  dup5\n    /* \"#utility.yul\":2151:2155   */\n  dup5\n    /* \"#utility.yul\":2145:2156   */\n  sload\n    /* \"#utility.yul\":2117:2208   */\n  tag_46\n  jump\t// in\ntag_99:\n    /* \"#utility.yul\":2111:2115   */\n  dup3\n    /* \"#utility.yul\":2104:2209   */\n  sstore\n    /* \"#utility.yul\":2022:2215   */\n  pop\n    /* \"#utility.yul\":1946:2215   */\n  pop\n  pop\n  pop\n  jump\t// out\n    /* \"#utility.yul\":2221:2294   */\ntag_52:\n    /* \"#utility.yul\":2266:2269   */\n  0x00\n    /* \"#utility.yul\":2221:2294   */\n  swap1\n  jump\t// out\n    /* \"#utility.yul\":2300:2489   */\ntag_53:\n    /* \"#utility.yul\":2377:2409   */\n  tag_103\n  tag_52\n  jump\t// in\ntag_103:\n    /* \"#utility.yul\":2418:2483   */\n  tag_104\n    /* \"#utility.yul\":2476:2482   */\n  dup2\n    /* \"#utility.yul\":2468:2474   */\n  dup5\n    /* \"#utility.yul\":2462:2466   */\n  dup5\n    /* \"#utility.yul\":2418:2483   */\n  tag_51\n  jump\t// in\ntag_104:\n    /* \"#utility.yul\":2353:2489   */\n  pop\n    /* \"#utility.yul\":2300:2489   */\n  pop\n  pop\n  jump\t// out\n    /* \"#utility.yul\":2495:2681   */\ntag_54:\n    /* \"#utility.yul\":2555:2675   */\ntag_106:\n    /* \"#utility.yul\":2572:2575   */\n  dup2\n    /* \"#utility.yul\":2565:2570   */\n  dup2\n    /* \"#utility.yul\":2562:2576   */\n  lt\n    /* \"#utility.yul\":2555:2675   */\n  iszero\n  tag_108\n  jumpi\n    /* \"#utility.yul\":2626:2665   */\n  tag_109\n    /* \"#utility.yul\":2663:2664   */\n  0x00\n    /* \"#utility.yul\":2656:2661   */\n  dup3\n    /* \"#utility.yul\":2626:2665   */\n  tag_53\n  jump\t// in\ntag_109:\n    /* \"#utility.yul\":2599:2600   */\n  0x01\n    /* \"#utility.yul\":2592:2597   */\n  dup2\n    /* \"#utility.yul\":2588:2601   */\n  add\n    /* \"#utility.yul\":2579:2601   */\n  swap1\n  pop\n    /* \"#utility.yul\":2555:2675   */\n  jump(tag_106)\ntag_108:\n    /* \"#utility.yul\":2495:2681   */\n  pop\n  pop\n  jump\t// out\n    /* \"#utility.yul\":2687:3230   */\ntag_55:\n    /* \"#utility.yul\":2788:2790   */\n  0x1f\n    /* \"#utility.yul\":2783:2786   */\n  dup3\n    /* \"#utility.yul\":2780:2791   */\n  gt\n    /* \"#utility.yul\":2777:3223   */\n  iszero\n  tag_111\n  jumpi\n    /* \"#utility.yul\":2822:2860   */\n  tag_112\n    /* \"#utility.yul\":2854:2859   */\n  dup2\n    /* \"#utility.yul\":2822:2860   */\n  tag_43\n  jump\t// in\ntag_112:\n    /* \"#utility.yul\":2906:2935   */\n  tag_113\n    /* \"#utility.yul\":2924:2934   */\n  dup5\n    /* \"#utility.yul\":2906:2935   */\n  tag_44\n  jump\t// in\ntag_113:\n    /* \"#utility.yul\":2896:2904   */\n  dup2\n    /* \"#utility.yul\":2892:2936   */\n  add\n    /* \"#utility.yul\":3089:3091   */\n  0x20\n    /* \"#utility.yul\":3077:3087   */\n  dup6\n    /* \"#utility.yul\":3074:3092   */\n  lt\n    /* \"#utility.yul\":3071:3120   */\n  iszero\n  tag_114\n  jumpi\n    /* \"#utility.yul\":3110:3118   */\n  dup2\n    /* \"#utility.yul\":3095:3118   */\n  swap1\n  pop\n    /* \"#utility.yul\":3071:3120   */\ntag_114:\n    /* \"#utility.yul\":3133:3213   */\n  tag_115\n    /* \"#utility.yul\":3189:3211   */\n  tag_116\n    /* \"#utility.yul\":3207:3210   */\n  dup6\n    /* \"#utility.yul\":3189:3211   */\n  tag_44\n  jump\t// in\ntag_116:\n    /* \"#utility.yul\":3179:3187   */\n  dup4\n    /* \"#utility.yul\":3175:3212   */\n  add\n    /* \"#utility.yul\":3162:3173   */\n  dup3\n    /* \"#utility.yul\":3133:3213   */\n  tag_54\n  jump\t// in\ntag_115:\n    /* \"#utility.yul\":2792:3223   */\n  pop\n  pop\n    /* \"#utility.yul\":2777:3223   */\ntag_111:\n    /* \"#utility.yul\":2687:3230   */\n  pop\n  pop\n  pop\n  jump\t// out\n    /* \"#utility.yul\":3236:3353   */\ntag_56:\n    /* \"#utility.yul\":3290:3298   */\n  0x00\n    /* \"#utility.yul\":3340:3345   */\n  dup3\n    /* \"#utility.yul\":3334:3338   */\n  dup3\n    /* \"#utility.yul\":3330:3346   */\n  shr\n    /* \"#utility.yul\":3309:3346   */\n  swap1\n  pop\n    /* \"#utility.yul\":3236:3353   */\n  swap3\n  swap2\n  pop\n  pop\n  jump\t// out\n    /* \"#utility.yul\":3359:3528   */\ntag_57:\n    /* \"#utility.yul\":3403:3409   */\n  0x00\n    /* \"#utility.yul\":3436:3487   */\n  tag_119\n    /* \"#utility.yul\":3484:3485   */\n  0x00\n    /* \"#utility.yul\":3480:3486   */\n  not\n    /* \"#utility.yul\":3472:3477   */\n  dup5\n    /* \"#utility.yul\":3469:3470   */\n  0x08\n    /* \"#utility.yul\":3465:3478   */\n  mul\n    /* \"#utility.yul\":3436:3487   */\n  tag_56\n  jump\t// in\ntag_119:\n    /* \"#utility.yul\":3432:3488   */\n  not\n    /* \"#utility.yul\":3517:3521   */\n  dup1\n    /* \"#utility.yul\":3511:3515   */\n  dup4\n    /* \"#utility.yul\":3507:3522   */\n  and\n    /* \"#utility.yul\":3497:3522   */\n  swap2\n  pop\n    /* \"#utility.yul\":3410:3528   */\n  pop\n    /* \"#utility.yul\":3359:3528   */\n  swap3\n  swap2\n  pop\n  pop\n  jump\t// out\n    /* \"#utility.yul\":3533:3828   */\ntag_58:\n    /* \"#utility.yul\":3609:3613   */\n  0x00\n    /* \"#utility.yul\":3755:3784   */\n  tag_121\n    /* \"#utility.yul\":3780:3783   */\n  dup4\n    /* \"#utility.yul\":3774:3778   */\n  dup4\n    /* \"#utility.yul\":3755:3784   */\n  tag_57\n  jump\t// in\ntag_121:\n    /* \"#utility.yul\":3747:3784   */\n  swap2\n  pop\n    /* \"#utility.yul\":3817:3820   */\n  dup3\n    /* \"#utility.yul\":3814:3815   */\n  0x02\n    /* \"#utility.yul\":3810:3821   */\n  mul\n    /* \"#utility.yul\":3804:3808   */\n  dup3\n    /* \"#utility.yul\":3801:3822   */\n  or\n    /* \"#utility.yul\":3793:3822   */\n  swap1\n  pop\n    /* \"#utility.yul\":3533:3828   */\n  swap3\n  swap2\n  pop\n  pop\n  jump\t// out\n    /* \"#utility.yul\":3833:5228   */\ntag_2:\n    /* \"#utility.yul\":3950:3987   */\n  tag_123\n    /* \"#utility.yul\":3983:3986   */\n  dup3\n    /* \"#utility.yul\":3950:3987   */\n  tag_40\n  jump\t// in\ntag_123:\n    /* \"#utility.yul\":4052:4070   */\n  0xffffffffffffffff\n    /* \"#utility.yul\":4044:4050   */\n  dup2\n    /* \"#utility.yul\":4041:4071   */\n  gt\n    /* \"#utility.yul\":4038:4094   */\n  iszero\n  tag_124\n  jumpi\n    /* \"#utility.yul\":4074:4092   */\n  tag_125\n  tag_22\n  jump\t// in\ntag_125:\n    /* \"#utility.yul\":4038:4094   */\ntag_124:\n    /* \"#utility.yul\":4118:4156   */\n  tag_126\n    /* \"#utility.yul\":4150:4154   */\n  dup3\n    /* \"#utility.yul\":4144:4155   */\n  sload\n    /* \"#utility.yul\":4118:4156   */\n  tag_42\n  jump\t// in\ntag_126:\n    /* \"#utility.yul\":4203:4270   */\n  tag_127\n    /* \"#utility.yul\":4263:4269   */\n  dup3\n    /* \"#utility.yul\":4255:4261   */\n  dup3\n    /* \"#utility.yul\":4249:4253   */\n  dup6\n    /* \"#utility.yul\":4203:4270   */\n  tag_55\n  jump\t// in\ntag_127:\n    /* \"#utility.yul\":4297:4298   */\n  0x00\n    /* \"#utility.yul\":4321:4325   */\n  0x20\n    /* \"#utility.yul\":4308:4325   */\n  swap1\n  pop\n    /* \"#utility.yul\":4353:4355   */\n  0x1f\n    /* \"#utility.yul\":4345:4351   */\n  dup4\n    /* \"#utility.yul\":4342:4356   */\n  gt\n    /* \"#utility.yul\":4370:4371   */\n  0x01\n    /* \"#utility.yul\":4365:4983   */\n  dup2\n  eq\n  tag_129\n  jumpi\n    /* \"#utility.yul\":5027:5028   */\n  0x00\n    /* \"#utility.yul\":5044:5050   */\n  dup5\n    /* \"#utility.yul\":5041:5118   */\n  iszero\n  tag_130\n  jumpi\n    /* \"#utility.yul\":5093:5102   */\n  dup3\n    /* \"#utility.yul\":5088:5091   */\n  dup8\n    /* \"#utility.yul\":5084:5103   */\n  add\n    /* \"#utility.yul\":5078:5104   */\n  mload\n    /* \"#utility.yul\":5069:5104   */\n  swap1\n  pop\n    /* \"#utility.yul\":5041:5118   */\ntag_130:\n    /* \"#utility.yul\":5144:5211   */\n  tag_131\n    /* \"#utility.yul\":5204:5210   */\n  dup6\n    /* \"#utility.yul\":5197:5202   */\n  dup3\n    /* \"#utility.yul\":5144:5211   */\n  tag_58\n  jump\t// in\ntag_131:\n    /* \"#utility.yul\":5138:5142   */\n  dup7\n    /* \"#utility.yul\":5131:5212   */\n  sstore\n    /* \"#utility.yul\":5000:5222   */\n  pop\n    /* \"#utility.yul\":4335:5222   */\n  jump(tag_128)\n    /* \"#utility.yul\":4365:4983   */\ntag_129:\n    /* \"#utility.yul\":4417:4421   */\n  0x1f\n    /* \"#utility.yul\":4413:4422   */\n  not\n    /* \"#utility.yul\":4405:4411   */\n  dup5\n    /* \"#utility.yul\":4401:4423   */\n  and\n    /* \"#utility.yul\":4451:4488   */\n  tag_132\n    /* \"#utility.yul\":4483:4487   */\n  dup7\n    /* \"#utility.yul\":4451:4488   */\n  tag_43\n  jump\t// in\ntag_132:\n    /* \"#utility.yul\":4510:4511   */\n  0x00\n    /* \"#utility.yul\":4524:4732   */\ntag_133:\n    /* \"#utility.yul\":4538:4545   */\n  dup3\n    /* \"#utility.yul\":4535:4536   */\n  dup2\n    /* \"#utility.yul\":4532:4546   */\n  lt\n    /* \"#utility.yul\":4524:4732   */\n  iszero\n  tag_135\n  jumpi\n    /* \"#utility.yul\":4617:4626   */\n  dup5\n    /* \"#utility.yul\":4612:4615   */\n  dup10\n    /* \"#utility.yul\":4608:4627   */\n  add\n    /* \"#utility.yul\":4602:4628   */\n  mload\n    /* \"#utility.yul\":4594:4600   */\n  dup3\n    /* \"#utility.yul\":4587:4629   */\n  sstore\n    /* \"#utility.yul\":4668:4669   */\n  0x01\n    /* \"#utility.yul\":4660:4666   */\n  dup3\n    /* \"#utility.yul\":4656:4670   */\n  add\n    /* \"#utility.yul\":4646:4670   */\n  swap2\n  pop\n    /* \"#utility.yul\":4715:4717   */\n  0x20\n    /* \"#utility.yul\":4704:4713   */\n  dup6\n    /* \"#utility.yul\":4700:4718   */\n  add\n    /* \"#utility.yul\":4687:4718   */\n  swap5\n  pop\n    /* \"#utility.yul\":4561:4565   */\n  0x20\n    /* \"#utility.yul\":4558:4559   */\n  dup2\n    /* \"#utility.yul\":4554:4566   */\n  add\n    /* \"#utility.yul\":4549:4566   */\n  swap1\n  pop\n    /* \"#utility.yul\":4524:4732   */\n  jump(tag_133)\ntag_135:\n    /* \"#utility.yul\":4760:4766   */\n  dup7\n    /* \"#utility.yul\":4751:4758   */\n  dup4\n    /* \"#utility.yul\":4748:4767   */\n  lt\n    /* \"#utility.yul\":4745:4924   */\n  iszero\n  tag_136\n  jumpi\n    /* \"#utility.yul\":4818:4827   */\n  dup5\n    /* \"#utility.yul\":4813:4816   */\n  dup10\n    /* \"#utility.yul\":4809:4828   */\n  add\n    /* \"#utility.yul\":4803:4829   */\n  mload\n    /* \"#utility.yul\":4861:4909   */\n  tag_137\n    /* \"#utility.yul\":4903:4907   */\n  0x1f\n    /* \"#utility.yul\":4895:4901   */\n  dup10\n    /* \"#utility.yul\":4891:4908   */\n  and\n    /* \"#utility.yul\":4880:4889   */\n  dup3\n    /* \"#utility.yul\":4861:4909   */\n  tag_57\n  jump\t// in\ntag_137:\n    /* \"#utility.yul\":4853:4859   */\n  dup4\n    /* \"#utility.yul\":4846:4910   */\n  sstore\n    /* \"#utility.yul\":4768:4924   */\n  pop\n    /* \"#utility.yul\":4745:4924   */\ntag_136:\n    /* \"#utility.yul\":4970:4971   */\n  0x01\n    /* \"#utility.yul\":4966:4967   */\n  0x02\n    /* \"#utility.yul\":4958:4964   */\n  dup9\n    /* \"#utility.yul\":4954:4968   */\n  mul\n    /* \"#utility.yul\":4950:4972   */\n  add\n    /* \"#utility.yul\":4944:4948   */\n  dup9\n    /* \"#utility.yul\":4937:4973   */\n  sstore\n    /* \"#utility.yul\":4372:4983   */\n  pop\n  pop\n  pop\n    /* \"#utility.yul\":4335:5222   */\ntag_128:\n  pop\n    /* \"#utility.yul\":3925:5228   */\n  pop\n  pop\n  pop\n    /* \"#utility.yul\":3833:5228   */\n  pop\n  pop\n  jump\t// out\n    /* \"#utility.yul\":5234:5309   */\ntag_59:\n    /* \"#utility.yul\":5267:5273   */\n  0x00\n    /* \"#utility.yul\":5300:5302   */\n  0x40\n    /* \"#utility.yul\":5294:5303   */\n  mload\n    /* \"#utility.yul\":5284:5303   */\n  swap1\n  pop\n    /* \"#utility.yul\":5234:5309   */\n  swap1\n  jump\t// out\n    /* \"#utility.yul\":5315:5432   */\ntag_60:\n    /* \"#utility.yul\":5424:5425   */\n  0x00\n    /* \"#utility.yul\":5421:5422   */\n  dup1\n    /* \"#utility.yul\":5414:5426   */\n  revert\n    /* \"#utility.yul\":5438:5555   */\ntag_61:\n    /* \"#utility.yul\":5547:5548   */\n  0x00\n    /* \"#utility.yul\":5544:5545   */\n  dup1\n    /* \"#utility.yul\":5537:5549   */\n  revert\n    /* \"#utility.yul\":5561:5678   */\ntag_62:\n    /* \"#utility.yul\":5670:5671   */\n  0x00\n    /* \"#utility.yul\":5667:5668   */\n  dup1\n    /* \"#utility.yul\":5660:5672   */\n  revert\n    /* \"#utility.yul\":5684:5801   */\ntag_63:\n    /* \"#utility.yul\":5793:5794   */\n  0x00\n    /* \"#utility.yul\":5790:5791   */\n  dup1\n    /* \"#utility.yul\":5783:5795   */\n  revert\n    /* \"#utility.yul\":5807:5909   */\ntag_64:\n    /* \"#utility.yul\":5848:5854   */\n  0x00\n    /* \"#utility.yul\":5899:5901   */\n  0x1f\n    /* \"#utility.yul\":5895:5902   */\n  not\n    /* \"#utility.yul\":5890:5892   */\n  0x1f\n    /* \"#utility.yul\":5883:5888   */\n  dup4\n    /* \"#utility.yul\":5879:5893   */\n  add\n    /* \"#utility.yul\":5875:5903   */\n  and\n    /* \"#utility.yul\":5865:5903   */\n  swap1\n  pop\n    /* \"#utility.yul\":5807:5909   */\n  swap2\n  swap1\n  pop\n  jump\t// out\n    /* \"#utility.yul\":5915:6196   */\ntag_65:\n    /* \"#utility.yul\":5998:6025   */\n  tag_145\n    /* \"#utility.yul\":6020:6024   */\n  dup3\n    /* \"#utility.yul\":5998:6025   */\n  tag_64\n  jump\t// in\ntag_145:\n    /* \"#utility.yul\":5990:5996   */\n  dup2\n    /* \"#utility.yul\":5986:6026   */\n  add\n    /* \"#utility.yul\":6128:6134   */\n  dup2\n    /* \"#utility.yul\":6116:6126   */\n  dup2\n    /* \"#utility.yul\":6113:6135   */\n  lt\n    /* \"#utility.yul\":6092:6110   */\n  0xffffffffffffffff\n    /* \"#utility.yul\":6080:6090   */\n  dup3\n    /* \"#utility.yul\":6077:6111   */\n  gt\n    /* \"#utility.yul\":6074:6136   */\n  or\n    /* \"#utility.yul\":6071:6159   */\n  iszero\n  tag_146\n  jumpi\n    /* \"#utility.yul\":6139:6157   */\n  tag_147\n  tag_22\n  jump\t// in\ntag_147:\n    /* \"#utility.yul\":6071:6159   */\ntag_146:\n    /* \"#utility.yul\":6179:6189   */\n  dup1\n    /* \"#utility.yul\":6175:6177   */\n  0x40\n    /* \"#utility.yul\":6168:6190   */\n  mstore\n    /* \"#utility.yul\":5958:6196   */\n  pop\n    /* \"#utility.yul\":5915:6196   */\n  pop\n  pop\n  jump\t// out\n    /* \"#utility.yul\":6202:6331   */\ntag_66:\n    /* \"#utility.yul\":6236:6242   */\n  0x00\n    /* \"#utility.yul\":6263:6283   */\n  tag_149\n  tag_59\n  jump\t// in\ntag_149:\n    /* \"#utility.yul\":6253:6283   */\n  swap1\n  pop\n    /* \"#utility.yul\":6292:6325   */\n  tag_150\n    /* \"#utility.yul\":6320:6324   */\n  dup3\n    /* \"#utility.yul\":6312:6318   */\n  dup3\n    /* \"#utility.yul\":6292:6325   */\n  tag_65\n  jump\t// in\ntag_150:\n    /* \"#utility.yul\":6202:6331   */\n  swap2\n  swap1\n  pop\n  jump\t// out\n    /* \"#utility.yul\":6337:6645   */\ntag_67:\n    /* \"#utility.yul\":6399:6403   */\n  0x00\n    /* \"#utility.yul\":6489:6507   */\n  0xffffffffffffffff\n    /* \"#utility.yul\":6481:6487   */\n  dup3\n    /* \"#utility.yul\":6478:6508   */\n  gt\n    /* \"#utility.yul\":6475:6531   */\n  iszero\n  tag_152\n  jumpi\n    /* \"#utility.yul\":6511:6529   */\n  tag_153\n  tag_22\n  jump\t// in\ntag_153:\n    /* \"#utility.yul\":6475:6531   */\ntag_152:\n    /* \"#utility.yul\":6549:6578   */\n  tag_154\n    /* \"#utility.yul\":6571:6577   */\n  dup3\n    /* \"#utility.yul\":6549:6578   */\n  tag_64\n  jump\t// in\ntag_154:\n    /* \"#utility.yul\":6541:6578   */\n  swap1\n  pop\n    /* \"#utility.yul\":6633:6637   */\n  0x20\n    /* \"#utility.yul\":6627:6631   */\n  dup2\n    /* \"#utility.yul\":6623:6638   */\n  add\n    /* \"#utility.yul\":6615:6638   */\n  swap1\n  pop\n    /* \"#utility.yul\":6337:6645   */\n  swap2\n  swap1\n  pop\n  jump\t// out\n    /* \"#utility.yul\":6651:6897   */\ntag_68:\n    /* \"#utility.yul\":6732:6733   */\n  0x00\n    /* \"#utility.yul\":6742:6855   */\ntag_156:\n    /* \"#utility.yul\":6756:6762   */\n  dup4\n    /* \"#utility.yul\":6753:6754   */\n  dup2\n    /* \"#utility.yul\":6750:6763   */\n  lt\n    /* \"#utility.yul\":6742:6855   */\n  iszero\n  tag_158\n  jumpi\n    /* \"#utility.yul\":6841:6842   */\n  dup1\n    /* \"#utility.yul\":6836:6839   */\n  dup3\n    /* \"#utility.yul\":6832:6843   */\n  add\n    /* \"#utility.yul\":6826:6844   */\n  mload\n    /* \"#utility.yul\":6822:6823   */\n  dup2\n    /* \"#utility.yul\":6817:6820   */\n  dup5\n    /* \"#utility.yul\":6813:6824   */\n  add\n    /* \"#utility.yul\":6806:6845   */\n  mstore\n    /* \"#utility.yul\":6778:6780   */\n  0x20\n    /* \"#utility.yul\":6775:6776   */\n  dup2\n    /* \"#utility.yul\":6771:6781   */\n  add\n    /* \"#utility.yul\":6766:6781   */\n  swap1\n  pop\n    /* \"#utility.yul\":6742:6855   */\n  jump(tag_156)\ntag_158:\n    /* \"#utility.yul\":6889:6890   */\n  0x00\n    /* \"#utility.yul\":6880:6886   */\n  dup5\n    /* \"#utility.yul\":6875:6878   */\n  dup5\n    /* \"#utility.yul\":6871:6887   */\n  add\n    /* \"#utility.yul\":6864:6891   */\n  mstore\n    /* \"#utility.yul\":6713:6897   */\n  pop\n    /* \"#utility.yul\":6651:6897   */\n  pop\n  pop\n  pop\n  jump\t// out\n    /* \"#utility.yul\":6903:7337   */\ntag_69:\n    /* \"#utility.yul\":6992:6997   */\n  0x00\n    /* \"#utility.yul\":7017:7083   */\n  tag_160\n    /* \"#utility.yul\":7033:7082   */\n  tag_161\n    /* \"#utility.yul\":7075:7081   */\n  dup5\n    /* \"#utility.yul\":7033:7082   */\n  tag_67\n  jump\t// in\ntag_161:\n    /* \"#utility.yul\":7017:7083   */\n  tag_66\n  jump\t// in\ntag_160:\n    /* \"#utility.yul\":7008:7083   */\n  swap1\n  pop\n    /* \"#utility.yul\":7106:7112   */\n  dup3\n    /* \"#utility.yul\":7099:7104   */\n  dup2\n    /* \"#utility.yul\":7092:7113   */\n  mstore\n    /* \"#utility.yul\":7144:7148   */\n  0x20\n    /* \"#utility.yul\":7137:7142   */\n  dup2\n    /* \"#utility.yul\":7133:7149   */\n  add\n    /* \"#utility.yul\":7182:7185   */\n  dup5\n    /* \"#utility.yul\":7173:7179   */\n  dup5\n    /* \"#utility.yul\":7168:7171   */\n  dup5\n    /* \"#utility.yul\":7164:7180   */\n  add\n    /* \"#utility.yul\":7161:7186   */\n  gt\n    /* \"#utility.yul\":7158:7270   */\n  iszero\n  tag_162\n  jumpi\n    /* \"#utility.yul\":7189:7268   */\n  tag_163\n  tag_63\n  jump\t// in\ntag_163:\n    /* \"#utility.yul\":7158:7270   */\ntag_162:\n    /* \"#utility.yul\":7279:7331   */\n  tag_164\n    /* \"#utility.yul\":7324:7330   */\n  dup5\n    /* \"#utility.yul\":7319:7322   */\n  dup3\n    /* \"#utility.yul\":7314:7317   */\n  dup6\n    /* \"#utility.yul\":7279:7331   */\n  tag_68\n  jump\t// in\ntag_164:\n    /* \"#utility.yul\":6998:7337   */\n  pop\n    /* \"#utility.yul\":6903:7337   */\n  swap4\n  swap3\n  pop\n  pop\n  pop\n  jump\t// out\n    /* \"#utility.yul\":7357:7712   */\ntag_70:\n    /* \"#utility.yul\":7424:7429   */\n  0x00\n    /* \"#utility.yul\":7473:7476   */\n  dup3\n    /* \"#utility.yul\":7466:7470   */\n  0x1f\n    /* \"#utility.yul\":7458:7464   */\n  dup4\n    /* \"#utility.yul\":7454:7471   */\n  add\n    /* \"#utility.yul\":7450:7477   */\n  slt\n    /* \"#utility.yul\":7440:7562   */\n  tag_166\n  jumpi\n    /* \"#utility.yul\":7481:7560   */\n  tag_167\n  tag_62\n  jump\t// in\ntag_167:\n    /* \"#utility.yul\":7440:7562   */\ntag_166:\n    /* \"#utility.yul\":7591:7597   */\n  dup2\n    /* \"#utility.yul\":7585:7598   */\n  mload\n    /* \"#utility.yul\":7616:7706   */\n  tag_168\n    /* \"#utility.yul\":7702:7705   */\n  dup5\n    /* \"#utility.yul\":7694:7700   */\n  dup3\n    /* \"#utility.yul\":7687:7691   */\n  0x20\n    /* \"#utility.yul\":7679:7685   */\n  dup7\n    /* \"#utility.yul\":7675:7692   */\n  add\n    /* \"#utility.yul\":7616:7706   */\n  tag_69\n  jump\t// in\ntag_168:\n    /* \"#utility.yul\":7607:7706   */\n  swap2\n  pop\n    /* \"#utility.yul\":7430:7712   */\n  pop\n    /* \"#utility.yul\":7357:7712   */\n  swap3\n  swap2\n  pop\n  pop\n  jump\t// out\n    /* \"#utility.yul\":7718:8039   */\ntag_71:\n    /* \"#utility.yul\":7805:7809   */\n  0x00\n    /* \"#utility.yul\":7895:7913   */\n  0xffffffffffffffff\n    /* \"#utility.yul\":7887:7893   */\n  dup3\n    /* \"#utility.yul\":7884:7914   */\n  gt\n    /* \"#utility.yul\":7881:7937   */\n  iszero\n  tag_170\n  jumpi\n    /* \"#utility.yul\":7917:7935   */\n  tag_171\n  tag_22\n  jump\t// in\ntag_171:\n    /* \"#utility.yul\":7881:7937   */\ntag_170:\n    /* \"#utility.yul\":7967:7971   */\n  0x20\n    /* \"#utility.yul\":7959:7965   */\n  dup3\n    /* \"#utility.yul\":7955:7972   */\n  mul\n    /* \"#utility.yul\":7947:7972   */\n  swap1\n  pop\n    /* \"#utility.yul\":8027:8031   */\n  0x20\n    /* \"#utility.yul\":8021:8025   */\n  dup2\n    /* \"#utility.yul\":8017:8032   */\n  add\n    /* \"#utility.yul\":8009:8032   */\n  swap1\n  pop\n    /* \"#utility.yul\":7718:8039   */\n  swap2\n  swap1\n  pop\n  jump\t// out\n    /* \"#utility.yul\":8045:8162   */\ntag_72:\n    /* \"#utility.yul\":8154:8155   */\n  0x00\n    /* \"#utility.yul\":8151:8152   */\n  dup1\n    /* \"#utility.yul\":8144:8156   */\n  revert\n    /* \"#utility.yul\":8184:9144   */\ntag_73:\n    /* \"#utility.yul\":8301:8306   */\n  0x00\n    /* \"#utility.yul\":8326:8417   */\n  tag_174\n    /* \"#utility.yul\":8342:8416   */\n  tag_175\n    /* \"#utility.yul\":8409:8415   */\n  dup5\n    /* \"#utility.yul\":8342:8416   */\n  tag_71\n  jump\t// in\ntag_175:\n    /* \"#utility.yul\":8326:8417   */\n  tag_66\n  jump\t// in\ntag_174:\n    /* \"#utility.yul\":8317:8417   */\n  swap1\n  pop\n    /* \"#utility.yul\":8437:8442   */\n  dup1\n    /* \"#utility.yul\":8466:8472   */\n  dup4\n    /* \"#utility.yul\":8459:8464   */\n  dup3\n    /* \"#utility.yul\":8452:8473   */\n  mstore\n    /* \"#utility.yul\":8500:8504   */\n  0x20\n    /* \"#utility.yul\":8493:8498   */\n  dup3\n    /* \"#utility.yul\":8489:8505   */\n  add\n    /* \"#utility.yul\":8482:8505   */\n  swap1\n  pop\n    /* \"#utility.yul\":8553:8557   */\n  0x20\n    /* \"#utility.yul\":8545:8551   */\n  dup5\n    /* \"#utility.yul\":8541:8558   */\n  mul\n    /* \"#utility.yul\":8533:8539   */\n  dup4\n    /* \"#utility.yul\":8529:8559   */\n  add\n    /* \"#utility.yul\":8582:8585   */\n  dup6\n    /* \"#utility.yul\":8574:8580   */\n  dup2\n    /* \"#utility.yul\":8571:8586   */\n  gt\n    /* \"#utility.yul\":8568:8690   */\n  iszero\n  tag_176\n  jumpi\n    /* \"#utility.yul\":8601:8680   */\n  tag_177\n  tag_72\n  jump\t// in\ntag_177:\n    /* \"#utility.yul\":8568:8690   */\ntag_176:\n    /* \"#utility.yul\":8716:8722   */\n  dup4\n    /* \"#utility.yul\":8699:9138   */\ntag_178:\n    /* \"#utility.yul\":8733:8739   */\n  dup2\n    /* \"#utility.yul\":8728:8731   */\n  dup2\n    /* \"#utility.yul\":8725:8740   */\n  lt\n    /* \"#utility.yul\":8699:9138   */\n  iszero\n  tag_180\n  jumpi\n    /* \"#utility.yul\":8815:8818   */\n  dup1\n    /* \"#utility.yul\":8809:8819   */\n  mload\n    /* \"#utility.yul\":8851:8869   */\n  0xffffffffffffffff\n    /* \"#utility.yul\":8838:8849   */\n  dup2\n    /* \"#utility.yul\":8835:8870   */\n  gt\n    /* \"#utility.yul\":8832:8954   */\n  iszero\n  tag_181\n  jumpi\n    /* \"#utility.yul\":8873:8952   */\n  tag_182\n  tag_62\n  jump\t// in\ntag_182:\n    /* \"#utility.yul\":8832:8954   */\ntag_181:\n    /* \"#utility.yul\":8997:9008   */\n  dup1\n    /* \"#utility.yul\":8989:8995   */\n  dup7\n    /* \"#utility.yul\":8985:9009   */\n  add\n    /* \"#utility.yul\":9035:9093   */\n  tag_183\n    /* \"#utility.yul\":9089:9092   */\n  dup10\n    /* \"#utility.yul\":9077:9087   */\n  dup3\n    /* \"#utility.yul\":9035:9093   */\n  tag_70\n  jump\t// in\ntag_183:\n    /* \"#utility.yul\":9030:9033   */\n  dup6\n    /* \"#utility.yul\":9023:9094   */\n  mstore\n    /* \"#utility.yul\":9123:9127   */\n  0x20\n    /* \"#utility.yul\":9118:9121   */\n  dup6\n    /* \"#utility.yul\":9114:9128   */\n  add\n    /* \"#utility.yul\":9107:9128   */\n  swap5\n  pop\n    /* \"#utility.yul\":8775:9138   */\n  pop\n  pop\n    /* \"#utility.yul\":8759:8763   */\n  0x20\n    /* \"#utility.yul\":8754:8757   */\n  dup2\n    /* \"#utility.yul\":8750:8764   */\n  add\n    /* \"#utility.yul\":8743:8764   */\n  swap1\n  pop\n    /* \"#utility.yul\":8699:9138   */\n  jump(tag_178)\ntag_180:\n    /* \"#utility.yul\":8703:8724   */\n  pop\n    /* \"#utility.yul\":8307:9144   */\n  pop\n  pop\n    /* \"#utility.yul\":8184:9144   */\n  swap4\n  swap3\n  pop\n  pop\n  pop\n  jump\t// out\n    /* \"#utility.yul\":9166:9571   */\ntag_74:\n    /* \"#utility.yul\":9258:9263   */\n  0x00\n    /* \"#utility.yul\":9307:9310   */\n  dup3\n    /* \"#utility.yul\":9300:9304   */\n  0x1f\n    /* \"#utility.yul\":9292:9298   */\n  dup4\n    /* \"#utility.yul\":9288:9305   */\n  add\n    /* \"#utility.yul\":9284:9311   */\n  slt\n    /* \"#utility.yul\":9274:9396   */\n  tag_185\n  jumpi\n    /* \"#utility.yul\":9315:9394   */\n  tag_186\n  tag_62\n  jump\t// in\ntag_186:\n    /* \"#utility.yul\":9274:9396   */\ntag_185:\n    /* \"#utility.yul\":9425:9431   */\n  dup2\n    /* \"#utility.yul\":9419:9432   */\n  mload\n    /* \"#utility.yul\":9450:9565   */\n  tag_187\n    /* \"#utility.yul\":9561:9564   */\n  dup5\n    /* \"#utility.yul\":9553:9559   */\n  dup3\n    /* \"#utility.yul\":9546:9550   */\n  0x20\n    /* \"#utility.yul\":9538:9544   */\n  dup7\n    /* \"#utility.yul\":9534:9551   */\n  add\n    /* \"#utility.yul\":9450:9565   */\n  tag_73\n  jump\t// in\ntag_187:\n    /* \"#utility.yul\":9441:9565   */\n  swap2\n  pop\n    /* \"#utility.yul\":9264:9571   */\n  pop\n    /* \"#utility.yul\":9166:9571   */\n  swap3\n  swap2\n  pop\n  pop\n  jump\t// out\n    /* \"#utility.yul\":9577:10809   */\ntag_5:\n    /* \"#utility.yul\":9720:9726   */\n  0x00\n    /* \"#utility.yul\":9728:9734   */\n  dup1\n    /* \"#utility.yul\":9736:9742   */\n  0x00\n    /* \"#utility.yul\":9785:9787   */\n  0x60\n    /* \"#utility.yul\":9773:9782   */\n  dup5\n    /* \"#utility.yul\":9764:9771   */\n  dup7\n    /* \"#utility.yul\":9760:9783   */\n  sub\n    /* \"#utility.yul\":9756:9788   */\n  slt\n    /* \"#utility.yul\":9753:9872   */\n  iszero\n  tag_189\n  jumpi\n    /* \"#utility.yul\":9791:9870   */\n  tag_190\n  tag_60\n  jump\t// in\ntag_190:\n    /* \"#utility.yul\":9753:9872   */\ntag_189:\n    /* \"#utility.yul\":9932:9933   */\n  0x00\n    /* \"#utility.yul\":9921:9930   */\n  dup5\n    /* \"#utility.yul\":9917:9934   */\n  add\n    /* \"#utility.yul\":9911:9935   */\n  mload\n    /* \"#utility.yul\":9962:9980   */\n  0xffffffffffffffff\n    /* \"#utility.yul\":9954:9960   */\n  dup2\n    /* \"#utility.yul\":9951:9981   */\n  gt\n    /* \"#utility.yul\":9948:10065   */\n  iszero\n  tag_191\n  jumpi\n    /* \"#utility.yul\":9984:10063   */\n  tag_192\n  tag_61\n  jump\t// in\ntag_192:\n    /* \"#utility.yul\":9948:10065   */\ntag_191:\n    /* \"#utility.yul\":10089:10163   */\n  tag_193\n    /* \"#utility.yul\":10155:10162   */\n  dup7\n    /* \"#utility.yul\":10146:10152   */\n  dup3\n    /* \"#utility.yul\":10135:10144   */\n  dup8\n    /* \"#utility.yul\":10131:10153   */\n  add\n    /* \"#utility.yul\":10089:10163   */\n  tag_70\n  jump\t// in\ntag_193:\n    /* \"#utility.yul\":10079:10163   */\n  swap4\n  pop\n    /* \"#utility.yul\":9882:10173   */\n  pop\n    /* \"#utility.yul\":10233:10235   */\n  0x20\n    /* \"#utility.yul\":10222:10231   */\n  dup5\n    /* \"#utility.yul\":10218:10236   */\n  add\n    /* \"#utility.yul\":10212:10237   */\n  mload\n    /* \"#utility.yul\":10264:10282   */\n  0xffffffffffffffff\n    /* \"#utility.yul\":10256:10262   */\n  dup2\n    /* \"#utility.yul\":10253:10283   */\n  gt\n    /* \"#utility.yul\":10250:10367   */\n  iszero\n  tag_194\n  jumpi\n    /* \"#utility.yul\":10286:10365   */\n  tag_195\n  tag_61\n  jump\t// in\ntag_195:\n    /* \"#utility.yul\":10250:10367   */\ntag_194:\n    /* \"#utility.yul\":10391:10465   */\n  tag_196\n    /* \"#utility.yul\":10457:10464   */\n  dup7\n    /* \"#utility.yul\":10448:10454   */\n  dup3\n    /* \"#utility.yul\":10437:10446   */\n  dup8\n    /* \"#utility.yul\":10433:10455   */\n  add\n    /* \"#utility.yul\":10391:10465   */\n  tag_70\n  jump\t// in\ntag_196:\n    /* \"#utility.yul\":10381:10465   */\n  swap3\n  pop\n    /* \"#utility.yul\":10183:10475   */\n  pop\n    /* \"#utility.yul\":10535:10537   */\n  0x40\n    /* \"#utility.yul\":10524:10533   */\n  dup5\n    /* \"#utility.yul\":10520:10538   */\n  add\n    /* \"#utility.yul\":10514:10539   */\n  mload\n    /* \"#utility.yul\":10566:10584   */\n  0xffffffffffffffff\n    /* \"#utility.yul\":10558:10564   */\n  dup2\n    /* \"#utility.yul\":10555:10585   */\n  gt\n    /* \"#utility.yul\":10552:10669   */\n  iszero\n  tag_197\n  jumpi\n    /* \"#utility.yul\":10588:10667   */\n  tag_198\n  tag_61\n  jump\t// in\ntag_198:\n    /* \"#utility.yul\":10552:10669   */\ntag_197:\n    /* \"#utility.yul\":10693:10792   */\n  tag_199\n    /* \"#utility.yul\":10784:10791   */\n  dup7\n    /* \"#utility.yul\":10775:10781   */\n  dup3\n    /* \"#utility.yul\":10764:10773   */\n  dup8\n    /* \"#utility.yul\":10760:10782   */\n  add\n    /* \"#utility.yul\":10693:10792   */\n  tag_74\n  jump\t// in\ntag_199:\n    /* \"#utility.yul\":10683:10792   */\n  swap2\n  pop\n    /* \"#utility.yul\":10485:10802   */\n  pop\n    /* \"#utility.yul\":9577:10809   */\n  swap3\n  pop\n  swap3\n  pop\n  swap3\n  jump\t// out\n    /* \"#utility.yul\":10815:10995   */\ntag_19:\n    /* \"#utility.yul\":10863:10940   */\n  0x4e487b7100000000000000000000000000000000000000000000000000000000\n    /* \"#utility.yul\":10860:10861   */\n  0x00\n    /* \"#utility.yul\":10853:10941   */\n  mstore\n    /* \"#utility.yul\":10960:10964   */\n  0x32\n    /* \"#utility.yul\":10957:10958   */\n  0x04\n    /* \"#utility.yul\":10950:10965   */\n  mstore\n    /* \"#utility.yul\":10984:10988   */\n  0x24\n    /* \"#utility.yul\":10981:10982   */\n  0x00\n    /* \"#utility.yul\":10974:10989   */\n  revert\n    /* \"#utility.yul\":11001:11181   */\ntag_75:\n    /* \"#utility.yul\":11049:11126   */\n  0x4e487b7100000000000000000000000000000000000000000000000000000000\n    /* \"#utility.yul\":11046:11047   */\n  0x00\n    /* \"#utility.yul\":11039:11127   */\n  mstore\n    /* \"#utility.yul\":11146:11150   */\n  0x11\n    /* \"#utility.yul\":11143:11144   */\n  0x04\n    /* \"#utility.yul\":11136:11151   */\n  mstore\n    /* \"#utility.yul\":11170:11174   */\n  0x24\n    /* \"#utility.yul\":11167:11168   */\n  0x00\n    /* \"#utility.yul\":11160:11175   */\n  revert\n    /* \"#utility.yul\":11187:11420   */\ntag_29:\n    /* \"#utility.yul\":11226:11229   */\n  0x00\n    /* \"#utility.yul\":11249:11273   */\n  tag_203\n    /* \"#utility.yul\":11267:11272   */\n  dup3\n    /* \"#utility.yul\":11249:11273   */\n  tag_47\n  jump\t// in\ntag_203:\n    /* \"#utility.yul\":11240:11273   */\n  swap2\n  pop\n    /* \"#utility.yul\":11295:11361   */\n  0xffffffffffffffffffffffffffffffffffffffffffffffffffffffffffffffff\n    /* \"#utility.yul\":11288:11293   */\n  dup3\n    /* \"#utility.yul\":11285:11362   */\n  sub\n    /* \"#utility.yul\":11282:11385   */\n  tag_204\n  jumpi\n    /* \"#utility.yul\":11365:11383   */\n  tag_205\n  tag_75\n  jump\t// in\ntag_205:\n    /* \"#utility.yul\":11282:11385   */\ntag_204:\n    /* \"#utility.yul\":11412:11413   */\n  0x01\n    /* \"#utility.yul\":11405:11410   */\n  dup3\n    /* \"#utility.yul\":11401:11414   */\n  add\n    /* \"#utility.yul\":11394:11414   */\n  swap1\n  pop\n    /* \"#utility.yul\":11187:11420   */\n  swap2\n  swap1\n  pop\n  jump\t// out\n    /* \"contracts/User/Poll.sol\":234:2925  contract Poll {... */\ntag_30:\n  dataSize(sub_0)\n  dup1\n  dataOffset(sub_0)\n  0x00\n  codecopy\n  0x00\n  return\nstop\n\nsub_0: assembly {\n        /* \"contracts/User/Poll.sol\":234:2925  contract Poll {... */\n      mstore(0x40, 0x80)\n      callvalue\n      dup1\n      iszero\n      tag_1\n      jumpi\n      0x00\n      dup1\n      revert\n    tag_1:\n      pop\n      jumpi(tag_2, lt(calldatasize, 0x04))\n      shr(0xe0, calldataload(0x00))\n      dup1\n      0x8a4d5a67\n      gt\n      tag_22\n      jumpi\n      dup1\n      0xa523b88a\n      gt\n      tag_23\n      jumpi\n      dup1\n      0xa523b88a\n      eq\n      tag_17\n      jumpi\n      dup1\n      0xaf640d0f\n      eq\n      tag_18\n      jumpi\n      dup1\n      0xb80777ea\n      eq\n      tag_19\n      jumpi\n      dup1\n      0xdf5a11e1\n      eq\n      tag_20\n      jumpi\n      dup1\n      0xf6821a0c\n      eq\n      tag_21\n      jumpi\n      jump(tag_2)\n    tag_23:\n      dup1\n      0x8a4d5a67\n      eq\n      tag_12\n      jumpi\n      dup1\n      0x8da5cb5b\n      eq\n      tag_13\n      jumpi\n      dup1\n      0x8ebb4c15\n      eq\n      tag_14\n      jumpi\n      dup1\n      0x91f3410c\n      eq\n      tag_15\n      jumpi\n      dup1\n      0x99f71a7d\n      eq\n      tag_16\n      jumpi\n      jump(tag_2)\n    tag_22:\n      dup1\n      0x62a1c583\n      gt\n      tag_24\n      jumpi\n      dup1\n      0x62a1c583\n      eq\n      tag_7\n      jumpi\n      dup1\n      0x6e0d3da7\n      eq\n      tag_8\n      jumpi\n      dup1\n      0x7e9dffe6\n      eq\n      tag_9\n      jumpi\n      dup1\n      0x843b4386\n      eq\n      tag_10\n      jumpi\n      dup1\n      0x86b646f2\n      eq\n      tag_11\n      jumpi\n      jump(tag_2)\n    tag_24:\n      dup1\n      0x0121b93f\n      eq\n      tag_3\n      jumpi\n      dup1\n      0x03c32278\n      eq\n      tag_4\n      jumpi\n      dup1\n      0x4db27e4e\n      eq\n      tag_5\n      jumpi\n      dup1\n      0x507f73ab\n      eq\n      tag_6\n      jumpi\n    tag_2:\n      0x00\n      dup1\n      revert\n        /* \"contracts/User/Poll.sol\":1581:1677  function vote(uint _choice) public {... */\n    tag_3:\n      tag_25\n      0x04\n      dup1\n      calldatasize\n      sub\n      dup2\n      add\n      swap1\n      tag_26\n      swap2\n      swap1\n      tag_27\n      jump\t// in\n    tag_26:\n      tag_28\n      jump\t// in\n    tag_25:\n      stop\n        /* \"contracts/User/Poll.sol\":2414:2923  function getPoll()... */\n    tag_4:\n      tag_29\n      tag_30\n      jump\t// in\n    tag_29:\n      mload(0x40)\n      tag_31\n      swap9\n      swap8\n      swap7\n      swap6\n      swap5\n      swap4\n      swap3\n      swap2\n      swap1\n      tag_32\n      jump\t// in\n    tag_31:\n      mload(0x40)\n      dup1\n      swap2\n      sub\n      swap1\n      return\n        /* \"contracts/User/Poll.sol\":571:596  address[] public dislikes */\n    tag_5:\n      tag_33\n      0x04\n      dup1\n      calldatasize\n      sub\n      dup2\n      add\n      swap1\n      tag_34\n      swap2\n      swap1\n      tag_27\n      jump\t// in\n    tag_34:\n      tag_35\n      jump\t// in\n    tag_33:\n      mload(0x40)\n      tag_36\n      swap2\n      swap1\n      tag_37\n      jump\t// in\n    tag_36:\n      mload(0x40)\n      dup1\n      swap2\n      sub\n      swap1\n      return\n        /* \"contracts/User/Poll.sol\":1683:1786  function getPollChoices() public view returns (PollChoice[] memory) {... */\n    tag_6:\n      tag_38\n      tag_39\n      jump\t// in\n    tag_38:\n      mload(0x40)\n      tag_40\n      swap2\n      swap1\n      tag_41\n      jump\t// in\n    tag_40:\n      mload(0x40)\n      dup1\n      swap2\n      sub\n      swap1\n      return\n        /* \"contracts/User/Poll.sol\":1792:1880  function getLikes() public view returns (address[] memory) {... */\n    tag_7:\n      tag_42\n      tag_43\n      jump\t// in\n    tag_42:\n      mload(0x40)\n      tag_44\n      swap2\n      swap1\n      tag_45\n      jump\t// in\n    tag_44:\n      mload(0x40)\n      dup1\n      swap2\n      sub\n      swap1\n      return\n        /* \"contracts/User/Poll.sol\":506:537  PollChoice[] public pollChoices */\n    tag_8:\n      tag_46\n      0x04\n      dup1\n      calldatasize\n      sub\n      dup2\n      add\n      swap1\n      tag_47\n      swap2\n      swap1\n      tag_27\n      jump\t// in\n    tag_47:\n      tag_48\n      jump\t// in\n    tag_46:\n      mload(0x40)\n      tag_49\n      swap2\n      swap1\n      tag_50\n      jump\t// in\n    tag_49:\n      mload(0x40)\n      dup1\n      swap2\n      sub\n      swap1\n      return\n        /* \"contracts/User/Poll.sol\":543:565  address[] public likes */\n    tag_9:\n      tag_51\n      0x04\n      dup1\n      calldatasize\n      sub\n      dup2\n      add\n      swap1\n      tag_52\n      swap2\n      swap1\n      tag_27\n      jump\t// in\n    tag_52:\n      tag_53\n      jump\t// in\n    tag_51:\n      mload(0x40)\n      tag_54\n      swap2\n      swap1\n      tag_37\n      jump\t// in\n    tag_54:\n      mload(0x40)\n      dup1\n      swap2\n      sub\n      swap1\n      return\n        /* \"contracts/User/Poll.sol\":1259:1433  function addComment(string memory _comment) public {... */\n    tag_10:\n      tag_55\n      0x04\n      dup1\n      calldatasize\n      sub\n      dup2\n      add\n      swap1\n      tag_56\n      swap2\n      swap1\n      tag_57\n      jump\t// in\n    tag_56:\n      tag_58\n      jump\t// in\n    tag_55:\n      stop\n        /* \"contracts/User/Poll.sol\":2285:2408  function getVoters(uint _choice) public view returns (address[] memory) {... */\n    tag_11:\n      tag_59\n      0x04\n      dup1\n      calldatasize\n      sub\n      dup2\n      add\n      swap1\n      tag_60\n      swap2\n      swap1\n      tag_27\n      jump\t// in\n    tag_60:\n      tag_61\n      jump\t// in\n    tag_59:\n      mload(0x40)\n      tag_62\n      swap2\n      swap1\n      tag_45\n      jump\t// in\n    tag_62:\n      mload(0x40)\n      dup1\n      swap2\n      sub\n      swap1\n      return\n        /* \"contracts/User/Poll.sol\":424:445  string public content */\n    tag_12:\n      tag_63\n      tag_64\n      jump\t// in\n    tag_63:\n      mload(0x40)\n      tag_65\n      swap2\n      swap1\n      tag_50\n      jump\t// in\n    tag_65:\n      mload(0x40)\n      dup1\n      swap2\n      sub\n      swap1\n      return\n        /* \"contracts/User/Poll.sol\":361:381  address public owner */\n    tag_13:\n      tag_66\n      tag_67\n      jump\t// in\n    tag_66:\n      mload(0x40)\n      tag_68\n      swap2\n      swap1\n      tag_37\n      jump\t// in\n    tag_68:\n      mload(0x40)\n      dup1\n      swap2\n      sub\n      swap1\n      return\n        /* \"contracts/User/Poll.sol\":649:689  mapping(uint => Comment) public comments */\n    tag_14:\n      tag_69\n      0x04\n      dup1\n      calldatasize\n      sub\n      dup2\n      add\n      swap1\n      tag_70\n      swap2\n      swap1\n      tag_27\n      jump\t// in\n    tag_70:\n      tag_71\n      jump\t// in\n    tag_69:\n      mload(0x40)\n      tag_72\n      swap3\n      swap2\n      swap1\n      tag_73\n      jump\t// in\n    tag_72:\n      mload(0x40)\n      dup1\n      swap2\n      sub\n      swap1\n      return\n        /* \"contracts/User/Poll.sol\":1986:2279  function getComments() public view returns (Comment[] memory) {... */\n    tag_15:\n      tag_74\n      tag_75\n      jump\t// in\n    tag_74:\n      mload(0x40)\n      tag_76\n      swap2\n      swap1\n      tag_77\n      jump\t// in\n    tag_76:\n      mload(0x40)\n      dup1\n      swap2\n      sub\n      swap1\n      return\n        /* \"contracts/User/Poll.sol\":459:490  string public postType = \"poll\" */\n    tag_16:\n      tag_78\n      tag_79\n      jump\t// in\n    tag_78:\n      mload(0x40)\n      tag_80\n      swap2\n      swap1\n      tag_50\n      jump\t// in\n    tag_80:\n      mload(0x40)\n      dup1\n      swap2\n      sub\n      swap1\n      return\n        /* \"contracts/User/Poll.sol\":1439:1501  function like() public {... */\n    tag_17:\n      tag_81\n      tag_82\n      jump\t// in\n    tag_81:\n      stop\n        /* \"contracts/User/Poll.sol\":341:355  uint public id */\n    tag_18:\n      tag_83\n      tag_84\n      jump\t// in\n    tag_83:\n      mload(0x40)\n      tag_85\n      swap2\n      swap1\n      tag_86\n      jump\t// in\n    tag_85:\n      mload(0x40)\n      dup1\n      swap2\n      sub\n      swap1\n      return\n        /* \"contracts/User/Poll.sol\":395:418  string public timestamp */\n    tag_19:\n      tag_87\n      tag_88\n      jump\t// in\n    tag_87:\n      mload(0x40)\n      tag_89\n      swap2\n      swap1\n      tag_50\n      jump\t// in\n    tag_89:\n      mload(0x40)\n      dup1\n      swap2\n      sub\n      swap1\n      return\n        /* \"contracts/User/Poll.sol\":1507:1575  function dislike() public {... */\n    tag_20:\n      tag_90\n      tag_91\n      jump\t// in\n    tag_90:\n      stop\n        /* \"contracts/User/Poll.sol\":1886:1980  function getDislikes() public view returns (address[] memory) {... */\n    tag_21:\n      tag_92\n      tag_93\n      jump\t// in\n    tag_92:\n      mload(0x40)\n      tag_94\n      swap2\n      swap1\n      tag_45\n      jump\t// in\n    tag_94:\n      mload(0x40)\n      dup1\n      swap2\n      sub\n      swap1\n      return\n        /* \"contracts/User/Poll.sol\":1581:1677  function vote(uint _choice) public {... */\n    tag_28:\n        /* \"contracts/User/Poll.sol\":1626:1637  pollChoices */\n      0x06\n        /* \"contracts/User/Poll.sol\":1638:1645  _choice */\n      dup2\n        /* \"contracts/User/Poll.sol\":1626:1646  pollChoices[_choice] */\n      dup2\n      sload\n      dup2\n      lt\n      tag_98\n      jumpi\n      tag_99\n      tag_100\n      jump\t// in\n    tag_99:\n    tag_98:\n      swap1\n      0x00\n      mstore\n      keccak256(0x00, 0x20)\n      swap1\n      0x02\n      mul\n      add\n        /* \"contracts/User/Poll.sol\":1626:1653  pollChoices[_choice].voters */\n      0x01\n      add\n        /* \"contracts/User/Poll.sol\":1659:1669  msg.sender */\n      caller\n        /* \"contracts/User/Poll.sol\":1626:1670  pollChoices[_choice].voters.push(msg.sender) */\n      swap1\n      dup1\n      0x01\n      dup2\n      sload\n      add\n      dup1\n      dup3\n      sstore\n      dup1\n      swap2\n      pop\n      pop\n      0x01\n      swap1\n      sub\n      swap1\n      0x00\n      mstore\n      keccak256(0x00, 0x20)\n      add\n      0x00\n      swap1\n      swap2\n      swap1\n      swap2\n      swap1\n      swap2\n      0x0100\n      exp\n      dup2\n      sload\n      dup2\n      0xffffffffffffffffffffffffffffffffffffffff\n      mul\n      not\n      and\n      swap1\n      dup4\n      0xffffffffffffffffffffffffffffffffffffffff\n      and\n      mul\n      or\n      swap1\n      sstore\n      pop\n        /* \"contracts/User/Poll.sol\":1581:1677  function vote(uint _choice) public {... */\n      pop\n      jump\t// out\n        /* \"contracts/User/Poll.sol\":2414:2923  function getPoll()... */\n    tag_30:\n        /* \"contracts/User/Poll.sol\":2491:2495  uint */\n      0x00\n        /* \"contracts/User/Poll.sol\":2509:2522  string memory */\n      0x60\n        /* \"contracts/User/Poll.sol\":2536:2549  string memory */\n      dup1\n        /* \"contracts/User/Poll.sol\":2563:2576  string memory */\n      0x60\n        /* \"contracts/User/Poll.sol\":2590:2609  PollChoice[] memory */\n      dup1\n        /* \"contracts/User/Poll.sol\":2623:2639  address[] memory */\n      0x60\n        /* \"contracts/User/Poll.sol\":2653:2669  address[] memory */\n      dup1\n        /* \"contracts/User/Poll.sol\":2683:2699  Comment[] memory */\n      0x60\n        /* \"contracts/User/Poll.sol\":2745:2747  id */\n      sload(0x01)\n        /* \"contracts/User/Poll.sol\":2761:2770  timestamp */\n      0x03\n        /* \"contracts/User/Poll.sol\":2784:2791  content */\n      0x04\n        /* \"contracts/User/Poll.sol\":2805:2813  postType */\n      0x05\n        /* \"contracts/User/Poll.sol\":2827:2838  pollChoices */\n      0x06\n        /* \"contracts/User/Poll.sol\":2852:2857  likes */\n      0x07\n        /* \"contracts/User/Poll.sol\":2871:2879  dislikes */\n      0x08\n        /* \"contracts/User/Poll.sol\":2893:2906  getComments() */\n      tag_104\n        /* \"contracts/User/Poll.sol\":2893:2904  getComments */\n      tag_75\n        /* \"contracts/User/Poll.sol\":2893:2906  getComments() */\n      jump\t// in\n    tag_104:\n        /* \"contracts/User/Poll.sol\":2724:2916  return (... */\n      dup7\n      dup1\n      sload\n      tag_105\n      swap1\n      tag_106\n      jump\t// in\n    tag_105:\n      dup1\n      0x1f\n      add\n      0x20\n      dup1\n      swap2\n      div\n      mul\n      0x20\n      add\n      mload(0x40)\n      swap1\n      dup2\n      add\n      0x40\n      mstore\n      dup1\n      swap3\n      swap2\n      swap1\n      dup2\n      dup2\n      mstore\n      0x20\n      add\n      dup3\n      dup1\n      sload\n      tag_107\n      swap1\n      tag_106\n      jump\t// in\n    tag_107:\n      dup1\n      iszero\n      tag_108\n      jumpi\n      dup1\n      0x1f\n      lt\n      tag_109\n      jumpi\n      0x0100\n      dup1\n      dup4\n      sload\n      div\n      mul\n      dup4\n      mstore\n      swap2\n      0x20\n      add\n      swap2\n      jump(tag_108)\n    tag_109:\n      dup3\n      add\n      swap2\n      swap1\n      0x00\n      mstore\n      keccak256(0x00, 0x20)\n      swap1\n    tag_110:\n      dup2\n      sload\n      dup2\n      mstore\n      swap1\n      0x01\n      add\n      swap1\n      0x20\n      add\n      dup1\n      dup4\n      gt\n      tag_110\n      jumpi\n      dup3\n      swap1\n      sub\n      0x1f\n      and\n      dup3\n      add\n      swap2\n    tag_108:\n      pop\n      pop\n      pop\n      pop\n      pop\n      swap7\n      pop\n      dup6\n      dup1\n      sload\n      tag_111\n      swap1\n      tag_106\n      jump\t// in\n    tag_111:\n      dup1\n      0x1f\n      add\n      0x20\n      dup1\n      swap2\n      div\n      mul\n      0x20\n      add\n      mload(0x40)\n      swap1\n      dup2\n      add\n      0x40\n      mstore\n      dup1\n      swap3\n      swap2\n      swap1\n      dup2\n      dup2\n      mstore\n      0x20\n      add\n      dup3\n      dup1\n      sload\n      tag_112\n      swap1\n      tag_106\n      jump\t// in\n    tag_112:\n      dup1\n      iszero\n      tag_113\n      jumpi\n      dup1\n      0x1f\n      lt\n      tag_114\n      jumpi\n      0x0100\n      dup1\n      dup4\n      sload\n      div\n      mul\n      dup4\n      mstore\n      swap2\n      0x20\n      add\n      swap2\n      jump(tag_113)\n    tag_114:\n      dup3\n      add\n      swap2\n      swap1\n      0x00\n      mstore\n      keccak256(0x00, 0x20)\n      swap1\n    tag_115:\n      dup2\n      sload\n      dup2\n      mstore\n      swap1\n      0x01\n      add\n      swap1\n      0x20\n      add\n      dup1\n      dup4\n      gt\n      tag_115\n      jumpi\n      dup3\n      swap1\n      sub\n      0x1f\n      and\n      dup3\n      add\n      swap2\n    tag_113:\n      pop\n      pop\n      pop\n      pop\n      pop\n      swap6\n      pop\n      dup5\n      dup1\n      sload\n      tag_116\n      swap1\n      tag_106\n      jump\t// in\n    tag_116:\n      dup1\n      0x1f\n      add\n      0x20\n      dup1\n      swap2\n      div\n      mul\n      0x20\n      add\n      mload(0x40)\n      swap1\n      dup2\n      add\n      0x40\n      mstore\n      dup1\n      swap3\n      swap2\n      swap1\n      dup2\n      dup2\n      mstore\n      0x20\n      add\n      dup3\n      dup1\n      sload\n      tag_117\n      swap1\n      tag_106\n      jump\t// in\n    tag_117:\n      dup1\n      iszero\n      tag_118\n      jumpi\n      dup1\n      0x1f\n      lt\n      tag_119\n      jumpi\n      0x0100\n      dup1\n      dup4\n      sload\n      div\n      mul\n      dup4\n      mstore\n      swap2\n      0x20\n      add\n      swap2\n      jump(tag_118)\n    tag_119:\n      dup3\n      add\n      swap2\n      swap1\n      0x00\n      mstore\n      keccak256(0x00, 0x20)\n      swap1\n    tag_120:\n      dup2\n      sload\n      dup2\n      mstore\n      swap1\n      0x01\n      add\n      swap1\n      0x20\n      add\n      dup1\n      dup4\n      gt\n      tag_120\n      jumpi\n      dup3\n      swap1\n      sub\n      0x1f\n      and\n      dup3\n      add\n      swap2\n    tag_118:\n      pop\n      pop\n      pop\n      pop\n      pop\n      swap5\n      pop\n      dup4\n      dup1\n      sload\n      dup1\n      0x20\n      mul\n      0x20\n      add\n      mload(0x40)\n      swap1\n      dup2\n      add\n      0x40\n      mstore\n      dup1\n      swap3\n      swap2\n      swap1\n      dup2\n      dup2\n      mstore\n      0x20\n      add\n      0x00\n      swap1\n    tag_121:\n      dup3\n      dup3\n      lt\n      iszero\n      tag_122\n      jumpi\n      dup4\n      dup3\n      swap1\n      0x00\n      mstore\n      keccak256(0x00, 0x20)\n      swap1\n      0x02\n      mul\n      add\n      mload(0x40)\n      dup1\n      0x40\n      add\n      0x40\n      mstore\n      swap1\n      dup2\n      0x00\n      dup3\n      add\n      dup1\n      sload\n      tag_124\n      swap1\n      tag_106\n      jump\t// in\n    tag_124:\n      dup1\n      0x1f\n      add\n      0x20\n      dup1\n      swap2\n      div\n      mul\n      0x20\n      add\n      mload(0x40)\n      swap1\n      dup2\n      add\n      0x40\n      mstore\n      dup1\n      swap3\n      swap2\n      swap1\n      dup2\n      dup2\n      mstore\n      0x20\n      add\n      dup3\n      dup1\n      sload\n      tag_125\n      swap1\n      tag_106\n      jump\t// in\n    tag_125:\n      dup1\n      iszero\n      tag_126\n      jumpi\n      dup1\n      0x1f\n      lt\n      tag_127\n      jumpi\n      0x0100\n      dup1\n      dup4\n      sload\n      div\n      mul\n      dup4\n      mstore\n      swap2\n      0x20\n      add\n      swap2\n      jump(tag_126)\n    tag_127:\n      dup3\n      add\n      swap2\n      swap1\n      0x00\n      mstore\n      keccak256(0x00, 0x20)\n      swap1\n    tag_128:\n      dup2\n      sload\n      dup2\n      mstore\n      swap1\n      0x01\n      add\n      swap1\n      0x20\n      add\n      dup1\n      dup4\n      gt\n      tag_128\n      jumpi\n      dup3\n      swap1\n      sub\n      0x1f\n      and\n      dup3\n      add\n      swap2\n    tag_126:\n      pop\n      pop\n      pop\n      pop\n      pop\n      dup2\n      mstore\n      0x20\n      add\n      0x01\n      dup3\n      add\n      dup1\n      sload\n      dup1\n      0x20\n      mul\n      0x20\n      add\n      mload(0x40)\n      swap1\n      dup2\n      add\n      0x40\n      mstore\n      dup1\n      swap3\n      swap2\n      swap1\n      dup2\n      dup2\n      mstore\n      0x20\n      add\n      dup3\n      dup1\n      sload\n      dup1\n      iszero\n      tag_129\n      jumpi\n      0x20\n      mul\n      dup3\n      add\n      swap2\n      swap1\n      0x00\n      mstore\n      keccak256(0x00, 0x20)\n      swap1\n    tag_130:\n      dup2\n      0x00\n      swap1\n      sload\n      swap1\n      0x0100\n      exp\n      swap1\n      div\n      0xffffffffffffffffffffffffffffffffffffffff\n      and\n      0xffffffffffffffffffffffffffffffffffffffff\n      and\n      dup2\n      mstore\n      0x20\n      add\n      swap1\n      0x01\n      add\n      swap1\n      dup1\n      dup4\n      gt\n      tag_130\n      jumpi\n    tag_129:\n      pop\n      pop\n      pop\n      pop\n      pop\n      dup2\n      mstore\n      pop\n      pop\n      dup2\n      mstore\n      0x20\n      add\n      swap1\n      0x01\n      add\n      swap1\n      jump(tag_121)\n    tag_122:\n      pop\n      pop\n      pop\n      pop\n      swap4\n      pop\n      dup3\n      dup1\n      sload\n      dup1\n      0x20\n      mul\n      0x20\n      add\n      mload(0x40)\n      swap1\n      dup2\n      add\n      0x40\n      mstore\n      dup1\n      swap3\n      swap2\n      swap1\n      dup2\n      dup2\n      mstore\n      0x20\n      add\n      dup3\n      dup1\n      sload\n      dup1\n      iszero\n      tag_131\n      jumpi\n      0x20\n      mul\n      dup3\n      add\n      swap2\n      swap1\n      0x00\n      mstore\n      keccak256(0x00, 0x20)\n      swap1\n    tag_132:\n      dup2\n      0x00\n      swap1\n      sload\n      swap1\n      0x0100\n      exp\n      swap1\n      div\n      0xffffffffffffffffffffffffffffffffffffffff\n      and\n      0xffffffffffffffffffffffffffffffffffffffff\n      and\n      dup2\n      mstore\n      0x20\n      add\n      swap1\n      0x01\n      add\n      swap1\n      dup1\n      dup4\n      gt\n      tag_132\n      jumpi\n    tag_131:\n      pop\n      pop\n      pop\n      pop\n      pop\n      swap3\n      pop\n      dup2\n      dup1\n      sload\n      dup1\n      0x20\n      mul\n      0x20\n      add\n      mload(0x40)\n      swap1\n      dup2\n      add\n      0x40\n      mstore\n      dup1\n      swap3\n      swap2\n      swap1\n      dup2\n      dup2\n      mstore\n      0x20\n      add\n      dup3\n      dup1\n      sload\n      dup1\n      iszero\n      tag_133\n      jumpi\n      0x20\n      mul\n      dup3\n      add\n      swap2\n      swap1\n      0x00\n      mstore\n      keccak256(0x00, 0x20)\n      swap1\n    tag_134:\n      dup2\n      0x00\n      swap1\n      sload\n      swap1\n      0x0100\n      exp\n      swap1\n      div\n      0xffffffffffffffffffffffffffffffffffffffff\n      and\n      0xffffffffffffffffffffffffffffffffffffffff\n      and\n      dup2\n      mstore\n      0x20\n      add\n      swap1\n      0x01\n      add\n      swap1\n      dup1\n      dup4\n      gt\n      tag_134\n      jumpi\n    tag_133:\n      pop\n      pop\n      pop\n      pop\n      pop\n      swap2\n      pop\n      swap8\n      pop\n      swap8\n      pop\n      swap8\n      pop\n      swap8\n      pop\n      swap8\n      pop\n      swap8\n      pop\n      swap8\n      pop\n      swap8\n      pop\n        /* \"contracts/User/Poll.sol\":2414:2923  function getPoll()... */\n      swap1\n      swap2\n      swap3\n      swap4\n      swap5\n      swap6\n      swap7\n      swap8\n      jump\t// out\n        /* \"contracts/User/Poll.sol\":571:596  address[] public dislikes */\n    tag_35:\n      0x08\n      dup2\n      dup2\n      sload\n      dup2\n      lt\n      tag_135\n      jumpi\n      0x00\n      dup1\n      revert\n    tag_135:\n      swap1\n      0x00\n      mstore\n      keccak256(0x00, 0x20)\n      add\n      0x00\n      swap2\n      pop\n      sload\n      swap1\n      0x0100\n      exp\n      swap1\n      div\n      0xffffffffffffffffffffffffffffffffffffffff\n      and\n      dup2\n      jump\t// out\n        /* \"contracts/User/Poll.sol\":1683:1786  function getPollChoices() public view returns (PollChoice[] memory) {... */\n    tag_39:\n        /* \"contracts/User/Poll.sol\":1730:1749  PollChoice[] memory */\n      0x60\n        /* \"contracts/User/Poll.sol\":1768:1779  pollChoices */\n      0x06\n        /* \"contracts/User/Poll.sol\":1761:1779  return pollChoices */\n      dup1\n      sload\n      dup1\n      0x20\n      mul\n      0x20\n      add\n      mload(0x40)\n      swap1\n      dup2\n      add\n      0x40\n      mstore\n      dup1\n      swap3\n      swap2\n      swap1\n      dup2\n      dup2\n      mstore\n      0x20\n      add\n      0x00\n      swap1\n    tag_138:\n      dup3\n      dup3\n      lt\n      iszero\n      tag_139\n      jumpi\n      dup4\n      dup3\n      swap1\n      0x00\n      mstore\n      keccak256(0x00, 0x20)\n      swap1\n      0x02\n      mul\n      add\n      mload(0x40)\n      dup1\n      0x40\n      add\n      0x40\n      mstore\n      swap1\n      dup2\n      0x00\n      dup3\n      add\n      dup1\n      sload\n      tag_141\n      swap1\n      tag_106\n      jump\t// in\n    tag_141:\n      dup1\n      0x1f\n      add\n      0x20\n      dup1\n      swap2\n      div\n      mul\n      0x20\n      add\n      mload(0x40)\n      swap1\n      dup2\n      add\n      0x40\n      mstore\n      dup1\n      swap3\n      swap2\n      swap1\n      dup2\n      dup2\n      mstore\n      0x20\n      add\n      dup3\n      dup1\n      sload\n      tag_142\n      swap1\n      tag_106\n      jump\t// in\n    tag_142:\n      dup1\n      iszero\n      tag_143\n      jumpi\n      dup1\n      0x1f\n      lt\n      tag_144\n      jumpi\n      0x0100\n      dup1\n      dup4\n      sload\n      div\n      mul\n      dup4\n      mstore\n      swap2\n      0x20\n      add\n      swap2\n      jump(tag_143)\n    tag_144:\n      dup3\n      add\n      swap2\n      swap1\n      0x00\n      mstore\n      keccak256(0x00, 0x20)\n      swap1\n    tag_145:\n      dup2\n      sload\n      dup2\n      mstore\n      swap1\n      0x01\n      add\n      swap1\n      0x20\n      add\n      dup1\n      dup4\n      gt\n      tag_145\n      jumpi\n      dup3\n      swap1\n      sub\n      0x1f\n      and\n      dup3\n      add\n      swap2\n    tag_143:\n      pop\n      pop\n      pop\n      pop\n      pop\n      dup2\n      mstore\n      0x20\n      add\n      0x01\n      dup3\n      add\n      dup1\n      sload\n      dup1\n      0x20\n      mul\n      0x20\n      add\n      mload(0x40)\n      swap1\n      dup2\n      add\n      0x40\n      mstore\n      dup1\n      swap3\n      swap2\n      swap1\n      dup2\n      dup2\n      mstore\n      0x20\n      add\n      dup3\n      dup1\n      sload\n      dup1\n      iszero\n      tag_146\n      jumpi\n      0x20\n      mul\n      dup3\n      add\n      swap2\n      swap1\n      0x00\n      mstore\n      keccak256(0x00, 0x20)\n      swap1\n    tag_147:\n      dup2\n      0x00\n      swap1\n      sload\n      swap1\n      0x0100\n      exp\n      swap1\n      div\n      0xffffffffffffffffffffffffffffffffffffffff\n      and\n      0xffffffffffffffffffffffffffffffffffffffff\n      and\n      dup2\n      mstore\n      0x20\n      add\n      swap1\n      0x01\n      add\n      swap1\n      dup1\n      dup4\n      gt\n      tag_147\n      jumpi\n    tag_146:\n      pop\n      pop\n      pop\n      pop\n      pop\n      dup2\n      mstore\n      pop\n      pop\n      dup2\n      mstore\n      0x20\n      add\n      swap1\n      0x01\n      add\n      swap1\n      jump(tag_138)\n    tag_139:\n      pop\n      pop\n      pop\n      pop\n      swap1\n      pop\n        /* \"contracts/User/Poll.sol\":1683:1786  function getPollChoices() public view returns (PollChoice[] memory) {... */\n      swap1\n      jump\t// out\n        /* \"contracts/User/Poll.sol\":1792:1880  function getLikes() public view returns (address[] memory) {... */\n    tag_43:\n        /* \"contracts/User/Poll.sol\":1833:1849  address[] memory */\n      0x60\n        /* \"contracts/User/Poll.sol\":1868:1873  likes */\n      0x07\n        /* \"contracts/User/Poll.sol\":1861:1873  return likes */\n      dup1\n      sload\n      dup1\n      0x20\n      mul\n      0x20\n      add\n      mload(0x40)\n      swap1\n      dup2\n      add\n      0x40\n      mstore\n      dup1\n      swap3\n      swap2\n      swap1\n      dup2\n      dup2\n      mstore\n      0x20\n      add\n      dup3\n      dup1\n      sload\n      dup1\n      iszero\n      tag_149\n      jumpi\n      0x20\n      mul\n      dup3\n      add\n      swap2\n      swap1\n      0x00\n      mstore\n      keccak256(0x00, 0x20)\n      swap1\n    tag_150:\n      dup2\n      0x00\n      swap1\n      sload\n      swap1\n      0x0100\n      exp\n      swap1\n      div\n      0xffffffffffffffffffffffffffffffffffffffff\n      and\n      0xffffffffffffffffffffffffffffffffffffffff\n      and\n      dup2\n      mstore\n      0x20\n      add\n      swap1\n      0x01\n      add\n      swap1\n      dup1\n      dup4\n      gt\n      tag_150\n      jumpi\n    tag_149:\n      pop\n      pop\n      pop\n      pop\n      pop\n      swap1\n      pop\n        /* \"contracts/User/Poll.sol\":1792:1880  function getLikes() public view returns (address[] memory) {... */\n      swap1\n      jump\t// out\n        /* \"contracts/User/Poll.sol\":506:537  PollChoice[] public pollChoices */\n    tag_48:\n      0x06\n      dup2\n      dup2\n      sload\n      dup2\n      lt\n      tag_151\n      jumpi\n      0x00\n      dup1\n      revert\n    tag_151:\n      swap1\n      0x00\n      mstore\n      keccak256(0x00, 0x20)\n      swap1\n      0x02\n      mul\n      add\n      0x00\n      swap2\n      pop\n      swap1\n      pop\n      dup1\n      0x00\n      add\n      dup1\n      sload\n      tag_153\n      swap1\n      tag_106\n      jump\t// in\n    tag_153:\n      dup1\n      0x1f\n      add\n      0x20\n      dup1\n      swap2\n      div\n      mul\n      0x20\n      add\n      mload(0x40)\n      swap1\n      dup2\n      add\n      0x40\n      mstore\n      dup1\n      swap3\n      swap2\n      swap1\n      dup2\n      dup2\n      mstore\n      0x20\n      add\n      dup3\n      dup1\n      sload\n      tag_154\n      swap1\n      tag_106\n      jump\t// in\n    tag_154:\n      dup1\n      iszero\n      tag_155\n      jumpi\n      dup1\n      0x1f\n      lt\n      tag_156\n      jumpi\n      0x0100\n      dup1\n      dup4\n      sload\n      div\n      mul\n      dup4\n      mstore\n      swap2\n      0x20\n      add\n      swap2\n      jump(tag_155)\n    tag_156:\n      dup3\n      add\n      swap2\n      swap1\n      0x00\n      mstore\n      keccak256(0x00, 0x20)\n      swap1\n    tag_157:\n      dup2\n      sload\n      dup2\n      mstore\n      swap1\n      0x01\n      add\n      swap1\n      0x20\n      add\n      dup1\n      dup4\n      gt\n      tag_157\n      jumpi\n      dup3\n      swap1\n      sub\n      0x1f\n      and\n      dup3\n      add\n      swap2\n    tag_155:\n      pop\n      pop\n      pop\n      pop\n      pop\n      swap1\n      pop\n      dup2\n      jump\t// out\n        /* \"contracts/User/Poll.sol\":543:565  address[] public likes */\n    tag_53:\n      0x07\n      dup2\n      dup2\n      sload\n      dup2\n      lt\n      tag_158\n      jumpi\n      0x00\n      dup1\n      revert\n    tag_158:\n      swap1\n      0x00\n      mstore\n      keccak256(0x00, 0x20)\n      add\n      0x00\n      swap2\n      pop\n      sload\n      swap1\n      0x0100\n      exp\n      swap1\n      div\n      0xffffffffffffffffffffffffffffffffffffffff\n      and\n      dup2\n      jump\t// out\n        /* \"contracts/User/Poll.sol\":1259:1433  function addComment(string memory _comment) public {... */\n    tag_58:\n        /* \"contracts/User/Poll.sol\":1320:1348  commentIdCounter.increment() */\n      tag_161\n        /* \"contracts/User/Poll.sol\":1320:1336  commentIdCounter */\n      0x09\n        /* \"contracts/User/Poll.sol\":1320:1346  commentIdCounter.increment */\n      tag_95\n        /* \"contracts/User/Poll.sol\":1320:1348  commentIdCounter.increment() */\n      jump\t// in\n    tag_161:\n        /* \"contracts/User/Poll.sol\":1397:1426  Comment(msg.sender, _comment) */\n      mload(0x40)\n      dup1\n      0x40\n      add\n      0x40\n      mstore\n      dup1\n        /* \"contracts/User/Poll.sol\":1405:1415  msg.sender */\n      caller\n        /* \"contracts/User/Poll.sol\":1397:1426  Comment(msg.sender, _comment) */\n      0xffffffffffffffffffffffffffffffffffffffff\n      and\n      dup2\n      mstore\n      0x20\n      add\n        /* \"contracts/User/Poll.sol\":1417:1425  _comment */\n      dup3\n        /* \"contracts/User/Poll.sol\":1397:1426  Comment(msg.sender, _comment) */\n      dup2\n      mstore\n      pop\n        /* \"contracts/User/Poll.sol\":1358:1366  comments */\n      0x0a\n        /* \"contracts/User/Poll.sol\":1358:1394  comments[commentIdCounter.current()] */\n      0x00\n        /* \"contracts/User/Poll.sol\":1367:1393  commentIdCounter.current() */\n      tag_162\n        /* \"contracts/User/Poll.sol\":1367:1383  commentIdCounter */\n      0x09\n        /* \"contracts/User/Poll.sol\":1367:1391  commentIdCounter.current */\n      tag_96\n        /* \"contracts/User/Poll.sol\":1367:1393  commentIdCounter.current() */\n      jump\t// in\n    tag_162:\n        /* \"contracts/User/Poll.sol\":1358:1394  comments[commentIdCounter.current()] */\n      dup2\n      mstore\n      0x20\n      add\n      swap1\n      dup2\n      mstore\n      0x20\n      add\n      0x00\n      keccak256\n        /* \"contracts/User/Poll.sol\":1358:1426  comments[commentIdCounter.current()] = Comment(msg.sender, _comment) */\n      0x00\n      dup3\n      add\n      mload\n      dup2\n      0x00\n      add\n      exp(0x0100, 0x00)\n      dup2\n      sload\n      dup2\n      0xffffffffffffffffffffffffffffffffffffffff\n      mul\n      not\n      and\n      swap1\n      dup4\n      0xffffffffffffffffffffffffffffffffffffffff\n      and\n      mul\n      or\n      swap1\n      sstore\n      pop\n      0x20\n      dup3\n      add\n      mload\n      dup2\n      0x01\n      add\n      swap1\n      dup2\n      tag_163\n      swap2\n      swap1\n      tag_164\n      jump\t// in\n    tag_163:\n      pop\n      swap1\n      pop\n      pop\n        /* \"contracts/User/Poll.sol\":1259:1433  function addComment(string memory _comment) public {... */\n      pop\n      jump\t// out\n        /* \"contracts/User/Poll.sol\":2285:2408  function getVoters(uint _choice) public view returns (address[] memory) {... */\n    tag_61:\n        /* \"contracts/User/Poll.sol\":2339:2355  address[] memory */\n      0x60\n        /* \"contracts/User/Poll.sol\":2374:2385  pollChoices */\n      0x06\n        /* \"contracts/User/Poll.sol\":2386:2393  _choice */\n      dup3\n        /* \"contracts/User/Poll.sol\":2374:2394  pollChoices[_choice] */\n      dup2\n      sload\n      dup2\n      lt\n      tag_166\n      jumpi\n      tag_167\n      tag_100\n      jump\t// in\n    tag_167:\n    tag_166:\n      swap1\n      0x00\n      mstore\n      keccak256(0x00, 0x20)\n      swap1\n      0x02\n      mul\n      add\n        /* \"contracts/User/Poll.sol\":2374:2401  pollChoices[_choice].voters */\n      0x01\n      add\n        /* \"contracts/User/Poll.sol\":2367:2401  return pollChoices[_choice].voters */\n      dup1\n      sload\n      dup1\n      0x20\n      mul\n      0x20\n      add\n      mload(0x40)\n      swap1\n      dup2\n      add\n      0x40\n      mstore\n      dup1\n      swap3\n      swap2\n      swap1\n      dup2\n      dup2\n      mstore\n      0x20\n      add\n      dup3\n      dup1\n      sload\n      dup1\n      iszero\n      tag_169\n      jumpi\n      0x20\n      mul\n      dup3\n      add\n      swap2\n      swap1\n      0x00\n      mstore\n      keccak256(0x00, 0x20)\n      swap1\n    tag_170:\n      dup2\n      0x00\n      swap1\n      sload\n      swap1\n      0x0100\n      exp\n      swap1\n      div\n      0xffffffffffffffffffffffffffffffffffffffff\n      and\n      0xffffffffffffffffffffffffffffffffffffffff\n      and\n      dup2\n      mstore\n      0x20\n      add\n      swap1\n      0x01\n      add\n      swap1\n      dup1\n      dup4\n      gt\n      tag_170\n      jumpi\n    tag_169:\n      pop\n      pop\n      pop\n      pop\n      pop\n      swap1\n      pop\n        /* \"contracts/User/Poll.sol\":2285:2408  function getVoters(uint _choice) public view returns (address[] memory) {... */\n      swap2\n      swap1\n      pop\n      jump\t// out\n        /* \"contracts/User/Poll.sol\":424:445  string public content */\n    tag_64:\n      0x04\n      dup1\n      sload\n      tag_171\n      swap1\n      tag_106\n      jump\t// in\n    tag_171:\n      dup1\n      0x1f\n      add\n      0x20\n      dup1\n      swap2\n      div\n      mul\n      0x20\n      add\n      mload(0x40)\n      swap1\n      dup2\n      add\n      0x40\n      mstore\n      dup1\n      swap3\n      swap2\n      swap1\n      dup2\n      dup2\n      mstore\n      0x20\n      add\n      dup3\n      dup1\n      sload\n      tag_172\n      swap1\n      tag_106\n      jump\t// in\n    tag_172:\n      dup1\n      iszero\n      tag_173\n      jumpi\n      dup1\n      0x1f\n      lt\n      tag_174\n      jumpi\n      0x0100\n      dup1\n      dup4\n      sload\n      div\n      mul\n      dup4\n      mstore\n      swap2\n      0x20\n      add\n      swap2\n      jump(tag_173)\n    tag_174:\n      dup3\n      add\n      swap2\n      swap1\n      0x00\n      mstore\n      keccak256(0x00, 0x20)\n      swap1\n    tag_175:\n      dup2\n      sload\n      dup2\n      mstore\n      swap1\n      0x01\n      add\n      swap1\n      0x20\n      add\n      dup1\n      dup4\n      gt\n      tag_175\n      jumpi\n      dup3\n      swap1\n      sub\n      0x1f\n      and\n      dup3\n      add\n      swap2\n    tag_173:\n      pop\n      pop\n      pop\n      pop\n      pop\n      dup2\n      jump\t// out\n        /* \"contracts/User/Poll.sol\":361:381  address public owner */\n    tag_67:\n      0x02\n      0x00\n      swap1\n      sload\n      swap1\n      0x0100\n      exp\n      swap1\n      div\n      0xffffffffffffffffffffffffffffffffffffffff\n      and\n      dup2\n      jump\t// out\n        /* \"contracts/User/Poll.sol\":649:689  mapping(uint => Comment) public comments */\n    tag_71:\n      mstore(0x20, 0x0a)\n      dup1\n      0x00\n      mstore\n      keccak256(0x00, 0x40)\n      0x00\n      swap2\n      pop\n      swap1\n      pop\n      dup1\n      0x00\n      add\n      0x00\n      swap1\n      sload\n      swap1\n      0x0100\n      exp\n      swap1\n      div\n      0xffffffffffffffffffffffffffffffffffffffff\n      and\n      swap1\n      dup1\n      0x01\n      add\n      dup1\n      sload\n      tag_176\n      swap1\n      tag_106\n      jump\t// in\n    tag_176:\n      dup1\n      0x1f\n      add\n      0x20\n      dup1\n      swap2\n      div\n      mul\n      0x20\n      add\n      mload(0x40)\n      swap1\n      dup2\n      add\n      0x40\n      mstore\n      dup1\n      swap3\n      swap2\n      swap1\n      dup2\n      dup2\n      mstore\n      0x20\n      add\n      dup3\n      dup1\n      sload\n      tag_177\n      swap1\n      tag_106\n      jump\t// in\n    tag_177:\n      dup1\n      iszero\n      tag_178\n      jumpi\n      dup1\n      0x1f\n      lt\n      tag_179\n      jumpi\n      0x0100\n      dup1\n      dup4\n      sload\n      div\n      mul\n      dup4\n      mstore\n      swap2\n      0x20\n      add\n      swap2\n      jump(tag_178)\n    tag_179:\n      dup3\n      add\n      swap2\n      swap1\n      0x00\n      mstore\n      keccak256(0x00, 0x20)\n      swap1\n    tag_180:\n      dup2\n      sload\n      dup2\n      mstore\n      swap1\n      0x01\n      add\n      swap1\n      0x20\n      add\n      dup1\n      dup4\n      gt\n      tag_180\n      jumpi\n      dup3\n      swap1\n      sub\n      0x1f\n      and\n      dup3\n      add\n      swap2\n    tag_178:\n      pop\n      pop\n      pop\n      pop\n      pop\n      swap1\n      pop\n      dup3\n      jump\t// out\n        /* \"contracts/User/Poll.sol\":1986:2279  function getComments() public view returns (Comment[] memory) {... */\n    tag_75:\n        /* \"contracts/User/Poll.sol\":2030:2046  Comment[] memory */\n      0x60\n        /* \"contracts/User/Poll.sol\":2058:2084  Comment[] memory _comments */\n      0x00\n        /* \"contracts/User/Poll.sol\":2101:2127  commentIdCounter.current() */\n      tag_182\n        /* \"contracts/User/Poll.sol\":2101:2117  commentIdCounter */\n      0x09\n        /* \"contracts/User/Poll.sol\":2101:2125  commentIdCounter.current */\n      tag_96\n        /* \"contracts/User/Poll.sol\":2101:2127  commentIdCounter.current() */\n      jump\t// in\n    tag_182:\n        /* \"contracts/User/Poll.sol\":2087:2128  new Comment[](commentIdCounter.current()) */\n      0xffffffffffffffff\n      dup2\n      gt\n      iszero\n      tag_183\n      jumpi\n      tag_184\n      tag_185\n      jump\t// in\n    tag_184:\n    tag_183:\n      mload(0x40)\n      swap1\n      dup1\n      dup3\n      mstore\n      dup1\n      0x20\n      mul\n      0x20\n      add\n      dup3\n      add\n      0x40\n      mstore\n      dup1\n      iszero\n      tag_186\n      jumpi\n      dup2\n      0x20\n      add\n    tag_187:\n      tag_188\n      tag_189\n      jump\t// in\n    tag_188:\n      dup2\n      mstore\n      0x20\n      add\n      swap1\n      0x01\n      swap1\n      sub\n      swap1\n      dup2\n      tag_187\n      jumpi\n      swap1\n      pop\n    tag_186:\n      pop\n        /* \"contracts/User/Poll.sol\":2058:2128  Comment[] memory _comments = new Comment[](commentIdCounter.current()) */\n      swap1\n      pop\n        /* \"contracts/User/Poll.sol\":2143:2149  uint i */\n      0x00\n        /* \"contracts/User/Poll.sol\":2138:2247  for (uint i = 0; i < commentIdCounter.current(); i++) {... */\n    tag_190:\n        /* \"contracts/User/Poll.sol\":2159:2185  commentIdCounter.current() */\n      tag_193\n        /* \"contracts/User/Poll.sol\":2159:2175  commentIdCounter */\n      0x09\n        /* \"contracts/User/Poll.sol\":2159:2183  commentIdCounter.current */\n      tag_96\n        /* \"contracts/User/Poll.sol\":2159:2185  commentIdCounter.current() */\n      jump\t// in\n    tag_193:\n        /* \"contracts/User/Poll.sol\":2155:2156  i */\n      dup2\n        /* \"contracts/User/Poll.sol\":2155:2185  i < commentIdCounter.current() */\n      lt\n        /* \"contracts/User/Poll.sol\":2138:2247  for (uint i = 0; i < commentIdCounter.current(); i++) {... */\n      iszero\n      tag_191\n      jumpi\n        /* \"contracts/User/Poll.sol\":2221:2229  comments */\n      0x0a\n        /* \"contracts/User/Poll.sol\":2221:2236  comments[i + 1] */\n      0x00\n        /* \"contracts/User/Poll.sol\":2234:2235  1 */\n      0x01\n        /* \"contracts/User/Poll.sol\":2230:2231  i */\n      dup4\n        /* \"contracts/User/Poll.sol\":2230:2235  i + 1 */\n      tag_194\n      swap2\n      swap1\n      tag_195\n      jump\t// in\n    tag_194:\n        /* \"contracts/User/Poll.sol\":2221:2236  comments[i + 1] */\n      dup2\n      mstore\n      0x20\n      add\n      swap1\n      dup2\n      mstore\n      0x20\n      add\n      0x00\n      keccak256\n        /* \"contracts/User/Poll.sol\":2206:2236  _comments[i] = comments[i + 1] */\n      mload(0x40)\n      dup1\n      0x40\n      add\n      0x40\n      mstore\n      swap1\n      dup2\n      0x00\n      dup3\n      add\n      0x00\n      swap1\n      sload\n      swap1\n      0x0100\n      exp\n      swap1\n      div\n      0xffffffffffffffffffffffffffffffffffffffff\n      and\n      0xffffffffffffffffffffffffffffffffffffffff\n      and\n      0xffffffffffffffffffffffffffffffffffffffff\n      and\n      dup2\n      mstore\n      0x20\n      add\n      0x01\n      dup3\n      add\n      dup1\n      sload\n      tag_196\n      swap1\n      tag_106\n      jump\t// in\n    tag_196:\n      dup1\n      0x1f\n      add\n      0x20\n      dup1\n      swap2\n      div\n      mul\n      0x20\n      add\n      mload(0x40)\n      swap1\n      dup2\n      add\n      0x40\n      mstore\n      dup1\n      swap3\n      swap2\n      swap1\n      dup2\n      dup2\n      mstore\n      0x20\n      add\n      dup3\n      dup1\n      sload\n      tag_197\n      swap1\n      tag_106\n      jump\t// in\n    tag_197:\n      dup1\n      iszero\n      tag_198\n      jumpi\n      dup1\n      0x1f\n      lt\n      tag_199\n      jumpi\n      0x0100\n      dup1\n      dup4\n      sload\n      div\n      mul\n      dup4\n      mstore\n      swap2\n      0x20\n      add\n      swap2\n      jump(tag_198)\n    tag_199:\n      dup3\n      add\n      swap2\n      swap1\n      0x00\n      mstore\n      keccak256(0x00, 0x20)\n      swap1\n    tag_200:\n      dup2\n      sload\n      dup2\n      mstore\n      swap1\n      0x01\n      add\n      swap1\n      0x20\n      add\n      dup1\n      dup4\n      gt\n      tag_200\n      jumpi\n      dup3\n      swap1\n      sub\n      0x1f\n      and\n      dup3\n      add\n      swap2\n    tag_198:\n      pop\n      pop\n      pop\n      pop\n      pop\n      dup2\n      mstore\n      pop\n      pop\n        /* \"contracts/User/Poll.sol\":2206:2215  _comments */\n      dup3\n        /* \"contracts/User/Poll.sol\":2216:2217  i */\n      dup3\n        /* \"contracts/User/Poll.sol\":2206:2218  _comments[i] */\n      dup2\n      mload\n      dup2\n      lt\n      tag_201\n      jumpi\n      tag_202\n      tag_100\n      jump\t// in\n    tag_202:\n    tag_201:\n      0x20\n      mul\n      0x20\n      add\n      add\n        /* \"contracts/User/Poll.sol\":2206:2236  _comments[i] = comments[i + 1] */\n      dup2\n      swap1\n      mstore\n      pop\n        /* \"contracts/User/Poll.sol\":2187:2190  i++ */\n      dup1\n      dup1\n      tag_203\n      swap1\n      tag_204\n      jump\t// in\n    tag_203:\n      swap2\n      pop\n      pop\n        /* \"contracts/User/Poll.sol\":2138:2247  for (uint i = 0; i < commentIdCounter.current(); i++) {... */\n      jump(tag_190)\n    tag_191:\n      pop\n        /* \"contracts/User/Poll.sol\":2263:2272  _comments */\n      dup1\n        /* \"contracts/User/Poll.sol\":2256:2272  return _comments */\n      swap2\n      pop\n      pop\n        /* \"contracts/User/Poll.sol\":1986:2279  function getComments() public view returns (Comment[] memory) {... */\n      swap1\n      jump\t// out\n        /* \"contracts/User/Poll.sol\":459:490  string public postType = \"poll\" */\n    tag_79:\n      0x05\n      dup1\n      sload\n      tag_205\n      swap1\n      tag_106\n      jump\t// in\n    tag_205:\n      dup1\n      0x1f\n      add\n      0x20\n      dup1\n      swap2\n      div\n      mul\n      0x20\n      add\n      mload(0x40)\n      swap1\n      dup2\n      add\n      0x40\n      mstore\n      dup1\n      swap3\n      swap2\n      swap1\n      dup2\n      dup2\n      mstore\n      0x20\n      add\n      dup3\n      dup1\n      sload\n      tag_206\n      swap1\n      tag_106\n      jump\t// in\n    tag_206:\n      dup1\n      iszero\n      tag_207\n      jumpi\n      dup1\n      0x1f\n      lt\n      tag_208\n      jumpi\n      0x0100\n      dup1\n      dup4\n      sload\n      div\n      mul\n      dup4\n      mstore\n      swap2\n      0x20\n      add\n      swap2\n      jump(tag_207)\n    tag_208:\n      dup3\n      add\n      swap2\n      swap1\n      0x00\n      mstore\n      keccak256(0x00, 0x20)\n      swap1\n    tag_209:\n      dup2\n      sload\n      dup2\n      mstore\n      swap1\n      0x01\n      add\n      swap1\n      0x20\n      add\n      dup1\n      dup4\n      gt\n      tag_209\n      jumpi\n      dup3\n      swap1\n      sub\n      0x1f\n      and\n      dup3\n      add\n      swap2\n    tag_207:\n      pop\n      pop\n      pop\n      pop\n      pop\n      dup2\n      jump\t// out\n        /* \"contracts/User/Poll.sol\":1439:1501  function like() public {... */\n    tag_82:\n        /* \"contracts/User/Poll.sol\":1472:1477  likes */\n      0x07\n        /* \"contracts/User/Poll.sol\":1483:1493  msg.sender */\n      caller\n        /* \"contracts/User/Poll.sol\":1472:1494  likes.push(msg.sender) */\n      swap1\n      dup1\n      0x01\n      dup2\n      sload\n      add\n      dup1\n      dup3\n      sstore\n      dup1\n      swap2\n      pop\n      pop\n      0x01\n      swap1\n      sub\n      swap1\n      0x00\n      mstore\n      keccak256(0x00, 0x20)\n      add\n      0x00\n      swap1\n      swap2\n      swap1\n      swap2\n      swap1\n      swap2\n      0x0100\n      exp\n      dup2\n      sload\n      dup2\n      0xffffffffffffffffffffffffffffffffffffffff\n      mul\n      not\n      and\n      swap1\n      dup4\n      0xffffffffffffffffffffffffffffffffffffffff\n      and\n      mul\n      or\n      swap1\n      sstore\n      pop\n        /* \"contracts/User/Poll.sol\":1439:1501  function like() public {... */\n      jump\t// out\n        /* \"contracts/User/Poll.sol\":341:355  uint public id */\n    tag_84:\n      sload(0x01)\n      dup2\n      jump\t// out\n        /* \"contracts/User/Poll.sol\":395:418  string public timestamp */\n    tag_88:\n      0x03\n      dup1\n      sload\n      tag_212\n      swap1\n      tag_106\n      jump\t// in\n    tag_212:\n      dup1\n      0x1f\n      add\n      0x20\n      dup1\n      swap2\n      div\n      mul\n      0x20\n      add\n      mload(0x40)\n      swap1\n      dup2\n      add\n      0x40\n      mstore\n      dup1\n      swap3\n      swap2\n      swap1\n      dup2\n      dup2\n      mstore\n      0x20\n      add\n      dup3\n      dup1\n      sload\n      tag_213\n      swap1\n      tag_106\n      jump\t// in\n    tag_213:\n      dup1\n      iszero\n      tag_214\n      jumpi\n      dup1\n      0x1f\n      lt\n      tag_215\n      jumpi\n      0x0100\n      dup1\n      dup4\n      sload\n      div\n      mul\n      dup4\n      mstore\n      swap2\n      0x20\n      add\n      swap2\n      jump(tag_214)\n    tag_215:\n      dup3\n      add\n      swap2\n      swap1\n      0x00\n      mstore\n      keccak256(0x00, 0x20)\n      swap1\n    tag_216:\n      dup2\n      sload\n      dup2\n      mstore\n      swap1\n      0x01\n      add\n      swap1\n      0x20\n      add\n      dup1\n      dup4\n      gt\n      tag_216\n      jumpi\n      dup3\n      swap1\n      sub\n      0x1f\n      and\n      dup3\n      add\n      swap2\n    tag_214:\n      pop\n      pop\n      pop\n      pop\n      pop\n      dup2\n      jump\t// out\n        /* \"contracts/User/Poll.sol\":1507:1575  function dislike() public {... */\n    tag_91:\n        /* \"contracts/User/Poll.sol\":1543:1551  dislikes */\n      0x08\n        /* \"contracts/User/Poll.sol\":1557:1567  msg.sender */\n      caller\n        /* \"contracts/User/Poll.sol\":1543:1568  dislikes.push(msg.sender) */\n      swap1\n      dup1\n      0x01\n      dup2\n      sload\n      add\n      dup1\n      dup3\n      sstore\n      dup1\n      swap2\n      pop\n      pop\n      0x01\n      swap1\n      sub\n      swap1\n      0x00\n      mstore\n      keccak256(0x00, 0x20)\n      add\n      0x00\n      swap1\n      swap2\n      swap1\n      swap2\n      swap1\n      swap2\n      0x0100\n      exp\n      dup2\n      sload\n      dup2\n      0xffffffffffffffffffffffffffffffffffffffff\n      mul\n      not\n      and\n      swap1\n      dup4\n      0xffffffffffffffffffffffffffffffffffffffff\n      and\n      mul\n      or\n      swap1\n      sstore\n      pop\n        /* \"contracts/User/Poll.sol\":1507:1575  function dislike() public {... */\n      jump\t// out\n        /* \"contracts/User/Poll.sol\":1886:1980  function getDislikes() public view returns (address[] memory) {... */\n    tag_93:\n        /* \"contracts/User/Poll.sol\":1930:1946  address[] memory */\n      0x60\n        /* \"contracts/User/Poll.sol\":1965:1973  dislikes */\n      0x08\n        /* \"contracts/User/Poll.sol\":1958:1973  return dislikes */\n      dup1\n      sload\n      dup1\n      0x20\n      mul\n      0x20\n      add\n      mload(0x40)\n      swap1\n      dup2\n      add\n      0x40\n      mstore\n      dup1\n      swap3\n      swap2\n      swap1\n      dup2\n      dup2\n      mstore\n      0x20\n      add\n      dup3\n      dup1\n      sload\n      dup1\n      iszero\n      tag_220\n      jumpi\n      0x20\n      mul\n      dup3\n      add\n      swap2\n      swap1\n      0x00\n      mstore\n      keccak256(0x00, 0x20)\n      swap1\n    tag_221:\n      dup2\n      0x00\n      swap1\n      sload\n      swap1\n      0x0100\n      exp\n      swap1\n      div\n      0xffffffffffffffffffffffffffffffffffffffff\n      and\n      0xffffffffffffffffffffffffffffffffffffffff\n      and\n      dup2\n      mstore\n      0x20\n      add\n      swap1\n      0x01\n      add\n      swap1\n      dup1\n      dup4\n      gt\n      tag_221\n      jumpi\n    tag_220:\n      pop\n      pop\n      pop\n      pop\n      pop\n      swap1\n      pop\n        /* \"contracts/User/Poll.sol\":1886:1980  function getDislikes() public view returns (address[] memory) {... */\n      swap1\n      jump\t// out\n        /* \"@openzeppelin/contracts/utils/Counters.sol\":945:1068  function increment(Counter storage counter) internal {... */\n    tag_95:\n        /* \"@openzeppelin/contracts/utils/Counters.sol\":1050:1051  1 */\n      0x01\n        /* \"@openzeppelin/contracts/utils/Counters.sol\":1032:1039  counter */\n      dup2\n        /* \"@openzeppelin/contracts/utils/Counters.sol\":1032:1046  counter._value */\n      0x00\n      add\n      0x00\n        /* \"@openzeppelin/contracts/utils/Counters.sol\":1032:1051  counter._value += 1 */\n      dup3\n      dup3\n      sload\n      add\n      swap3\n      pop\n      pop\n      dup2\n      swap1\n      sstore\n      pop\n        /* \"@openzeppelin/contracts/utils/Counters.sol\":945:1068  function increment(Counter storage counter) internal {... */\n      pop\n      jump\t// out\n        /* \"@openzeppelin/contracts/utils/Counters.sol\":827:939  function current(Counter storage counter) internal view returns (uint256) {... */\n    tag_96:\n        /* \"@openzeppelin/contracts/utils/Counters.sol\":892:899  uint256 */\n      0x00\n        /* \"@openzeppelin/contracts/utils/Counters.sol\":918:925  counter */\n      dup2\n        /* \"@openzeppelin/contracts/utils/Counters.sol\":918:932  counter._value */\n      0x00\n      add\n      sload\n        /* \"@openzeppelin/contracts/utils/Counters.sol\":911:932  return counter._value */\n      swap1\n      pop\n        /* \"@openzeppelin/contracts/utils/Counters.sol\":827:939  function current(Counter storage counter) internal view returns (uint256) {... */\n      swap2\n      swap1\n      pop\n      jump\t// out\n    tag_189:\n      mload(0x40)\n      dup1\n      0x40\n      add\n      0x40\n      mstore\n      dup1\n      and(0xffffffffffffffffffffffffffffffffffffffff, 0x00)\n      dup2\n      mstore\n      0x20\n      add\n      0x60\n      dup2\n      mstore\n      pop\n      swap1\n      jump\t// out\n        /* \"#utility.yul\":7:82   */\n    tag_224:\n        /* \"#utility.yul\":40:46   */\n      0x00\n        /* \"#utility.yul\":73:75   */\n      0x40\n        /* \"#utility.yul\":67:76   */\n      mload\n        /* \"#utility.yul\":57:76   */\n      swap1\n      pop\n        /* \"#utility.yul\":7:82   */\n      swap1\n      jump\t// out\n        /* \"#utility.yul\":88:205   */\n    tag_225:\n        /* \"#utility.yul\":197:198   */\n      0x00\n        /* \"#utility.yul\":194:195   */\n      dup1\n        /* \"#utility.yul\":187:199   */\n      revert\n        /* \"#utility.yul\":211:328   */\n    tag_226:\n        /* \"#utility.yul\":320:321   */\n      0x00\n        /* \"#utility.yul\":317:318   */\n      dup1\n        /* \"#utility.yul\":310:322   */\n      revert\n        /* \"#utility.yul\":334:411   */\n    tag_227:\n        /* \"#utility.yul\":371:378   */\n      0x00\n        /* \"#utility.yul\":400:405   */\n      dup2\n        /* \"#utility.yul\":389:405   */\n      swap1\n      pop\n        /* \"#utility.yul\":334:411   */\n      swap2\n      swap1\n      pop\n      jump\t// out\n        /* \"#utility.yul\":417:539   */\n    tag_228:\n        /* \"#utility.yul\":490:514   */\n      tag_295\n        /* \"#utility.yul\":508:513   */\n      dup2\n        /* \"#utility.yul\":490:514   */\n      tag_227\n      jump\t// in\n    tag_295:\n        /* \"#utility.yul\":483:488   */\n      dup2\n        /* \"#utility.yul\":480:515   */\n      eq\n        /* \"#utility.yul\":470:533   */\n      tag_296\n      jumpi\n        /* \"#utility.yul\":529:530   */\n      0x00\n        /* \"#utility.yul\":526:527   */\n      dup1\n        /* \"#utility.yul\":519:531   */\n      revert\n        /* \"#utility.yul\":470:533   */\n    tag_296:\n        /* \"#utility.yul\":417:539   */\n      pop\n      jump\t// out\n        /* \"#utility.yul\":545:684   */\n    tag_229:\n        /* \"#utility.yul\":591:596   */\n      0x00\n        /* \"#utility.yul\":629:635   */\n      dup2\n        /* \"#utility.yul\":616:636   */\n      calldataload\n        /* \"#utility.yul\":607:636   */\n      swap1\n      pop\n        /* \"#utility.yul\":645:678   */\n      tag_298\n        /* \"#utility.yul\":672:677   */\n      dup2\n        /* \"#utility.yul\":645:678   */\n      tag_228\n      jump\t// in\n    tag_298:\n        /* \"#utility.yul\":545:684   */\n      swap3\n      swap2\n      pop\n      pop\n      jump\t// out\n        /* \"#utility.yul\":690:1019   */\n    tag_27:\n        /* \"#utility.yul\":749:755   */\n      0x00\n        /* \"#utility.yul\":798:800   */\n      0x20\n        /* \"#utility.yul\":786:795   */\n      dup3\n        /* \"#utility.yul\":777:784   */\n      dup5\n        /* \"#utility.yul\":773:796   */\n      sub\n        /* \"#utility.yul\":769:801   */\n      slt\n        /* \"#utility.yul\":766:885   */\n      iszero\n      tag_300\n      jumpi\n        /* \"#utility.yul\":804:883   */\n      tag_301\n      tag_225\n      jump\t// in\n    tag_301:\n        /* \"#utility.yul\":766:885   */\n    tag_300:\n        /* \"#utility.yul\":924:925   */\n      0x00\n        /* \"#utility.yul\":949:1002   */\n      tag_302\n        /* \"#utility.yul\":994:1001   */\n      dup5\n        /* \"#utility.yul\":985:991   */\n      dup3\n        /* \"#utility.yul\":974:983   */\n      dup6\n        /* \"#utility.yul\":970:992   */\n      add\n        /* \"#utility.yul\":949:1002   */\n      tag_229\n      jump\t// in\n    tag_302:\n        /* \"#utility.yul\":939:1002   */\n      swap2\n      pop\n        /* \"#utility.yul\":895:1012   */\n      pop\n        /* \"#utility.yul\":690:1019   */\n      swap3\n      swap2\n      pop\n      pop\n      jump\t// out\n        /* \"#utility.yul\":1025:1143   */\n    tag_230:\n        /* \"#utility.yul\":1112:1136   */\n      tag_304\n        /* \"#utility.yul\":1130:1135   */\n      dup2\n        /* \"#utility.yul\":1112:1136   */\n      tag_227\n      jump\t// in\n    tag_304:\n        /* \"#utility.yul\":1107:1110   */\n      dup3\n        /* \"#utility.yul\":1100:1137   */\n      mstore\n        /* \"#utility.yul\":1025:1143   */\n      pop\n      pop\n      jump\t// out\n        /* \"#utility.yul\":1149:1248   */\n    tag_231:\n        /* \"#utility.yul\":1201:1207   */\n      0x00\n        /* \"#utility.yul\":1235:1240   */\n      dup2\n        /* \"#utility.yul\":1229:1241   */\n      mload\n        /* \"#utility.yul\":1219:1241   */\n      swap1\n      pop\n        /* \"#utility.yul\":1149:1248   */\n      swap2\n      swap1\n      pop\n      jump\t// out\n        /* \"#utility.yul\":1254:1423   */\n    tag_232:\n        /* \"#utility.yul\":1338:1349   */\n      0x00\n        /* \"#utility.yul\":1372:1378   */\n      dup3\n        /* \"#utility.yul\":1367:1370   */\n      dup3\n        /* \"#utility.yul\":1360:1379   */\n      mstore\n        /* \"#utility.yul\":1412:1416   */\n      0x20\n        /* \"#utility.yul\":1407:1410   */\n      dup3\n        /* \"#utility.yul\":1403:1417   */\n      add\n        /* \"#utility.yul\":1388:1417   */\n      swap1\n      pop\n        /* \"#utility.yul\":1254:1423   */\n      swap3\n      swap2\n      pop\n      pop\n      jump\t// out\n        /* \"#utility.yul\":1429:1675   */\n    tag_233:\n        /* \"#utility.yul\":1510:1511   */\n      0x00\n        /* \"#utility.yul\":1520:1633   */\n    tag_308:\n        /* \"#utility.yul\":1534:1540   */\n      dup4\n        /* \"#utility.yul\":1531:1532   */\n      dup2\n        /* \"#utility.yul\":1528:1541   */\n      lt\n        /* \"#utility.yul\":1520:1633   */\n      iszero\n      tag_310\n      jumpi\n        /* \"#utility.yul\":1619:1620   */\n      dup1\n        /* \"#utility.yul\":1614:1617   */\n      dup3\n        /* \"#utility.yul\":1610:1621   */\n      add\n        /* \"#utility.yul\":1604:1622   */\n      mload\n        /* \"#utility.yul\":1600:1601   */\n      dup2\n        /* \"#utility.yul\":1595:1598   */\n      dup5\n        /* \"#utility.yul\":1591:1602   */\n      add\n        /* \"#utility.yul\":1584:1623   */\n      mstore\n        /* \"#utility.yul\":1556:1558   */\n      0x20\n        /* \"#utility.yul\":1553:1554   */\n      dup2\n        /* \"#utility.yul\":1549:1559   */\n      add\n        /* \"#utility.yul\":1544:1559   */\n      swap1\n      pop\n        /* \"#utility.yul\":1520:1633   */\n      jump(tag_308)\n    tag_310:\n        /* \"#utility.yul\":1667:1668   */\n      0x00\n        /* \"#utility.yul\":1658:1664   */\n      dup5\n        /* \"#utility.yul\":1653:1656   */\n      dup5\n        /* \"#utility.yul\":1649:1665   */\n      add\n        /* \"#utility.yul\":1642:1669   */\n      mstore\n        /* \"#utility.yul\":1491:1675   */\n      pop\n        /* \"#utility.yul\":1429:1675   */\n      pop\n      pop\n      pop\n      jump\t// out\n        /* \"#utility.yul\":1681:1783   */\n    tag_234:\n        /* \"#utility.yul\":1722:1728   */\n      0x00\n        /* \"#utility.yul\":1773:1775   */\n      0x1f\n        /* \"#utility.yul\":1769:1776   */\n      not\n        /* \"#utility.yul\":1764:1766   */\n      0x1f\n        /* \"#utility.yul\":1757:1762   */\n      dup4\n        /* \"#utility.yul\":1753:1767   */\n      add\n        /* \"#utility.yul\":1749:1777   */\n      and\n        /* \"#utility.yul\":1739:1777   */\n      swap1\n      pop\n        /* \"#utility.yul\":1681:1783   */\n      swap2\n      swap1\n      pop\n      jump\t// out\n        /* \"#utility.yul\":1789:2166   */\n    tag_235:\n        /* \"#utility.yul\":1877:1880   */\n      0x00\n        /* \"#utility.yul\":1905:1944   */\n      tag_313\n        /* \"#utility.yul\":1938:1943   */\n      dup3\n        /* \"#utility.yul\":1905:1944   */\n      tag_231\n      jump\t// in\n    tag_313:\n        /* \"#utility.yul\":1960:2031   */\n      tag_314\n        /* \"#utility.yul\":2024:2030   */\n      dup2\n        /* \"#utility.yul\":2019:2022   */\n      dup6\n        /* \"#utility.yul\":1960:2031   */\n      tag_232\n      jump\t// in\n    tag_314:\n        /* \"#utility.yul\":1953:2031   */\n      swap4\n      pop\n        /* \"#utility.yul\":2040:2105   */\n      tag_315\n        /* \"#utility.yul\":2098:2104   */\n      dup2\n        /* \"#utility.yul\":2093:2096   */\n      dup6\n        /* \"#utility.yul\":2086:2090   */\n      0x20\n        /* \"#utility.yul\":2079:2084   */\n      dup7\n        /* \"#utility.yul\":2075:2091   */\n      add\n        /* \"#utility.yul\":2040:2105   */\n      tag_233\n      jump\t// in\n    tag_315:\n        /* \"#utility.yul\":2130:2159   */\n      tag_316\n        /* \"#utility.yul\":2152:2158   */\n      dup2\n        /* \"#utility.yul\":2130:2159   */\n      tag_234\n      jump\t// in\n    tag_316:\n        /* \"#utility.yul\":2125:2128   */\n      dup5\n        /* \"#utility.yul\":2121:2160   */\n      add\n        /* \"#utility.yul\":2114:2160   */\n      swap2\n      pop\n        /* \"#utility.yul\":1881:2166   */\n      pop\n        /* \"#utility.yul\":1789:2166   */\n      swap3\n      swap2\n      pop\n      pop\n      jump\t// out\n        /* \"#utility.yul\":2172:2312   */\n    tag_236:\n        /* \"#utility.yul\":2265:2271   */\n      0x00\n        /* \"#utility.yul\":2299:2304   */\n      dup2\n        /* \"#utility.yul\":2293:2305   */\n      mload\n        /* \"#utility.yul\":2283:2305   */\n      swap1\n      pop\n        /* \"#utility.yul\":2172:2312   */\n      swap2\n      swap1\n      pop\n      jump\t// out\n        /* \"#utility.yul\":2318:2528   */\n    tag_237:\n        /* \"#utility.yul\":2443:2454   */\n      0x00\n        /* \"#utility.yul\":2477:2483   */\n      dup3\n        /* \"#utility.yul\":2472:2475   */\n      dup3\n        /* \"#utility.yul\":2465:2484   */\n      mstore\n        /* \"#utility.yul\":2517:2521   */\n      0x20\n        /* \"#utility.yul\":2512:2515   */\n      dup3\n        /* \"#utility.yul\":2508:2522   */\n      add\n        /* \"#utility.yul\":2493:2522   */\n      swap1\n      pop\n        /* \"#utility.yul\":2318:2528   */\n      swap3\n      swap2\n      pop\n      pop\n      jump\t// out\n        /* \"#utility.yul\":2534:2692   */\n    tag_238:\n        /* \"#utility.yul\":2627:2631   */\n      0x00\n        /* \"#utility.yul\":2650:2653   */\n      dup2\n        /* \"#utility.yul\":2642:2653   */\n      swap1\n      pop\n        /* \"#utility.yul\":2680:2684   */\n      0x20\n        /* \"#utility.yul\":2675:2678   */\n      dup3\n        /* \"#utility.yul\":2671:2685   */\n      add\n        /* \"#utility.yul\":2663:2685   */\n      swap1\n      pop\n        /* \"#utility.yul\":2534:2692   */\n      swap2\n      swap1\n      pop\n      jump\t// out\n        /* \"#utility.yul\":2698:2857   */\n    tag_239:\n        /* \"#utility.yul\":2772:2783   */\n      0x00\n        /* \"#utility.yul\":2806:2812   */\n      dup3\n        /* \"#utility.yul\":2801:2804   */\n      dup3\n        /* \"#utility.yul\":2794:2813   */\n      mstore\n        /* \"#utility.yul\":2846:2850   */\n      0x20\n        /* \"#utility.yul\":2841:2844   */\n      dup3\n        /* \"#utility.yul\":2837:2851   */\n      add\n        /* \"#utility.yul\":2822:2851   */\n      swap1\n      pop\n        /* \"#utility.yul\":2698:2857   */\n      swap3\n      swap2\n      pop\n      pop\n      jump\t// out\n        /* \"#utility.yul\":2863:3220   */\n    tag_240:\n        /* \"#utility.yul\":2941:2944   */\n      0x00\n        /* \"#utility.yul\":2969:3008   */\n      tag_322\n        /* \"#utility.yul\":3002:3007   */\n      dup3\n        /* \"#utility.yul\":2969:3008   */\n      tag_231\n      jump\t// in\n    tag_322:\n        /* \"#utility.yul\":3024:3085   */\n      tag_323\n        /* \"#utility.yul\":3078:3084   */\n      dup2\n        /* \"#utility.yul\":3073:3076   */\n      dup6\n        /* \"#utility.yul\":3024:3085   */\n      tag_239\n      jump\t// in\n    tag_323:\n        /* \"#utility.yul\":3017:3085   */\n      swap4\n      pop\n        /* \"#utility.yul\":3094:3159   */\n      tag_324\n        /* \"#utility.yul\":3152:3158   */\n      dup2\n        /* \"#utility.yul\":3147:3150   */\n      dup6\n        /* \"#utility.yul\":3140:3144   */\n      0x20\n        /* \"#utility.yul\":3133:3138   */\n      dup7\n        /* \"#utility.yul\":3129:3145   */\n      add\n        /* \"#utility.yul\":3094:3159   */\n      tag_233\n      jump\t// in\n    tag_324:\n        /* \"#utility.yul\":3184:3213   */\n      tag_325\n        /* \"#utility.yul\":3206:3212   */\n      dup2\n        /* \"#utility.yul\":3184:3213   */\n      tag_234\n      jump\t// in\n    tag_325:\n        /* \"#utility.yul\":3179:3182   */\n      dup5\n        /* \"#utility.yul\":3175:3214   */\n      add\n        /* \"#utility.yul\":3168:3214   */\n      swap2\n      pop\n        /* \"#utility.yul\":2945:3220   */\n      pop\n        /* \"#utility.yul\":2863:3220   */\n      swap3\n      swap2\n      pop\n      pop\n      jump\t// out\n        /* \"#utility.yul\":3226:3340   */\n    tag_241:\n        /* \"#utility.yul\":3293:3299   */\n      0x00\n        /* \"#utility.yul\":3327:3332   */\n      dup2\n        /* \"#utility.yul\":3321:3333   */\n      mload\n        /* \"#utility.yul\":3311:3333   */\n      swap1\n      pop\n        /* \"#utility.yul\":3226:3340   */\n      swap2\n      swap1\n      pop\n      jump\t// out\n        /* \"#utility.yul\":3346:3520   */\n    tag_242:\n        /* \"#utility.yul\":3435:3446   */\n      0x00\n        /* \"#utility.yul\":3469:3475   */\n      dup3\n        /* \"#utility.yul\":3464:3467   */\n      dup3\n        /* \"#utility.yul\":3457:3476   */\n      mstore\n        /* \"#utility.yul\":3509:3513   */\n      0x20\n        /* \"#utility.yul\":3504:3507   */\n      dup3\n        /* \"#utility.yul\":3500:3514   */\n      add\n        /* \"#utility.yul\":3485:3514   */\n      swap1\n      pop\n        /* \"#utility.yul\":3346:3520   */\n      swap3\n      swap2\n      pop\n      pop\n      jump\t// out\n        /* \"#utility.yul\":3526:3658   */\n    tag_243:\n        /* \"#utility.yul\":3593:3597   */\n      0x00\n        /* \"#utility.yul\":3616:3619   */\n      dup2\n        /* \"#utility.yul\":3608:3619   */\n      swap1\n      pop\n        /* \"#utility.yul\":3646:3650   */\n      0x20\n        /* \"#utility.yul\":3641:3644   */\n      dup3\n        /* \"#utility.yul\":3637:3651   */\n      add\n        /* \"#utility.yul\":3629:3651   */\n      swap1\n      pop\n        /* \"#utility.yul\":3526:3658   */\n      swap2\n      swap1\n      pop\n      jump\t// out\n        /* \"#utility.yul\":3664:3790   */\n    tag_244:\n        /* \"#utility.yul\":3701:3708   */\n      0x00\n        /* \"#utility.yul\":3741:3783   */\n      0xffffffffffffffffffffffffffffffffffffffff\n        /* \"#utility.yul\":3734:3739   */\n      dup3\n        /* \"#utility.yul\":3730:3784   */\n      and\n        /* \"#utility.yul\":3719:3784   */\n      swap1\n      pop\n        /* \"#utility.yul\":3664:3790   */\n      swap2\n      swap1\n      pop\n      jump\t// out\n        /* \"#utility.yul\":3796:3892   */\n    tag_245:\n        /* \"#utility.yul\":3833:3840   */\n      0x00\n        /* \"#utility.yul\":3862:3886   */\n      tag_331\n        /* \"#utility.yul\":3880:3885   */\n      dup3\n        /* \"#utility.yul\":3862:3886   */\n      tag_244\n      jump\t// in\n    tag_331:\n        /* \"#utility.yul\":3851:3886   */\n      swap1\n      pop\n        /* \"#utility.yul\":3796:3892   */\n      swap2\n      swap1\n      pop\n      jump\t// out\n        /* \"#utility.yul\":3898:4006   */\n    tag_246:\n        /* \"#utility.yul\":3975:3999   */\n      tag_333\n        /* \"#utility.yul\":3993:3998   */\n      dup2\n        /* \"#utility.yul\":3975:3999   */\n      tag_245\n      jump\t// in\n    tag_333:\n        /* \"#utility.yul\":3970:3973   */\n      dup3\n        /* \"#utility.yul\":3963:4000   */\n      mstore\n        /* \"#utility.yul\":3898:4006   */\n      pop\n      pop\n      jump\t// out\n        /* \"#utility.yul\":4012:4191   */\n    tag_247:\n        /* \"#utility.yul\":4081:4091   */\n      0x00\n        /* \"#utility.yul\":4102:4148   */\n      tag_335\n        /* \"#utility.yul\":4144:4147   */\n      dup4\n        /* \"#utility.yul\":4136:4142   */\n      dup4\n        /* \"#utility.yul\":4102:4148   */\n      tag_246\n      jump\t// in\n    tag_335:\n        /* \"#utility.yul\":4180:4184   */\n      0x20\n        /* \"#utility.yul\":4175:4178   */\n      dup4\n        /* \"#utility.yul\":4171:4185   */\n      add\n        /* \"#utility.yul\":4157:4185   */\n      swap1\n      pop\n        /* \"#utility.yul\":4012:4191   */\n      swap3\n      swap2\n      pop\n      pop\n      jump\t// out\n        /* \"#utility.yul\":4197:4310   */\n    tag_248:\n        /* \"#utility.yul\":4267:4271   */\n      0x00\n        /* \"#utility.yul\":4299:4303   */\n      0x20\n        /* \"#utility.yul\":4294:4297   */\n      dup3\n        /* \"#utility.yul\":4290:4304   */\n      add\n        /* \"#utility.yul\":4282:4304   */\n      swap1\n      pop\n        /* \"#utility.yul\":4197:4310   */\n      swap2\n      swap1\n      pop\n      jump\t// out\n        /* \"#utility.yul\":4346:5058   */\n    tag_249:\n        /* \"#utility.yul\":4455:4458   */\n      0x00\n        /* \"#utility.yul\":4484:4538   */\n      tag_338\n        /* \"#utility.yul\":4532:4537   */\n      dup3\n        /* \"#utility.yul\":4484:4538   */\n      tag_241\n      jump\t// in\n    tag_338:\n        /* \"#utility.yul\":4554:4630   */\n      tag_339\n        /* \"#utility.yul\":4623:4629   */\n      dup2\n        /* \"#utility.yul\":4618:4621   */\n      dup6\n        /* \"#utility.yul\":4554:4630   */\n      tag_242\n      jump\t// in\n    tag_339:\n        /* \"#utility.yul\":4547:4630   */\n      swap4\n      pop\n        /* \"#utility.yul\":4654:4710   */\n      tag_340\n        /* \"#utility.yul\":4704:4709   */\n      dup4\n        /* \"#utility.yul\":4654:4710   */\n      tag_243\n      jump\t// in\n    tag_340:\n        /* \"#utility.yul\":4733:4740   */\n      dup1\n        /* \"#utility.yul\":4764:4765   */\n      0x00\n        /* \"#utility.yul\":4749:5033   */\n    tag_341:\n        /* \"#utility.yul\":4774:4780   */\n      dup4\n        /* \"#utility.yul\":4771:4772   */\n      dup2\n        /* \"#utility.yul\":4768:4781   */\n      lt\n        /* \"#utility.yul\":4749:5033   */\n      iszero\n      tag_343\n      jumpi\n        /* \"#utility.yul\":4850:4856   */\n      dup2\n        /* \"#utility.yul\":4844:4857   */\n      mload\n        /* \"#utility.yul\":4877:4940   */\n      tag_344\n        /* \"#utility.yul\":4936:4939   */\n      dup9\n        /* \"#utility.yul\":4921:4934   */\n      dup3\n        /* \"#utility.yul\":4877:4940   */\n      tag_247\n      jump\t// in\n    tag_344:\n        /* \"#utility.yul\":4870:4940   */\n      swap8\n      pop\n        /* \"#utility.yul\":4963:5023   */\n      tag_345\n        /* \"#utility.yul\":5016:5022   */\n      dup4\n        /* \"#utility.yul\":4963:5023   */\n      tag_248\n      jump\t// in\n    tag_345:\n        /* \"#utility.yul\":4953:5023   */\n      swap3\n      pop\n        /* \"#utility.yul\":4809:5033   */\n      pop\n        /* \"#utility.yul\":4796:4797   */\n      0x01\n        /* \"#utility.yul\":4793:4794   */\n      dup2\n        /* \"#utility.yul\":4789:4798   */\n      add\n        /* \"#utility.yul\":4784:4798   */\n      swap1\n      pop\n        /* \"#utility.yul\":4749:5033   */\n      jump(tag_341)\n    tag_343:\n        /* \"#utility.yul\":4753:4767   */\n      pop\n        /* \"#utility.yul\":5049:5052   */\n      dup6\n        /* \"#utility.yul\":5042:5052   */\n      swap4\n      pop\n        /* \"#utility.yul\":4460:5058   */\n      pop\n      pop\n      pop\n        /* \"#utility.yul\":4346:5058   */\n      swap3\n      swap2\n      pop\n      pop\n      jump\t// out\n        /* \"#utility.yul\":5110:5813   */\n    tag_250:\n        /* \"#utility.yul\":5221:5224   */\n      0x00\n        /* \"#utility.yul\":5257:5261   */\n      0x40\n        /* \"#utility.yul\":5252:5255   */\n      dup4\n        /* \"#utility.yul\":5248:5262   */\n      add\n        /* \"#utility.yul\":5346:5350   */\n      0x00\n        /* \"#utility.yul\":5339:5344   */\n      dup4\n        /* \"#utility.yul\":5335:5351   */\n      add\n        /* \"#utility.yul\":5329:5352   */\n      mload\n        /* \"#utility.yul\":5399:5402   */\n      dup5\n        /* \"#utility.yul\":5393:5397   */\n      dup3\n        /* \"#utility.yul\":5389:5403   */\n      sub\n        /* \"#utility.yul\":5382:5386   */\n      0x00\n        /* \"#utility.yul\":5377:5380   */\n      dup7\n        /* \"#utility.yul\":5373:5387   */\n      add\n        /* \"#utility.yul\":5366:5404   */\n      mstore\n        /* \"#utility.yul\":5425:5498   */\n      tag_347\n        /* \"#utility.yul\":5493:5497   */\n      dup3\n        /* \"#utility.yul\":5479:5491   */\n      dup3\n        /* \"#utility.yul\":5425:5498   */\n      tag_240\n      jump\t// in\n    tag_347:\n        /* \"#utility.yul\":5417:5498   */\n      swap2\n      pop\n        /* \"#utility.yul\":5272:5509   */\n      pop\n        /* \"#utility.yul\":5593:5597   */\n      0x20\n        /* \"#utility.yul\":5586:5591   */\n      dup4\n        /* \"#utility.yul\":5582:5598   */\n      add\n        /* \"#utility.yul\":5576:5599   */\n      mload\n        /* \"#utility.yul\":5646:5649   */\n      dup5\n        /* \"#utility.yul\":5640:5644   */\n      dup3\n        /* \"#utility.yul\":5636:5650   */\n      sub\n        /* \"#utility.yul\":5629:5633   */\n      0x20\n        /* \"#utility.yul\":5624:5627   */\n      dup7\n        /* \"#utility.yul\":5620:5634   */\n      add\n        /* \"#utility.yul\":5613:5651   */\n      mstore\n        /* \"#utility.yul\":5672:5775   */\n      tag_348\n        /* \"#utility.yul\":5770:5774   */\n      dup3\n        /* \"#utility.yul\":5756:5768   */\n      dup3\n        /* \"#utility.yul\":5672:5775   */\n      tag_249\n      jump\t// in\n    tag_348:\n        /* \"#utility.yul\":5664:5775   */\n      swap2\n      pop\n        /* \"#utility.yul\":5519:5786   */\n      pop\n        /* \"#utility.yul\":5803:5807   */\n      dup1\n        /* \"#utility.yul\":5796:5807   */\n      swap2\n      pop\n        /* \"#utility.yul\":5226:5813   */\n      pop\n        /* \"#utility.yul\":5110:5813   */\n      swap3\n      swap2\n      pop\n      pop\n      jump\t// out\n        /* \"#utility.yul\":5819:6079   */\n    tag_251:\n        /* \"#utility.yul\":5940:5950   */\n      0x00\n        /* \"#utility.yul\":5975:6073   */\n      tag_350\n        /* \"#utility.yul\":6069:6072   */\n      dup4\n        /* \"#utility.yul\":6061:6067   */\n      dup4\n        /* \"#utility.yul\":5975:6073   */\n      tag_250\n      jump\t// in\n    tag_350:\n        /* \"#utility.yul\":5961:6073   */\n      swap1\n      pop\n        /* \"#utility.yul\":5819:6079   */\n      swap3\n      swap2\n      pop\n      pop\n      jump\t// out\n        /* \"#utility.yul\":6085:6224   */\n    tag_252:\n        /* \"#utility.yul\":6181:6185   */\n      0x00\n        /* \"#utility.yul\":6213:6217   */\n      0x20\n        /* \"#utility.yul\":6208:6211   */\n      dup3\n        /* \"#utility.yul\":6204:6218   */\n      add\n        /* \"#utility.yul\":6196:6218   */\n      swap1\n      pop\n        /* \"#utility.yul\":6085:6224   */\n      swap2\n      swap1\n      pop\n      jump\t// out\n        /* \"#utility.yul\":6280:7399   */\n    tag_253:\n        /* \"#utility.yul\":6451:6454   */\n      0x00\n        /* \"#utility.yul\":6480:6560   */\n      tag_353\n        /* \"#utility.yul\":6554:6559   */\n      dup3\n        /* \"#utility.yul\":6480:6560   */\n      tag_236\n      jump\t// in\n    tag_353:\n        /* \"#utility.yul\":6576:6688   */\n      tag_354\n        /* \"#utility.yul\":6681:6687   */\n      dup2\n        /* \"#utility.yul\":6676:6679   */\n      dup6\n        /* \"#utility.yul\":6576:6688   */\n      tag_237\n      jump\t// in\n    tag_354:\n        /* \"#utility.yul\":6569:6688   */\n      swap4\n      pop\n        /* \"#utility.yul\":6714:6717   */\n      dup4\n        /* \"#utility.yul\":6759:6763   */\n      0x20\n        /* \"#utility.yul\":6751:6757   */\n      dup3\n        /* \"#utility.yul\":6747:6764   */\n      mul\n        /* \"#utility.yul\":6742:6745   */\n      dup6\n        /* \"#utility.yul\":6738:6765   */\n      add\n        /* \"#utility.yul\":6789:6871   */\n      tag_355\n        /* \"#utility.yul\":6865:6870   */\n      dup6\n        /* \"#utility.yul\":6789:6871   */\n      tag_238\n      jump\t// in\n    tag_355:\n        /* \"#utility.yul\":6894:6901   */\n      dup1\n        /* \"#utility.yul\":6925:6926   */\n      0x00\n        /* \"#utility.yul\":6910:7354   */\n    tag_356:\n        /* \"#utility.yul\":6935:6941   */\n      dup6\n        /* \"#utility.yul\":6932:6933   */\n      dup2\n        /* \"#utility.yul\":6929:6942   */\n      lt\n        /* \"#utility.yul\":6910:7354   */\n      iszero\n      tag_358\n      jumpi\n        /* \"#utility.yul\":7006:7015   */\n      dup5\n        /* \"#utility.yul\":7000:7004   */\n      dup5\n        /* \"#utility.yul\":6996:7016   */\n      sub\n        /* \"#utility.yul\":6991:6994   */\n      dup10\n        /* \"#utility.yul\":6984:7017   */\n      mstore\n        /* \"#utility.yul\":7057:7063   */\n      dup2\n        /* \"#utility.yul\":7051:7064   */\n      mload\n        /* \"#utility.yul\":7085:7201   */\n      tag_359\n        /* \"#utility.yul\":7196:7200   */\n      dup6\n        /* \"#utility.yul\":7181:7194   */\n      dup3\n        /* \"#utility.yul\":7085:7201   */\n      tag_251\n      jump\t// in\n    tag_359:\n        /* \"#utility.yul\":7077:7201   */\n      swap5\n      pop\n        /* \"#utility.yul\":7224:7310   */\n      tag_360\n        /* \"#utility.yul\":7303:7309   */\n      dup4\n        /* \"#utility.yul\":7224:7310   */\n      tag_252\n      jump\t// in\n    tag_360:\n        /* \"#utility.yul\":7214:7310   */\n      swap3\n      pop\n        /* \"#utility.yul\":7339:7343   */\n      0x20\n        /* \"#utility.yul\":7334:7337   */\n      dup11\n        /* \"#utility.yul\":7330:7344   */\n      add\n        /* \"#utility.yul\":7323:7344   */\n      swap10\n      pop\n        /* \"#utility.yul\":6970:7354   */\n      pop\n        /* \"#utility.yul\":6957:6958   */\n      0x01\n        /* \"#utility.yul\":6954:6955   */\n      dup2\n        /* \"#utility.yul\":6950:6959   */\n      add\n        /* \"#utility.yul\":6945:6959   */\n      swap1\n      pop\n        /* \"#utility.yul\":6910:7354   */\n      jump(tag_356)\n    tag_358:\n        /* \"#utility.yul\":6914:6928   */\n      pop\n        /* \"#utility.yul\":7370:7374   */\n      dup3\n        /* \"#utility.yul\":7363:7374   */\n      swap8\n      pop\n        /* \"#utility.yul\":7390:7393   */\n      dup8\n        /* \"#utility.yul\":7383:7393   */\n      swap6\n      pop\n        /* \"#utility.yul\":6456:7399   */\n      pop\n      pop\n      pop\n      pop\n      pop\n        /* \"#utility.yul\":6280:7399   */\n      swap3\n      swap2\n      pop\n      pop\n      jump\t// out\n        /* \"#utility.yul\":7405:7589   */\n    tag_254:\n        /* \"#utility.yul\":7504:7515   */\n      0x00\n        /* \"#utility.yul\":7538:7544   */\n      dup3\n        /* \"#utility.yul\":7533:7536   */\n      dup3\n        /* \"#utility.yul\":7526:7545   */\n      mstore\n        /* \"#utility.yul\":7578:7582   */\n      0x20\n        /* \"#utility.yul\":7573:7576   */\n      dup3\n        /* \"#utility.yul\":7569:7583   */\n      add\n        /* \"#utility.yul\":7554:7583   */\n      swap1\n      pop\n        /* \"#utility.yul\":7405:7589   */\n      swap3\n      swap2\n      pop\n      pop\n      jump\t// out\n        /* \"#utility.yul\":7625:8357   */\n    tag_255:\n        /* \"#utility.yul\":7744:7747   */\n      0x00\n        /* \"#utility.yul\":7773:7827   */\n      tag_363\n        /* \"#utility.yul\":7821:7826   */\n      dup3\n        /* \"#utility.yul\":7773:7827   */\n      tag_241\n      jump\t// in\n    tag_363:\n        /* \"#utility.yul\":7843:7929   */\n      tag_364\n        /* \"#utility.yul\":7922:7928   */\n      dup2\n        /* \"#utility.yul\":7917:7920   */\n      dup6\n        /* \"#utility.yul\":7843:7929   */\n      tag_254\n      jump\t// in\n    tag_364:\n        /* \"#utility.yul\":7836:7929   */\n      swap4\n      pop\n        /* \"#utility.yul\":7953:8009   */\n      tag_365\n        /* \"#utility.yul\":8003:8008   */\n      dup4\n        /* \"#utility.yul\":7953:8009   */\n      tag_243\n      jump\t// in\n    tag_365:\n        /* \"#utility.yul\":8032:8039   */\n      dup1\n        /* \"#utility.yul\":8063:8064   */\n      0x00\n        /* \"#utility.yul\":8048:8332   */\n    tag_366:\n        /* \"#utility.yul\":8073:8079   */\n      dup4\n        /* \"#utility.yul\":8070:8071   */\n      dup2\n        /* \"#utility.yul\":8067:8080   */\n      lt\n        /* \"#utility.yul\":8048:8332   */\n      iszero\n      tag_368\n      jumpi\n        /* \"#utility.yul\":8149:8155   */\n      dup2\n        /* \"#utility.yul\":8143:8156   */\n      mload\n        /* \"#utility.yul\":8176:8239   */\n      tag_369\n        /* \"#utility.yul\":8235:8238   */\n      dup9\n        /* \"#utility.yul\":8220:8233   */\n      dup3\n        /* \"#utility.yul\":8176:8239   */\n      tag_247\n      jump\t// in\n    tag_369:\n        /* \"#utility.yul\":8169:8239   */\n      swap8\n      pop\n        /* \"#utility.yul\":8262:8322   */\n      tag_370\n        /* \"#utility.yul\":8315:8321   */\n      dup4\n        /* \"#utility.yul\":8262:8322   */\n      tag_248\n      jump\t// in\n    tag_370:\n        /* \"#utility.yul\":8252:8322   */\n      swap3\n      pop\n        /* \"#utility.yul\":8108:8332   */\n      pop\n        /* \"#utility.yul\":8095:8096   */\n      0x01\n        /* \"#utility.yul\":8092:8093   */\n      dup2\n        /* \"#utility.yul\":8088:8097   */\n      add\n        /* \"#utility.yul\":8083:8097   */\n      swap1\n      pop\n        /* \"#utility.yul\":8048:8332   */\n      jump(tag_366)\n    tag_368:\n        /* \"#utility.yul\":8052:8066   */\n      pop\n        /* \"#utility.yul\":8348:8351   */\n      dup6\n        /* \"#utility.yul\":8341:8351   */\n      swap4\n      pop\n        /* \"#utility.yul\":7749:8357   */\n      pop\n      pop\n      pop\n        /* \"#utility.yul\":7625:8357   */\n      swap3\n      swap2\n      pop\n      pop\n      jump\t// out\n        /* \"#utility.yul\":8363:8500   */\n    tag_256:\n        /* \"#utility.yul\":8453:8459   */\n      0x00\n        /* \"#utility.yul\":8487:8492   */\n      dup2\n        /* \"#utility.yul\":8481:8493   */\n      mload\n        /* \"#utility.yul\":8471:8493   */\n      swap1\n      pop\n        /* \"#utility.yul\":8363:8500   */\n      swap2\n      swap1\n      pop\n      jump\t// out\n        /* \"#utility.yul\":8506:8713   */\n    tag_257:\n        /* \"#utility.yul\":8628:8639   */\n      0x00\n        /* \"#utility.yul\":8662:8668   */\n      dup3\n        /* \"#utility.yul\":8657:8660   */\n      dup3\n        /* \"#utility.yul\":8650:8669   */\n      mstore\n        /* \"#utility.yul\":8702:8706   */\n      0x20\n        /* \"#utility.yul\":8697:8700   */\n      dup3\n        /* \"#utility.yul\":8693:8707   */\n      add\n        /* \"#utility.yul\":8678:8707   */\n      swap1\n      pop\n        /* \"#utility.yul\":8506:8713   */\n      swap3\n      swap2\n      pop\n      pop\n      jump\t// out\n        /* \"#utility.yul\":8719:8874   */\n    tag_258:\n        /* \"#utility.yul\":8809:8813   */\n      0x00\n        /* \"#utility.yul\":8832:8835   */\n      dup2\n        /* \"#utility.yul\":8824:8835   */\n      swap1\n      pop\n        /* \"#utility.yul\":8862:8866   */\n      0x20\n        /* \"#utility.yul\":8857:8860   */\n      dup3\n        /* \"#utility.yul\":8853:8867   */\n      add\n        /* \"#utility.yul\":8845:8867   */\n      swap1\n      pop\n        /* \"#utility.yul\":8719:8874   */\n      swap2\n      swap1\n      pop\n      jump\t// out\n        /* \"#utility.yul\":8920:9515   */\n    tag_259:\n        /* \"#utility.yul\":9025:9028   */\n      0x00\n        /* \"#utility.yul\":9061:9065   */\n      0x40\n        /* \"#utility.yul\":9056:9059   */\n      dup4\n        /* \"#utility.yul\":9052:9066   */\n      add\n        /* \"#utility.yul\":9148:9152   */\n      0x00\n        /* \"#utility.yul\":9141:9146   */\n      dup4\n        /* \"#utility.yul\":9137:9153   */\n      add\n        /* \"#utility.yul\":9131:9154   */\n      mload\n        /* \"#utility.yul\":9167:9230   */\n      tag_375\n        /* \"#utility.yul\":9224:9228   */\n      0x00\n        /* \"#utility.yul\":9219:9222   */\n      dup7\n        /* \"#utility.yul\":9215:9229   */\n      add\n        /* \"#utility.yul\":9201:9213   */\n      dup3\n        /* \"#utility.yul\":9167:9230   */\n      tag_246\n      jump\t// in\n    tag_375:\n        /* \"#utility.yul\":9076:9240   */\n      pop\n        /* \"#utility.yul\":9325:9329   */\n      0x20\n        /* \"#utility.yul\":9318:9323   */\n      dup4\n        /* \"#utility.yul\":9314:9330   */\n      add\n        /* \"#utility.yul\":9308:9331   */\n      mload\n        /* \"#utility.yul\":9378:9381   */\n      dup5\n        /* \"#utility.yul\":9372:9376   */\n      dup3\n        /* \"#utility.yul\":9368:9382   */\n      sub\n        /* \"#utility.yul\":9361:9365   */\n      0x20\n        /* \"#utility.yul\":9356:9359   */\n      dup7\n        /* \"#utility.yul\":9352:9366   */\n      add\n        /* \"#utility.yul\":9345:9383   */\n      mstore\n        /* \"#utility.yul\":9404:9477   */\n      tag_376\n        /* \"#utility.yul\":9472:9476   */\n      dup3\n        /* \"#utility.yul\":9458:9470   */\n      dup3\n        /* \"#utility.yul\":9404:9477   */\n      tag_240\n      jump\t// in\n    tag_376:\n        /* \"#utility.yul\":9396:9477   */\n      swap2\n      pop\n        /* \"#utility.yul\":9250:9488   */\n      pop\n        /* \"#utility.yul\":9505:9509   */\n      dup1\n        /* \"#utility.yul\":9498:9509   */\n      swap2\n      pop\n        /* \"#utility.yul\":9030:9515   */\n      pop\n        /* \"#utility.yul\":8920:9515   */\n      swap3\n      swap2\n      pop\n      pop\n      jump\t// out\n        /* \"#utility.yul\":9521:9769   */\n    tag_260:\n        /* \"#utility.yul\":9636:9646   */\n      0x00\n        /* \"#utility.yul\":9671:9763   */\n      tag_378\n        /* \"#utility.yul\":9759:9762   */\n      dup4\n        /* \"#utility.yul\":9751:9757   */\n      dup4\n        /* \"#utility.yul\":9671:9763   */\n      tag_259\n      jump\t// in\n    tag_378:\n        /* \"#utility.yul\":9657:9763   */\n      swap1\n      pop\n        /* \"#utility.yul\":9521:9769   */\n      swap3\n      swap2\n      pop\n      pop\n      jump\t// out\n        /* \"#utility.yul\":9775:9911   */\n    tag_261:\n        /* \"#utility.yul\":9868:9872   */\n      0x00\n        /* \"#utility.yul\":9900:9904   */\n      0x20\n        /* \"#utility.yul\":9895:9898   */\n      dup3\n        /* \"#utility.yul\":9891:9905   */\n      add\n        /* \"#utility.yul\":9883:9905   */\n      swap1\n      pop\n        /* \"#utility.yul\":9775:9911   */\n      swap2\n      swap1\n      pop\n      jump\t// out\n        /* \"#utility.yul\":9961:11056   */\n    tag_262:\n        /* \"#utility.yul\":10126:10129   */\n      0x00\n        /* \"#utility.yul\":10155:10232   */\n      tag_381\n        /* \"#utility.yul\":10226:10231   */\n      dup3\n        /* \"#utility.yul\":10155:10232   */\n      tag_256\n      jump\t// in\n    tag_381:\n        /* \"#utility.yul\":10248:10357   */\n      tag_382\n        /* \"#utility.yul\":10350:10356   */\n      dup2\n        /* \"#utility.yul\":10345:10348   */\n      dup6\n        /* \"#utility.yul\":10248:10357   */\n      tag_257\n      jump\t// in\n    tag_382:\n        /* \"#utility.yul\":10241:10357   */\n      swap4\n      pop\n        /* \"#utility.yul\":10383:10386   */\n      dup4\n        /* \"#utility.yul\":10428:10432   */\n      0x20\n        /* \"#utility.yul\":10420:10426   */\n      dup3\n        /* \"#utility.yul\":10416:10433   */\n      mul\n        /* \"#utility.yul\":10411:10414   */\n      dup6\n        /* \"#utility.yul\":10407:10434   */\n      add\n        /* \"#utility.yul\":10458:10537   */\n      tag_383\n        /* \"#utility.yul\":10531:10536   */\n      dup6\n        /* \"#utility.yul\":10458:10537   */\n      tag_258\n      jump\t// in\n    tag_383:\n        /* \"#utility.yul\":10560:10567   */\n      dup1\n        /* \"#utility.yul\":10591:10592   */\n      0x00\n        /* \"#utility.yul\":10576:11011   */\n    tag_384:\n        /* \"#utility.yul\":10601:10607   */\n      dup6\n        /* \"#utility.yul\":10598:10599   */\n      dup2\n        /* \"#utility.yul\":10595:10608   */\n      lt\n        /* \"#utility.yul\":10576:11011   */\n      iszero\n      tag_386\n      jumpi\n        /* \"#utility.yul\":10672:10681   */\n      dup5\n        /* \"#utility.yul\":10666:10670   */\n      dup5\n        /* \"#utility.yul\":10662:10682   */\n      sub\n        /* \"#utility.yul\":10657:10660   */\n      dup10\n        /* \"#utility.yul\":10650:10683   */\n      mstore\n        /* \"#utility.yul\":10723:10729   */\n      dup2\n        /* \"#utility.yul\":10717:10730   */\n      mload\n        /* \"#utility.yul\":10751:10861   */\n      tag_387\n        /* \"#utility.yul\":10856:10860   */\n      dup6\n        /* \"#utility.yul\":10841:10854   */\n      dup3\n        /* \"#utility.yul\":10751:10861   */\n      tag_260\n      jump\t// in\n    tag_387:\n        /* \"#utility.yul\":10743:10861   */\n      swap5\n      pop\n        /* \"#utility.yul\":10884:10967   */\n      tag_388\n        /* \"#utility.yul\":10960:10966   */\n      dup4\n        /* \"#utility.yul\":10884:10967   */\n      tag_261\n      jump\t// in\n    tag_388:\n        /* \"#utility.yul\":10874:10967   */\n      swap3\n      pop\n        /* \"#utility.yul\":10996:11000   */\n      0x20\n        /* \"#utility.yul\":10991:10994   */\n      dup11\n        /* \"#utility.yul\":10987:11001   */\n      add\n        /* \"#utility.yul\":10980:11001   */\n      swap10\n      pop\n        /* \"#utility.yul\":10636:11011   */\n      pop\n        /* \"#utility.yul\":10623:10624   */\n      0x01\n        /* \"#utility.yul\":10620:10621   */\n      dup2\n        /* \"#utility.yul\":10616:10625   */\n      add\n        /* \"#utility.yul\":10611:10625   */\n      swap1\n      pop\n        /* \"#utility.yul\":10576:11011   */\n      jump(tag_384)\n    tag_386:\n        /* \"#utility.yul\":10580:10594   */\n      pop\n        /* \"#utility.yul\":11027:11031   */\n      dup3\n        /* \"#utility.yul\":11020:11031   */\n      swap8\n      pop\n        /* \"#utility.yul\":11047:11050   */\n      dup8\n        /* \"#utility.yul\":11040:11050   */\n      swap6\n      pop\n        /* \"#utility.yul\":10131:11056   */\n      pop\n      pop\n      pop\n      pop\n      pop\n        /* \"#utility.yul\":9961:11056   */\n      swap3\n      swap2\n      pop\n      pop\n      jump\t// out\n        /* \"#utility.yul\":11062:13132   */\n    tag_32:\n        /* \"#utility.yul\":11709:11713   */\n      0x00\n        /* \"#utility.yul\":11747:11750   */\n      0x0100\n        /* \"#utility.yul\":11736:11745   */\n      dup3\n        /* \"#utility.yul\":11732:11751   */\n      add\n        /* \"#utility.yul\":11724:11751   */\n      swap1\n      pop\n        /* \"#utility.yul\":11761:11832   */\n      tag_390\n        /* \"#utility.yul\":11829:11830   */\n      0x00\n        /* \"#utility.yul\":11818:11827   */\n      dup4\n        /* \"#utility.yul\":11814:11831   */\n      add\n        /* \"#utility.yul\":11805:11811   */\n      dup12\n        /* \"#utility.yul\":11761:11832   */\n      tag_230\n      jump\t// in\n    tag_390:\n        /* \"#utility.yul\":11879:11888   */\n      dup2\n        /* \"#utility.yul\":11873:11877   */\n      dup2\n        /* \"#utility.yul\":11869:11889   */\n      sub\n        /* \"#utility.yul\":11864:11866   */\n      0x20\n        /* \"#utility.yul\":11853:11862   */\n      dup4\n        /* \"#utility.yul\":11849:11867   */\n      add\n        /* \"#utility.yul\":11842:11890   */\n      mstore\n        /* \"#utility.yul\":11907:11985   */\n      tag_391\n        /* \"#utility.yul\":11980:11984   */\n      dup2\n        /* \"#utility.yul\":11971:11977   */\n      dup11\n        /* \"#utility.yul\":11907:11985   */\n      tag_235\n      jump\t// in\n    tag_391:\n        /* \"#utility.yul\":11899:11985   */\n      swap1\n      pop\n        /* \"#utility.yul\":12032:12041   */\n      dup2\n        /* \"#utility.yul\":12026:12030   */\n      dup2\n        /* \"#utility.yul\":12022:12042   */\n      sub\n        /* \"#utility.yul\":12017:12019   */\n      0x40\n        /* \"#utility.yul\":12006:12015   */\n      dup4\n        /* \"#utility.yul\":12002:12020   */\n      add\n        /* \"#utility.yul\":11995:12043   */\n      mstore\n        /* \"#utility.yul\":12060:12138   */\n      tag_392\n        /* \"#utility.yul\":12133:12137   */\n      dup2\n        /* \"#utility.yul\":12124:12130   */\n      dup10\n        /* \"#utility.yul\":12060:12138   */\n      tag_235\n      jump\t// in\n    tag_392:\n        /* \"#utility.yul\":12052:12138   */\n      swap1\n      pop\n        /* \"#utility.yul\":12185:12194   */\n      dup2\n        /* \"#utility.yul\":12179:12183   */\n      dup2\n        /* \"#utility.yul\":12175:12195   */\n      sub\n        /* \"#utility.yul\":12170:12172   */\n      0x60\n        /* \"#utility.yul\":12159:12168   */\n      dup4\n        /* \"#utility.yul\":12155:12173   */\n      add\n        /* \"#utility.yul\":12148:12196   */\n      mstore\n        /* \"#utility.yul\":12213:12291   */\n      tag_393\n        /* \"#utility.yul\":12286:12290   */\n      dup2\n        /* \"#utility.yul\":12277:12283   */\n      dup9\n        /* \"#utility.yul\":12213:12291   */\n      tag_235\n      jump\t// in\n    tag_393:\n        /* \"#utility.yul\":12205:12291   */\n      swap1\n      pop\n        /* \"#utility.yul\":12339:12348   */\n      dup2\n        /* \"#utility.yul\":12333:12337   */\n      dup2\n        /* \"#utility.yul\":12329:12349   */\n      sub\n        /* \"#utility.yul\":12323:12326   */\n      0x80\n        /* \"#utility.yul\":12312:12321   */\n      dup4\n        /* \"#utility.yul\":12308:12327   */\n      add\n        /* \"#utility.yul\":12301:12350   */\n      mstore\n        /* \"#utility.yul\":12367:12527   */\n      tag_394\n        /* \"#utility.yul\":12522:12526   */\n      dup2\n        /* \"#utility.yul\":12513:12519   */\n      dup8\n        /* \"#utility.yul\":12367:12527   */\n      tag_253\n      jump\t// in\n    tag_394:\n        /* \"#utility.yul\":12359:12527   */\n      swap1\n      pop\n        /* \"#utility.yul\":12575:12584   */\n      dup2\n        /* \"#utility.yul\":12569:12573   */\n      dup2\n        /* \"#utility.yul\":12565:12585   */\n      sub\n        /* \"#utility.yul\":12559:12562   */\n      0xa0\n        /* \"#utility.yul\":12548:12557   */\n      dup4\n        /* \"#utility.yul\":12544:12563   */\n      add\n        /* \"#utility.yul\":12537:12586   */\n      mstore\n        /* \"#utility.yul\":12603:12711   */\n      tag_395\n        /* \"#utility.yul\":12706:12710   */\n      dup2\n        /* \"#utility.yul\":12697:12703   */\n      dup7\n        /* \"#utility.yul\":12603:12711   */\n      tag_255\n      jump\t// in\n    tag_395:\n        /* \"#utility.yul\":12595:12711   */\n      swap1\n      pop\n        /* \"#utility.yul\":12759:12768   */\n      dup2\n        /* \"#utility.yul\":12753:12757   */\n      dup2\n        /* \"#utility.yul\":12749:12769   */\n      sub\n        /* \"#utility.yul\":12743:12746   */\n      0xc0\n        /* \"#utility.yul\":12732:12741   */\n      dup4\n        /* \"#utility.yul\":12728:12747   */\n      add\n        /* \"#utility.yul\":12721:12770   */\n      mstore\n        /* \"#utility.yul\":12787:12895   */\n      tag_396\n        /* \"#utility.yul\":12890:12894   */\n      dup2\n        /* \"#utility.yul\":12881:12887   */\n      dup6\n        /* \"#utility.yul\":12787:12895   */\n      tag_255\n      jump\t// in\n    tag_396:\n        /* \"#utility.yul\":12779:12895   */\n      swap1\n      pop\n        /* \"#utility.yul\":12943:12952   */\n      dup2\n        /* \"#utility.yul\":12937:12941   */\n      dup2\n        /* \"#utility.yul\":12933:12953   */\n      sub\n        /* \"#utility.yul\":12927:12930   */\n      0xe0\n        /* \"#utility.yul\":12916:12925   */\n      dup4\n        /* \"#utility.yul\":12912:12931   */\n      add\n        /* \"#utility.yul\":12905:12954   */\n      mstore\n        /* \"#utility.yul\":12971:13125   */\n      tag_397\n        /* \"#utility.yul\":13120:13124   */\n      dup2\n        /* \"#utility.yul\":13111:13117   */\n      dup5\n        /* \"#utility.yul\":12971:13125   */\n      tag_262\n      jump\t// in\n    tag_397:\n        /* \"#utility.yul\":12963:13125   */\n      swap1\n      pop\n        /* \"#utility.yul\":11062:13132   */\n      swap10\n      swap9\n      pop\n      pop\n      pop\n      pop\n      pop\n      pop\n      pop\n      pop\n      pop\n      jump\t// out\n        /* \"#utility.yul\":13138:13256   */\n    tag_263:\n        /* \"#utility.yul\":13225:13249   */\n      tag_399\n        /* \"#utility.yul\":13243:13248   */\n      dup2\n        /* \"#utility.yul\":13225:13249   */\n      tag_245\n      jump\t// in\n    tag_399:\n        /* \"#utility.yul\":13220:13223   */\n      dup3\n        /* \"#utility.yul\":13213:13250   */\n      mstore\n        /* \"#utility.yul\":13138:13256   */\n      pop\n      pop\n      jump\t// out\n        /* \"#utility.yul\":13262:13484   */\n    tag_37:\n        /* \"#utility.yul\":13355:13359   */\n      0x00\n        /* \"#utility.yul\":13393:13395   */\n      0x20\n        /* \"#utility.yul\":13382:13391   */\n      dup3\n        /* \"#utility.yul\":13378:13396   */\n      add\n        /* \"#utility.yul\":13370:13396   */\n      swap1\n      pop\n        /* \"#utility.yul\":13406:13477   */\n      tag_401\n        /* \"#utility.yul\":13474:13475   */\n      0x00\n        /* \"#utility.yul\":13463:13472   */\n      dup4\n        /* \"#utility.yul\":13459:13476   */\n      add\n        /* \"#utility.yul\":13450:13456   */\n      dup5\n        /* \"#utility.yul\":13406:13477   */\n      tag_263\n      jump\t// in\n    tag_401:\n        /* \"#utility.yul\":13262:13484   */\n      swap3\n      swap2\n      pop\n      pop\n      jump\t// out\n        /* \"#utility.yul\":13490:13967   */\n    tag_41:\n        /* \"#utility.yul\":13685:13689   */\n      0x00\n        /* \"#utility.yul\":13723:13725   */\n      0x20\n        /* \"#utility.yul\":13712:13721   */\n      dup3\n        /* \"#utility.yul\":13708:13726   */\n      add\n        /* \"#utility.yul\":13700:13726   */\n      swap1\n      pop\n        /* \"#utility.yul\":13772:13781   */\n      dup2\n        /* \"#utility.yul\":13766:13770   */\n      dup2\n        /* \"#utility.yul\":13762:13782   */\n      sub\n        /* \"#utility.yul\":13758:13759   */\n      0x00\n        /* \"#utility.yul\":13747:13756   */\n      dup4\n        /* \"#utility.yul\":13743:13760   */\n      add\n        /* \"#utility.yul\":13736:13783   */\n      mstore\n        /* \"#utility.yul\":13800:13960   */\n      tag_403\n        /* \"#utility.yul\":13955:13959   */\n      dup2\n        /* \"#utility.yul\":13946:13952   */\n      dup5\n        /* \"#utility.yul\":13800:13960   */\n      tag_253\n      jump\t// in\n    tag_403:\n        /* \"#utility.yul\":13792:13960   */\n      swap1\n      pop\n        /* \"#utility.yul\":13490:13967   */\n      swap3\n      swap2\n      pop\n      pop\n      jump\t// out\n        /* \"#utility.yul\":13973:14346   */\n    tag_45:\n        /* \"#utility.yul\":14116:14120   */\n      0x00\n        /* \"#utility.yul\":14154:14156   */\n      0x20\n        /* \"#utility.yul\":14143:14152   */\n      dup3\n        /* \"#utility.yul\":14139:14157   */\n      add\n        /* \"#utility.yul\":14131:14157   */\n      swap1\n      pop\n        /* \"#utility.yul\":14203:14212   */\n      dup2\n        /* \"#utility.yul\":14197:14201   */\n      dup2\n        /* \"#utility.yul\":14193:14213   */\n      sub\n        /* \"#utility.yul\":14189:14190   */\n      0x00\n        /* \"#utility.yul\":14178:14187   */\n      dup4\n        /* \"#utility.yul\":14174:14191   */\n      add\n        /* \"#utility.yul\":14167:14214   */\n      mstore\n        /* \"#utility.yul\":14231:14339   */\n      tag_405\n        /* \"#utility.yul\":14334:14338   */\n      dup2\n        /* \"#utility.yul\":14325:14331   */\n      dup5\n        /* \"#utility.yul\":14231:14339   */\n      tag_255\n      jump\t// in\n    tag_405:\n        /* \"#utility.yul\":14223:14339   */\n      swap1\n      pop\n        /* \"#utility.yul\":13973:14346   */\n      swap3\n      swap2\n      pop\n      pop\n      jump\t// out\n        /* \"#utility.yul\":14352:14665   */\n    tag_50:\n        /* \"#utility.yul\":14465:14469   */\n      0x00\n        /* \"#utility.yul\":14503:14505   */\n      0x20\n        /* \"#utility.yul\":14492:14501   */\n      dup3\n        /* \"#utility.yul\":14488:14506   */\n      add\n        /* \"#utility.yul\":14480:14506   */\n      swap1\n      pop\n        /* \"#utility.yul\":14552:14561   */\n      dup2\n        /* \"#utility.yul\":14546:14550   */\n      dup2\n        /* \"#utility.yul\":14542:14562   */\n      sub\n        /* \"#utility.yul\":14538:14539   */\n      0x00\n        /* \"#utility.yul\":14527:14536   */\n      dup4\n        /* \"#utility.yul\":14523:14540   */\n      add\n        /* \"#utility.yul\":14516:14563   */\n      mstore\n        /* \"#utility.yul\":14580:14658   */\n      tag_407\n        /* \"#utility.yul\":14653:14657   */\n      dup2\n        /* \"#utility.yul\":14644:14650   */\n      dup5\n        /* \"#utility.yul\":14580:14658   */\n      tag_235\n      jump\t// in\n    tag_407:\n        /* \"#utility.yul\":14572:14658   */\n      swap1\n      pop\n        /* \"#utility.yul\":14352:14665   */\n      swap3\n      swap2\n      pop\n      pop\n      jump\t// out\n        /* \"#utility.yul\":14671:14788   */\n    tag_264:\n        /* \"#utility.yul\":14780:14781   */\n      0x00\n        /* \"#utility.yul\":14777:14778   */\n      dup1\n        /* \"#utility.yul\":14770:14782   */\n      revert\n        /* \"#utility.yul\":14794:14911   */\n    tag_265:\n        /* \"#utility.yul\":14903:14904   */\n      0x00\n        /* \"#utility.yul\":14900:14901   */\n      dup1\n        /* \"#utility.yul\":14893:14905   */\n      revert\n        /* \"#utility.yul\":14917:15097   */\n    tag_185:\n        /* \"#utility.yul\":14965:15042   */\n      0x4e487b7100000000000000000000000000000000000000000000000000000000\n        /* \"#utility.yul\":14962:14963   */\n      0x00\n        /* \"#utility.yul\":14955:15043   */\n      mstore\n        /* \"#utility.yul\":15062:15066   */\n      0x41\n        /* \"#utility.yul\":15059:15060   */\n      0x04\n        /* \"#utility.yul\":15052:15067   */\n      mstore\n        /* \"#utility.yul\":15086:15090   */\n      0x24\n        /* \"#utility.yul\":15083:15084   */\n      0x00\n        /* \"#utility.yul\":15076:15091   */\n      revert\n        /* \"#utility.yul\":15103:15384   */\n    tag_266:\n        /* \"#utility.yul\":15186:15213   */\n      tag_412\n        /* \"#utility.yul\":15208:15212   */\n      dup3\n        /* \"#utility.yul\":15186:15213   */\n      tag_234\n      jump\t// in\n    tag_412:\n        /* \"#utility.yul\":15178:15184   */\n      dup2\n        /* \"#utility.yul\":15174:15214   */\n      add\n        /* \"#utility.yul\":15316:15322   */\n      dup2\n        /* \"#utility.yul\":15304:15314   */\n      dup2\n        /* \"#utility.yul\":15301:15323   */\n      lt\n        /* \"#utility.yul\":15280:15298   */\n      0xffffffffffffffff\n        /* \"#utility.yul\":15268:15278   */\n      dup3\n        /* \"#utility.yul\":15265:15299   */\n      gt\n        /* \"#utility.yul\":15262:15324   */\n      or\n        /* \"#utility.yul\":15259:15347   */\n      iszero\n      tag_413\n      jumpi\n        /* \"#utility.yul\":15327:15345   */\n      tag_414\n      tag_185\n      jump\t// in\n    tag_414:\n        /* \"#utility.yul\":15259:15347   */\n    tag_413:\n        /* \"#utility.yul\":15367:15377   */\n      dup1\n        /* \"#utility.yul\":15363:15365   */\n      0x40\n        /* \"#utility.yul\":15356:15378   */\n      mstore\n        /* \"#utility.yul\":15146:15384   */\n      pop\n        /* \"#utility.yul\":15103:15384   */\n      pop\n      pop\n      jump\t// out\n        /* \"#utility.yul\":15390:15519   */\n    tag_267:\n        /* \"#utility.yul\":15424:15430   */\n      0x00\n        /* \"#utility.yul\":15451:15471   */\n      tag_416\n      tag_224\n      jump\t// in\n    tag_416:\n        /* \"#utility.yul\":15441:15471   */\n      swap1\n      pop\n        /* \"#utility.yul\":15480:15513   */\n      tag_417\n        /* \"#utility.yul\":15508:15512   */\n      dup3\n        /* \"#utility.yul\":15500:15506   */\n      dup3\n        /* \"#utility.yul\":15480:15513   */\n      tag_266\n      jump\t// in\n    tag_417:\n        /* \"#utility.yul\":15390:15519   */\n      swap2\n      swap1\n      pop\n      jump\t// out\n        /* \"#utility.yul\":15525:15833   */\n    tag_268:\n        /* \"#utility.yul\":15587:15591   */\n      0x00\n        /* \"#utility.yul\":15677:15695   */\n      0xffffffffffffffff\n        /* \"#utility.yul\":15669:15675   */\n      dup3\n        /* \"#utility.yul\":15666:15696   */\n      gt\n        /* \"#utility.yul\":15663:15719   */\n      iszero\n      tag_419\n      jumpi\n        /* \"#utility.yul\":15699:15717   */\n      tag_420\n      tag_185\n      jump\t// in\n    tag_420:\n        /* \"#utility.yul\":15663:15719   */\n    tag_419:\n        /* \"#utility.yul\":15737:15766   */\n      tag_421\n        /* \"#utility.yul\":15759:15765   */\n      dup3\n        /* \"#utility.yul\":15737:15766   */\n      tag_234\n      jump\t// in\n    tag_421:\n        /* \"#utility.yul\":15729:15766   */\n      swap1\n      pop\n        /* \"#utility.yul\":15821:15825   */\n      0x20\n        /* \"#utility.yul\":15815:15819   */\n      dup2\n        /* \"#utility.yul\":15811:15826   */\n      add\n        /* \"#utility.yul\":15803:15826   */\n      swap1\n      pop\n        /* \"#utility.yul\":15525:15833   */\n      swap2\n      swap1\n      pop\n      jump\t// out\n        /* \"#utility.yul\":15839:15985   */\n    tag_269:\n        /* \"#utility.yul\":15936:15942   */\n      dup3\n        /* \"#utility.yul\":15931:15934   */\n      dup2\n        /* \"#utility.yul\":15926:15929   */\n      dup4\n        /* \"#utility.yul\":15913:15943   */\n      calldatacopy\n        /* \"#utility.yul\":15977:15978   */\n      0x00\n        /* \"#utility.yul\":15968:15974   */\n      dup4\n        /* \"#utility.yul\":15963:15966   */\n      dup4\n        /* \"#utility.yul\":15959:15975   */\n      add\n        /* \"#utility.yul\":15952:15979   */\n      mstore\n        /* \"#utility.yul\":15839:15985   */\n      pop\n      pop\n      pop\n      jump\t// out\n        /* \"#utility.yul\":15991:16416   */\n    tag_270:\n        /* \"#utility.yul\":16069:16074   */\n      0x00\n        /* \"#utility.yul\":16094:16160   */\n      tag_424\n        /* \"#utility.yul\":16110:16159   */\n      tag_425\n        /* \"#utility.yul\":16152:16158   */\n      dup5\n        /* \"#utility.yul\":16110:16159   */\n      tag_268\n      jump\t// in\n    tag_425:\n        /* \"#utility.yul\":16094:16160   */\n      tag_267\n      jump\t// in\n    tag_424:\n        /* \"#utility.yul\":16085:16160   */\n      swap1\n      pop\n        /* \"#utility.yul\":16183:16189   */\n      dup3\n        /* \"#utility.yul\":16176:16181   */\n      dup2\n        /* \"#utility.yul\":16169:16190   */\n      mstore\n        /* \"#utility.yul\":16221:16225   */\n      0x20\n        /* \"#utility.yul\":16214:16219   */\n      dup2\n        /* \"#utility.yul\":16210:16226   */\n      add\n        /* \"#utility.yul\":16259:16262   */\n      dup5\n        /* \"#utility.yul\":16250:16256   */\n      dup5\n        /* \"#utility.yul\":16245:16248   */\n      dup5\n        /* \"#utility.yul\":16241:16257   */\n      add\n        /* \"#utility.yul\":16238:16263   */\n      gt\n        /* \"#utility.yul\":16235:16347   */\n      iszero\n      tag_426\n      jumpi\n        /* \"#utility.yul\":16266:16345   */\n      tag_427\n      tag_265\n      jump\t// in\n    tag_427:\n        /* \"#utility.yul\":16235:16347   */\n    tag_426:\n        /* \"#utility.yul\":16356:16410   */\n      tag_428\n        /* \"#utility.yul\":16403:16409   */\n      dup5\n        /* \"#utility.yul\":16398:16401   */\n      dup3\n        /* \"#utility.yul\":16393:16396   */\n      dup6\n        /* \"#utility.yul\":16356:16410   */\n      tag_269\n      jump\t// in\n    tag_428:\n        /* \"#utility.yul\":16075:16416   */\n      pop\n        /* \"#utility.yul\":15991:16416   */\n      swap4\n      swap3\n      pop\n      pop\n      pop\n      jump\t// out\n        /* \"#utility.yul\":16436:16776   */\n    tag_271:\n        /* \"#utility.yul\":16492:16497   */\n      0x00\n        /* \"#utility.yul\":16541:16544   */\n      dup3\n        /* \"#utility.yul\":16534:16538   */\n      0x1f\n        /* \"#utility.yul\":16526:16532   */\n      dup4\n        /* \"#utility.yul\":16522:16539   */\n      add\n        /* \"#utility.yul\":16518:16545   */\n      slt\n        /* \"#utility.yul\":16508:16630   */\n      tag_430\n      jumpi\n        /* \"#utility.yul\":16549:16628   */\n      tag_431\n      tag_264\n      jump\t// in\n    tag_431:\n        /* \"#utility.yul\":16508:16630   */\n    tag_430:\n        /* \"#utility.yul\":16666:16672   */\n      dup2\n        /* \"#utility.yul\":16653:16673   */\n      calldataload\n        /* \"#utility.yul\":16691:16770   */\n      tag_432\n        /* \"#utility.yul\":16766:16769   */\n      dup5\n        /* \"#utility.yul\":16758:16764   */\n      dup3\n        /* \"#utility.yul\":16751:16755   */\n      0x20\n        /* \"#utility.yul\":16743:16749   */\n      dup7\n        /* \"#utility.yul\":16739:16756   */\n      add\n        /* \"#utility.yul\":16691:16770   */\n      tag_270\n      jump\t// in\n    tag_432:\n        /* \"#utility.yul\":16682:16770   */\n      swap2\n      pop\n        /* \"#utility.yul\":16498:16776   */\n      pop\n        /* \"#utility.yul\":16436:16776   */\n      swap3\n      swap2\n      pop\n      pop\n      jump\t// out\n        /* \"#utility.yul\":16782:17291   */\n    tag_57:\n        /* \"#utility.yul\":16851:16857   */\n      0x00\n        /* \"#utility.yul\":16900:16902   */\n      0x20\n        /* \"#utility.yul\":16888:16897   */\n      dup3\n        /* \"#utility.yul\":16879:16886   */\n      dup5\n        /* \"#utility.yul\":16875:16898   */\n      sub\n        /* \"#utility.yul\":16871:16903   */\n      slt\n        /* \"#utility.yul\":16868:16987   */\n      iszero\n      tag_434\n      jumpi\n        /* \"#utility.yul\":16906:16985   */\n      tag_435\n      tag_225\n      jump\t// in\n    tag_435:\n        /* \"#utility.yul\":16868:16987   */\n    tag_434:\n        /* \"#utility.yul\":17054:17055   */\n      0x00\n        /* \"#utility.yul\":17043:17052   */\n      dup3\n        /* \"#utility.yul\":17039:17056   */\n      add\n        /* \"#utility.yul\":17026:17057   */\n      calldataload\n        /* \"#utility.yul\":17084:17102   */\n      0xffffffffffffffff\n        /* \"#utility.yul\":17076:17082   */\n      dup2\n        /* \"#utility.yul\":17073:17103   */\n      gt\n        /* \"#utility.yul\":17070:17187   */\n      iszero\n      tag_436\n      jumpi\n        /* \"#utility.yul\":17106:17185   */\n      tag_437\n      tag_226\n      jump\t// in\n    tag_437:\n        /* \"#utility.yul\":17070:17187   */\n    tag_436:\n        /* \"#utility.yul\":17211:17274   */\n      tag_438\n        /* \"#utility.yul\":17266:17273   */\n      dup5\n        /* \"#utility.yul\":17257:17263   */\n      dup3\n        /* \"#utility.yul\":17246:17255   */\n      dup6\n        /* \"#utility.yul\":17242:17264   */\n      add\n        /* \"#utility.yul\":17211:17274   */\n      tag_271\n      jump\t// in\n    tag_438:\n        /* \"#utility.yul\":17201:17274   */\n      swap2\n      pop\n        /* \"#utility.yul\":16997:17284   */\n      pop\n        /* \"#utility.yul\":16782:17291   */\n      swap3\n      swap2\n      pop\n      pop\n      jump\t// out\n        /* \"#utility.yul\":17297:17720   */\n    tag_73:\n        /* \"#utility.yul\":17438:17442   */\n      0x00\n        /* \"#utility.yul\":17476:17478   */\n      0x40\n        /* \"#utility.yul\":17465:17474   */\n      dup3\n        /* \"#utility.yul\":17461:17479   */\n      add\n        /* \"#utility.yul\":17453:17479   */\n      swap1\n      pop\n        /* \"#utility.yul\":17489:17560   */\n      tag_440\n        /* \"#utility.yul\":17557:17558   */\n      0x00\n        /* \"#utility.yul\":17546:17555   */\n      dup4\n        /* \"#utility.yul\":17542:17559   */\n      add\n        /* \"#utility.yul\":17533:17539   */\n      dup6\n        /* \"#utility.yul\":17489:17560   */\n      tag_263\n      jump\t// in\n    tag_440:\n        /* \"#utility.yul\":17607:17616   */\n      dup2\n        /* \"#utility.yul\":17601:17605   */\n      dup2\n        /* \"#utility.yul\":17597:17617   */\n      sub\n        /* \"#utility.yul\":17592:17594   */\n      0x20\n        /* \"#utility.yul\":17581:17590   */\n      dup4\n        /* \"#utility.yul\":17577:17595   */\n      add\n        /* \"#utility.yul\":17570:17618   */\n      mstore\n        /* \"#utility.yul\":17635:17713   */\n      tag_441\n        /* \"#utility.yul\":17708:17712   */\n      dup2\n        /* \"#utility.yul\":17699:17705   */\n      dup5\n        /* \"#utility.yul\":17635:17713   */\n      tag_235\n      jump\t// in\n    tag_441:\n        /* \"#utility.yul\":17627:17713   */\n      swap1\n      pop\n        /* \"#utility.yul\":17297:17720   */\n      swap4\n      swap3\n      pop\n      pop\n      pop\n      jump\t// out\n        /* \"#utility.yul\":17726:18191   */\n    tag_77:\n        /* \"#utility.yul\":17915:17919   */\n      0x00\n        /* \"#utility.yul\":17953:17955   */\n      0x20\n        /* \"#utility.yul\":17942:17951   */\n      dup3\n        /* \"#utility.yul\":17938:17956   */\n      add\n        /* \"#utility.yul\":17930:17956   */\n      swap1\n      pop\n        /* \"#utility.yul\":18002:18011   */\n      dup2\n        /* \"#utility.yul\":17996:18000   */\n      dup2\n        /* \"#utility.yul\":17992:18012   */\n      sub\n        /* \"#utility.yul\":17988:17989   */\n      0x00\n        /* \"#utility.yul\":17977:17986   */\n      dup4\n        /* \"#utility.yul\":17973:17990   */\n      add\n        /* \"#utility.yul\":17966:18013   */\n      mstore\n        /* \"#utility.yul\":18030:18184   */\n      tag_443\n        /* \"#utility.yul\":18179:18183   */\n      dup2\n        /* \"#utility.yul\":18170:18176   */\n      dup5\n        /* \"#utility.yul\":18030:18184   */\n      tag_262\n      jump\t// in\n    tag_443:\n        /* \"#utility.yul\":18022:18184   */\n      swap1\n      pop\n        /* \"#utility.yul\":17726:18191   */\n      swap3\n      swap2\n      pop\n      pop\n      jump\t// out\n        /* \"#utility.yul\":18197:18419   */\n    tag_86:\n        /* \"#utility.yul\":18290:18294   */\n      0x00\n        /* \"#utility.yul\":18328:18330   */\n      0x20\n        /* \"#utility.yul\":18317:18326   */\n      dup3\n        /* \"#utility.yul\":18313:18331   */\n      add\n        /* \"#utility.yul\":18305:18331   */\n      swap1\n      pop\n        /* \"#utility.yul\":18341:18412   */\n      tag_445\n        /* \"#utility.yul\":18409:18410   */\n      0x00\n        /* \"#utility.yul\":18398:18407   */\n      dup4\n        /* \"#utility.yul\":18394:18411   */\n      add\n        /* \"#utility.yul\":18385:18391   */\n      dup5\n        /* \"#utility.yul\":18341:18412   */\n      tag_230\n      jump\t// in\n    tag_445:\n        /* \"#utility.yul\":18197:18419   */\n      swap3\n      swap2\n      pop\n      pop\n      jump\t// out\n        /* \"#utility.yul\":18425:18605   */\n    tag_100:\n        /* \"#utility.yul\":18473:18550   */\n      0x4e487b7100000000000000000000000000000000000000000000000000000000\n        /* \"#utility.yul\":18470:18471   */\n      0x00\n        /* \"#utility.yul\":18463:18551   */\n      mstore\n        /* \"#utility.yul\":18570:18574   */\n      0x32\n        /* \"#utility.yul\":18567:18568   */\n      0x04\n        /* \"#utility.yul\":18560:18575   */\n      mstore\n        /* \"#utility.yul\":18594:18598   */\n      0x24\n        /* \"#utility.yul\":18591:18592   */\n      0x00\n        /* \"#utility.yul\":18584:18599   */\n      revert\n        /* \"#utility.yul\":18611:18791   */\n    tag_272:\n        /* \"#utility.yul\":18659:18736   */\n      0x4e487b7100000000000000000000000000000000000000000000000000000000\n        /* \"#utility.yul\":18656:18657   */\n      0x00\n        /* \"#utility.yul\":18649:18737   */\n      mstore\n        /* \"#utility.yul\":18756:18760   */\n      0x22\n        /* \"#utility.yul\":18753:18754   */\n      0x04\n        /* \"#utility.yul\":18746:18761   */\n      mstore\n        /* \"#utility.yul\":18780:18784   */\n      0x24\n        /* \"#utility.yul\":18777:18778   */\n      0x00\n        /* \"#utility.yul\":18770:18785   */\n      revert\n        /* \"#utility.yul\":18797:19117   */\n    tag_106:\n        /* \"#utility.yul\":18841:18847   */\n      0x00\n        /* \"#utility.yul\":18878:18879   */\n      0x02\n        /* \"#utility.yul\":18872:18876   */\n      dup3\n        /* \"#utility.yul\":18868:18880   */\n      div\n        /* \"#utility.yul\":18858:18880   */\n      swap1\n      pop\n        /* \"#utility.yul\":18925:18926   */\n      0x01\n        /* \"#utility.yul\":18919:18923   */\n      dup3\n        /* \"#utility.yul\":18915:18927   */\n      and\n        /* \"#utility.yul\":18946:18964   */\n      dup1\n        /* \"#utility.yul\":18936:19017   */\n      tag_449\n      jumpi\n        /* \"#utility.yul\":19002:19006   */\n      0x7f\n        /* \"#utility.yul\":18994:19000   */\n      dup3\n        /* \"#utility.yul\":18990:19007   */\n      and\n        /* \"#utility.yul\":18980:19007   */\n      swap2\n      pop\n        /* \"#utility.yul\":18936:19017   */\n    tag_449:\n        /* \"#utility.yul\":19064:19066   */\n      0x20\n        /* \"#utility.yul\":19056:19062   */\n      dup3\n        /* \"#utility.yul\":19053:19067   */\n      lt\n        /* \"#utility.yul\":19033:19051   */\n      dup2\n        /* \"#utility.yul\":19030:19068   */\n      sub\n        /* \"#utility.yul\":19027:19111   */\n      tag_450\n      jumpi\n        /* \"#utility.yul\":19083:19101   */\n      tag_451\n      tag_272\n      jump\t// in\n    tag_451:\n        /* \"#utility.yul\":19027:19111   */\n    tag_450:\n        /* \"#utility.yul\":18848:19117   */\n      pop\n        /* \"#utility.yul\":18797:19117   */\n      swap2\n      swap1\n      pop\n      jump\t// out\n        /* \"#utility.yul\":19123:19264   */\n    tag_273:\n        /* \"#utility.yul\":19172:19176   */\n      0x00\n        /* \"#utility.yul\":19195:19198   */\n      dup2\n        /* \"#utility.yul\":19187:19198   */\n      swap1\n      pop\n        /* \"#utility.yul\":19218:19221   */\n      dup2\n        /* \"#utility.yul\":19215:19216   */\n      0x00\n        /* \"#utility.yul\":19208:19222   */\n      mstore\n        /* \"#utility.yul\":19252:19256   */\n      0x20\n        /* \"#utility.yul\":19249:19250   */\n      0x00\n        /* \"#utility.yul\":19239:19257   */\n      keccak256\n        /* \"#utility.yul\":19231:19257   */\n      swap1\n      pop\n        /* \"#utility.yul\":19123:19264   */\n      swap2\n      swap1\n      pop\n      jump\t// out\n        /* \"#utility.yul\":19270:19363   */\n    tag_274:\n        /* \"#utility.yul\":19307:19313   */\n      0x00\n        /* \"#utility.yul\":19354:19356   */\n      0x20\n        /* \"#utility.yul\":19349:19351   */\n      0x1f\n        /* \"#utility.yul\":19342:19347   */\n      dup4\n        /* \"#utility.yul\":19338:19352   */\n      add\n        /* \"#utility.yul\":19334:19357   */\n      div\n        /* \"#utility.yul\":19324:19357   */\n      swap1\n      pop\n        /* \"#utility.yul\":19270:19363   */\n      swap2\n      swap1\n      pop\n      jump\t// out\n        /* \"#utility.yul\":19369:19476   */\n    tag_275:\n        /* \"#utility.yul\":19413:19421   */\n      0x00\n        /* \"#utility.yul\":19463:19468   */\n      dup3\n        /* \"#utility.yul\":19457:19461   */\n      dup3\n        /* \"#utility.yul\":19453:19469   */\n      shl\n        /* \"#utility.yul\":19432:19469   */\n      swap1\n      pop\n        /* \"#utility.yul\":19369:19476   */\n      swap3\n      swap2\n      pop\n      pop\n      jump\t// out\n        /* \"#utility.yul\":19482:19875   */\n    tag_276:\n        /* \"#utility.yul\":19551:19557   */\n      0x00\n        /* \"#utility.yul\":19601:19602   */\n      0x08\n        /* \"#utility.yul\":19589:19599   */\n      dup4\n        /* \"#utility.yul\":19585:19603   */\n      mul\n        /* \"#utility.yul\":19624:19721   */\n      tag_456\n        /* \"#utility.yul\":19654:19720   */\n      0xffffffffffffffffffffffffffffffffffffffffffffffffffffffffffffffff\n        /* \"#utility.yul\":19643:19652   */\n      dup3\n        /* \"#utility.yul\":19624:19721   */\n      tag_275\n      jump\t// in\n    tag_456:\n        /* \"#utility.yul\":19742:19781   */\n      tag_457\n        /* \"#utility.yul\":19772:19780   */\n      dup7\n        /* \"#utility.yul\":19761:19770   */\n      dup4\n        /* \"#utility.yul\":19742:19781   */\n      tag_275\n      jump\t// in\n    tag_457:\n        /* \"#utility.yul\":19730:19781   */\n      swap6\n      pop\n        /* \"#utility.yul\":19814:19818   */\n      dup1\n        /* \"#utility.yul\":19810:19819   */\n      not\n        /* \"#utility.yul\":19803:19808   */\n      dup5\n        /* \"#utility.yul\":19799:19820   */\n      and\n        /* \"#utility.yul\":19790:19820   */\n      swap4\n      pop\n        /* \"#utility.yul\":19863:19867   */\n      dup1\n        /* \"#utility.yul\":19853:19861   */\n      dup7\n        /* \"#utility.yul\":19849:19868   */\n      and\n        /* \"#utility.yul\":19842:19847   */\n      dup5\n        /* \"#utility.yul\":19839:19869   */\n      or\n        /* \"#utility.yul\":19829:19869   */\n      swap3\n      pop\n        /* \"#utility.yul\":19558:19875   */\n      pop\n      pop\n        /* \"#utility.yul\":19482:19875   */\n      swap4\n      swap3\n      pop\n      pop\n      pop\n      jump\t// out\n        /* \"#utility.yul\":19881:19941   */\n    tag_277:\n        /* \"#utility.yul\":19909:19912   */\n      0x00\n        /* \"#utility.yul\":19930:19935   */\n      dup2\n        /* \"#utility.yul\":19923:19935   */\n      swap1\n      pop\n        /* \"#utility.yul\":19881:19941   */\n      swap2\n      swap1\n      pop\n      jump\t// out\n        /* \"#utility.yul\":19947:20089   */\n    tag_278:\n        /* \"#utility.yul\":19997:20006   */\n      0x00\n        /* \"#utility.yul\":20030:20083   */\n      tag_460\n        /* \"#utility.yul\":20048:20082   */\n      tag_461\n        /* \"#utility.yul\":20057:20081   */\n      tag_462\n        /* \"#utility.yul\":20075:20080   */\n      dup5\n        /* \"#utility.yul\":20057:20081   */\n      tag_227\n      jump\t// in\n    tag_462:\n        /* \"#utility.yul\":20048:20082   */\n      tag_277\n      jump\t// in\n    tag_461:\n        /* \"#utility.yul\":20030:20083   */\n      tag_227\n      jump\t// in\n    tag_460:\n        /* \"#utility.yul\":20017:20083   */\n      swap1\n      pop\n        /* \"#utility.yul\":19947:20089   */\n      swap2\n      swap1\n      pop\n      jump\t// out\n        /* \"#utility.yul\":20095:20170   */\n    tag_279:\n        /* \"#utility.yul\":20138:20141   */\n      0x00\n        /* \"#utility.yul\":20159:20164   */\n      dup2\n        /* \"#utility.yul\":20152:20164   */\n      swap1\n      pop\n        /* \"#utility.yul\":20095:20170   */\n      swap2\n      swap1\n      pop\n      jump\t// out\n        /* \"#utility.yul\":20176:20445   */\n    tag_280:\n        /* \"#utility.yul\":20286:20325   */\n      tag_465\n        /* \"#utility.yul\":20317:20324   */\n      dup4\n        /* \"#utility.yul\":20286:20325   */\n      tag_278\n      jump\t// in\n    tag_465:\n        /* \"#utility.yul\":20347:20438   */\n      tag_466\n        /* \"#utility.yul\":20396:20437   */\n      tag_467\n        /* \"#utility.yul\":20420:20436   */\n      dup3\n        /* \"#utility.yul\":20396:20437   */\n      tag_279\n      jump\t// in\n    tag_467:\n        /* \"#utility.yul\":20388:20394   */\n      dup5\n        /* \"#utility.yul\":20381:20385   */\n      dup5\n        /* \"#utility.yul\":20375:20386   */\n      sload\n        /* \"#utility.yul\":20347:20438   */\n      tag_276\n      jump\t// in\n    tag_466:\n        /* \"#utility.yul\":20341:20345   */\n      dup3\n        /* \"#utility.yul\":20334:20439   */\n      sstore\n        /* \"#utility.yul\":20252:20445   */\n      pop\n        /* \"#utility.yul\":20176:20445   */\n      pop\n      pop\n      pop\n      jump\t// out\n        /* \"#utility.yul\":20451:20524   */\n    tag_281:\n        /* \"#utility.yul\":20496:20499   */\n      0x00\n        /* \"#utility.yul\":20451:20524   */\n      swap1\n      jump\t// out\n        /* \"#utility.yul\":20530:20719   */\n    tag_282:\n        /* \"#utility.yul\":20607:20639   */\n      tag_470\n      tag_281\n      jump\t// in\n    tag_470:\n        /* \"#utility.yul\":20648:20713   */\n      tag_471\n        /* \"#utility.yul\":20706:20712   */\n      dup2\n        /* \"#utility.yul\":20698:20704   */\n      dup5\n        /* \"#utility.yul\":20692:20696   */\n      dup5\n        /* \"#utility.yul\":20648:20713   */\n      tag_280\n      jump\t// in\n    tag_471:\n        /* \"#utility.yul\":20583:20719   */\n      pop\n        /* \"#utility.yul\":20530:20719   */\n      pop\n      pop\n      jump\t// out\n        /* \"#utility.yul\":20725:20911   */\n    tag_283:\n        /* \"#utility.yul\":20785:20905   */\n    tag_473:\n        /* \"#utility.yul\":20802:20805   */\n      dup2\n        /* \"#utility.yul\":20795:20800   */\n      dup2\n        /* \"#utility.yul\":20792:20806   */\n      lt\n        /* \"#utility.yul\":20785:20905   */\n      iszero\n      tag_475\n      jumpi\n        /* \"#utility.yul\":20856:20895   */\n      tag_476\n        /* \"#utility.yul\":20893:20894   */\n      0x00\n        /* \"#utility.yul\":20886:20891   */\n      dup3\n        /* \"#utility.yul\":20856:20895   */\n      tag_282\n      jump\t// in\n    tag_476:\n        /* \"#utility.yul\":20829:20830   */\n      0x01\n        /* \"#utility.yul\":20822:20827   */\n      dup2\n        /* \"#utility.yul\":20818:20831   */\n      add\n        /* \"#utility.yul\":20809:20831   */\n      swap1\n      pop\n        /* \"#utility.yul\":20785:20905   */\n      jump(tag_473)\n    tag_475:\n        /* \"#utility.yul\":20725:20911   */\n      pop\n      pop\n      jump\t// out\n        /* \"#utility.yul\":20917:21460   */\n    tag_284:\n        /* \"#utility.yul\":21018:21020   */\n      0x1f\n        /* \"#utility.yul\":21013:21016   */\n      dup3\n        /* \"#utility.yul\":21010:21021   */\n      gt\n        /* \"#utility.yul\":21007:21453   */\n      iszero\n      tag_478\n      jumpi\n        /* \"#utility.yul\":21052:21090   */\n      tag_479\n        /* \"#utility.yul\":21084:21089   */\n      dup2\n        /* \"#utility.yul\":21052:21090   */\n      tag_273\n      jump\t// in\n    tag_479:\n        /* \"#utility.yul\":21136:21165   */\n      tag_480\n        /* \"#utility.yul\":21154:21164   */\n      dup5\n        /* \"#utility.yul\":21136:21165   */\n      tag_274\n      jump\t// in\n    tag_480:\n        /* \"#utility.yul\":21126:21134   */\n      dup2\n        /* \"#utility.yul\":21122:21166   */\n      add\n        /* \"#utility.yul\":21319:21321   */\n      0x20\n        /* \"#utility.yul\":21307:21317   */\n      dup6\n        /* \"#utility.yul\":21304:21322   */\n      lt\n        /* \"#utility.yul\":21301:21350   */\n      iszero\n      tag_481\n      jumpi\n        /* \"#utility.yul\":21340:21348   */\n      dup2\n        /* \"#utility.yul\":21325:21348   */\n      swap1\n      pop\n        /* \"#utility.yul\":21301:21350   */\n    tag_481:\n        /* \"#utility.yul\":21363:21443   */\n      tag_482\n        /* \"#utility.yul\":21419:21441   */\n      tag_483\n        /* \"#utility.yul\":21437:21440   */\n      dup6\n        /* \"#utility.yul\":21419:21441   */\n      tag_274\n      jump\t// in\n    tag_483:\n        /* \"#utility.yul\":21409:21417   */\n      dup4\n        /* \"#utility.yul\":21405:21442   */\n      add\n        /* \"#utility.yul\":21392:21403   */\n      dup3\n        /* \"#utility.yul\":21363:21443   */\n      tag_283\n      jump\t// in\n    tag_482:\n        /* \"#utility.yul\":21022:21453   */\n      pop\n      pop\n        /* \"#utility.yul\":21007:21453   */\n    tag_478:\n        /* \"#utility.yul\":20917:21460   */\n      pop\n      pop\n      pop\n      jump\t// out\n        /* \"#utility.yul\":21466:21583   */\n    tag_285:\n        /* \"#utility.yul\":21520:21528   */\n      0x00\n        /* \"#utility.yul\":21570:21575   */\n      dup3\n        /* \"#utility.yul\":21564:21568   */\n      dup3\n        /* \"#utility.yul\":21560:21576   */\n      shr\n        /* \"#utility.yul\":21539:21576   */\n      swap1\n      pop\n        /* \"#utility.yul\":21466:21583   */\n      swap3\n      swap2\n      pop\n      pop\n      jump\t// out\n        /* \"#utility.yul\":21589:21758   */\n    tag_286:\n        /* \"#utility.yul\":21633:21639   */\n      0x00\n        /* \"#utility.yul\":21666:21717   */\n      tag_486\n        /* \"#utility.yul\":21714:21715   */\n      0x00\n        /* \"#utility.yul\":21710:21716   */\n      not\n        /* \"#utility.yul\":21702:21707   */\n      dup5\n        /* \"#utility.yul\":21699:21700   */\n      0x08\n        /* \"#utility.yul\":21695:21708   */\n      mul\n        /* \"#utility.yul\":21666:21717   */\n      tag_285\n      jump\t// in\n    tag_486:\n        /* \"#utility.yul\":21662:21718   */\n      not\n        /* \"#utility.yul\":21747:21751   */\n      dup1\n        /* \"#utility.yul\":21741:21745   */\n      dup4\n        /* \"#utility.yul\":21737:21752   */\n      and\n        /* \"#utility.yul\":21727:21752   */\n      swap2\n      pop\n        /* \"#utility.yul\":21640:21758   */\n      pop\n        /* \"#utility.yul\":21589:21758   */\n      swap3\n      swap2\n      pop\n      pop\n      jump\t// out\n        /* \"#utility.yul\":21763:22058   */\n    tag_287:\n        /* \"#utility.yul\":21839:21843   */\n      0x00\n        /* \"#utility.yul\":21985:22014   */\n      tag_488\n        /* \"#utility.yul\":22010:22013   */\n      dup4\n        /* \"#utility.yul\":22004:22008   */\n      dup4\n        /* \"#utility.yul\":21985:22014   */\n      tag_286\n      jump\t// in\n    tag_488:\n        /* \"#utility.yul\":21977:22014   */\n      swap2\n      pop\n        /* \"#utility.yul\":22047:22050   */\n      dup3\n        /* \"#utility.yul\":22044:22045   */\n      0x02\n        /* \"#utility.yul\":22040:22051   */\n      mul\n        /* \"#utility.yul\":22034:22038   */\n      dup3\n        /* \"#utility.yul\":22031:22052   */\n      or\n        /* \"#utility.yul\":22023:22052   */\n      swap1\n      pop\n        /* \"#utility.yul\":21763:22058   */\n      swap3\n      swap2\n      pop\n      pop\n      jump\t// out\n        /* \"#utility.yul\":22063:23458   */\n    tag_164:\n        /* \"#utility.yul\":22180:22217   */\n      tag_490\n        /* \"#utility.yul\":22213:22216   */\n      dup3\n        /* \"#utility.yul\":22180:22217   */\n      tag_231\n      jump\t// in\n    tag_490:\n        /* \"#utility.yul\":22282:22300   */\n      0xffffffffffffffff\n        /* \"#utility.yul\":22274:22280   */\n      dup2\n        /* \"#utility.yul\":22271:22301   */\n      gt\n        /* \"#utility.yul\":22268:22324   */\n      iszero\n      tag_491\n      jumpi\n        /* \"#utility.yul\":22304:22322   */\n      tag_492\n      tag_185\n      jump\t// in\n    tag_492:\n        /* \"#utility.yul\":22268:22324   */\n    tag_491:\n        /* \"#utility.yul\":22348:22386   */\n      tag_493\n        /* \"#utility.yul\":22380:22384   */\n      dup3\n        /* \"#utility.yul\":22374:22385   */\n      sload\n        /* \"#utility.yul\":22348:22386   */\n      tag_106\n      jump\t// in\n    tag_493:\n        /* \"#utility.yul\":22433:22500   */\n      tag_494\n        /* \"#utility.yul\":22493:22499   */\n      dup3\n        /* \"#utility.yul\":22485:22491   */\n      dup3\n        /* \"#utility.yul\":22479:22483   */\n      dup6\n        /* \"#utility.yul\":22433:22500   */\n      tag_284\n      jump\t// in\n    tag_494:\n        /* \"#utility.yul\":22527:22528   */\n      0x00\n        /* \"#utility.yul\":22551:22555   */\n      0x20\n        /* \"#utility.yul\":22538:22555   */\n      swap1\n      pop\n        /* \"#utility.yul\":22583:22585   */\n      0x1f\n        /* \"#utility.yul\":22575:22581   */\n      dup4\n        /* \"#utility.yul\":22572:22586   */\n      gt\n        /* \"#utility.yul\":22600:22601   */\n      0x01\n        /* \"#utility.yul\":22595:23213   */\n      dup2\n      eq\n      tag_496\n      jumpi\n        /* \"#utility.yul\":23257:23258   */\n      0x00\n        /* \"#utility.yul\":23274:23280   */\n      dup5\n        /* \"#utility.yul\":23271:23348   */\n      iszero\n      tag_497\n      jumpi\n        /* \"#utility.yul\":23323:23332   */\n      dup3\n        /* \"#utility.yul\":23318:23321   */\n      dup8\n        /* \"#utility.yul\":23314:23333   */\n      add\n        /* \"#utility.yul\":23308:23334   */\n      mload\n        /* \"#utility.yul\":23299:23334   */\n      swap1\n      pop\n        /* \"#utility.yul\":23271:23348   */\n    tag_497:\n        /* \"#utility.yul\":23374:23441   */\n      tag_498\n        /* \"#utility.yul\":23434:23440   */\n      dup6\n        /* \"#utility.yul\":23427:23432   */\n      dup3\n        /* \"#utility.yul\":23374:23441   */\n      tag_287\n      jump\t// in\n    tag_498:\n        /* \"#utility.yul\":23368:23372   */\n      dup7\n        /* \"#utility.yul\":23361:23442   */\n      sstore\n        /* \"#utility.yul\":23230:23452   */\n      pop\n        /* \"#utility.yul\":22565:23452   */\n      jump(tag_495)\n        /* \"#utility.yul\":22595:23213   */\n    tag_496:\n        /* \"#utility.yul\":22647:22651   */\n      0x1f\n        /* \"#utility.yul\":22643:22652   */\n      not\n        /* \"#utility.yul\":22635:22641   */\n      dup5\n        /* \"#utility.yul\":22631:22653   */\n      and\n        /* \"#utility.yul\":22681:22718   */\n      tag_499\n        /* \"#utility.yul\":22713:22717   */\n      dup7\n        /* \"#utility.yul\":22681:22718   */\n      tag_273\n      jump\t// in\n    tag_499:\n        /* \"#utility.yul\":22740:22741   */\n      0x00\n        /* \"#utility.yul\":22754:22962   */\n    tag_500:\n        /* \"#utility.yul\":22768:22775   */\n      dup3\n        /* \"#utility.yul\":22765:22766   */\n      dup2\n        /* \"#utility.yul\":22762:22776   */\n      lt\n        /* \"#utility.yul\":22754:22962   */\n      iszero\n      tag_502\n      jumpi\n        /* \"#utility.yul\":22847:22856   */\n      dup5\n        /* \"#utility.yul\":22842:22845   */\n      dup10\n        /* \"#utility.yul\":22838:22857   */\n      add\n        /* \"#utility.yul\":22832:22858   */\n      mload\n        /* \"#utility.yul\":22824:22830   */\n      dup3\n        /* \"#utility.yul\":22817:22859   */\n      sstore\n        /* \"#utility.yul\":22898:22899   */\n      0x01\n        /* \"#utility.yul\":22890:22896   */\n      dup3\n        /* \"#utility.yul\":22886:22900   */\n      add\n        /* \"#utility.yul\":22876:22900   */\n      swap2\n      pop\n        /* \"#utility.yul\":22945:22947   */\n      0x20\n        /* \"#utility.yul\":22934:22943   */\n      dup6\n        /* \"#utility.yul\":22930:22948   */\n      add\n        /* \"#utility.yul\":22917:22948   */\n      swap5\n      pop\n        /* \"#utility.yul\":22791:22795   */\n      0x20\n        /* \"#utility.yul\":22788:22789   */\n      dup2\n        /* \"#utility.yul\":22784:22796   */\n      add\n        /* \"#utility.yul\":22779:22796   */\n      swap1\n      pop\n        /* \"#utility.yul\":22754:22962   */\n      jump(tag_500)\n    tag_502:\n        /* \"#utility.yul\":22990:22996   */\n      dup7\n        /* \"#utility.yul\":22981:22988   */\n      dup4\n        /* \"#utility.yul\":22978:22997   */\n      lt\n        /* \"#utility.yul\":22975:23154   */\n      iszero\n      tag_503\n      jumpi\n        /* \"#utility.yul\":23048:23057   */\n      dup5\n        /* \"#utility.yul\":23043:23046   */\n      dup10\n        /* \"#utility.yul\":23039:23058   */\n      add\n        /* \"#utility.yul\":23033:23059   */\n      mload\n        /* \"#utility.yul\":23091:23139   */\n      tag_504\n        /* \"#utility.yul\":23133:23137   */\n      0x1f\n        /* \"#utility.yul\":23125:23131   */\n      dup10\n        /* \"#utility.yul\":23121:23138   */\n      and\n        /* \"#utility.yul\":23110:23119   */\n      dup3\n        /* \"#utility.yul\":23091:23139   */\n      tag_286\n      jump\t// in\n    tag_504:\n        /* \"#utility.yul\":23083:23089   */\n      dup4\n        /* \"#utility.yul\":23076:23140   */\n      sstore\n        /* \"#utility.yul\":22998:23154   */\n      pop\n        /* \"#utility.yul\":22975:23154   */\n    tag_503:\n        /* \"#utility.yul\":23200:23201   */\n      0x01\n        /* \"#utility.yul\":23196:23197   */\n      0x02\n        /* \"#utility.yul\":23188:23194   */\n      dup9\n        /* \"#utility.yul\":23184:23198   */\n      mul\n        /* \"#utility.yul\":23180:23202   */\n      add\n        /* \"#utility.yul\":23174:23178   */\n      dup9\n        /* \"#utility.yul\":23167:23203   */\n      sstore\n        /* \"#utility.yul\":22602:23213   */\n      pop\n      pop\n      pop\n        /* \"#utility.yul\":22565:23452   */\n    tag_495:\n      pop\n        /* \"#utility.yul\":22155:23458   */\n      pop\n      pop\n      pop\n        /* \"#utility.yul\":22063:23458   */\n      pop\n      pop\n      jump\t// out\n        /* \"#utility.yul\":23464:23644   */\n    tag_288:\n        /* \"#utility.yul\":23512:23589   */\n      0x4e487b7100000000000000000000000000000000000000000000000000000000\n        /* \"#utility.yul\":23509:23510   */\n      0x00\n        /* \"#utility.yul\":23502:23590   */\n      mstore\n        /* \"#utility.yul\":23609:23613   */\n      0x11\n        /* \"#utility.yul\":23606:23607   */\n      0x04\n        /* \"#utility.yul\":23599:23614   */\n      mstore\n        /* \"#utility.yul\":23633:23637   */\n      0x24\n        /* \"#utility.yul\":23630:23631   */\n      0x00\n        /* \"#utility.yul\":23623:23638   */\n      revert\n        /* \"#utility.yul\":23650:23841   */\n    tag_195:\n        /* \"#utility.yul\":23690:23693   */\n      0x00\n        /* \"#utility.yul\":23709:23729   */\n      tag_507\n        /* \"#utility.yul\":23727:23728   */\n      dup3\n        /* \"#utility.yul\":23709:23729   */\n      tag_227\n      jump\t// in\n    tag_507:\n        /* \"#utility.yul\":23704:23729   */\n      swap2\n      pop\n        /* \"#utility.yul\":23743:23763   */\n      tag_508\n        /* \"#utility.yul\":23761:23762   */\n      dup4\n        /* \"#utility.yul\":23743:23763   */\n      tag_227\n      jump\t// in\n    tag_508:\n        /* \"#utility.yul\":23738:23763   */\n      swap3\n      pop\n        /* \"#utility.yul\":23786:23787   */\n      dup3\n        /* \"#utility.yul\":23783:23784   */\n      dup3\n        /* \"#utility.yul\":23779:23788   */\n      add\n        /* \"#utility.yul\":23772:23788   */\n      swap1\n      pop\n        /* \"#utility.yul\":23807:23810   */\n      dup1\n        /* \"#utility.yul\":23804:23805   */\n      dup3\n        /* \"#utility.yul\":23801:23811   */\n      gt\n        /* \"#utility.yul\":23798:23834   */\n      iszero\n      tag_509\n      jumpi\n        /* \"#utility.yul\":23814:23832   */\n      tag_510\n      tag_288\n      jump\t// in\n    tag_510:\n        /* \"#utility.yul\":23798:23834   */\n    tag_509:\n        /* \"#utility.yul\":23650:23841   */\n      swap3\n      swap2\n      pop\n      pop\n      jump\t// out\n        /* \"#utility.yul\":23847:24080   */\n    tag_204:\n        /* \"#utility.yul\":23886:23889   */\n      0x00\n        /* \"#utility.yul\":23909:23933   */\n      tag_512\n        /* \"#utility.yul\":23927:23932   */\n      dup3\n        /* \"#utility.yul\":23909:23933   */\n      tag_227\n      jump\t// in\n    tag_512:\n        /* \"#utility.yul\":23900:23933   */\n      swap2\n      pop\n        /* \"#utility.yul\":23955:24021   */\n      0xffffffffffffffffffffffffffffffffffffffffffffffffffffffffffffffff\n        /* \"#utility.yul\":23948:23953   */\n      dup3\n        /* \"#utility.yul\":23945:24022   */\n      sub\n        /* \"#utility.yul\":23942:24045   */\n      tag_513\n      jumpi\n        /* \"#utility.yul\":24025:24043   */\n      tag_514\n      tag_288\n      jump\t// in\n    tag_514:\n        /* \"#utility.yul\":23942:24045   */\n    tag_513:\n        /* \"#utility.yul\":24072:24073   */\n      0x01\n        /* \"#utility.yul\":24065:24070   */\n      dup3\n        /* \"#utility.yul\":24061:24074   */\n      add\n        /* \"#utility.yul\":24054:24074   */\n      swap1\n      pop\n        /* \"#utility.yul\":23847:24080   */\n      swap2\n      swap1\n      pop\n      jump\t// out\n\n    auxdata: 0xa2646970667358221220100925ae6aa7b1542e2c22f9e08715f7f08f9dd30f3174e29a79cf2e1ef628a964736f6c63430008120033\n}\n",
				"bytecode": {
					"linkReferences": {},
					"object": "60806040526040518060400160405280600481526020017f706f6c6c00000000000000000000000000000000000000000000000000000000815250600590816200004a919062000573565b503480156200005857600080fd5b506040516200294c3803806200294c83398181016040528101906200007e9190620008ba565b6200009560006200022760201b620012ee1760201c565b620000ac60006200023d60201b620013041760201c565b6001819055508260039081620000c3919062000573565b508160049081620000d5919062000573565b5060005b8151811015620001dc576006604051806040016040528084848151811062000106576200010562000973565b5b60200260200101518152602001600067ffffffffffffffff81111562000131576200013062000304565b5b604051908082528060200260200182016040528015620001605781602001602082028036833780820191505090505b5081525090806001815401808255809150506001900390600052602060002090600202016000909190919091506000820151816000019081620001a4919062000573565b506020820151816001019080519060200190620001c39291906200024b565b5050508080620001d390620009d1565b915050620000d9565b5033600260006101000a81548173ffffffffffffffffffffffffffffffffffffffff021916908373ffffffffffffffffffffffffffffffffffffffff16021790555050505062000a1e565b6001816000016000828254019250508190555050565b600081600001549050919050565b828054828255906000526020600020908101928215620002c7579160200282015b82811115620002c65782518260006101000a81548173ffffffffffffffffffffffffffffffffffffffff021916908373ffffffffffffffffffffffffffffffffffffffff160217905550916020019190600101906200026c565b5b509050620002d69190620002da565b5090565b5b80821115620002f5576000816000905550600101620002db565b5090565b600081519050919050565b7f4e487b7100000000000000000000000000000000000000000000000000000000600052604160045260246000fd5b7f4e487b7100000000000000000000000000000000000000000000000000000000600052602260045260246000fd5b600060028204905060018216806200037b57607f821691505b60208210810362000391576200039062000333565b5b50919050565b60008190508160005260206000209050919050565b60006020601f8301049050919050565b600082821b905092915050565b600060088302620003fb7fffffffffffffffffffffffffffffffffffffffffffffffffffffffffffffffff82620003bc565b620004078683620003bc565b95508019841693508086168417925050509392505050565b6000819050919050565b6000819050919050565b6000620004546200044e62000448846200041f565b62000429565b6200041f565b9050919050565b6000819050919050565b620004708362000433565b620004886200047f826200045b565b848454620003c9565b825550505050565b600090565b6200049f62000490565b620004ac81848462000465565b505050565b5b81811015620004d457620004c860008262000495565b600181019050620004b2565b5050565b601f8211156200052357620004ed8162000397565b620004f884620003ac565b8101602085101562000508578190505b620005206200051785620003ac565b830182620004b1565b50505b505050565b600082821c905092915050565b6000620005486000198460080262000528565b1980831691505092915050565b600062000563838362000535565b9150826002028217905092915050565b6200057e82620002f9565b67ffffffffffffffff8111156200059a576200059962000304565b5b620005a6825462000362565b620005b3828285620004d8565b600060209050601f831160018114620005eb5760008415620005d6578287015190505b620005e2858262000555565b86555062000652565b601f198416620005fb8662000397565b60005b828110156200062557848901518255600182019150602085019450602081019050620005fe565b8683101562000645578489015162000641601f89168262000535565b8355505b6001600288020188555050505b505050505050565b6000604051905090565b600080fd5b600080fd5b600080fd5b600080fd5b6000601f19601f8301169050919050565b620006948262000678565b810181811067ffffffffffffffff82111715620006b657620006b562000304565b5b80604052505050565b6000620006cb6200065a565b9050620006d9828262000689565b919050565b600067ffffffffffffffff821115620006fc57620006fb62000304565b5b620007078262000678565b9050602081019050919050565b60005b838110156200073457808201518184015260208101905062000717565b60008484015250505050565b6000620007576200075184620006de565b620006bf565b90508281526020810184848401111562000776576200077562000673565b5b6200078384828562000714565b509392505050565b600082601f830112620007a357620007a26200066e565b5b8151620007b584826020860162000740565b91505092915050565b600067ffffffffffffffff821115620007dc57620007db62000304565b5b602082029050602081019050919050565b600080fd5b6000620008096200080384620007be565b620006bf565b905080838252602082019050602084028301858111156200082f576200082e620007ed565b5b835b818110156200087d57805167ffffffffffffffff8111156200085857620008576200066e565b5b8086016200086789826200078b565b8552602085019450505060208101905062000831565b5050509392505050565b600082601f8301126200089f576200089e6200066e565b5b8151620008b1848260208601620007f2565b91505092915050565b600080600060608486031215620008d657620008d562000664565b5b600084015167ffffffffffffffff811115620008f757620008f662000669565b5b62000905868287016200078b565b935050602084015167ffffffffffffffff81111562000929576200092862000669565b5b62000937868287016200078b565b925050604084015167ffffffffffffffff8111156200095b576200095a62000669565b5b620009698682870162000887565b9150509250925092565b7f4e487b7100000000000000000000000000000000000000000000000000000000600052603260045260246000fd5b7f4e487b7100000000000000000000000000000000000000000000000000000000600052601160045260246000fd5b6000620009de826200041f565b91507fffffffffffffffffffffffffffffffffffffffffffffffffffffffffffffffff820362000a135762000a12620009a2565b5b600182019050919050565b611f1e8062000a2e6000396000f3fe608060405234801561001057600080fd5b50600436106101215760003560e01c80638a4d5a67116100ad578063a523b88a11610071578063a523b88a14610328578063af640d0f14610332578063b80777ea14610350578063df5a11e11461036e578063f6821a0c1461037857610121565b80638a4d5a671461027f5780638da5cb5b1461029d5780638ebb4c15146102bb57806391f3410c146102ec57806399f71a7d1461030a57610121565b806362a1c583116100f457806362a1c583146101b55780636e0d3da7146101d35780637e9dffe614610203578063843b43861461023357806386b646f21461024f57610121565b80630121b93f1461012657806303c32278146101425780634db27e4e14610167578063507f73ab14610197575b600080fd5b610140600480360381019061013b919061138c565b610396565b005b61014a61041f565b60405161015e989796959493929190611806565b60405180910390f35b610181600480360381019061017c919061138c565b61088a565b60405161018e91906118c4565b60405180910390f35b61019f6108c9565b6040516101ac91906118df565b60405180910390f35b6101bd610a48565b6040516101ca9190611901565b60405180910390f35b6101ed60048036038101906101e8919061138c565b610ad6565b6040516101fa9190611923565b60405180910390f35b61021d6004803603810190610218919061138c565b610b8c565b60405161022a91906118c4565b60405180910390f35b61024d60048036038101906102489190611a7a565b610bcb565b005b6102696004803603810190610264919061138c565b610c7f565b6040516102769190611901565b60405180910390f35b610287610d32565b6040516102949190611923565b60405180910390f35b6102a5610dc0565b6040516102b291906118c4565b60405180910390f35b6102d560048036038101906102d0919061138c565b610de6565b6040516102e3929190611ac3565b60405180910390f35b6102f4610eb2565b6040516103019190611af3565b60405180910390f35b610312611074565b60405161031f9190611923565b60405180910390f35b610330611102565b005b61033a611167565b6040516103479190611b15565b60405180910390f35b61035861116d565b6040516103659190611923565b60405180910390f35b6103766111fb565b005b610380611260565b60405161038d9190611901565b60405180910390f35b600681815481106103aa576103a9611b30565b5b9060005260206000209060020201600101339080600181540180825580915050600190039060005260206000200160009091909190916101000a81548173ffffffffffffffffffffffffffffffffffffffff021916908373ffffffffffffffffffffffffffffffffffffffff16021790555050565b60006060806060806060806060600154600360046005600660076008610443610eb2565b86805461044f90611b8e565b80601f016020809104026020016040519081016040528092919081815260200182805461047b90611b8e565b80156104c85780601f1061049d576101008083540402835291602001916104c8565b820191906000526020600020905b8154815290600101906020018083116104ab57829003601f168201915b505050505096508580546104db90611b8e565b80601f016020809104026020016040519081016040528092919081815260200182805461050790611b8e565b80156105545780601f1061052957610100808354040283529160200191610554565b820191906000526020600020905b81548152906001019060200180831161053757829003601f168201915b5050505050955084805461056790611b8e565b80601f016020809104026020016040519081016040528092919081815260200182805461059390611b8e565b80156105e05780601f106105b5576101008083540402835291602001916105e0565b820191906000526020600020905b8154815290600101906020018083116105c357829003601f168201915b5050505050945083805480602002602001604051908101604052809291908181526020016000905b8282101561075a578382906000526020600020906002020160405180604001604052908160008201805461063b90611b8e565b80601f016020809104026020016040519081016040528092919081815260200182805461066790611b8e565b80156106b45780601f10610689576101008083540402835291602001916106b4565b820191906000526020600020905b81548152906001019060200180831161069757829003601f168201915b505050505081526020016001820180548060200260200160405190810160405280929190818152602001828054801561074257602002820191906000526020600020905b8160009054906101000a900473ffffffffffffffffffffffffffffffffffffffff1673ffffffffffffffffffffffffffffffffffffffff16815260200190600101908083116106f8575b50505050508152505081526020019060010190610608565b505050509350828054806020026020016040519081016040528092919081815260200182805480156107e157602002820191906000526020600020905b8160009054906101000a900473ffffffffffffffffffffffffffffffffffffffff1673ffffffffffffffffffffffffffffffffffffffff1681526020019060010190808311610797575b505050505092508180548060200260200160405190810160405280929190818152602001828054801561086957602002820191906000526020600020905b8160009054906101000a900473ffffffffffffffffffffffffffffffffffffffff1673ffffffffffffffffffffffffffffffffffffffff168152602001906001019080831161081f575b50505050509150975097509750975097509750975097509091929394959697565b6008818154811061089a57600080fd5b906000526020600020016000915054906101000a900473ffffffffffffffffffffffffffffffffffffffff1681565b60606006805480602002602001604051908101604052809291908181526020016000905b82821015610a3f578382906000526020600020906002020160405180604001604052908160008201805461092090611b8e565b80601f016020809104026020016040519081016040528092919081815260200182805461094c90611b8e565b80156109995780601f1061096e57610100808354040283529160200191610999565b820191906000526020600020905b81548152906001019060200180831161097c57829003601f168201915b5050505050815260200160018201805480602002602001604051908101604052809291908181526020018280548015610a2757602002820191906000526020600020905b8160009054906101000a900473ffffffffffffffffffffffffffffffffffffffff1673ffffffffffffffffffffffffffffffffffffffff16815260200190600101908083116109dd575b505050505081525050815260200190600101906108ed565b50505050905090565b60606007805480602002602001604051908101604052809291908181526020018280548015610acc57602002820191906000526020600020905b8160009054906101000a900473ffffffffffffffffffffffffffffffffffffffff1673ffffffffffffffffffffffffffffffffffffffff1681526020019060010190808311610a82575b5050505050905090565b60068181548110610ae657600080fd5b9060005260206000209060020201600091509050806000018054610b0990611b8e565b80601f0160208091040260200160405190810160405280929190818152602001828054610b3590611b8e565b8015610b825780601f10610b5757610100808354040283529160200191610b82565b820191906000526020600020905b815481529060010190602001808311610b6557829003601f168201915b5050505050905081565b60078181548110610b9c57600080fd5b906000526020600020016000915054906101000a900473ffffffffffffffffffffffffffffffffffffffff1681565b610bd560096112ee565b60405180604001604052803373ffffffffffffffffffffffffffffffffffffffff16815260200182815250600a6000610c0e6009611304565b815260200190815260200160002060008201518160000160006101000a81548173ffffffffffffffffffffffffffffffffffffffff021916908373ffffffffffffffffffffffffffffffffffffffff1602179055506020820151816001019081610c789190611d6b565b5090505050565b606060068281548110610c9557610c94611b30565b5b9060005260206000209060020201600101805480602002602001604051908101604052809291908181526020018280548015610d2657602002820191906000526020600020905b8160009054906101000a900473ffffffffffffffffffffffffffffffffffffffff1673ffffffffffffffffffffffffffffffffffffffff1681526020019060010190808311610cdc575b50505050509050919050565b60048054610d3f90611b8e565b80601f0160208091040260200160405190810160405280929190818152602001828054610d6b90611b8e565b8015610db85780601f10610d8d57610100808354040283529160200191610db8565b820191906000526020600020905b815481529060010190602001808311610d9b57829003601f168201915b505050505081565b600260009054906101000a900473ffffffffffffffffffffffffffffffffffffffff1681565b600a6020528060005260406000206000915090508060000160009054906101000a900473ffffffffffffffffffffffffffffffffffffffff1690806001018054610e2f90611b8e565b80601f0160208091040260200160405190810160405280929190818152602001828054610e5b90611b8e565b8015610ea85780601f10610e7d57610100808354040283529160200191610ea8565b820191906000526020600020905b815481529060010190602001808311610e8b57829003601f168201915b5050505050905082565b60606000610ec06009611304565b67ffffffffffffffff811115610ed957610ed861194f565b5b604051908082528060200260200182016040528015610f1257816020015b610eff611312565b815260200190600190039081610ef75790505b50905060005b610f226009611304565b81101561106c57600a6000600183610f3a9190611e6c565b81526020019081526020016000206040518060400160405290816000820160009054906101000a900473ffffffffffffffffffffffffffffffffffffffff1673ffffffffffffffffffffffffffffffffffffffff1673ffffffffffffffffffffffffffffffffffffffff168152602001600182018054610fb990611b8e565b80601f0160208091040260200160405190810160405280929190818152602001828054610fe590611b8e565b80156110325780601f1061100757610100808354040283529160200191611032565b820191906000526020600020905b81548152906001019060200180831161101557829003601f168201915b50505050508152505082828151811061104e5761104d611b30565b5b6020026020010181905250808061106490611ea0565b915050610f18565b508091505090565b6005805461108190611b8e565b80601f01602080910402602001604051908101604052809291908181526020018280546110ad90611b8e565b80156110fa5780601f106110cf576101008083540402835291602001916110fa565b820191906000526020600020905b8154815290600101906020018083116110dd57829003601f168201915b505050505081565b6007339080600181540180825580915050600190039060005260206000200160009091909190916101000a81548173ffffffffffffffffffffffffffffffffffffffff021916908373ffffffffffffffffffffffffffffffffffffffff160217905550565b60015481565b6003805461117a90611b8e565b80601f01602080910402602001604051908101604052809291908181526020018280546111a690611b8e565b80156111f35780601f106111c8576101008083540402835291602001916111f3565b820191906000526020600020905b8154815290600101906020018083116111d657829003601f168201915b505050505081565b6008339080600181540180825580915050600190039060005260206000200160009091909190916101000a81548173ffffffffffffffffffffffffffffffffffffffff021916908373ffffffffffffffffffffffffffffffffffffffff160217905550565b606060088054806020026020016040519081016040528092919081815260200182805480156112e457602002820191906000526020600020905b8160009054906101000a900473ffffffffffffffffffffffffffffffffffffffff1673ffffffffffffffffffffffffffffffffffffffff168152602001906001019080831161129a575b5050505050905090565b6001816000016000828254019250508190555050565b600081600001549050919050565b6040518060400160405280600073ffffffffffffffffffffffffffffffffffffffff168152602001606081525090565b6000604051905090565b600080fd5b600080fd5b6000819050919050565b61136981611356565b811461137457600080fd5b50565b60008135905061138681611360565b92915050565b6000602082840312156113a2576113a161134c565b5b60006113b084828501611377565b91505092915050565b6113c281611356565b82525050565b600081519050919050565b600082825260208201905092915050565b60005b838110156114025780820151818401526020810190506113e7565b60008484015250505050565b6000601f19601f8301169050919050565b600061142a826113c8565b61143481856113d3565b93506114448185602086016113e4565b61144d8161140e565b840191505092915050565b600081519050919050565b600082825260208201905092915050565b6000819050602082019050919050565b600082825260208201905092915050565b60006114a0826113c8565b6114aa8185611484565b93506114ba8185602086016113e4565b6114c38161140e565b840191505092915050565b600081519050919050565b600082825260208201905092915050565b6000819050602082019050919050565b600073ffffffffffffffffffffffffffffffffffffffff82169050919050565b6000611525826114fa565b9050919050565b6115358161151a565b82525050565b6000611547838361152c565b60208301905092915050565b6000602082019050919050565b600061156b826114ce565b61157581856114d9565b9350611580836114ea565b8060005b838110156115b1578151611598888261153b565b97506115a383611553565b925050600181019050611584565b5085935050505092915050565b600060408301600083015184820360008601526115db8282611495565b915050602083015184820360208601526115f58282611560565b9150508091505092915050565b600061160e83836115be565b905092915050565b6000602082019050919050565b600061162e82611458565b6116388185611463565b93508360208202850161164a85611474565b8060005b8581101561168657848403895281516116678582611602565b945061167283611616565b925060208a0199505060018101905061164e565b50829750879550505050505092915050565b600082825260208201905092915050565b60006116b4826114ce565b6116be8185611698565b93506116c9836114ea565b8060005b838110156116fa5781516116e1888261153b565b97506116ec83611553565b9250506001810190506116cd565b5085935050505092915050565b600081519050919050565b600082825260208201905092915050565b6000819050602082019050919050565b600060408301600083015161174b600086018261152c565b50602083015184820360208601526117638282611495565b9150508091505092915050565b600061177c8383611733565b905092915050565b6000602082019050919050565b600061179c82611707565b6117a68185611712565b9350836020820285016117b885611723565b8060005b858110156117f457848403895281516117d58582611770565b94506117e083611784565b925060208a019950506001810190506117bc565b50829750879550505050505092915050565b60006101008201905061181c600083018b6113b9565b818103602083015261182e818a61141f565b90508181036040830152611842818961141f565b90508181036060830152611856818861141f565b9050818103608083015261186a8187611623565b905081810360a083015261187e81866116a9565b905081810360c083015261189281856116a9565b905081810360e08301526118a68184611791565b90509998505050505050505050565b6118be8161151a565b82525050565b60006020820190506118d960008301846118b5565b92915050565b600060208201905081810360008301526118f98184611623565b905092915050565b6000602082019050818103600083015261191b81846116a9565b905092915050565b6000602082019050818103600083015261193d818461141f565b905092915050565b600080fd5b600080fd5b7f4e487b7100000000000000000000000000000000000000000000000000000000600052604160045260246000fd5b6119878261140e565b810181811067ffffffffffffffff821117156119a6576119a561194f565b5b80604052505050565b60006119b9611342565b90506119c5828261197e565b919050565b600067ffffffffffffffff8211156119e5576119e461194f565b5b6119ee8261140e565b9050602081019050919050565b82818337600083830152505050565b6000611a1d611a18846119ca565b6119af565b905082815260208101848484011115611a3957611a3861194a565b5b611a448482856119fb565b509392505050565b600082601f830112611a6157611a60611945565b5b8135611a71848260208601611a0a565b91505092915050565b600060208284031215611a9057611a8f61134c565b5b600082013567ffffffffffffffff811115611aae57611aad611351565b5b611aba84828501611a4c565b91505092915050565b6000604082019050611ad860008301856118b5565b8181036020830152611aea818461141f565b90509392505050565b60006020820190508181036000830152611b0d8184611791565b905092915050565b6000602082019050611b2a60008301846113b9565b92915050565b7f4e487b7100000000000000000000000000000000000000000000000000000000600052603260045260246000fd5b7f4e487b7100000000000000000000000000000000000000000000000000000000600052602260045260246000fd5b60006002820490506001821680611ba657607f821691505b602082108103611bb957611bb8611b5f565b5b50919050565b60008190508160005260206000209050919050565b60006020601f8301049050919050565b600082821b905092915050565b600060088302611c217fffffffffffffffffffffffffffffffffffffffffffffffffffffffffffffffff82611be4565b611c2b8683611be4565b95508019841693508086168417925050509392505050565b6000819050919050565b6000611c68611c63611c5e84611356565b611c43565b611356565b9050919050565b6000819050919050565b611c8283611c4d565b611c96611c8e82611c6f565b848454611bf1565b825550505050565b600090565b611cab611c9e565b611cb6818484611c79565b505050565b5b81811015611cda57611ccf600082611ca3565b600181019050611cbc565b5050565b601f821115611d1f57611cf081611bbf565b611cf984611bd4565b81016020851015611d08578190505b611d1c611d1485611bd4565b830182611cbb565b50505b505050565b600082821c905092915050565b6000611d4260001984600802611d24565b1980831691505092915050565b6000611d5b8383611d31565b9150826002028217905092915050565b611d74826113c8565b67ffffffffffffffff811115611d8d57611d8c61194f565b5b611d978254611b8e565b611da2828285611cde565b600060209050601f831160018114611dd55760008415611dc3578287015190505b611dcd8582611d4f565b865550611e35565b601f198416611de386611bbf565b60005b82811015611e0b57848901518255600182019150602085019450602081019050611de6565b86831015611e285784890151611e24601f891682611d31565b8355505b6001600288020188555050505b505050505050565b7f4e487b7100000000000000000000000000000000000000000000000000000000600052601160045260246000fd5b6000611e7782611356565b9150611e8283611356565b9250828201905080821115611e9a57611e99611e3d565b5b92915050565b6000611eab82611356565b91507fffffffffffffffffffffffffffffffffffffffffffffffffffffffffffffffff8203611edd57611edc611e3d565b5b60018201905091905056fea2646970667358221220100925ae6aa7b1542e2c22f9e08715f7f08f9dd30f3174e29a79cf2e1ef628a964736f6c63430008120033",
					"opcodes": "PUSH1 0x80 PUSH1 0x40 MSTORE PUSH1 0x40 MLOAD DUP1 PUSH1 0x40 ADD PUSH1 0x40 MSTORE DUP1 PUSH1 0x4 DUP2 MSTORE PUSH1 0x20 ADD PUSH32 0x706F6C6C00000000000000000000000000000000000000000000000000000000 DUP2 MSTORE POP PUSH1 0x5 SWAP1 DUP2 PUSH3 0x4A SWAP2 SWAP1 PUSH3 0x573 JUMP JUMPDEST POP CALLVALUE DUP1 ISZERO PUSH3 0x58 JUMPI PUSH1 0x0 DUP1 REVERT JUMPDEST POP PUSH1 0x40 MLOAD PUSH3 0x294C CODESIZE SUB DUP1 PUSH3 0x294C DUP4 CODECOPY DUP2 DUP2 ADD PUSH1 0x40 MSTORE DUP2 ADD SWAP1 PUSH3 0x7E SWAP2 SWAP1 PUSH3 0x8BA JUMP JUMPDEST PUSH3 0x95 PUSH1 0x0 PUSH3 0x227 PUSH1 0x20 SHL PUSH3 0x12EE OR PUSH1 0x20 SHR JUMP JUMPDEST PUSH3 0xAC PUSH1 0x0 PUSH3 0x23D PUSH1 0x20 SHL PUSH3 0x1304 OR PUSH1 0x20 SHR JUMP JUMPDEST PUSH1 0x1 DUP2 SWAP1 SSTORE POP DUP3 PUSH1 0x3 SWAP1 DUP2 PUSH3 0xC3 SWAP2 SWAP1 PUSH3 0x573 JUMP JUMPDEST POP DUP2 PUSH1 0x4 SWAP1 DUP2 PUSH3 0xD5 SWAP2 SWAP1 PUSH3 0x573 JUMP JUMPDEST POP PUSH1 0x0 JUMPDEST DUP2 MLOAD DUP2 LT ISZERO PUSH3 0x1DC JUMPI PUSH1 0x6 PUSH1 0x40 MLOAD DUP1 PUSH1 0x40 ADD PUSH1 0x40 MSTORE DUP1 DUP5 DUP5 DUP2 MLOAD DUP2 LT PUSH3 0x106 JUMPI PUSH3 0x105 PUSH3 0x973 JUMP JUMPDEST JUMPDEST PUSH1 0x20 MUL PUSH1 0x20 ADD ADD MLOAD DUP2 MSTORE PUSH1 0x20 ADD PUSH1 0x0 PUSH8 0xFFFFFFFFFFFFFFFF DUP2 GT ISZERO PUSH3 0x131 JUMPI PUSH3 0x130 PUSH3 0x304 JUMP JUMPDEST JUMPDEST PUSH1 0x40 MLOAD SWAP1 DUP1 DUP3 MSTORE DUP1 PUSH1 0x20 MUL PUSH1 0x20 ADD DUP3 ADD PUSH1 0x40 MSTORE DUP1 ISZERO PUSH3 0x160 JUMPI DUP2 PUSH1 0x20 ADD PUSH1 0x20 DUP3 MUL DUP1 CALLDATASIZE DUP4 CALLDATACOPY DUP1 DUP3 ADD SWAP2 POP POP SWAP1 POP JUMPDEST POP DUP2 MSTORE POP SWAP1 DUP1 PUSH1 0x1 DUP2 SLOAD ADD DUP1 DUP3 SSTORE DUP1 SWAP2 POP POP PUSH1 0x1 SWAP1 SUB SWAP1 PUSH1 0x0 MSTORE PUSH1 0x20 PUSH1 0x0 KECCAK256 SWAP1 PUSH1 0x2 MUL ADD PUSH1 0x0 SWAP1 SWAP2 SWAP1 SWAP2 SWAP1 SWAP2 POP PUSH1 0x0 DUP3 ADD MLOAD DUP2 PUSH1 0x0 ADD SWAP1 DUP2 PUSH3 0x1A4 SWAP2 SWAP1 PUSH3 0x573 JUMP JUMPDEST POP PUSH1 0x20 DUP3 ADD MLOAD DUP2 PUSH1 0x1 ADD SWAP1 DUP1 MLOAD SWAP1 PUSH1 0x20 ADD SWAP1 PUSH3 0x1C3 SWAP3 SWAP2 SWAP1 PUSH3 0x24B JUMP JUMPDEST POP POP POP DUP1 DUP1 PUSH3 0x1D3 SWAP1 PUSH3 0x9D1 JUMP JUMPDEST SWAP2 POP POP PUSH3 0xD9 JUMP JUMPDEST POP CALLER PUSH1 0x2 PUSH1 0x0 PUSH2 0x100 EXP DUP2 SLOAD DUP2 PUSH20 0xFFFFFFFFFFFFFFFFFFFFFFFFFFFFFFFFFFFFFFFF MUL NOT AND SWAP1 DUP4 PUSH20 0xFFFFFFFFFFFFFFFFFFFFFFFFFFFFFFFFFFFFFFFF AND MUL OR SWAP1 SSTORE POP POP POP POP PUSH3 0xA1E JUMP JUMPDEST PUSH1 0x1 DUP2 PUSH1 0x0 ADD PUSH1 0x0 DUP3 DUP3 SLOAD ADD SWAP3 POP POP DUP2 SWAP1 SSTORE POP POP JUMP JUMPDEST PUSH1 0x0 DUP2 PUSH1 0x0 ADD SLOAD SWAP1 POP SWAP2 SWAP1 POP JUMP JUMPDEST DUP3 DUP1 SLOAD DUP3 DUP3 SSTORE SWAP1 PUSH1 0x0 MSTORE PUSH1 0x20 PUSH1 0x0 KECCAK256 SWAP1 DUP2 ADD SWAP3 DUP3 ISZERO PUSH3 0x2C7 JUMPI SWAP2 PUSH1 0x20 MUL DUP3 ADD JUMPDEST DUP3 DUP2 GT ISZERO PUSH3 0x2C6 JUMPI DUP3 MLOAD DUP3 PUSH1 0x0 PUSH2 0x100 EXP DUP2 SLOAD DUP2 PUSH20 0xFFFFFFFFFFFFFFFFFFFFFFFFFFFFFFFFFFFFFFFF MUL NOT AND SWAP1 DUP4 PUSH20 0xFFFFFFFFFFFFFFFFFFFFFFFFFFFFFFFFFFFFFFFF AND MUL OR SWAP1 SSTORE POP SWAP2 PUSH1 0x20 ADD SWAP2 SWAP1 PUSH1 0x1 ADD SWAP1 PUSH3 0x26C JUMP JUMPDEST JUMPDEST POP SWAP1 POP PUSH3 0x2D6 SWAP2 SWAP1 PUSH3 0x2DA JUMP JUMPDEST POP SWAP1 JUMP JUMPDEST JUMPDEST DUP1 DUP3 GT ISZERO PUSH3 0x2F5 JUMPI PUSH1 0x0 DUP2 PUSH1 0x0 SWAP1 SSTORE POP PUSH1 0x1 ADD PUSH3 0x2DB JUMP JUMPDEST POP SWAP1 JUMP JUMPDEST PUSH1 0x0 DUP2 MLOAD SWAP1 POP SWAP2 SWAP1 POP JUMP JUMPDEST PUSH32 0x4E487B7100000000000000000000000000000000000000000000000000000000 PUSH1 0x0 MSTORE PUSH1 0x41 PUSH1 0x4 MSTORE PUSH1 0x24 PUSH1 0x0 REVERT JUMPDEST PUSH32 0x4E487B7100000000000000000000000000000000000000000000000000000000 PUSH1 0x0 MSTORE PUSH1 0x22 PUSH1 0x4 MSTORE PUSH1 0x24 PUSH1 0x0 REVERT JUMPDEST PUSH1 0x0 PUSH1 0x2 DUP3 DIV SWAP1 POP PUSH1 0x1 DUP3 AND DUP1 PUSH3 0x37B JUMPI PUSH1 0x7F DUP3 AND SWAP2 POP JUMPDEST PUSH1 0x20 DUP3 LT DUP2 SUB PUSH3 0x391 JUMPI PUSH3 0x390 PUSH3 0x333 JUMP JUMPDEST JUMPDEST POP SWAP2 SWAP1 POP JUMP JUMPDEST PUSH1 0x0 DUP2 SWAP1 POP DUP2 PUSH1 0x0 MSTORE PUSH1 0x20 PUSH1 0x0 KECCAK256 SWAP1 POP SWAP2 SWAP1 POP JUMP JUMPDEST PUSH1 0x0 PUSH1 0x20 PUSH1 0x1F DUP4 ADD DIV SWAP1 POP SWAP2 SWAP1 POP JUMP JUMPDEST PUSH1 0x0 DUP3 DUP3 SHL SWAP1 POP SWAP3 SWAP2 POP POP JUMP JUMPDEST PUSH1 0x0 PUSH1 0x8 DUP4 MUL PUSH3 0x3FB PUSH32 0xFFFFFFFFFFFFFFFFFFFFFFFFFFFFFFFFFFFFFFFFFFFFFFFFFFFFFFFFFFFFFFFF DUP3 PUSH3 0x3BC JUMP JUMPDEST PUSH3 0x407 DUP7 DUP4 PUSH3 0x3BC JUMP JUMPDEST SWAP6 POP DUP1 NOT DUP5 AND SWAP4 POP DUP1 DUP7 AND DUP5 OR SWAP3 POP POP POP SWAP4 SWAP3 POP POP POP JUMP JUMPDEST PUSH1 0x0 DUP2 SWAP1 POP SWAP2 SWAP1 POP JUMP JUMPDEST PUSH1 0x0 DUP2 SWAP1 POP SWAP2 SWAP1 POP JUMP JUMPDEST PUSH1 0x0 PUSH3 0x454 PUSH3 0x44E PUSH3 0x448 DUP5 PUSH3 0x41F JUMP JUMPDEST PUSH3 0x429 JUMP JUMPDEST PUSH3 0x41F JUMP JUMPDEST SWAP1 POP SWAP2 SWAP1 POP JUMP JUMPDEST PUSH1 0x0 DUP2 SWAP1 POP SWAP2 SWAP1 POP JUMP JUMPDEST PUSH3 0x470 DUP4 PUSH3 0x433 JUMP JUMPDEST PUSH3 0x488 PUSH3 0x47F DUP3 PUSH3 0x45B JUMP JUMPDEST DUP5 DUP5 SLOAD PUSH3 0x3C9 JUMP JUMPDEST DUP3 SSTORE POP POP POP POP JUMP JUMPDEST PUSH1 0x0 SWAP1 JUMP JUMPDEST PUSH3 0x49F PUSH3 0x490 JUMP JUMPDEST PUSH3 0x4AC DUP2 DUP5 DUP5 PUSH3 0x465 JUMP JUMPDEST POP POP POP JUMP JUMPDEST JUMPDEST DUP2 DUP2 LT ISZERO PUSH3 0x4D4 JUMPI PUSH3 0x4C8 PUSH1 0x0 DUP3 PUSH3 0x495 JUMP JUMPDEST PUSH1 0x1 DUP2 ADD SWAP1 POP PUSH3 0x4B2 JUMP JUMPDEST POP POP JUMP JUMPDEST PUSH1 0x1F DUP3 GT ISZERO PUSH3 0x523 JUMPI PUSH3 0x4ED DUP2 PUSH3 0x397 JUMP JUMPDEST PUSH3 0x4F8 DUP5 PUSH3 0x3AC JUMP JUMPDEST DUP2 ADD PUSH1 0x20 DUP6 LT ISZERO PUSH3 0x508 JUMPI DUP2 SWAP1 POP JUMPDEST PUSH3 0x520 PUSH3 0x517 DUP6 PUSH3 0x3AC JUMP JUMPDEST DUP4 ADD DUP3 PUSH3 0x4B1 JUMP JUMPDEST POP POP JUMPDEST POP POP POP JUMP JUMPDEST PUSH1 0x0 DUP3 DUP3 SHR SWAP1 POP SWAP3 SWAP2 POP POP JUMP JUMPDEST PUSH1 0x0 PUSH3 0x548 PUSH1 0x0 NOT DUP5 PUSH1 0x8 MUL PUSH3 0x528 JUMP JUMPDEST NOT DUP1 DUP4 AND SWAP2 POP POP SWAP3 SWAP2 POP POP JUMP JUMPDEST PUSH1 0x0 PUSH3 0x563 DUP4 DUP4 PUSH3 0x535 JUMP JUMPDEST SWAP2 POP DUP3 PUSH1 0x2 MUL DUP3 OR SWAP1 POP SWAP3 SWAP2 POP POP JUMP JUMPDEST PUSH3 0x57E DUP3 PUSH3 0x2F9 JUMP JUMPDEST PUSH8 0xFFFFFFFFFFFFFFFF DUP2 GT ISZERO PUSH3 0x59A JUMPI PUSH3 0x599 PUSH3 0x304 JUMP JUMPDEST JUMPDEST PUSH3 0x5A6 DUP3 SLOAD PUSH3 0x362 JUMP JUMPDEST PUSH3 0x5B3 DUP3 DUP3 DUP6 PUSH3 0x4D8 JUMP JUMPDEST PUSH1 0x0 PUSH1 0x20 SWAP1 POP PUSH1 0x1F DUP4 GT PUSH1 0x1 DUP2 EQ PUSH3 0x5EB JUMPI PUSH1 0x0 DUP5 ISZERO PUSH3 0x5D6 JUMPI DUP3 DUP8 ADD MLOAD SWAP1 POP JUMPDEST PUSH3 0x5E2 DUP6 DUP3 PUSH3 0x555 JUMP JUMPDEST DUP7 SSTORE POP PUSH3 0x652 JUMP JUMPDEST PUSH1 0x1F NOT DUP5 AND PUSH3 0x5FB DUP7 PUSH3 0x397 JUMP JUMPDEST PUSH1 0x0 JUMPDEST DUP3 DUP2 LT ISZERO PUSH3 0x625 JUMPI DUP5 DUP10 ADD MLOAD DUP3 SSTORE PUSH1 0x1 DUP3 ADD SWAP2 POP PUSH1 0x20 DUP6 ADD SWAP5 POP PUSH1 0x20 DUP2 ADD SWAP1 POP PUSH3 0x5FE JUMP JUMPDEST DUP7 DUP4 LT ISZERO PUSH3 0x645 JUMPI DUP5 DUP10 ADD MLOAD PUSH3 0x641 PUSH1 0x1F DUP10 AND DUP3 PUSH3 0x535 JUMP JUMPDEST DUP4 SSTORE POP JUMPDEST PUSH1 0x1 PUSH1 0x2 DUP9 MUL ADD DUP9 SSTORE POP POP POP JUMPDEST POP POP POP POP POP POP JUMP JUMPDEST PUSH1 0x0 PUSH1 0x40 MLOAD SWAP1 POP SWAP1 JUMP JUMPDEST PUSH1 0x0 DUP1 REVERT JUMPDEST PUSH1 0x0 DUP1 REVERT JUMPDEST PUSH1 0x0 DUP1 REVERT JUMPDEST PUSH1 0x0 DUP1 REVERT JUMPDEST PUSH1 0x0 PUSH1 0x1F NOT PUSH1 0x1F DUP4 ADD AND SWAP1 POP SWAP2 SWAP1 POP JUMP JUMPDEST PUSH3 0x694 DUP3 PUSH3 0x678 JUMP JUMPDEST DUP2 ADD DUP2 DUP2 LT PUSH8 0xFFFFFFFFFFFFFFFF DUP3 GT OR ISZERO PUSH3 0x6B6 JUMPI PUSH3 0x6B5 PUSH3 0x304 JUMP JUMPDEST JUMPDEST DUP1 PUSH1 0x40 MSTORE POP POP POP JUMP JUMPDEST PUSH1 0x0 PUSH3 0x6CB PUSH3 0x65A JUMP JUMPDEST SWAP1 POP PUSH3 0x6D9 DUP3 DUP3 PUSH3 0x689 JUMP JUMPDEST SWAP2 SWAP1 POP JUMP JUMPDEST PUSH1 0x0 PUSH8 0xFFFFFFFFFFFFFFFF DUP3 GT ISZERO PUSH3 0x6FC JUMPI PUSH3 0x6FB PUSH3 0x304 JUMP JUMPDEST JUMPDEST PUSH3 0x707 DUP3 PUSH3 0x678 JUMP JUMPDEST SWAP1 POP PUSH1 0x20 DUP2 ADD SWAP1 POP SWAP2 SWAP1 POP JUMP JUMPDEST PUSH1 0x0 JUMPDEST DUP4 DUP2 LT ISZERO PUSH3 0x734 JUMPI DUP1 DUP3 ADD MLOAD DUP2 DUP5 ADD MSTORE PUSH1 0x20 DUP2 ADD SWAP1 POP PUSH3 0x717 JUMP JUMPDEST PUSH1 0x0 DUP5 DUP5 ADD MSTORE POP POP POP POP JUMP JUMPDEST PUSH1 0x0 PUSH3 0x757 PUSH3 0x751 DUP5 PUSH3 0x6DE JUMP JUMPDEST PUSH3 0x6BF JUMP JUMPDEST SWAP1 POP DUP3 DUP2 MSTORE PUSH1 0x20 DUP2 ADD DUP5 DUP5 DUP5 ADD GT ISZERO PUSH3 0x776 JUMPI PUSH3 0x775 PUSH3 0x673 JUMP JUMPDEST JUMPDEST PUSH3 0x783 DUP5 DUP3 DUP6 PUSH3 0x714 JUMP JUMPDEST POP SWAP4 SWAP3 POP POP POP JUMP JUMPDEST PUSH1 0x0 DUP3 PUSH1 0x1F DUP4 ADD SLT PUSH3 0x7A3 JUMPI PUSH3 0x7A2 PUSH3 0x66E JUMP JUMPDEST JUMPDEST DUP2 MLOAD PUSH3 0x7B5 DUP5 DUP3 PUSH1 0x20 DUP7 ADD PUSH3 0x740 JUMP JUMPDEST SWAP2 POP POP SWAP3 SWAP2 POP POP JUMP JUMPDEST PUSH1 0x0 PUSH8 0xFFFFFFFFFFFFFFFF DUP3 GT ISZERO PUSH3 0x7DC JUMPI PUSH3 0x7DB PUSH3 0x304 JUMP JUMPDEST JUMPDEST PUSH1 0x20 DUP3 MUL SWAP1 POP PUSH1 0x20 DUP2 ADD SWAP1 POP SWAP2 SWAP1 POP JUMP JUMPDEST PUSH1 0x0 DUP1 REVERT JUMPDEST PUSH1 0x0 PUSH3 0x809 PUSH3 0x803 DUP5 PUSH3 0x7BE JUMP JUMPDEST PUSH3 0x6BF JUMP JUMPDEST SWAP1 POP DUP1 DUP4 DUP3 MSTORE PUSH1 0x20 DUP3 ADD SWAP1 POP PUSH1 0x20 DUP5 MUL DUP4 ADD DUP6 DUP2 GT ISZERO PUSH3 0x82F JUMPI PUSH3 0x82E PUSH3 0x7ED JUMP JUMPDEST JUMPDEST DUP4 JUMPDEST DUP2 DUP2 LT ISZERO PUSH3 0x87D JUMPI DUP1 MLOAD PUSH8 0xFFFFFFFFFFFFFFFF DUP2 GT ISZERO PUSH3 0x858 JUMPI PUSH3 0x857 PUSH3 0x66E JUMP JUMPDEST JUMPDEST DUP1 DUP7 ADD PUSH3 0x867 DUP10 DUP3 PUSH3 0x78B JUMP JUMPDEST DUP6 MSTORE PUSH1 0x20 DUP6 ADD SWAP5 POP POP POP PUSH1 0x20 DUP2 ADD SWAP1 POP PUSH3 0x831 JUMP JUMPDEST POP POP POP SWAP4 SWAP3 POP POP POP JUMP JUMPDEST PUSH1 0x0 DUP3 PUSH1 0x1F DUP4 ADD SLT PUSH3 0x89F JUMPI PUSH3 0x89E PUSH3 0x66E JUMP JUMPDEST JUMPDEST DUP2 MLOAD PUSH3 0x8B1 DUP5 DUP3 PUSH1 0x20 DUP7 ADD PUSH3 0x7F2 JUMP JUMPDEST SWAP2 POP POP SWAP3 SWAP2 POP POP JUMP JUMPDEST PUSH1 0x0 DUP1 PUSH1 0x0 PUSH1 0x60 DUP5 DUP7 SUB SLT ISZERO PUSH3 0x8D6 JUMPI PUSH3 0x8D5 PUSH3 0x664 JUMP JUMPDEST JUMPDEST PUSH1 0x0 DUP5 ADD MLOAD PUSH8 0xFFFFFFFFFFFFFFFF DUP2 GT ISZERO PUSH3 0x8F7 JUMPI PUSH3 0x8F6 PUSH3 0x669 JUMP JUMPDEST JUMPDEST PUSH3 0x905 DUP7 DUP3 DUP8 ADD PUSH3 0x78B JUMP JUMPDEST SWAP4 POP POP PUSH1 0x20 DUP5 ADD MLOAD PUSH8 0xFFFFFFFFFFFFFFFF DUP2 GT ISZERO PUSH3 0x929 JUMPI PUSH3 0x928 PUSH3 0x669 JUMP JUMPDEST JUMPDEST PUSH3 0x937 DUP7 DUP3 DUP8 ADD PUSH3 0x78B JUMP JUMPDEST SWAP3 POP POP PUSH1 0x40 DUP5 ADD MLOAD PUSH8 0xFFFFFFFFFFFFFFFF DUP2 GT ISZERO PUSH3 0x95B JUMPI PUSH3 0x95A PUSH3 0x669 JUMP JUMPDEST JUMPDEST PUSH3 0x969 DUP7 DUP3 DUP8 ADD PUSH3 0x887 JUMP JUMPDEST SWAP2 POP POP SWAP3 POP SWAP3 POP SWAP3 JUMP JUMPDEST PUSH32 0x4E487B7100000000000000000000000000000000000000000000000000000000 PUSH1 0x0 MSTORE PUSH1 0x32 PUSH1 0x4 MSTORE PUSH1 0x24 PUSH1 0x0 REVERT JUMPDEST PUSH32 0x4E487B7100000000000000000000000000000000000000000000000000000000 PUSH1 0x0 MSTORE PUSH1 0x11 PUSH1 0x4 MSTORE PUSH1 0x24 PUSH1 0x0 REVERT JUMPDEST PUSH1 0x0 PUSH3 0x9DE DUP3 PUSH3 0x41F JUMP JUMPDEST SWAP2 POP PUSH32 0xFFFFFFFFFFFFFFFFFFFFFFFFFFFFFFFFFFFFFFFFFFFFFFFFFFFFFFFFFFFFFFFF DUP3 SUB PUSH3 0xA13 JUMPI PUSH3 0xA12 PUSH3 0x9A2 JUMP JUMPDEST JUMPDEST PUSH1 0x1 DUP3 ADD SWAP1 POP SWAP2 SWAP1 POP JUMP JUMPDEST PUSH2 0x1F1E DUP1 PUSH3 0xA2E PUSH1 0x0 CODECOPY PUSH1 0x0 RETURN INVALID PUSH1 0x80 PUSH1 0x40 MSTORE CALLVALUE DUP1 ISZERO PUSH2 0x10 JUMPI PUSH1 0x0 DUP1 REVERT JUMPDEST POP PUSH1 0x4 CALLDATASIZE LT PUSH2 0x121 JUMPI PUSH1 0x0 CALLDATALOAD PUSH1 0xE0 SHR DUP1 PUSH4 0x8A4D5A67 GT PUSH2 0xAD JUMPI DUP1 PUSH4 0xA523B88A GT PUSH2 0x71 JUMPI DUP1 PUSH4 0xA523B88A EQ PUSH2 0x328 JUMPI DUP1 PUSH4 0xAF640D0F EQ PUSH2 0x332 JUMPI DUP1 PUSH4 0xB80777EA EQ PUSH2 0x350 JUMPI DUP1 PUSH4 0xDF5A11E1 EQ PUSH2 0x36E JUMPI DUP1 PUSH4 0xF6821A0C EQ PUSH2 0x378 JUMPI PUSH2 0x121 JUMP JUMPDEST DUP1 PUSH4 0x8A4D5A67 EQ PUSH2 0x27F JUMPI DUP1 PUSH4 0x8DA5CB5B EQ PUSH2 0x29D JUMPI DUP1 PUSH4 0x8EBB4C15 EQ PUSH2 0x2BB JUMPI DUP1 PUSH4 0x91F3410C EQ PUSH2 0x2EC JUMPI DUP1 PUSH4 0x99F71A7D EQ PUSH2 0x30A JUMPI PUSH2 0x121 JUMP JUMPDEST DUP1 PUSH4 0x62A1C583 GT PUSH2 0xF4 JUMPI DUP1 PUSH4 0x62A1C583 EQ PUSH2 0x1B5 JUMPI DUP1 PUSH4 0x6E0D3DA7 EQ PUSH2 0x1D3 JUMPI DUP1 PUSH4 0x7E9DFFE6 EQ PUSH2 0x203 JUMPI DUP1 PUSH4 0x843B4386 EQ PUSH2 0x233 JUMPI DUP1 PUSH4 0x86B646F2 EQ PUSH2 0x24F JUMPI PUSH2 0x121 JUMP JUMPDEST DUP1 PUSH4 0x121B93F EQ PUSH2 0x126 JUMPI DUP1 PUSH4 0x3C32278 EQ PUSH2 0x142 JUMPI DUP1 PUSH4 0x4DB27E4E EQ PUSH2 0x167 JUMPI DUP1 PUSH4 0x507F73AB EQ PUSH2 0x197 JUMPI JUMPDEST PUSH1 0x0 DUP1 REVERT JUMPDEST PUSH2 0x140 PUSH1 0x4 DUP1 CALLDATASIZE SUB DUP2 ADD SWAP1 PUSH2 0x13B SWAP2 SWAP1 PUSH2 0x138C JUMP JUMPDEST PUSH2 0x396 JUMP JUMPDEST STOP JUMPDEST PUSH2 0x14A PUSH2 0x41F JUMP JUMPDEST PUSH1 0x40 MLOAD PUSH2 0x15E SWAP9 SWAP8 SWAP7 SWAP6 SWAP5 SWAP4 SWAP3 SWAP2 SWAP1 PUSH2 0x1806 JUMP JUMPDEST PUSH1 0x40 MLOAD DUP1 SWAP2 SUB SWAP1 RETURN JUMPDEST PUSH2 0x181 PUSH1 0x4 DUP1 CALLDATASIZE SUB DUP2 ADD SWAP1 PUSH2 0x17C SWAP2 SWAP1 PUSH2 0x138C JUMP JUMPDEST PUSH2 0x88A JUMP JUMPDEST PUSH1 0x40 MLOAD PUSH2 0x18E SWAP2 SWAP1 PUSH2 0x18C4 JUMP JUMPDEST PUSH1 0x40 MLOAD DUP1 SWAP2 SUB SWAP1 RETURN JUMPDEST PUSH2 0x19F PUSH2 0x8C9 JUMP JUMPDEST PUSH1 0x40 MLOAD PUSH2 0x1AC SWAP2 SWAP1 PUSH2 0x18DF JUMP JUMPDEST PUSH1 0x40 MLOAD DUP1 SWAP2 SUB SWAP1 RETURN JUMPDEST PUSH2 0x1BD PUSH2 0xA48 JUMP JUMPDEST PUSH1 0x40 MLOAD PUSH2 0x1CA SWAP2 SWAP1 PUSH2 0x1901 JUMP JUMPDEST PUSH1 0x40 MLOAD DUP1 SWAP2 SUB SWAP1 RETURN JUMPDEST PUSH2 0x1ED PUSH1 0x4 DUP1 CALLDATASIZE SUB DUP2 ADD SWAP1 PUSH2 0x1E8 SWAP2 SWAP1 PUSH2 0x138C JUMP JUMPDEST PUSH2 0xAD6 JUMP JUMPDEST PUSH1 0x40 MLOAD PUSH2 0x1FA SWAP2 SWAP1 PUSH2 0x1923 JUMP JUMPDEST PUSH1 0x40 MLOAD DUP1 SWAP2 SUB SWAP1 RETURN JUMPDEST PUSH2 0x21D PUSH1 0x4 DUP1 CALLDATASIZE SUB DUP2 ADD SWAP1 PUSH2 0x218 SWAP2 SWAP1 PUSH2 0x138C JUMP JUMPDEST PUSH2 0xB8C JUMP JUMPDEST PUSH1 0x40 MLOAD PUSH2 0x22A SWAP2 SWAP1 PUSH2 0x18C4 JUMP JUMPDEST PUSH1 0x40 MLOAD DUP1 SWAP2 SUB SWAP1 RETURN JUMPDEST PUSH2 0x24D PUSH1 0x4 DUP1 CALLDATASIZE SUB DUP2 ADD SWAP1 PUSH2 0x248 SWAP2 SWAP1 PUSH2 0x1A7A JUMP JUMPDEST PUSH2 0xBCB JUMP JUMPDEST STOP JUMPDEST PUSH2 0x269 PUSH1 0x4 DUP1 CALLDATASIZE SUB DUP2 ADD SWAP1 PUSH2 0x264 SWAP2 SWAP1 PUSH2 0x138C JUMP JUMPDEST PUSH2 0xC7F JUMP JUMPDEST PUSH1 0x40 MLOAD PUSH2 0x276 SWAP2 SWAP1 PUSH2 0x1901 JUMP JUMPDEST PUSH1 0x40 MLOAD DUP1 SWAP2 SUB SWAP1 RETURN JUMPDEST PUSH2 0x287 PUSH2 0xD32 JUMP JUMPDEST PUSH1 0x40 MLOAD PUSH2 0x294 SWAP2 SWAP1 PUSH2 0x1923 JUMP JUMPDEST PUSH1 0x40 MLOAD DUP1 SWAP2 SUB SWAP1 RETURN JUMPDEST PUSH2 0x2A5 PUSH2 0xDC0 JUMP JUMPDEST PUSH1 0x40 MLOAD PUSH2 0x2B2 SWAP2 SWAP1 PUSH2 0x18C4 JUMP JUMPDEST PUSH1 0x40 MLOAD DUP1 SWAP2 SUB SWAP1 RETURN JUMPDEST PUSH2 0x2D5 PUSH1 0x4 DUP1 CALLDATASIZE SUB DUP2 ADD SWAP1 PUSH2 0x2D0 SWAP2 SWAP1 PUSH2 0x138C JUMP JUMPDEST PUSH2 0xDE6 JUMP JUMPDEST PUSH1 0x40 MLOAD PUSH2 0x2E3 SWAP3 SWAP2 SWAP1 PUSH2 0x1AC3 JUMP JUMPDEST PUSH1 0x40 MLOAD DUP1 SWAP2 SUB SWAP1 RETURN JUMPDEST PUSH2 0x2F4 PUSH2 0xEB2 JUMP JUMPDEST PUSH1 0x40 MLOAD PUSH2 0x301 SWAP2 SWAP1 PUSH2 0x1AF3 JUMP JUMPDEST PUSH1 0x40 MLOAD DUP1 SWAP2 SUB SWAP1 RETURN JUMPDEST PUSH2 0x312 PUSH2 0x1074 JUMP JUMPDEST PUSH1 0x40 MLOAD PUSH2 0x31F SWAP2 SWAP1 PUSH2 0x1923 JUMP JUMPDEST PUSH1 0x40 MLOAD DUP1 SWAP2 SUB SWAP1 RETURN JUMPDEST PUSH2 0x330 PUSH2 0x1102 JUMP JUMPDEST STOP JUMPDEST PUSH2 0x33A PUSH2 0x1167 JUMP JUMPDEST PUSH1 0x40 MLOAD PUSH2 0x347 SWAP2 SWAP1 PUSH2 0x1B15 JUMP JUMPDEST PUSH1 0x40 MLOAD DUP1 SWAP2 SUB SWAP1 RETURN JUMPDEST PUSH2 0x358 PUSH2 0x116D JUMP JUMPDEST PUSH1 0x40 MLOAD PUSH2 0x365 SWAP2 SWAP1 PUSH2 0x1923 JUMP JUMPDEST PUSH1 0x40 MLOAD DUP1 SWAP2 SUB SWAP1 RETURN JUMPDEST PUSH2 0x376 PUSH2 0x11FB JUMP JUMPDEST STOP JUMPDEST PUSH2 0x380 PUSH2 0x1260 JUMP JUMPDEST PUSH1 0x40 MLOAD PUSH2 0x38D SWAP2 SWAP1 PUSH2 0x1901 JUMP JUMPDEST PUSH1 0x40 MLOAD DUP1 SWAP2 SUB SWAP1 RETURN JUMPDEST PUSH1 0x6 DUP2 DUP2 SLOAD DUP2 LT PUSH2 0x3AA JUMPI PUSH2 0x3A9 PUSH2 0x1B30 JUMP JUMPDEST JUMPDEST SWAP1 PUSH1 0x0 MSTORE PUSH1 0x20 PUSH1 0x0 KECCAK256 SWAP1 PUSH1 0x2 MUL ADD PUSH1 0x1 ADD CALLER SWAP1 DUP1 PUSH1 0x1 DUP2 SLOAD ADD DUP1 DUP3 SSTORE DUP1 SWAP2 POP POP PUSH1 0x1 SWAP1 SUB SWAP1 PUSH1 0x0 MSTORE PUSH1 0x20 PUSH1 0x0 KECCAK256 ADD PUSH1 0x0 SWAP1 SWAP2 SWAP1 SWAP2 SWAP1 SWAP2 PUSH2 0x100 EXP DUP2 SLOAD DUP2 PUSH20 0xFFFFFFFFFFFFFFFFFFFFFFFFFFFFFFFFFFFFFFFF MUL NOT AND SWAP1 DUP4 PUSH20 0xFFFFFFFFFFFFFFFFFFFFFFFFFFFFFFFFFFFFFFFF AND MUL OR SWAP1 SSTORE POP POP JUMP JUMPDEST PUSH1 0x0 PUSH1 0x60 DUP1 PUSH1 0x60 DUP1 PUSH1 0x60 DUP1 PUSH1 0x60 PUSH1 0x1 SLOAD PUSH1 0x3 PUSH1 0x4 PUSH1 0x5 PUSH1 0x6 PUSH1 0x7 PUSH1 0x8 PUSH2 0x443 PUSH2 0xEB2 JUMP JUMPDEST DUP7 DUP1 SLOAD PUSH2 0x44F SWAP1 PUSH2 0x1B8E JUMP JUMPDEST DUP1 PUSH1 0x1F ADD PUSH1 0x20 DUP1 SWAP2 DIV MUL PUSH1 0x20 ADD PUSH1 0x40 MLOAD SWAP1 DUP2 ADD PUSH1 0x40 MSTORE DUP1 SWAP3 SWAP2 SWAP1 DUP2 DUP2 MSTORE PUSH1 0x20 ADD DUP3 DUP1 SLOAD PUSH2 0x47B SWAP1 PUSH2 0x1B8E JUMP JUMPDEST DUP1 ISZERO PUSH2 0x4C8 JUMPI DUP1 PUSH1 0x1F LT PUSH2 0x49D JUMPI PUSH2 0x100 DUP1 DUP4 SLOAD DIV MUL DUP4 MSTORE SWAP2 PUSH1 0x20 ADD SWAP2 PUSH2 0x4C8 JUMP JUMPDEST DUP3 ADD SWAP2 SWAP1 PUSH1 0x0 MSTORE PUSH1 0x20 PUSH1 0x0 KECCAK256 SWAP1 JUMPDEST DUP2 SLOAD DUP2 MSTORE SWAP1 PUSH1 0x1 ADD SWAP1 PUSH1 0x20 ADD DUP1 DUP4 GT PUSH2 0x4AB JUMPI DUP3 SWAP1 SUB PUSH1 0x1F AND DUP3 ADD SWAP2 JUMPDEST POP POP POP POP POP SWAP7 POP DUP6 DUP1 SLOAD PUSH2 0x4DB SWAP1 PUSH2 0x1B8E JUMP JUMPDEST DUP1 PUSH1 0x1F ADD PUSH1 0x20 DUP1 SWAP2 DIV MUL PUSH1 0x20 ADD PUSH1 0x40 MLOAD SWAP1 DUP2 ADD PUSH1 0x40 MSTORE DUP1 SWAP3 SWAP2 SWAP1 DUP2 DUP2 MSTORE PUSH1 0x20 ADD DUP3 DUP1 SLOAD PUSH2 0x507 SWAP1 PUSH2 0x1B8E JUMP JUMPDEST DUP1 ISZERO PUSH2 0x554 JUMPI DUP1 PUSH1 0x1F LT PUSH2 0x529 JUMPI PUSH2 0x100 DUP1 DUP4 SLOAD DIV MUL DUP4 MSTORE SWAP2 PUSH1 0x20 ADD SWAP2 PUSH2 0x554 JUMP JUMPDEST DUP3 ADD SWAP2 SWAP1 PUSH1 0x0 MSTORE PUSH1 0x20 PUSH1 0x0 KECCAK256 SWAP1 JUMPDEST DUP2 SLOAD DUP2 MSTORE SWAP1 PUSH1 0x1 ADD SWAP1 PUSH1 0x20 ADD DUP1 DUP4 GT PUSH2 0x537 JUMPI DUP3 SWAP1 SUB PUSH1 0x1F AND DUP3 ADD SWAP2 JUMPDEST POP POP POP POP POP SWAP6 POP DUP5 DUP1 SLOAD PUSH2 0x567 SWAP1 PUSH2 0x1B8E JUMP JUMPDEST DUP1 PUSH1 0x1F ADD PUSH1 0x20 DUP1 SWAP2 DIV MUL PUSH1 0x20 ADD PUSH1 0x40 MLOAD SWAP1 DUP2 ADD PUSH1 0x40 MSTORE DUP1 SWAP3 SWAP2 SWAP1 DUP2 DUP2 MSTORE PUSH1 0x20 ADD DUP3 DUP1 SLOAD PUSH2 0x593 SWAP1 PUSH2 0x1B8E JUMP JUMPDEST DUP1 ISZERO PUSH2 0x5E0 JUMPI DUP1 PUSH1 0x1F LT PUSH2 0x5B5 JUMPI PUSH2 0x100 DUP1 DUP4 SLOAD DIV MUL DUP4 MSTORE SWAP2 PUSH1 0x20 ADD SWAP2 PUSH2 0x5E0 JUMP JUMPDEST DUP3 ADD SWAP2 SWAP1 PUSH1 0x0 MSTORE PUSH1 0x20 PUSH1 0x0 KECCAK256 SWAP1 JUMPDEST DUP2 SLOAD DUP2 MSTORE SWAP1 PUSH1 0x1 ADD SWAP1 PUSH1 0x20 ADD DUP1 DUP4 GT PUSH2 0x5C3 JUMPI DUP3 SWAP1 SUB PUSH1 0x1F AND DUP3 ADD SWAP2 JUMPDEST POP POP POP POP POP SWAP5 POP DUP4 DUP1 SLOAD DUP1 PUSH1 0x20 MUL PUSH1 0x20 ADD PUSH1 0x40 MLOAD SWAP1 DUP2 ADD PUSH1 0x40 MSTORE DUP1 SWAP3 SWAP2 SWAP1 DUP2 DUP2 MSTORE PUSH1 0x20 ADD PUSH1 0x0 SWAP1 JUMPDEST DUP3 DUP3 LT ISZERO PUSH2 0x75A JUMPI DUP4 DUP3 SWAP1 PUSH1 0x0 MSTORE PUSH1 0x20 PUSH1 0x0 KECCAK256 SWAP1 PUSH1 0x2 MUL ADD PUSH1 0x40 MLOAD DUP1 PUSH1 0x40 ADD PUSH1 0x40 MSTORE SWAP1 DUP2 PUSH1 0x0 DUP3 ADD DUP1 SLOAD PUSH2 0x63B SWAP1 PUSH2 0x1B8E JUMP JUMPDEST DUP1 PUSH1 0x1F ADD PUSH1 0x20 DUP1 SWAP2 DIV MUL PUSH1 0x20 ADD PUSH1 0x40 MLOAD SWAP1 DUP2 ADD PUSH1 0x40 MSTORE DUP1 SWAP3 SWAP2 SWAP1 DUP2 DUP2 MSTORE PUSH1 0x20 ADD DUP3 DUP1 SLOAD PUSH2 0x667 SWAP1 PUSH2 0x1B8E JUMP JUMPDEST DUP1 ISZERO PUSH2 0x6B4 JUMPI DUP1 PUSH1 0x1F LT PUSH2 0x689 JUMPI PUSH2 0x100 DUP1 DUP4 SLOAD DIV MUL DUP4 MSTORE SWAP2 PUSH1 0x20 ADD SWAP2 PUSH2 0x6B4 JUMP JUMPDEST DUP3 ADD SWAP2 SWAP1 PUSH1 0x0 MSTORE PUSH1 0x20 PUSH1 0x0 KECCAK256 SWAP1 JUMPDEST DUP2 SLOAD DUP2 MSTORE SWAP1 PUSH1 0x1 ADD SWAP1 PUSH1 0x20 ADD DUP1 DUP4 GT PUSH2 0x697 JUMPI DUP3 SWAP1 SUB PUSH1 0x1F AND DUP3 ADD SWAP2 JUMPDEST POP POP POP POP POP DUP2 MSTORE PUSH1 0x20 ADD PUSH1 0x1 DUP3 ADD DUP1 SLOAD DUP1 PUSH1 0x20 MUL PUSH1 0x20 ADD PUSH1 0x40 MLOAD SWAP1 DUP2 ADD PUSH1 0x40 MSTORE DUP1 SWAP3 SWAP2 SWAP1 DUP2 DUP2 MSTORE PUSH1 0x20 ADD DUP3 DUP1 SLOAD DUP1 ISZERO PUSH2 0x742 JUMPI PUSH1 0x20 MUL DUP3 ADD SWAP2 SWAP1 PUSH1 0x0 MSTORE PUSH1 0x20 PUSH1 0x0 KECCAK256 SWAP1 JUMPDEST DUP2 PUSH1 0x0 SWAP1 SLOAD SWAP1 PUSH2 0x100 EXP SWAP1 DIV PUSH20 0xFFFFFFFFFFFFFFFFFFFFFFFFFFFFFFFFFFFFFFFF AND PUSH20 0xFFFFFFFFFFFFFFFFFFFFFFFFFFFFFFFFFFFFFFFF AND DUP2 MSTORE PUSH1 0x20 ADD SWAP1 PUSH1 0x1 ADD SWAP1 DUP1 DUP4 GT PUSH2 0x6F8 JUMPI JUMPDEST POP POP POP POP POP DUP2 MSTORE POP POP DUP2 MSTORE PUSH1 0x20 ADD SWAP1 PUSH1 0x1 ADD SWAP1 PUSH2 0x608 JUMP JUMPDEST POP POP POP POP SWAP4 POP DUP3 DUP1 SLOAD DUP1 PUSH1 0x20 MUL PUSH1 0x20 ADD PUSH1 0x40 MLOAD SWAP1 DUP2 ADD PUSH1 0x40 MSTORE DUP1 SWAP3 SWAP2 SWAP1 DUP2 DUP2 MSTORE PUSH1 0x20 ADD DUP3 DUP1 SLOAD DUP1 ISZERO PUSH2 0x7E1 JUMPI PUSH1 0x20 MUL DUP3 ADD SWAP2 SWAP1 PUSH1 0x0 MSTORE PUSH1 0x20 PUSH1 0x0 KECCAK256 SWAP1 JUMPDEST DUP2 PUSH1 0x0 SWAP1 SLOAD SWAP1 PUSH2 0x100 EXP SWAP1 DIV PUSH20 0xFFFFFFFFFFFFFFFFFFFFFFFFFFFFFFFFFFFFFFFF AND PUSH20 0xFFFFFFFFFFFFFFFFFFFFFFFFFFFFFFFFFFFFFFFF AND DUP2 MSTORE PUSH1 0x20 ADD SWAP1 PUSH1 0x1 ADD SWAP1 DUP1 DUP4 GT PUSH2 0x797 JUMPI JUMPDEST POP POP POP POP POP SWAP3 POP DUP2 DUP1 SLOAD DUP1 PUSH1 0x20 MUL PUSH1 0x20 ADD PUSH1 0x40 MLOAD SWAP1 DUP2 ADD PUSH1 0x40 MSTORE DUP1 SWAP3 SWAP2 SWAP1 DUP2 DUP2 MSTORE PUSH1 0x20 ADD DUP3 DUP1 SLOAD DUP1 ISZERO PUSH2 0x869 JUMPI PUSH1 0x20 MUL DUP3 ADD SWAP2 SWAP1 PUSH1 0x0 MSTORE PUSH1 0x20 PUSH1 0x0 KECCAK256 SWAP1 JUMPDEST DUP2 PUSH1 0x0 SWAP1 SLOAD SWAP1 PUSH2 0x100 EXP SWAP1 DIV PUSH20 0xFFFFFFFFFFFFFFFFFFFFFFFFFFFFFFFFFFFFFFFF AND PUSH20 0xFFFFFFFFFFFFFFFFFFFFFFFFFFFFFFFFFFFFFFFF AND DUP2 MSTORE PUSH1 0x20 ADD SWAP1 PUSH1 0x1 ADD SWAP1 DUP1 DUP4 GT PUSH2 0x81F JUMPI JUMPDEST POP POP POP POP POP SWAP2 POP SWAP8 POP SWAP8 POP SWAP8 POP SWAP8 POP SWAP8 POP SWAP8 POP SWAP8 POP SWAP8 POP SWAP1 SWAP2 SWAP3 SWAP4 SWAP5 SWAP6 SWAP7 SWAP8 JUMP JUMPDEST PUSH1 0x8 DUP2 DUP2 SLOAD DUP2 LT PUSH2 0x89A JUMPI PUSH1 0x0 DUP1 REVERT JUMPDEST SWAP1 PUSH1 0x0 MSTORE PUSH1 0x20 PUSH1 0x0 KECCAK256 ADD PUSH1 0x0 SWAP2 POP SLOAD SWAP1 PUSH2 0x100 EXP SWAP1 DIV PUSH20 0xFFFFFFFFFFFFFFFFFFFFFFFFFFFFFFFFFFFFFFFF AND DUP2 JUMP JUMPDEST PUSH1 0x60 PUSH1 0x6 DUP1 SLOAD DUP1 PUSH1 0x20 MUL PUSH1 0x20 ADD PUSH1 0x40 MLOAD SWAP1 DUP2 ADD PUSH1 0x40 MSTORE DUP1 SWAP3 SWAP2 SWAP1 DUP2 DUP2 MSTORE PUSH1 0x20 ADD PUSH1 0x0 SWAP1 JUMPDEST DUP3 DUP3 LT ISZERO PUSH2 0xA3F JUMPI DUP4 DUP3 SWAP1 PUSH1 0x0 MSTORE PUSH1 0x20 PUSH1 0x0 KECCAK256 SWAP1 PUSH1 0x2 MUL ADD PUSH1 0x40 MLOAD DUP1 PUSH1 0x40 ADD PUSH1 0x40 MSTORE SWAP1 DUP2 PUSH1 0x0 DUP3 ADD DUP1 SLOAD PUSH2 0x920 SWAP1 PUSH2 0x1B8E JUMP JUMPDEST DUP1 PUSH1 0x1F ADD PUSH1 0x20 DUP1 SWAP2 DIV MUL PUSH1 0x20 ADD PUSH1 0x40 MLOAD SWAP1 DUP2 ADD PUSH1 0x40 MSTORE DUP1 SWAP3 SWAP2 SWAP1 DUP2 DUP2 MSTORE PUSH1 0x20 ADD DUP3 DUP1 SLOAD PUSH2 0x94C SWAP1 PUSH2 0x1B8E JUMP JUMPDEST DUP1 ISZERO PUSH2 0x999 JUMPI DUP1 PUSH1 0x1F LT PUSH2 0x96E JUMPI PUSH2 0x100 DUP1 DUP4 SLOAD DIV MUL DUP4 MSTORE SWAP2 PUSH1 0x20 ADD SWAP2 PUSH2 0x999 JUMP JUMPDEST DUP3 ADD SWAP2 SWAP1 PUSH1 0x0 MSTORE PUSH1 0x20 PUSH1 0x0 KECCAK256 SWAP1 JUMPDEST DUP2 SLOAD DUP2 MSTORE SWAP1 PUSH1 0x1 ADD SWAP1 PUSH1 0x20 ADD DUP1 DUP4 GT PUSH2 0x97C JUMPI DUP3 SWAP1 SUB PUSH1 0x1F AND DUP3 ADD SWAP2 JUMPDEST POP POP POP POP POP DUP2 MSTORE PUSH1 0x20 ADD PUSH1 0x1 DUP3 ADD DUP1 SLOAD DUP1 PUSH1 0x20 MUL PUSH1 0x20 ADD PUSH1 0x40 MLOAD SWAP1 DUP2 ADD PUSH1 0x40 MSTORE DUP1 SWAP3 SWAP2 SWAP1 DUP2 DUP2 MSTORE PUSH1 0x20 ADD DUP3 DUP1 SLOAD DUP1 ISZERO PUSH2 0xA27 JUMPI PUSH1 0x20 MUL DUP3 ADD SWAP2 SWAP1 PUSH1 0x0 MSTORE PUSH1 0x20 PUSH1 0x0 KECCAK256 SWAP1 JUMPDEST DUP2 PUSH1 0x0 SWAP1 SLOAD SWAP1 PUSH2 0x100 EXP SWAP1 DIV PUSH20 0xFFFFFFFFFFFFFFFFFFFFFFFFFFFFFFFFFFFFFFFF AND PUSH20 0xFFFFFFFFFFFFFFFFFFFFFFFFFFFFFFFFFFFFFFFF AND DUP2 MSTORE PUSH1 0x20 ADD SWAP1 PUSH1 0x1 ADD SWAP1 DUP1 DUP4 GT PUSH2 0x9DD JUMPI JUMPDEST POP POP POP POP POP DUP2 MSTORE POP POP DUP2 MSTORE PUSH1 0x20 ADD SWAP1 PUSH1 0x1 ADD SWAP1 PUSH2 0x8ED JUMP JUMPDEST POP POP POP POP SWAP1 POP SWAP1 JUMP JUMPDEST PUSH1 0x60 PUSH1 0x7 DUP1 SLOAD DUP1 PUSH1 0x20 MUL PUSH1 0x20 ADD PUSH1 0x40 MLOAD SWAP1 DUP2 ADD PUSH1 0x40 MSTORE DUP1 SWAP3 SWAP2 SWAP1 DUP2 DUP2 MSTORE PUSH1 0x20 ADD DUP3 DUP1 SLOAD DUP1 ISZERO PUSH2 0xACC JUMPI PUSH1 0x20 MUL DUP3 ADD SWAP2 SWAP1 PUSH1 0x0 MSTORE PUSH1 0x20 PUSH1 0x0 KECCAK256 SWAP1 JUMPDEST DUP2 PUSH1 0x0 SWAP1 SLOAD SWAP1 PUSH2 0x100 EXP SWAP1 DIV PUSH20 0xFFFFFFFFFFFFFFFFFFFFFFFFFFFFFFFFFFFFFFFF AND PUSH20 0xFFFFFFFFFFFFFFFFFFFFFFFFFFFFFFFFFFFFFFFF AND DUP2 MSTORE PUSH1 0x20 ADD SWAP1 PUSH1 0x1 ADD SWAP1 DUP1 DUP4 GT PUSH2 0xA82 JUMPI JUMPDEST POP POP POP POP POP SWAP1 POP SWAP1 JUMP JUMPDEST PUSH1 0x6 DUP2 DUP2 SLOAD DUP2 LT PUSH2 0xAE6 JUMPI PUSH1 0x0 DUP1 REVERT JUMPDEST SWAP1 PUSH1 0x0 MSTORE PUSH1 0x20 PUSH1 0x0 KECCAK256 SWAP1 PUSH1 0x2 MUL ADD PUSH1 0x0 SWAP2 POP SWAP1 POP DUP1 PUSH1 0x0 ADD DUP1 SLOAD PUSH2 0xB09 SWAP1 PUSH2 0x1B8E JUMP JUMPDEST DUP1 PUSH1 0x1F ADD PUSH1 0x20 DUP1 SWAP2 DIV MUL PUSH1 0x20 ADD PUSH1 0x40 MLOAD SWAP1 DUP2 ADD PUSH1 0x40 MSTORE DUP1 SWAP3 SWAP2 SWAP1 DUP2 DUP2 MSTORE PUSH1 0x20 ADD DUP3 DUP1 SLOAD PUSH2 0xB35 SWAP1 PUSH2 0x1B8E JUMP JUMPDEST DUP1 ISZERO PUSH2 0xB82 JUMPI DUP1 PUSH1 0x1F LT PUSH2 0xB57 JUMPI PUSH2 0x100 DUP1 DUP4 SLOAD DIV MUL DUP4 MSTORE SWAP2 PUSH1 0x20 ADD SWAP2 PUSH2 0xB82 JUMP JUMPDEST DUP3 ADD SWAP2 SWAP1 PUSH1 0x0 MSTORE PUSH1 0x20 PUSH1 0x0 KECCAK256 SWAP1 JUMPDEST DUP2 SLOAD DUP2 MSTORE SWAP1 PUSH1 0x1 ADD SWAP1 PUSH1 0x20 ADD DUP1 DUP4 GT PUSH2 0xB65 JUMPI DUP3 SWAP1 SUB PUSH1 0x1F AND DUP3 ADD SWAP2 JUMPDEST POP POP POP POP POP SWAP1 POP DUP2 JUMP JUMPDEST PUSH1 0x7 DUP2 DUP2 SLOAD DUP2 LT PUSH2 0xB9C JUMPI PUSH1 0x0 DUP1 REVERT JUMPDEST SWAP1 PUSH1 0x0 MSTORE PUSH1 0x20 PUSH1 0x0 KECCAK256 ADD PUSH1 0x0 SWAP2 POP SLOAD SWAP1 PUSH2 0x100 EXP SWAP1 DIV PUSH20 0xFFFFFFFFFFFFFFFFFFFFFFFFFFFFFFFFFFFFFFFF AND DUP2 JUMP JUMPDEST PUSH2 0xBD5 PUSH1 0x9 PUSH2 0x12EE JUMP JUMPDEST PUSH1 0x40 MLOAD DUP1 PUSH1 0x40 ADD PUSH1 0x40 MSTORE DUP1 CALLER PUSH20 0xFFFFFFFFFFFFFFFFFFFFFFFFFFFFFFFFFFFFFFFF AND DUP2 MSTORE PUSH1 0x20 ADD DUP3 DUP2 MSTORE POP PUSH1 0xA PUSH1 0x0 PUSH2 0xC0E PUSH1 0x9 PUSH2 0x1304 JUMP JUMPDEST DUP2 MSTORE PUSH1 0x20 ADD SWAP1 DUP2 MSTORE PUSH1 0x20 ADD PUSH1 0x0 KECCAK256 PUSH1 0x0 DUP3 ADD MLOAD DUP2 PUSH1 0x0 ADD PUSH1 0x0 PUSH2 0x100 EXP DUP2 SLOAD DUP2 PUSH20 0xFFFFFFFFFFFFFFFFFFFFFFFFFFFFFFFFFFFFFFFF MUL NOT AND SWAP1 DUP4 PUSH20 0xFFFFFFFFFFFFFFFFFFFFFFFFFFFFFFFFFFFFFFFF AND MUL OR SWAP1 SSTORE POP PUSH1 0x20 DUP3 ADD MLOAD DUP2 PUSH1 0x1 ADD SWAP1 DUP2 PUSH2 0xC78 SWAP2 SWAP1 PUSH2 0x1D6B JUMP JUMPDEST POP SWAP1 POP POP POP JUMP JUMPDEST PUSH1 0x60 PUSH1 0x6 DUP3 DUP2 SLOAD DUP2 LT PUSH2 0xC95 JUMPI PUSH2 0xC94 PUSH2 0x1B30 JUMP JUMPDEST JUMPDEST SWAP1 PUSH1 0x0 MSTORE PUSH1 0x20 PUSH1 0x0 KECCAK256 SWAP1 PUSH1 0x2 MUL ADD PUSH1 0x1 ADD DUP1 SLOAD DUP1 PUSH1 0x20 MUL PUSH1 0x20 ADD PUSH1 0x40 MLOAD SWAP1 DUP2 ADD PUSH1 0x40 MSTORE DUP1 SWAP3 SWAP2 SWAP1 DUP2 DUP2 MSTORE PUSH1 0x20 ADD DUP3 DUP1 SLOAD DUP1 ISZERO PUSH2 0xD26 JUMPI PUSH1 0x20 MUL DUP3 ADD SWAP2 SWAP1 PUSH1 0x0 MSTORE PUSH1 0x20 PUSH1 0x0 KECCAK256 SWAP1 JUMPDEST DUP2 PUSH1 0x0 SWAP1 SLOAD SWAP1 PUSH2 0x100 EXP SWAP1 DIV PUSH20 0xFFFFFFFFFFFFFFFFFFFFFFFFFFFFFFFFFFFFFFFF AND PUSH20 0xFFFFFFFFFFFFFFFFFFFFFFFFFFFFFFFFFFFFFFFF AND DUP2 MSTORE PUSH1 0x20 ADD SWAP1 PUSH1 0x1 ADD SWAP1 DUP1 DUP4 GT PUSH2 0xCDC JUMPI JUMPDEST POP POP POP POP POP SWAP1 POP SWAP2 SWAP1 POP JUMP JUMPDEST PUSH1 0x4 DUP1 SLOAD PUSH2 0xD3F SWAP1 PUSH2 0x1B8E JUMP JUMPDEST DUP1 PUSH1 0x1F ADD PUSH1 0x20 DUP1 SWAP2 DIV MUL PUSH1 0x20 ADD PUSH1 0x40 MLOAD SWAP1 DUP2 ADD PUSH1 0x40 MSTORE DUP1 SWAP3 SWAP2 SWAP1 DUP2 DUP2 MSTORE PUSH1 0x20 ADD DUP3 DUP1 SLOAD PUSH2 0xD6B SWAP1 PUSH2 0x1B8E JUMP JUMPDEST DUP1 ISZERO PUSH2 0xDB8 JUMPI DUP1 PUSH1 0x1F LT PUSH2 0xD8D JUMPI PUSH2 0x100 DUP1 DUP4 SLOAD DIV MUL DUP4 MSTORE SWAP2 PUSH1 0x20 ADD SWAP2 PUSH2 0xDB8 JUMP JUMPDEST DUP3 ADD SWAP2 SWAP1 PUSH1 0x0 MSTORE PUSH1 0x20 PUSH1 0x0 KECCAK256 SWAP1 JUMPDEST DUP2 SLOAD DUP2 MSTORE SWAP1 PUSH1 0x1 ADD SWAP1 PUSH1 0x20 ADD DUP1 DUP4 GT PUSH2 0xD9B JUMPI DUP3 SWAP1 SUB PUSH1 0x1F AND DUP3 ADD SWAP2 JUMPDEST POP POP POP POP POP DUP2 JUMP JUMPDEST PUSH1 0x2 PUSH1 0x0 SWAP1 SLOAD SWAP1 PUSH2 0x100 EXP SWAP1 DIV PUSH20 0xFFFFFFFFFFFFFFFFFFFFFFFFFFFFFFFFFFFFFFFF AND DUP2 JUMP JUMPDEST PUSH1 0xA PUSH1 0x20 MSTORE DUP1 PUSH1 0x0 MSTORE PUSH1 0x40 PUSH1 0x0 KECCAK256 PUSH1 0x0 SWAP2 POP SWAP1 POP DUP1 PUSH1 0x0 ADD PUSH1 0x0 SWAP1 SLOAD SWAP1 PUSH2 0x100 EXP SWAP1 DIV PUSH20 0xFFFFFFFFFFFFFFFFFFFFFFFFFFFFFFFFFFFFFFFF AND SWAP1 DUP1 PUSH1 0x1 ADD DUP1 SLOAD PUSH2 0xE2F SWAP1 PUSH2 0x1B8E JUMP JUMPDEST DUP1 PUSH1 0x1F ADD PUSH1 0x20 DUP1 SWAP2 DIV MUL PUSH1 0x20 ADD PUSH1 0x40 MLOAD SWAP1 DUP2 ADD PUSH1 0x40 MSTORE DUP1 SWAP3 SWAP2 SWAP1 DUP2 DUP2 MSTORE PUSH1 0x20 ADD DUP3 DUP1 SLOAD PUSH2 0xE5B SWAP1 PUSH2 0x1B8E JUMP JUMPDEST DUP1 ISZERO PUSH2 0xEA8 JUMPI DUP1 PUSH1 0x1F LT PUSH2 0xE7D JUMPI PUSH2 0x100 DUP1 DUP4 SLOAD DIV MUL DUP4 MSTORE SWAP2 PUSH1 0x20 ADD SWAP2 PUSH2 0xEA8 JUMP JUMPDEST DUP3 ADD SWAP2 SWAP1 PUSH1 0x0 MSTORE PUSH1 0x20 PUSH1 0x0 KECCAK256 SWAP1 JUMPDEST DUP2 SLOAD DUP2 MSTORE SWAP1 PUSH1 0x1 ADD SWAP1 PUSH1 0x20 ADD DUP1 DUP4 GT PUSH2 0xE8B JUMPI DUP3 SWAP1 SUB PUSH1 0x1F AND DUP3 ADD SWAP2 JUMPDEST POP POP POP POP POP SWAP1 POP DUP3 JUMP JUMPDEST PUSH1 0x60 PUSH1 0x0 PUSH2 0xEC0 PUSH1 0x9 PUSH2 0x1304 JUMP JUMPDEST PUSH8 0xFFFFFFFFFFFFFFFF DUP2 GT ISZERO PUSH2 0xED9 JUMPI PUSH2 0xED8 PUSH2 0x194F JUMP JUMPDEST JUMPDEST PUSH1 0x40 MLOAD SWAP1 DUP1 DUP3 MSTORE DUP1 PUSH1 0x20 MUL PUSH1 0x20 ADD DUP3 ADD PUSH1 0x40 MSTORE DUP1 ISZERO PUSH2 0xF12 JUMPI DUP2 PUSH1 0x20 ADD JUMPDEST PUSH2 0xEFF PUSH2 0x1312 JUMP JUMPDEST DUP2 MSTORE PUSH1 0x20 ADD SWAP1 PUSH1 0x1 SWAP1 SUB SWAP1 DUP2 PUSH2 0xEF7 JUMPI SWAP1 POP JUMPDEST POP SWAP1 POP PUSH1 0x0 JUMPDEST PUSH2 0xF22 PUSH1 0x9 PUSH2 0x1304 JUMP JUMPDEST DUP2 LT ISZERO PUSH2 0x106C JUMPI PUSH1 0xA PUSH1 0x0 PUSH1 0x1 DUP4 PUSH2 0xF3A SWAP2 SWAP1 PUSH2 0x1E6C JUMP JUMPDEST DUP2 MSTORE PUSH1 0x20 ADD SWAP1 DUP2 MSTORE PUSH1 0x20 ADD PUSH1 0x0 KECCAK256 PUSH1 0x40 MLOAD DUP1 PUSH1 0x40 ADD PUSH1 0x40 MSTORE SWAP1 DUP2 PUSH1 0x0 DUP3 ADD PUSH1 0x0 SWAP1 SLOAD SWAP1 PUSH2 0x100 EXP SWAP1 DIV PUSH20 0xFFFFFFFFFFFFFFFFFFFFFFFFFFFFFFFFFFFFFFFF AND PUSH20 0xFFFFFFFFFFFFFFFFFFFFFFFFFFFFFFFFFFFFFFFF AND PUSH20 0xFFFFFFFFFFFFFFFFFFFFFFFFFFFFFFFFFFFFFFFF AND DUP2 MSTORE PUSH1 0x20 ADD PUSH1 0x1 DUP3 ADD DUP1 SLOAD PUSH2 0xFB9 SWAP1 PUSH2 0x1B8E JUMP JUMPDEST DUP1 PUSH1 0x1F ADD PUSH1 0x20 DUP1 SWAP2 DIV MUL PUSH1 0x20 ADD PUSH1 0x40 MLOAD SWAP1 DUP2 ADD PUSH1 0x40 MSTORE DUP1 SWAP3 SWAP2 SWAP1 DUP2 DUP2 MSTORE PUSH1 0x20 ADD DUP3 DUP1 SLOAD PUSH2 0xFE5 SWAP1 PUSH2 0x1B8E JUMP JUMPDEST DUP1 ISZERO PUSH2 0x1032 JUMPI DUP1 PUSH1 0x1F LT PUSH2 0x1007 JUMPI PUSH2 0x100 DUP1 DUP4 SLOAD DIV MUL DUP4 MSTORE SWAP2 PUSH1 0x20 ADD SWAP2 PUSH2 0x1032 JUMP JUMPDEST DUP3 ADD SWAP2 SWAP1 PUSH1 0x0 MSTORE PUSH1 0x20 PUSH1 0x0 KECCAK256 SWAP1 JUMPDEST DUP2 SLOAD DUP2 MSTORE SWAP1 PUSH1 0x1 ADD SWAP1 PUSH1 0x20 ADD DUP1 DUP4 GT PUSH2 0x1015 JUMPI DUP3 SWAP1 SUB PUSH1 0x1F AND DUP3 ADD SWAP2 JUMPDEST POP POP POP POP POP DUP2 MSTORE POP POP DUP3 DUP3 DUP2 MLOAD DUP2 LT PUSH2 0x104E JUMPI PUSH2 0x104D PUSH2 0x1B30 JUMP JUMPDEST JUMPDEST PUSH1 0x20 MUL PUSH1 0x20 ADD ADD DUP2 SWAP1 MSTORE POP DUP1 DUP1 PUSH2 0x1064 SWAP1 PUSH2 0x1EA0 JUMP JUMPDEST SWAP2 POP POP PUSH2 0xF18 JUMP JUMPDEST POP DUP1 SWAP2 POP POP SWAP1 JUMP JUMPDEST PUSH1 0x5 DUP1 SLOAD PUSH2 0x1081 SWAP1 PUSH2 0x1B8E JUMP JUMPDEST DUP1 PUSH1 0x1F ADD PUSH1 0x20 DUP1 SWAP2 DIV MUL PUSH1 0x20 ADD PUSH1 0x40 MLOAD SWAP1 DUP2 ADD PUSH1 0x40 MSTORE DUP1 SWAP3 SWAP2 SWAP1 DUP2 DUP2 MSTORE PUSH1 0x20 ADD DUP3 DUP1 SLOAD PUSH2 0x10AD SWAP1 PUSH2 0x1B8E JUMP JUMPDEST DUP1 ISZERO PUSH2 0x10FA JUMPI DUP1 PUSH1 0x1F LT PUSH2 0x10CF JUMPI PUSH2 0x100 DUP1 DUP4 SLOAD DIV MUL DUP4 MSTORE SWAP2 PUSH1 0x20 ADD SWAP2 PUSH2 0x10FA JUMP JUMPDEST DUP3 ADD SWAP2 SWAP1 PUSH1 0x0 MSTORE PUSH1 0x20 PUSH1 0x0 KECCAK256 SWAP1 JUMPDEST DUP2 SLOAD DUP2 MSTORE SWAP1 PUSH1 0x1 ADD SWAP1 PUSH1 0x20 ADD DUP1 DUP4 GT PUSH2 0x10DD JUMPI DUP3 SWAP1 SUB PUSH1 0x1F AND DUP3 ADD SWAP2 JUMPDEST POP POP POP POP POP DUP2 JUMP JUMPDEST PUSH1 0x7 CALLER SWAP1 DUP1 PUSH1 0x1 DUP2 SLOAD ADD DUP1 DUP3 SSTORE DUP1 SWAP2 POP POP PUSH1 0x1 SWAP1 SUB SWAP1 PUSH1 0x0 MSTORE PUSH1 0x20 PUSH1 0x0 KECCAK256 ADD PUSH1 0x0 SWAP1 SWAP2 SWAP1 SWAP2 SWAP1 SWAP2 PUSH2 0x100 EXP DUP2 SLOAD DUP2 PUSH20 0xFFFFFFFFFFFFFFFFFFFFFFFFFFFFFFFFFFFFFFFF MUL NOT AND SWAP1 DUP4 PUSH20 0xFFFFFFFFFFFFFFFFFFFFFFFFFFFFFFFFFFFFFFFF AND MUL OR SWAP1 SSTORE POP JUMP JUMPDEST PUSH1 0x1 SLOAD DUP2 JUMP JUMPDEST PUSH1 0x3 DUP1 SLOAD PUSH2 0x117A SWAP1 PUSH2 0x1B8E JUMP JUMPDEST DUP1 PUSH1 0x1F ADD PUSH1 0x20 DUP1 SWAP2 DIV MUL PUSH1 0x20 ADD PUSH1 0x40 MLOAD SWAP1 DUP2 ADD PUSH1 0x40 MSTORE DUP1 SWAP3 SWAP2 SWAP1 DUP2 DUP2 MSTORE PUSH1 0x20 ADD DUP3 DUP1 SLOAD PUSH2 0x11A6 SWAP1 PUSH2 0x1B8E JUMP JUMPDEST DUP1 ISZERO PUSH2 0x11F3 JUMPI DUP1 PUSH1 0x1F LT PUSH2 0x11C8 JUMPI PUSH2 0x100 DUP1 DUP4 SLOAD DIV MUL DUP4 MSTORE SWAP2 PUSH1 0x20 ADD SWAP2 PUSH2 0x11F3 JUMP JUMPDEST DUP3 ADD SWAP2 SWAP1 PUSH1 0x0 MSTORE PUSH1 0x20 PUSH1 0x0 KECCAK256 SWAP1 JUMPDEST DUP2 SLOAD DUP2 MSTORE SWAP1 PUSH1 0x1 ADD SWAP1 PUSH1 0x20 ADD DUP1 DUP4 GT PUSH2 0x11D6 JUMPI DUP3 SWAP1 SUB PUSH1 0x1F AND DUP3 ADD SWAP2 JUMPDEST POP POP POP POP POP DUP2 JUMP JUMPDEST PUSH1 0x8 CALLER SWAP1 DUP1 PUSH1 0x1 DUP2 SLOAD ADD DUP1 DUP3 SSTORE DUP1 SWAP2 POP POP PUSH1 0x1 SWAP1 SUB SWAP1 PUSH1 0x0 MSTORE PUSH1 0x20 PUSH1 0x0 KECCAK256 ADD PUSH1 0x0 SWAP1 SWAP2 SWAP1 SWAP2 SWAP1 SWAP2 PUSH2 0x100 EXP DUP2 SLOAD DUP2 PUSH20 0xFFFFFFFFFFFFFFFFFFFFFFFFFFFFFFFFFFFFFFFF MUL NOT AND SWAP1 DUP4 PUSH20 0xFFFFFFFFFFFFFFFFFFFFFFFFFFFFFFFFFFFFFFFF AND MUL OR SWAP1 SSTORE POP JUMP JUMPDEST PUSH1 0x60 PUSH1 0x8 DUP1 SLOAD DUP1 PUSH1 0x20 MUL PUSH1 0x20 ADD PUSH1 0x40 MLOAD SWAP1 DUP2 ADD PUSH1 0x40 MSTORE DUP1 SWAP3 SWAP2 SWAP1 DUP2 DUP2 MSTORE PUSH1 0x20 ADD DUP3 DUP1 SLOAD DUP1 ISZERO PUSH2 0x12E4 JUMPI PUSH1 0x20 MUL DUP3 ADD SWAP2 SWAP1 PUSH1 0x0 MSTORE PUSH1 0x20 PUSH1 0x0 KECCAK256 SWAP1 JUMPDEST DUP2 PUSH1 0x0 SWAP1 SLOAD SWAP1 PUSH2 0x100 EXP SWAP1 DIV PUSH20 0xFFFFFFFFFFFFFFFFFFFFFFFFFFFFFFFFFFFFFFFF AND PUSH20 0xFFFFFFFFFFFFFFFFFFFFFFFFFFFFFFFFFFFFFFFF AND DUP2 MSTORE PUSH1 0x20 ADD SWAP1 PUSH1 0x1 ADD SWAP1 DUP1 DUP4 GT PUSH2 0x129A JUMPI JUMPDEST POP POP POP POP POP SWAP1 POP SWAP1 JUMP JUMPDEST PUSH1 0x1 DUP2 PUSH1 0x0 ADD PUSH1 0x0 DUP3 DUP3 SLOAD ADD SWAP3 POP POP DUP2 SWAP1 SSTORE POP POP JUMP JUMPDEST PUSH1 0x0 DUP2 PUSH1 0x0 ADD SLOAD SWAP1 POP SWAP2 SWAP1 POP JUMP JUMPDEST PUSH1 0x40 MLOAD DUP1 PUSH1 0x40 ADD PUSH1 0x40 MSTORE DUP1 PUSH1 0x0 PUSH20 0xFFFFFFFFFFFFFFFFFFFFFFFFFFFFFFFFFFFFFFFF AND DUP2 MSTORE PUSH1 0x20 ADD PUSH1 0x60 DUP2 MSTORE POP SWAP1 JUMP JUMPDEST PUSH1 0x0 PUSH1 0x40 MLOAD SWAP1 POP SWAP1 JUMP JUMPDEST PUSH1 0x0 DUP1 REVERT JUMPDEST PUSH1 0x0 DUP1 REVERT JUMPDEST PUSH1 0x0 DUP2 SWAP1 POP SWAP2 SWAP1 POP JUMP JUMPDEST PUSH2 0x1369 DUP2 PUSH2 0x1356 JUMP JUMPDEST DUP2 EQ PUSH2 0x1374 JUMPI PUSH1 0x0 DUP1 REVERT JUMPDEST POP JUMP JUMPDEST PUSH1 0x0 DUP2 CALLDATALOAD SWAP1 POP PUSH2 0x1386 DUP2 PUSH2 0x1360 JUMP JUMPDEST SWAP3 SWAP2 POP POP JUMP JUMPDEST PUSH1 0x0 PUSH1 0x20 DUP3 DUP5 SUB SLT ISZERO PUSH2 0x13A2 JUMPI PUSH2 0x13A1 PUSH2 0x134C JUMP JUMPDEST JUMPDEST PUSH1 0x0 PUSH2 0x13B0 DUP5 DUP3 DUP6 ADD PUSH2 0x1377 JUMP JUMPDEST SWAP2 POP POP SWAP3 SWAP2 POP POP JUMP JUMPDEST PUSH2 0x13C2 DUP2 PUSH2 0x1356 JUMP JUMPDEST DUP3 MSTORE POP POP JUMP JUMPDEST PUSH1 0x0 DUP2 MLOAD SWAP1 POP SWAP2 SWAP1 POP JUMP JUMPDEST PUSH1 0x0 DUP3 DUP3 MSTORE PUSH1 0x20 DUP3 ADD SWAP1 POP SWAP3 SWAP2 POP POP JUMP JUMPDEST PUSH1 0x0 JUMPDEST DUP4 DUP2 LT ISZERO PUSH2 0x1402 JUMPI DUP1 DUP3 ADD MLOAD DUP2 DUP5 ADD MSTORE PUSH1 0x20 DUP2 ADD SWAP1 POP PUSH2 0x13E7 JUMP JUMPDEST PUSH1 0x0 DUP5 DUP5 ADD MSTORE POP POP POP POP JUMP JUMPDEST PUSH1 0x0 PUSH1 0x1F NOT PUSH1 0x1F DUP4 ADD AND SWAP1 POP SWAP2 SWAP1 POP JUMP JUMPDEST PUSH1 0x0 PUSH2 0x142A DUP3 PUSH2 0x13C8 JUMP JUMPDEST PUSH2 0x1434 DUP2 DUP6 PUSH2 0x13D3 JUMP JUMPDEST SWAP4 POP PUSH2 0x1444 DUP2 DUP6 PUSH1 0x20 DUP7 ADD PUSH2 0x13E4 JUMP JUMPDEST PUSH2 0x144D DUP2 PUSH2 0x140E JUMP JUMPDEST DUP5 ADD SWAP2 POP POP SWAP3 SWAP2 POP POP JUMP JUMPDEST PUSH1 0x0 DUP2 MLOAD SWAP1 POP SWAP2 SWAP1 POP JUMP JUMPDEST PUSH1 0x0 DUP3 DUP3 MSTORE PUSH1 0x20 DUP3 ADD SWAP1 POP SWAP3 SWAP2 POP POP JUMP JUMPDEST PUSH1 0x0 DUP2 SWAP1 POP PUSH1 0x20 DUP3 ADD SWAP1 POP SWAP2 SWAP1 POP JUMP JUMPDEST PUSH1 0x0 DUP3 DUP3 MSTORE PUSH1 0x20 DUP3 ADD SWAP1 POP SWAP3 SWAP2 POP POP JUMP JUMPDEST PUSH1 0x0 PUSH2 0x14A0 DUP3 PUSH2 0x13C8 JUMP JUMPDEST PUSH2 0x14AA DUP2 DUP6 PUSH2 0x1484 JUMP JUMPDEST SWAP4 POP PUSH2 0x14BA DUP2 DUP6 PUSH1 0x20 DUP7 ADD PUSH2 0x13E4 JUMP JUMPDEST PUSH2 0x14C3 DUP2 PUSH2 0x140E JUMP JUMPDEST DUP5 ADD SWAP2 POP POP SWAP3 SWAP2 POP POP JUMP JUMPDEST PUSH1 0x0 DUP2 MLOAD SWAP1 POP SWAP2 SWAP1 POP JUMP JUMPDEST PUSH1 0x0 DUP3 DUP3 MSTORE PUSH1 0x20 DUP3 ADD SWAP1 POP SWAP3 SWAP2 POP POP JUMP JUMPDEST PUSH1 0x0 DUP2 SWAP1 POP PUSH1 0x20 DUP3 ADD SWAP1 POP SWAP2 SWAP1 POP JUMP JUMPDEST PUSH1 0x0 PUSH20 0xFFFFFFFFFFFFFFFFFFFFFFFFFFFFFFFFFFFFFFFF DUP3 AND SWAP1 POP SWAP2 SWAP1 POP JUMP JUMPDEST PUSH1 0x0 PUSH2 0x1525 DUP3 PUSH2 0x14FA JUMP JUMPDEST SWAP1 POP SWAP2 SWAP1 POP JUMP JUMPDEST PUSH2 0x1535 DUP2 PUSH2 0x151A JUMP JUMPDEST DUP3 MSTORE POP POP JUMP JUMPDEST PUSH1 0x0 PUSH2 0x1547 DUP4 DUP4 PUSH2 0x152C JUMP JUMPDEST PUSH1 0x20 DUP4 ADD SWAP1 POP SWAP3 SWAP2 POP POP JUMP JUMPDEST PUSH1 0x0 PUSH1 0x20 DUP3 ADD SWAP1 POP SWAP2 SWAP1 POP JUMP JUMPDEST PUSH1 0x0 PUSH2 0x156B DUP3 PUSH2 0x14CE JUMP JUMPDEST PUSH2 0x1575 DUP2 DUP6 PUSH2 0x14D9 JUMP JUMPDEST SWAP4 POP PUSH2 0x1580 DUP4 PUSH2 0x14EA JUMP JUMPDEST DUP1 PUSH1 0x0 JUMPDEST DUP4 DUP2 LT ISZERO PUSH2 0x15B1 JUMPI DUP2 MLOAD PUSH2 0x1598 DUP9 DUP3 PUSH2 0x153B JUMP JUMPDEST SWAP8 POP PUSH2 0x15A3 DUP4 PUSH2 0x1553 JUMP JUMPDEST SWAP3 POP POP PUSH1 0x1 DUP2 ADD SWAP1 POP PUSH2 0x1584 JUMP JUMPDEST POP DUP6 SWAP4 POP POP POP POP SWAP3 SWAP2 POP POP JUMP JUMPDEST PUSH1 0x0 PUSH1 0x40 DUP4 ADD PUSH1 0x0 DUP4 ADD MLOAD DUP5 DUP3 SUB PUSH1 0x0 DUP7 ADD MSTORE PUSH2 0x15DB DUP3 DUP3 PUSH2 0x1495 JUMP JUMPDEST SWAP2 POP POP PUSH1 0x20 DUP4 ADD MLOAD DUP5 DUP3 SUB PUSH1 0x20 DUP7 ADD MSTORE PUSH2 0x15F5 DUP3 DUP3 PUSH2 0x1560 JUMP JUMPDEST SWAP2 POP POP DUP1 SWAP2 POP POP SWAP3 SWAP2 POP POP JUMP JUMPDEST PUSH1 0x0 PUSH2 0x160E DUP4 DUP4 PUSH2 0x15BE JUMP JUMPDEST SWAP1 POP SWAP3 SWAP2 POP POP JUMP JUMPDEST PUSH1 0x0 PUSH1 0x20 DUP3 ADD SWAP1 POP SWAP2 SWAP1 POP JUMP JUMPDEST PUSH1 0x0 PUSH2 0x162E DUP3 PUSH2 0x1458 JUMP JUMPDEST PUSH2 0x1638 DUP2 DUP6 PUSH2 0x1463 JUMP JUMPDEST SWAP4 POP DUP4 PUSH1 0x20 DUP3 MUL DUP6 ADD PUSH2 0x164A DUP6 PUSH2 0x1474 JUMP JUMPDEST DUP1 PUSH1 0x0 JUMPDEST DUP6 DUP2 LT ISZERO PUSH2 0x1686 JUMPI DUP5 DUP5 SUB DUP10 MSTORE DUP2 MLOAD PUSH2 0x1667 DUP6 DUP3 PUSH2 0x1602 JUMP JUMPDEST SWAP5 POP PUSH2 0x1672 DUP4 PUSH2 0x1616 JUMP JUMPDEST SWAP3 POP PUSH1 0x20 DUP11 ADD SWAP10 POP POP PUSH1 0x1 DUP2 ADD SWAP1 POP PUSH2 0x164E JUMP JUMPDEST POP DUP3 SWAP8 POP DUP8 SWAP6 POP POP POP POP POP POP SWAP3 SWAP2 POP POP JUMP JUMPDEST PUSH1 0x0 DUP3 DUP3 MSTORE PUSH1 0x20 DUP3 ADD SWAP1 POP SWAP3 SWAP2 POP POP JUMP JUMPDEST PUSH1 0x0 PUSH2 0x16B4 DUP3 PUSH2 0x14CE JUMP JUMPDEST PUSH2 0x16BE DUP2 DUP6 PUSH2 0x1698 JUMP JUMPDEST SWAP4 POP PUSH2 0x16C9 DUP4 PUSH2 0x14EA JUMP JUMPDEST DUP1 PUSH1 0x0 JUMPDEST DUP4 DUP2 LT ISZERO PUSH2 0x16FA JUMPI DUP2 MLOAD PUSH2 0x16E1 DUP9 DUP3 PUSH2 0x153B JUMP JUMPDEST SWAP8 POP PUSH2 0x16EC DUP4 PUSH2 0x1553 JUMP JUMPDEST SWAP3 POP POP PUSH1 0x1 DUP2 ADD SWAP1 POP PUSH2 0x16CD JUMP JUMPDEST POP DUP6 SWAP4 POP POP POP POP SWAP3 SWAP2 POP POP JUMP JUMPDEST PUSH1 0x0 DUP2 MLOAD SWAP1 POP SWAP2 SWAP1 POP JUMP JUMPDEST PUSH1 0x0 DUP3 DUP3 MSTORE PUSH1 0x20 DUP3 ADD SWAP1 POP SWAP3 SWAP2 POP POP JUMP JUMPDEST PUSH1 0x0 DUP2 SWAP1 POP PUSH1 0x20 DUP3 ADD SWAP1 POP SWAP2 SWAP1 POP JUMP JUMPDEST PUSH1 0x0 PUSH1 0x40 DUP4 ADD PUSH1 0x0 DUP4 ADD MLOAD PUSH2 0x174B PUSH1 0x0 DUP7 ADD DUP3 PUSH2 0x152C JUMP JUMPDEST POP PUSH1 0x20 DUP4 ADD MLOAD DUP5 DUP3 SUB PUSH1 0x20 DUP7 ADD MSTORE PUSH2 0x1763 DUP3 DUP3 PUSH2 0x1495 JUMP JUMPDEST SWAP2 POP POP DUP1 SWAP2 POP POP SWAP3 SWAP2 POP POP JUMP JUMPDEST PUSH1 0x0 PUSH2 0x177C DUP4 DUP4 PUSH2 0x1733 JUMP JUMPDEST SWAP1 POP SWAP3 SWAP2 POP POP JUMP JUMPDEST PUSH1 0x0 PUSH1 0x20 DUP3 ADD SWAP1 POP SWAP2 SWAP1 POP JUMP JUMPDEST PUSH1 0x0 PUSH2 0x179C DUP3 PUSH2 0x1707 JUMP JUMPDEST PUSH2 0x17A6 DUP2 DUP6 PUSH2 0x1712 JUMP JUMPDEST SWAP4 POP DUP4 PUSH1 0x20 DUP3 MUL DUP6 ADD PUSH2 0x17B8 DUP6 PUSH2 0x1723 JUMP JUMPDEST DUP1 PUSH1 0x0 JUMPDEST DUP6 DUP2 LT ISZERO PUSH2 0x17F4 JUMPI DUP5 DUP5 SUB DUP10 MSTORE DUP2 MLOAD PUSH2 0x17D5 DUP6 DUP3 PUSH2 0x1770 JUMP JUMPDEST SWAP5 POP PUSH2 0x17E0 DUP4 PUSH2 0x1784 JUMP JUMPDEST SWAP3 POP PUSH1 0x20 DUP11 ADD SWAP10 POP POP PUSH1 0x1 DUP2 ADD SWAP1 POP PUSH2 0x17BC JUMP JUMPDEST POP DUP3 SWAP8 POP DUP8 SWAP6 POP POP POP POP POP POP SWAP3 SWAP2 POP POP JUMP JUMPDEST PUSH1 0x0 PUSH2 0x100 DUP3 ADD SWAP1 POP PUSH2 0x181C PUSH1 0x0 DUP4 ADD DUP12 PUSH2 0x13B9 JUMP JUMPDEST DUP2 DUP2 SUB PUSH1 0x20 DUP4 ADD MSTORE PUSH2 0x182E DUP2 DUP11 PUSH2 0x141F JUMP JUMPDEST SWAP1 POP DUP2 DUP2 SUB PUSH1 0x40 DUP4 ADD MSTORE PUSH2 0x1842 DUP2 DUP10 PUSH2 0x141F JUMP JUMPDEST SWAP1 POP DUP2 DUP2 SUB PUSH1 0x60 DUP4 ADD MSTORE PUSH2 0x1856 DUP2 DUP9 PUSH2 0x141F JUMP JUMPDEST SWAP1 POP DUP2 DUP2 SUB PUSH1 0x80 DUP4 ADD MSTORE PUSH2 0x186A DUP2 DUP8 PUSH2 0x1623 JUMP JUMPDEST SWAP1 POP DUP2 DUP2 SUB PUSH1 0xA0 DUP4 ADD MSTORE PUSH2 0x187E DUP2 DUP7 PUSH2 0x16A9 JUMP JUMPDEST SWAP1 POP DUP2 DUP2 SUB PUSH1 0xC0 DUP4 ADD MSTORE PUSH2 0x1892 DUP2 DUP6 PUSH2 0x16A9 JUMP JUMPDEST SWAP1 POP DUP2 DUP2 SUB PUSH1 0xE0 DUP4 ADD MSTORE PUSH2 0x18A6 DUP2 DUP5 PUSH2 0x1791 JUMP JUMPDEST SWAP1 POP SWAP10 SWAP9 POP POP POP POP POP POP POP POP POP JUMP JUMPDEST PUSH2 0x18BE DUP2 PUSH2 0x151A JUMP JUMPDEST DUP3 MSTORE POP POP JUMP JUMPDEST PUSH1 0x0 PUSH1 0x20 DUP3 ADD SWAP1 POP PUSH2 0x18D9 PUSH1 0x0 DUP4 ADD DUP5 PUSH2 0x18B5 JUMP JUMPDEST SWAP3 SWAP2 POP POP JUMP JUMPDEST PUSH1 0x0 PUSH1 0x20 DUP3 ADD SWAP1 POP DUP2 DUP2 SUB PUSH1 0x0 DUP4 ADD MSTORE PUSH2 0x18F9 DUP2 DUP5 PUSH2 0x1623 JUMP JUMPDEST SWAP1 POP SWAP3 SWAP2 POP POP JUMP JUMPDEST PUSH1 0x0 PUSH1 0x20 DUP3 ADD SWAP1 POP DUP2 DUP2 SUB PUSH1 0x0 DUP4 ADD MSTORE PUSH2 0x191B DUP2 DUP5 PUSH2 0x16A9 JUMP JUMPDEST SWAP1 POP SWAP3 SWAP2 POP POP JUMP JUMPDEST PUSH1 0x0 PUSH1 0x20 DUP3 ADD SWAP1 POP DUP2 DUP2 SUB PUSH1 0x0 DUP4 ADD MSTORE PUSH2 0x193D DUP2 DUP5 PUSH2 0x141F JUMP JUMPDEST SWAP1 POP SWAP3 SWAP2 POP POP JUMP JUMPDEST PUSH1 0x0 DUP1 REVERT JUMPDEST PUSH1 0x0 DUP1 REVERT JUMPDEST PUSH32 0x4E487B7100000000000000000000000000000000000000000000000000000000 PUSH1 0x0 MSTORE PUSH1 0x41 PUSH1 0x4 MSTORE PUSH1 0x24 PUSH1 0x0 REVERT JUMPDEST PUSH2 0x1987 DUP3 PUSH2 0x140E JUMP JUMPDEST DUP2 ADD DUP2 DUP2 LT PUSH8 0xFFFFFFFFFFFFFFFF DUP3 GT OR ISZERO PUSH2 0x19A6 JUMPI PUSH2 0x19A5 PUSH2 0x194F JUMP JUMPDEST JUMPDEST DUP1 PUSH1 0x40 MSTORE POP POP POP JUMP JUMPDEST PUSH1 0x0 PUSH2 0x19B9 PUSH2 0x1342 JUMP JUMPDEST SWAP1 POP PUSH2 0x19C5 DUP3 DUP3 PUSH2 0x197E JUMP JUMPDEST SWAP2 SWAP1 POP JUMP JUMPDEST PUSH1 0x0 PUSH8 0xFFFFFFFFFFFFFFFF DUP3 GT ISZERO PUSH2 0x19E5 JUMPI PUSH2 0x19E4 PUSH2 0x194F JUMP JUMPDEST JUMPDEST PUSH2 0x19EE DUP3 PUSH2 0x140E JUMP JUMPDEST SWAP1 POP PUSH1 0x20 DUP2 ADD SWAP1 POP SWAP2 SWAP1 POP JUMP JUMPDEST DUP3 DUP2 DUP4 CALLDATACOPY PUSH1 0x0 DUP4 DUP4 ADD MSTORE POP POP POP JUMP JUMPDEST PUSH1 0x0 PUSH2 0x1A1D PUSH2 0x1A18 DUP5 PUSH2 0x19CA JUMP JUMPDEST PUSH2 0x19AF JUMP JUMPDEST SWAP1 POP DUP3 DUP2 MSTORE PUSH1 0x20 DUP2 ADD DUP5 DUP5 DUP5 ADD GT ISZERO PUSH2 0x1A39 JUMPI PUSH2 0x1A38 PUSH2 0x194A JUMP JUMPDEST JUMPDEST PUSH2 0x1A44 DUP5 DUP3 DUP6 PUSH2 0x19FB JUMP JUMPDEST POP SWAP4 SWAP3 POP POP POP JUMP JUMPDEST PUSH1 0x0 DUP3 PUSH1 0x1F DUP4 ADD SLT PUSH2 0x1A61 JUMPI PUSH2 0x1A60 PUSH2 0x1945 JUMP JUMPDEST JUMPDEST DUP2 CALLDATALOAD PUSH2 0x1A71 DUP5 DUP3 PUSH1 0x20 DUP7 ADD PUSH2 0x1A0A JUMP JUMPDEST SWAP2 POP POP SWAP3 SWAP2 POP POP JUMP JUMPDEST PUSH1 0x0 PUSH1 0x20 DUP3 DUP5 SUB SLT ISZERO PUSH2 0x1A90 JUMPI PUSH2 0x1A8F PUSH2 0x134C JUMP JUMPDEST JUMPDEST PUSH1 0x0 DUP3 ADD CALLDATALOAD PUSH8 0xFFFFFFFFFFFFFFFF DUP2 GT ISZERO PUSH2 0x1AAE JUMPI PUSH2 0x1AAD PUSH2 0x1351 JUMP JUMPDEST JUMPDEST PUSH2 0x1ABA DUP5 DUP3 DUP6 ADD PUSH2 0x1A4C JUMP JUMPDEST SWAP2 POP POP SWAP3 SWAP2 POP POP JUMP JUMPDEST PUSH1 0x0 PUSH1 0x40 DUP3 ADD SWAP1 POP PUSH2 0x1AD8 PUSH1 0x0 DUP4 ADD DUP6 PUSH2 0x18B5 JUMP JUMPDEST DUP2 DUP2 SUB PUSH1 0x20 DUP4 ADD MSTORE PUSH2 0x1AEA DUP2 DUP5 PUSH2 0x141F JUMP JUMPDEST SWAP1 POP SWAP4 SWAP3 POP POP POP JUMP JUMPDEST PUSH1 0x0 PUSH1 0x20 DUP3 ADD SWAP1 POP DUP2 DUP2 SUB PUSH1 0x0 DUP4 ADD MSTORE PUSH2 0x1B0D DUP2 DUP5 PUSH2 0x1791 JUMP JUMPDEST SWAP1 POP SWAP3 SWAP2 POP POP JUMP JUMPDEST PUSH1 0x0 PUSH1 0x20 DUP3 ADD SWAP1 POP PUSH2 0x1B2A PUSH1 0x0 DUP4 ADD DUP5 PUSH2 0x13B9 JUMP JUMPDEST SWAP3 SWAP2 POP POP JUMP JUMPDEST PUSH32 0x4E487B7100000000000000000000000000000000000000000000000000000000 PUSH1 0x0 MSTORE PUSH1 0x32 PUSH1 0x4 MSTORE PUSH1 0x24 PUSH1 0x0 REVERT JUMPDEST PUSH32 0x4E487B7100000000000000000000000000000000000000000000000000000000 PUSH1 0x0 MSTORE PUSH1 0x22 PUSH1 0x4 MSTORE PUSH1 0x24 PUSH1 0x0 REVERT JUMPDEST PUSH1 0x0 PUSH1 0x2 DUP3 DIV SWAP1 POP PUSH1 0x1 DUP3 AND DUP1 PUSH2 0x1BA6 JUMPI PUSH1 0x7F DUP3 AND SWAP2 POP JUMPDEST PUSH1 0x20 DUP3 LT DUP2 SUB PUSH2 0x1BB9 JUMPI PUSH2 0x1BB8 PUSH2 0x1B5F JUMP JUMPDEST JUMPDEST POP SWAP2 SWAP1 POP JUMP JUMPDEST PUSH1 0x0 DUP2 SWAP1 POP DUP2 PUSH1 0x0 MSTORE PUSH1 0x20 PUSH1 0x0 KECCAK256 SWAP1 POP SWAP2 SWAP1 POP JUMP JUMPDEST PUSH1 0x0 PUSH1 0x20 PUSH1 0x1F DUP4 ADD DIV SWAP1 POP SWAP2 SWAP1 POP JUMP JUMPDEST PUSH1 0x0 DUP3 DUP3 SHL SWAP1 POP SWAP3 SWAP2 POP POP JUMP JUMPDEST PUSH1 0x0 PUSH1 0x8 DUP4 MUL PUSH2 0x1C21 PUSH32 0xFFFFFFFFFFFFFFFFFFFFFFFFFFFFFFFFFFFFFFFFFFFFFFFFFFFFFFFFFFFFFFFF DUP3 PUSH2 0x1BE4 JUMP JUMPDEST PUSH2 0x1C2B DUP7 DUP4 PUSH2 0x1BE4 JUMP JUMPDEST SWAP6 POP DUP1 NOT DUP5 AND SWAP4 POP DUP1 DUP7 AND DUP5 OR SWAP3 POP POP POP SWAP4 SWAP3 POP POP POP JUMP JUMPDEST PUSH1 0x0 DUP2 SWAP1 POP SWAP2 SWAP1 POP JUMP JUMPDEST PUSH1 0x0 PUSH2 0x1C68 PUSH2 0x1C63 PUSH2 0x1C5E DUP5 PUSH2 0x1356 JUMP JUMPDEST PUSH2 0x1C43 JUMP JUMPDEST PUSH2 0x1356 JUMP JUMPDEST SWAP1 POP SWAP2 SWAP1 POP JUMP JUMPDEST PUSH1 0x0 DUP2 SWAP1 POP SWAP2 SWAP1 POP JUMP JUMPDEST PUSH2 0x1C82 DUP4 PUSH2 0x1C4D JUMP JUMPDEST PUSH2 0x1C96 PUSH2 0x1C8E DUP3 PUSH2 0x1C6F JUMP JUMPDEST DUP5 DUP5 SLOAD PUSH2 0x1BF1 JUMP JUMPDEST DUP3 SSTORE POP POP POP POP JUMP JUMPDEST PUSH1 0x0 SWAP1 JUMP JUMPDEST PUSH2 0x1CAB PUSH2 0x1C9E JUMP JUMPDEST PUSH2 0x1CB6 DUP2 DUP5 DUP5 PUSH2 0x1C79 JUMP JUMPDEST POP POP POP JUMP JUMPDEST JUMPDEST DUP2 DUP2 LT ISZERO PUSH2 0x1CDA JUMPI PUSH2 0x1CCF PUSH1 0x0 DUP3 PUSH2 0x1CA3 JUMP JUMPDEST PUSH1 0x1 DUP2 ADD SWAP1 POP PUSH2 0x1CBC JUMP JUMPDEST POP POP JUMP JUMPDEST PUSH1 0x1F DUP3 GT ISZERO PUSH2 0x1D1F JUMPI PUSH2 0x1CF0 DUP2 PUSH2 0x1BBF JUMP JUMPDEST PUSH2 0x1CF9 DUP5 PUSH2 0x1BD4 JUMP JUMPDEST DUP2 ADD PUSH1 0x20 DUP6 LT ISZERO PUSH2 0x1D08 JUMPI DUP2 SWAP1 POP JUMPDEST PUSH2 0x1D1C PUSH2 0x1D14 DUP6 PUSH2 0x1BD4 JUMP JUMPDEST DUP4 ADD DUP3 PUSH2 0x1CBB JUMP JUMPDEST POP POP JUMPDEST POP POP POP JUMP JUMPDEST PUSH1 0x0 DUP3 DUP3 SHR SWAP1 POP SWAP3 SWAP2 POP POP JUMP JUMPDEST PUSH1 0x0 PUSH2 0x1D42 PUSH1 0x0 NOT DUP5 PUSH1 0x8 MUL PUSH2 0x1D24 JUMP JUMPDEST NOT DUP1 DUP4 AND SWAP2 POP POP SWAP3 SWAP2 POP POP JUMP JUMPDEST PUSH1 0x0 PUSH2 0x1D5B DUP4 DUP4 PUSH2 0x1D31 JUMP JUMPDEST SWAP2 POP DUP3 PUSH1 0x2 MUL DUP3 OR SWAP1 POP SWAP3 SWAP2 POP POP JUMP JUMPDEST PUSH2 0x1D74 DUP3 PUSH2 0x13C8 JUMP JUMPDEST PUSH8 0xFFFFFFFFFFFFFFFF DUP2 GT ISZERO PUSH2 0x1D8D JUMPI PUSH2 0x1D8C PUSH2 0x194F JUMP JUMPDEST JUMPDEST PUSH2 0x1D97 DUP3 SLOAD PUSH2 0x1B8E JUMP JUMPDEST PUSH2 0x1DA2 DUP3 DUP3 DUP6 PUSH2 0x1CDE JUMP JUMPDEST PUSH1 0x0 PUSH1 0x20 SWAP1 POP PUSH1 0x1F DUP4 GT PUSH1 0x1 DUP2 EQ PUSH2 0x1DD5 JUMPI PUSH1 0x0 DUP5 ISZERO PUSH2 0x1DC3 JUMPI DUP3 DUP8 ADD MLOAD SWAP1 POP JUMPDEST PUSH2 0x1DCD DUP6 DUP3 PUSH2 0x1D4F JUMP JUMPDEST DUP7 SSTORE POP PUSH2 0x1E35 JUMP JUMPDEST PUSH1 0x1F NOT DUP5 AND PUSH2 0x1DE3 DUP7 PUSH2 0x1BBF JUMP JUMPDEST PUSH1 0x0 JUMPDEST DUP3 DUP2 LT ISZERO PUSH2 0x1E0B JUMPI DUP5 DUP10 ADD MLOAD DUP3 SSTORE PUSH1 0x1 DUP3 ADD SWAP2 POP PUSH1 0x20 DUP6 ADD SWAP5 POP PUSH1 0x20 DUP2 ADD SWAP1 POP PUSH2 0x1DE6 JUMP JUMPDEST DUP7 DUP4 LT ISZERO PUSH2 0x1E28 JUMPI DUP5 DUP10 ADD MLOAD PUSH2 0x1E24 PUSH1 0x1F DUP10 AND DUP3 PUSH2 0x1D31 JUMP JUMPDEST DUP4 SSTORE POP JUMPDEST PUSH1 0x1 PUSH1 0x2 DUP9 MUL ADD DUP9 SSTORE POP POP POP JUMPDEST POP POP POP POP POP POP JUMP JUMPDEST PUSH32 0x4E487B7100000000000000000000000000000000000000000000000000000000 PUSH1 0x0 MSTORE PUSH1 0x11 PUSH1 0x4 MSTORE PUSH1 0x24 PUSH1 0x0 REVERT JUMPDEST PUSH1 0x0 PUSH2 0x1E77 DUP3 PUSH2 0x1356 JUMP JUMPDEST SWAP2 POP PUSH2 0x1E82 DUP4 PUSH2 0x1356 JUMP JUMPDEST SWAP3 POP DUP3 DUP3 ADD SWAP1 POP DUP1 DUP3 GT ISZERO PUSH2 0x1E9A JUMPI PUSH2 0x1E99 PUSH2 0x1E3D JUMP JUMPDEST JUMPDEST SWAP3 SWAP2 POP POP JUMP JUMPDEST PUSH1 0x0 PUSH2 0x1EAB DUP3 PUSH2 0x1356 JUMP JUMPDEST SWAP2 POP PUSH32 0xFFFFFFFFFFFFFFFFFFFFFFFFFFFFFFFFFFFFFFFFFFFFFFFFFFFFFFFFFFFFFFFF DUP3 SUB PUSH2 0x1EDD JUMPI PUSH2 0x1EDC PUSH2 0x1E3D JUMP JUMPDEST JUMPDEST PUSH1 0x1 DUP3 ADD SWAP1 POP SWAP2 SWAP1 POP JUMP INVALID LOG2 PUSH5 0x6970667358 0x22 SLT KECCAK256 LT MULMOD 0x25 0xAE PUSH11 0xA7B1542E2C22F9E08715F7 CREATE DUP16 SWAP14 0xD3 0xF BALANCE PUSH21 0xE29A79CF2E1EF628A964736F6C6343000812003300 "
				},
				"gasEstimates": {
					"creation": {
						"codeDepositCost": "1593200",
						"executionCost": "infinite",
						"totalCost": "infinite"
					},
					"external": {
						"addComment(string)": "infinite",
						"comments(uint256)": "infinite",
						"content()": "infinite",
						"dislike()": "48810",
						"dislikes(uint256)": "5024",
						"getComments()": "infinite",
						"getDislikes()": "infinite",
						"getLikes()": "infinite",
						"getPoll()": "infinite",
						"getPollChoices()": "infinite",
						"getVoters(uint256)": "infinite",
						"id()": "2473",
						"like()": "48744",
						"likes(uint256)": "5023",
						"owner()": "2559",
						"pollChoices(uint256)": "infinite",
						"postType()": "infinite",
						"timestamp()": "infinite",
						"vote(uint256)": "51205"
					}
				},
				"methodIdentifiers": {
					"addComment(string)": "843b4386",
					"comments(uint256)": "8ebb4c15",
					"content()": "8a4d5a67",
					"dislike()": "df5a11e1",
					"dislikes(uint256)": "4db27e4e",
					"getComments()": "91f3410c",
					"getDislikes()": "f6821a0c",
					"getLikes()": "62a1c583",
					"getPoll()": "03c32278",
					"getPollChoices()": "507f73ab",
					"getVoters(uint256)": "86b646f2",
					"id()": "af640d0f",
					"like()": "a523b88a",
					"likes(uint256)": "7e9dffe6",
					"owner()": "8da5cb5b",
					"pollChoices(uint256)": "6e0d3da7",
					"postType()": "99f71a7d",
					"timestamp()": "b80777ea",
					"vote(uint256)": "0121b93f"
				}
			},
			"storageLayout": {
				"storage": [
					{
						"astId": 94,
						"contract": "contracts/User/Poll.sol:Poll",
						"label": "postIdCounter",
						"offset": 0,
						"slot": "0",
						"type": "t_struct(Counter)5_storage"
					},
					{
						"astId": 96,
						"contract": "contracts/User/Poll.sol:Poll",
						"label": "id",
						"offset": 0,
						"slot": "1",
						"type": "t_uint256"
					},
					{
						"astId": 98,
						"contract": "contracts/User/Poll.sol:Poll",
						"label": "owner",
						"offset": 0,
						"slot": "2",
						"type": "t_address"
					},
					{
						"astId": 100,
						"contract": "contracts/User/Poll.sol:Poll",
						"label": "timestamp",
						"offset": 0,
						"slot": "3",
						"type": "t_string_storage"
					},
					{
						"astId": 102,
						"contract": "contracts/User/Poll.sol:Poll",
						"label": "content",
						"offset": 0,
						"slot": "4",
						"type": "t_string_storage"
					},
					{
						"astId": 105,
						"contract": "contracts/User/Poll.sol:Poll",
						"label": "postType",
						"offset": 0,
						"slot": "5",
						"type": "t_string_storage"
					},
					{
						"astId": 109,
						"contract": "contracts/User/Poll.sol:Poll",
						"label": "pollChoices",
						"offset": 0,
						"slot": "6",
						"type": "t_array(t_struct(PollChoice)82_storage)dyn_storage"
					},
					{
						"astId": 112,
						"contract": "contracts/User/Poll.sol:Poll",
						"label": "likes",
						"offset": 0,
						"slot": "7",
						"type": "t_array(t_address)dyn_storage"
					},
					{
						"astId": 115,
						"contract": "contracts/User/Poll.sol:Poll",
						"label": "dislikes",
						"offset": 0,
						"slot": "8",
						"type": "t_array(t_address)dyn_storage"
					},
					{
						"astId": 118,
						"contract": "contracts/User/Poll.sol:Poll",
						"label": "commentIdCounter",
						"offset": 0,
						"slot": "9",
						"type": "t_struct(Counter)5_storage"
					},
					{
						"astId": 123,
						"contract": "contracts/User/Poll.sol:Poll",
						"label": "comments",
						"offset": 0,
						"slot": "10",
						"type": "t_mapping(t_uint256,t_struct(Comment)87_storage)"
					}
				],
				"types": {
					"t_address": {
						"encoding": "inplace",
						"label": "address",
						"numberOfBytes": "20"
					},
					"t_array(t_address)dyn_storage": {
						"base": "t_address",
						"encoding": "dynamic_array",
						"label": "address[]",
						"numberOfBytes": "32"
					},
					"t_array(t_struct(PollChoice)82_storage)dyn_storage": {
						"base": "t_struct(PollChoice)82_storage",
						"encoding": "dynamic_array",
						"label": "struct PollChoice[]",
						"numberOfBytes": "32"
					},
					"t_mapping(t_uint256,t_struct(Comment)87_storage)": {
						"encoding": "mapping",
						"key": "t_uint256",
						"label": "mapping(uint256 => struct Comment)",
						"numberOfBytes": "32",
						"value": "t_struct(Comment)87_storage"
					},
					"t_string_storage": {
						"encoding": "bytes",
						"label": "string",
						"numberOfBytes": "32"
					},
					"t_struct(Comment)87_storage": {
						"encoding": "inplace",
						"label": "struct Comment",
						"members": [
							{
								"astId": 84,
								"contract": "contracts/User/Poll.sol:Poll",
								"label": "user",
								"offset": 0,
								"slot": "0",
								"type": "t_address"
							},
							{
								"astId": 86,
								"contract": "contracts/User/Poll.sol:Poll",
								"label": "comment",
								"offset": 0,
								"slot": "1",
								"type": "t_string_storage"
							}
						],
						"numberOfBytes": "64"
					},
					"t_struct(Counter)5_storage": {
						"encoding": "inplace",
						"label": "struct Counters.Counter",
						"members": [
							{
								"astId": 4,
								"contract": "contracts/User/Poll.sol:Poll",
								"label": "_value",
								"offset": 0,
								"slot": "0",
								"type": "t_uint256"
							}
						],
						"numberOfBytes": "32"
					},
					"t_struct(PollChoice)82_storage": {
						"encoding": "inplace",
						"label": "struct PollChoice",
						"members": [
							{
								"astId": 78,
								"contract": "contracts/User/Poll.sol:Poll",
								"label": "choice",
								"offset": 0,
								"slot": "0",
								"type": "t_string_storage"
							},
							{
								"astId": 81,
								"contract": "contracts/User/Poll.sol:Poll",
								"label": "voters",
								"offset": 0,
								"slot": "1",
								"type": "t_array(t_address)dyn_storage"
							}
						],
						"numberOfBytes": "64"
					},
					"t_uint256": {
						"encoding": "inplace",
						"label": "uint256",
						"numberOfBytes": "32"
					}
				}
			},
			"userdoc": {
				"kind": "user",
				"methods": {},
				"version": 1
			}
		}
	}
}